:020000040800F2
:10000000000002209D6B0008ED6B0008ED6B0008FE
:10001000ED6B0008ED6B0008ED6B000800000000C0
:10002000000000000000000000000000ED6B000870
:10003000ED6B000800000000ED6B0008794000083F
:10004000ED6B0008ED6B0008ED6B0008ED6B000830
:10005000ED6B0008ED6B0008ED6B0008ED6B000820
:10006000ED6B0008ED6B0008ED6B0008ED6B000810
:10007000ED6B0008ED6B0008ED6B0008ED6B000800
:10008000ED6B0008ED6B0008ED6B0008ED6B0008F0
:10009000ED6B0008ED6B0008ED6B0008ED6B0008E0
:1000A00025400008ED6B0008ED6B0008ED6B0008C3
:1000B000ED6B00082D390008ED6B0008ED6B0008B2
:1000C000ED6B0008ED6B0008ED6B0008ED6B0008B0
:1000D000ED6B0008ED6B0008ED6B0008ED6B0008A0
:1000E000653F0008ED6B0008ED6B0008ED6B000844
:1000F000ED6B0008ED6B0008ED6B0008ED6B000880
:10010000ED6B0008ED6B0008ED6B0008ED6B00086F
:1001100041400008ED6B0008ED6B0008ED6B000836
:10012000ED6B0008ED6B0008ED6B0008ED6B00084F
:10013000ED6B00080000000000000000ED6B0008FF
:10014000ED6B0008ED6B0008ED6B0008ED6B00082F
:10015000ED6B0008ED6B0008ED6B0008ED6B00081F
:10016000ED6B0008ED6B0008ED6B0008ED6B00080F
:10017000ED6B0008ED6B0008ED6B0008000000005F
:1001800000000000ED6B000800000000000000000F
:10019000ED6B00080000000000000000ED6B00089F
:1001A000000000000000000000000000ED6B0008EF
:1001B000ED6B0008ED6B0008ED6B0008ED6B0008BF
:0401C000ED6B0008DB
:1001D00010B5054C237833B9044B13B10448AFF381
:1001E00000800123237010BDC80200200000000021
:1001F0003898020808B5034B1BB103490348AFF315
:10020000008008BD00000000CC02002038980208E1
:1002100001F0FF01102A2BDB10F0070F08D010F8B7
:10022000013B013A8B422DD010F0070F42B3F6D1BB
:10023000F0B441EA012141EA014122F007047FF0D4
:1002400000070023F0E80256083C85EA010586EA2B
:10025000010685FA47F5A3FA87F586FA47F6A5FA67
:1002600087F68EB9EED1F0BC01F0FF0102F0070273
:1002700032B110F8013B013A83EA010313B1F8D11E
:100280000020704701387047002D06BF35460338FF
:10029000073815F0010F07D1013015F4807F02BF38
:1002A000013015F4C03F0130F0BC0138704700BF89
:1002B00010F8012B11F8013B012A28BF9A42F7D010
:1002C000D01A7047034613F8012B002AFBD1181AE5
:1002D0000138704781F0004102E000BF83F0004325
:1002E00030B54FEA41044FEA430594EA050F08BFD1
:1002F00090EA020F1FBF54EA000C55EA020C7FEA95
:10030000645C7FEA655C00F0E2804FEA5454D4EB11
:100310005555B8BF6D420CDD2C4480EA020281EADB
:10032000030382EA000083EA010180EA020281EA13
:100330000303362D88BF30BD11F0004F4FEA013165
:100340004FF4801C4CEA113102D0404261EB410174
:1003500013F0004F4FEA03334CEA133302D05242FA
:1003600063EB430394EA050F00F0A780A4F10104B6
:10037000D5F1200E0DDB02FA0EFC22FA05F28018F0
:1003800041F1000103FA0EF2801843FA05F35941D6
:100390000EE0A5F120050EF1200E012A03FA0EFC55
:1003A00028BF4CF0020C43FA05F3C01851EBE3717F
:1003B00001F0004507D54FF0000EDCF1000C7EEB9C
:1003C00000006EEB0101B1F5801F1BD3B1F5001FDA
:1003D0000CD349085FEA30004FEA3C0C04F10104F9
:1003E0004FEA445212F5800F80F09A80BCF1004F22
:1003F00008BF5FEA500C50F1000041EB045141EAA4
:10040000050130BD5FEA4C0C404141EB010111F4A4
:10041000801FA4F10104E9D191F0000F04BF01464F
:100420000020B1FA81F308BF2033A3F10B03B3F12D
:1004300020020CDA0C3208DD02F1140CC2F10C02BD
:1004400001FA0CF021FA02F10CE002F11402D8BF1B
:10045000C2F1200C01FA02F120FA0CFCDCBF41EAE7
:100460000C019040E41AA2BF01EB0451294330BDB6
:100470006FEA04041F3C1CDA0C340EDC04F1140493
:10048000C4F1200220FA04F001FA02F340EA03006A
:1004900021FA04F345EA030130BDC4F10C04C4F1B0
:1004A000200220FA02F001FA04F340EA0300294690
:1004B00030BD21FA04F0294630BD94F0000F83F4DA
:1004C000801306BF81F480110134013D4EE77FEABD
:1004D000645C18BF7FEA655C29D094EA050F08BF09
:1004E00090EA020F05D054EA000C04BF19461046EA
:1004F00030BD91EA030F1EBF0021002030BD5FEA2E
:10050000545C05D14000494128BF41F0004130BD55
:1005100014F580043CBF01F5801130BD01F00045A9
:1005200045F0FE4141F470014FF0000030BD7FEA1C
:10053000645C1ABF194610467FEA655C1CBF0B4617
:10054000024650EA013406BF52EA033591EA030F2E
:1005500041F4002130BD00BF90F0000F04BF002126
:10056000704730B54FF4806404F132044FF0000559
:100570004FF0000150E700BF90F0000F04BF0021D2
:10058000704730B54FF4806404F1320410F0004538
:1005900048BF40424FF000013EE700BF42004FEA33
:1005A000E2014FEA31014FEA02701FBF12F07F43B0
:1005B00093F07F4F81F06051704792F0000F14BFAD
:1005C00093F07F4F704730B54FF4607401F00045F1
:1005D00021F0004120E700BF50EA010208BF704748
:1005E00030B54FF000050AE050EA010208BF70473D
:1005F00030B511F0004502D5404261EB41014FF4A6
:10060000806404F132045FEA915C3FF4DCAE4FF0A9
:1006100003025FEADC0C18BF03325FEADC0C18BF90
:10062000033202EBDC02C2F1200300FA03FC20FAE1
:1006300002F001FA03FE40EA0E0021FA02F114442E
:10064000C1E600BF70B54FF0FF0C4CF4E06C1CEA43
:1006500011541DBF1CEA135594EA0C0F95EA0C0FB8
:1006600000F0DEF82C4481EA030621EA4C5123EA2B
:100670004C5350EA013518BF52EA033541F480115A
:1006800043F4801338D0A0FB02CE4FF00005E1FB0D
:1006900002E506F00042E0FB03E54FF00006E1FB57
:1006A00003569CF0000F18BF4EF0010EA4F1FF049A
:1006B000B6F5007F64F5407404D25FEA4E0E6D41DA
:1006C00046EB060642EAC62141EA55514FEAC520EB
:1006D00040EA5E504FEACE2EB4F1FD0C88BFBCF567
:1006E000E06F1ED8BEF1004F08BF5FEA500E50F118
:1006F000000041EB045170BD06F0004646EA0101DE
:1007000040EA020081EA0301B4EB5C04C2BFD4EB0F
:100710000C0541EA045170BD41F480114FF0000E08
:10072000013C00F3AB8014F1360FDEBF002001F076
:10073000004170BDC4F10004203C35DA0C341BDCF0
:1007400004F11404C4F1200500FA05F320FA04F0C2
:1007500001FA05F240EA020001F0004221F00041F6
:1007600010EBD37021FA04F642EB06015EEA430E69
:1007700008BF20EAD37070BDC4F10C04C4F1200599
:1007800000FA04F320FA05F001FA04F240EA02004C
:1007900001F0004110EBD37041F100015EEA430E1D
:1007A00008BF20EAD37070BDC4F1200500FA05F23D
:1007B0004EEA020E20FA04F301FA05F243EA0203BC
:1007C00021FA04F001F0004121FA04F220EA0200CB
:1007D00000EBD3705EEA430E08BF20EAD37070BD11
:1007E00094F0000F0FD101F00046400041EB0101F1
:1007F00011F4801F08BF013CF7D041EA060195F0D3
:10080000000F18BF704703F00046520043EB03038C
:1008100013F4801F08BF013DF7D043EA0603704779
:1008200094EA0C0F0CEA135518BF95EA0C0F0CD084
:1008300050EA410618BF52EA4306D1D181EA0301CA
:1008400001F000414FF0000070BD50EA410606BFC4
:100850001046194652EA430619D094EA0C0F02D109
:1008600050EA013613D195EA0C0F05D152EA03364E
:100870001CBF104619460AD181EA030101F000416C
:1008800041F0FE4141F470014FF0000070BD41F0B5
:10089000FE4141F4780170BD70B54FF0FF0C4CF48F
:1008A000E06C1CEA11541DBF1CEA135594EA0C0FAE
:1008B00095EA0C0F00F0A7F8A4EB050481EA030EFB
:1008C00052EA03354FEA013100F088804FEA0333E2
:1008D0004FF0805545EA131343EA12634FEA0222B0
:1008E00045EA111545EA10654FEA00260EF0004171
:1008F0009D4208BF964244F1FD0404F5407402D2C3
:100900005B084FEA3202B61A65EB03055B084FEA53
:1009100032024FF480104FF4002CB6EB020E75EB50
:10092000030E22BFB61A754640EA0C005B084FEA78
:100930003202B6EB020E75EB030E22BFB61A7546F5
:1009400040EA5C005B084FEA3202B6EB020E75EB40
:10095000030E22BFB61A754640EA9C005B084FEAB8
:100960003202B6EB020E75EB030E22BFB61A7546C5
:1009700040EADC0055EA060E18D04FEA051545EAB4
:1009800016754FEA06164FEAC30343EA52734FEA5D
:10099000C2025FEA1C1CC0D111F4801F0BD141EAD6
:1009A00000014FF000004FF0004CB6E711F4801F3B
:1009B00004BF01430020B4F1FD0C88BFBCF5E06F1B
:1009C0003FF6AFAEB5EB030C04BFB6EB020C5FEA2B
:1009D000500C50F1000041EB045170BD0EF0004E80
:1009E0004EEA113114EB5C04C2BFD4EB0C0541EAB2
:1009F000045170BD41F480114FF0000E013C90E6AF
:100A000045EA060E8DE60CEA135594EA0C0F08BF72
:100A100095EA0C0F3FF43BAF94EA0C0F0AD150EA71
:100A200001347FF434AF95EA0C0F7FF425AF104604
:100A300019462CE795EA0C0F06D152EA03353FF42C
:100A4000FDAE1046194622E750EA410618BF52EAA9
:100A500043067FF4C5AE50EA41047FF40DAF52EA7D
:100A600043057FF4EBAE12E74FF0FF3C06E000BF1A
:100A70004FF0010C02E000BF4FF0010C4DF804CD27
:100A80004FEA410C7FEA6C5C4FEA430C18BF7FEAE7
:100A90006C5C1BD001B050EA410C0CBF52EA430C15
:100AA00091EA030F02BF90EA020F0020704710F195
:100AB000000F91EA030F58BF994208BF90422CBF24
:100AC000D8176FEAE37040F0010070474FEA410C1D
:100AD0007FEA6C5C02D150EA013C07D14FEA430C3B
:100AE0007FEA6C5CD6D152EA033CD3D05DF8040BAC
:100AF000704700BF8446104662468C4619466346DE
:100B000000E000BF01B5FFF7B7FF002848BF10F1B4
:100B1000000F01BD4DF808EDFFF7F4FF0CBF0120F9
:100B200000205DF808FB00BF4DF808EDFFF7EAFF75
:100B300034BF012000205DF808FB00BF4DF808ED30
:100B4000FFF7E0FF94BF012000205DF808FB00BF25
:100B50004DF808EDFFF7CEFF94BF012000205DF8AF
:100B600008FB00BF4DF808EDFFF7C4FF34BF0120BC
:100B700000205DF808FB00BF4FEA410C7FEA6C5C87
:100B800002D150EA013C0AD14FEA430C7FEA6C5C87
:100B900002D152EA033C02D14FF0000070474FF0FF
:100BA000010070474FEA410212F5001215D211D52B
:100BB0006FF47873B3EB625212D94FEAC12343F05A
:100BC000004343EA505311F0004F23FA02F018BFDC
:100BD000404270474FF00000704750EA013005D1A5
:100BE00011F0004008BF6FF0004070474FF0000068
:100BF000704700BF4A0011D212F5001211D20DD574
:100C00006FF47873B3EB62520ED44FEAC12343F012
:100C1000004343EA505323FA02F070474FF00000BC
:100C2000704750EA013002D14FF0FF3070474FF06B
:100C3000000070474FEA4102B2F1E04324BFB3F530
:100C4000001CDCF1FE5C0DD901F0004C4FEAC00243
:100C50004CEA5070B2F1004F40EB830008BF20F027
:100C60000100704711F0804F21D113F13872BCBFE1
:100C700001F00040704741F480114FEA5252C2F136
:100C80001802C2F1200C10FA0CF320FA02F018BF7F
:100C900040F001004FEAC1234FEAD32303FA0CFCD2
:100CA00040EA0C0023FA02F34FEA4303CCE77FEA61
:100CB000625307D150EA01331EBF4FF0FE4040F4AB
:100CC0004000704701F0004040F0FE4040F400005A
:100CD000704700BF53B94AB9002908BF00281CBF9C
:100CE0004FF0FF314FF0FF3000F07AB9ADF1080C52
:100CF0006DE904CE00F006F8DDF804E0DDE902233A
:100D000004B070472DE9F0478C460D460446089E16
:100D1000002B51D18A4217466DD9B2FA82FEBEF13C
:100D2000000F0BD0CEF1200C01FA0EF520FA0CFCCE
:100D300002FA0EF74CEA050C00FA0EF44FEA174AD5
:100D4000250CBCFBFAF81FFA87F90AFB18CC45EA18
:100D50000C4508FB09F3AB420AD9ED1908F1FF3243
:100D600080F02381AB4240F22081A8F102083D448B
:100D7000ED1AA4B2B5FBFAF00AFB105544EA05449B
:100D800000FB09F9A14509D9E41900F1FF3380F00E
:100D90000A81A14540F2078102383C44A4EB0904D2
:100DA00040EA08400021002E61D024FA0EF400230E
:100DB00034607360BDE8F0878B4207D9002E54D0B1
:100DC000002186E821000846BDE8F087B3FA83F1E8
:100DD000002940F08E80AB4202D3824200F2FA80BA
:100DE000841A65EB03050120AC46002E3FD086E84F
:100DF0001010BDE8F08712B90127B7FBF2F7B7FA78
:100E000087FEBEF1000F34D1EB1B3A0C1FFA87FCB2
:100E10000121B3FBF2F8250C02FB183345EA034528
:100E20000CFB08F3AB4207D9ED1908F1FF3002D2F1
:100E3000AB4200F2D1808046ED1AA3B2B5FBF2F0CE
:100E400002FB105543EA05440CFB00FCA44507D9FE
:100E5000E41900F1FF3302D2A44500F2B88018462D
:100E6000A4EB0C0440EA08409DE731463046BDE85B
:100E7000F087CEF1200405FA0EF307FA0EF720FAF8
:100E800004F83A0C25FA04F448EA0308B4FBF2F13A
:100E90004FEA184502FB11441FFA87FC45EA044556
:100EA00001FB0CF3AB4200FA0EF409D9ED1901F184
:100EB000FF3080F08A80AB4240F2878002393D44A7
:100EC000EB1A1FFA88F5B3FBF2F002FB103345EA88
:100ED000034500FB0CF3AB4207D9ED1900F1FF38D5
:100EE0006FD2AB426DD902383D44EB1A40EA014162
:100EF0008FE7C1F1200722FA07F88B4005FA01F4C9
:100F000048EA030320FA07FE4FEA134CFD404EEA7D
:100F1000040EB5FBFCF94FEA1E440CFB19551FFAF1
:100F200083F844EA054509FB08F4AC4202FA01F2F1
:100F300000FA01FA08D9ED1809F1FF3043D2AC42AA
:100F400041D9A9F102091D442D1B1FFA8EFEB5FBE4
:100F5000FCF00CFB10554EEA054400FB08F8A045D8
:100F600007D9E41800F1FF3529D2A04527D9023866
:100F70001C4440EA0940A4EB0804A0FB02894C454C
:100F8000C6464D4615D312D056B1BAEB0E0364EBEC
:100F9000050404FA07F7CB401F43CC403760746068
:100FA0000021BDE8F0871846F8E69046E0E6C24525
:100FB000EAD2B8EB020E69EB03050138E4E72846F4
:100FC000D7E7404691E78146BEE7014678E7023819
:100FD0003C4445E7084608E7A8F102083D442BE7F2
:100FE000704700BF80B400AF074B1B69002B05DAC8
:100FF000054B064A5A60044B054A5A6000BFBD467D
:101000005DF8047B704700BF003C02402301674548
:10101000AB89EFCD80B400AF054A054B1B6943F0A7
:101020000043136100BFBD465DF8047B704700BFFD
:10103000003C024080B584B000AF78600B46FB7086
:101040000023FB600923FB72FB78002B02D10023F5
:10105000FB6010E0FB78012B03D14FF48073FB6041
:1010600009E0FB78022B03D14FF40073FB6002E030
:101070004FF44073FB6000F0BFF80346FB72FB7A4D
:10108000092B2FD11A4A1A4B1B6923F440731361A1
:101090001749174B1A69FB6813430B61144A144B29
:1010A0001B6923F0F80313611149114B1A697B681E
:1010B000134343F002030B610D4A0D4B1B6943F4CC
:1010C0008033136100F098F80346FB72084A084B1E
:1010D0001B6923F002031361054A054B1B6923F0CA
:1010E000F8031361FB7A18461037BD4680BD00BF78
:1010F000003C024080B584B000AF78600B46FB70C6
:101100000923FB7300F078F80346FB73FB7B092B84
:101110001CD1114A104B1B6923F4407313610E4A12
:101120000D4B1B6913610C4A0B4B1B6943F0010308
:1011300013617B68FA781A7000F05EF80346FB735F
:10114000054A054B1B6923F001031361FB7B18461D
:101150001037BD4680BD00BF003C024080B483B064
:1011600000AF7860044A7B68D36000BF0C37BD468F
:101170005DF8047B704700BF003C024080B483B040
:1011800000AF0923FB711B4BDB6803F48033B3F51D
:10119000803F02D10123FB7125E0164BDB6803F091
:1011A0001003002B02D00623FB711CE0114BDB68FF
:1011B00003F48073002B02D00223FB7113E00D4B6C
:1011C000DB6803F0E003002B02D00723FB710AE089
:1011D000084BDB6803F00203002B02D00823FB71ED
:1011E00001E00923FB71FB7918460C37BD465DF819
:1011F000047B7047003C024080B582B000AF0923F9
:10120000FB71FFF7BBFF0346FB7103E0FFF7B6FF7F
:101210000346FB71FB79DBB2012BF7D0FB79DBB224
:1012200018460837BD4680BD01230370014B1B687B
:1012300043607047402101201B4B1B784B711B4BB7
:101240001B88CB801A4B1B688B601A4B1A888A81CB
:101250005A880A615B68184A934220D0174A934221
:101260001FD0174A93420CBF032300230B75114B69
:101270001A7A4A755A7A8A755A890A831A7B8A7643
:101280005A7BCA769B7B0B770E4B1A784A775A7833
:101290008A779A78CA77DB7881F820307047012303
:1012A000E4E70223E2E700BF060000200800002078
:1012B0000C000020C482012044210120462101208D
:1012C0004821012070210120F0B58BB00346002297
:1012D00002701849009101218DF804108DF8052045
:1012E000154A1068CDF8210069461846FFF7A4FF9B
:1012F00072B6FFF777FEF320FFF730FF02213820A8
:10130000FFF798FE092804D0FFF784FE62B60BB001
:10131000F0BD0DF1FF330DF12707084E6D465C1C43
:1013200098195978401BFFF7E5FE2346BC42F6D1D9
:10133000EAE700BF43464700989802080100060804
:1013400030B58BB02F4B1868CDF821006C462E4D70
:101350000FCD0FC40FCD0FC495E8030084E8030040
:101360002A496846FEF7A4FF48B926490DF1210035
:10137000FEF79EFF18B99DF80430012B01D00BB089
:1013800030BD9DF80520224B1A70BDF90620214B77
:101390001A80214B029A1A60204BBDF80C201A804B
:1013A000049A5A809DF81430012B27D0022B27D0A5
:1013B000032B1B4A18BF0022184B5A609DF81520BA
:1013C0001A729DF816205A72BDF818205A819DF89D
:1013D0001A201A739DF81B205A739DF81C209A73CB
:1013E000104B9DF81D201A709DF81E205A709DF814
:1013F0001F209A709DF82020DA70C0E70A4ADBE7C8
:101400000A4AD9E798980208000006089C98020842
:1014100006000020080000200C000020C4820120EB
:101420004821012070210120442101204621012072
:101430002DE9F0470546012303700024447008237A
:1014400083700923C370047143714FF4806242F2C8
:101450000803C25242F21403C45442F21503C454A6
:1014600000F5804300229A6144F21C03C45044F208
:101470002003C45244F22203C452254A00F580439B
:10148000243307CA03C31A8045F62E23EC5405F50E
:10149000005A0AF1180A0FF27009D9E900890026EA
:1014A0001C4F07EE904AF8EEE77A77EEA77A17EE30
:1014B000900AFFF773F842464B46FFF7C3F83246EF
:1014C0003B46FFF7BFF841EC100B1FF089FF51ECD2
:1014D000100BFFF7AFFB4AF8040B0134B4F5806F33
:1014E000DFD105F580432D3305F5B4402D30502173
:1014F00003F5807203F8011F9342FBD1134690421B
:10150000F6D12846BDE8F087182D4454FB21094048
:10151000509802080000503F2DE9F04FA9B08246D4
:10152000069142F20804005B80B2FFF715F841EC27
:10153000100B1FF0F9FE51EC100BFFF75BFB3AF8B4
:1015400004309BB24BB180B2069F39460022C0F1F5
:1015500020040AF50050083018E042F208033AF877
:1015600003309BB2012B40F30F814FF0010B0AF5C2
:10157000005E0EF1080ECDF81CB0DFEDC03A40E081
:10158000013203889BB204319342E6DD92FAA2F362
:1015900063FA04F39BB29342F2DD0D6807EB830319
:1015A0001E680E601D60EBE7BEF800309BB203B30F
:1015B000069B04330AF5405018300021D3ED007A21
:1015C00013ED017A37EE677A83ED007AC0ED013AC8
:1015D00013ED017A77EE877A43ED017A13EE902AC4
:1015E00040F8082B0231BEF8002092B208338A423C
:1015F000E4DC4FEA4B0BBEF800309BB25B4540F396
:10160000C380BBF1010FCFD0BEF80030C3F34E034F
:101610005B4565D0BBF1000FEBDD4FEA4B0C069B41
:101620000AF5405909F118094FEACB074FEA8B0632
:101630004FF00008CDF814B09B464FEA882393FB87
:10164000FCF30AEB830303F500521832D2ED004A93
:1016500003F51053183393ED004ABEF800309BB2E7
:10166000434532DD09EB06014A465B464546D3ED6C
:10167000005A92ED007A9C19D4ED006AD1ED007AFF
:1016800024EE265A24EEA76A35EE466A64EE277ADF
:1016900064EEA66A77EEA67A75EEC66AC4ED006AB5
:1016A00077EE676AC1ED006A35EE866A83ED006AFF
:1016B00077EE277AC2ED007A6544BEF8000080B26A
:1016C000A3193A443944A842D1DC08F101080BF1CE
:1016D000040B09F10409059B9845AED19B4688E7A8
:1016E000BEF80030C3F34E03012B82DD4FEA4B00FE
:1016F00001220799069C930293FBF0F39BB20AEB3D
:10170000830303F500551835D5ED007A03F5105322
:10171000183393ED007A0BEB02039B00E518D5ED2F
:10172000006A534404EB810696ED006A67EE265A80
:1017300003F540531833D3ED006A67EEA66A75EEE1
:10174000E66A76EE866AC6ED006AD5ED006A0AEBB7
:10175000820202F54052183293ED006A27EE067AB3
:1017600067EEA67A77EE277AD2ED006A77EEA67A50
:10177000C2ED007A013189B20A46BEF80030C3F3E7
:101780004E039942B7DB34E73D4B9A6ADB6A3D4929
:1017900091ED000AB8EE400A013302FB0333DB028D
:1017A00007EE903AF8EE677A012280EE270A364972
:1017B0001AA806F0AFF91B9BC3F1FF4303F5FF0323
:1017C00003F5FF437F33022B4BD903222F491AA87D
:1017D00011F020FF044616AB1493064656F8083B5A
:1017E000B34241D0149383681693636815932660BF
:1017F000002363602372224B9A6ADB6A214991EDD0
:10180000000AB8EE400ADFED227A20EE270A013303
:1018100002FB0333DB0207EE903AF8EE677A01220F
:1018200080EE270A184920A806F074F91599219A24
:101830008C18149B16A8834214BF16980F2084425C
:101840002AD9209D22A8854214BF22980F208442C5
:1018500022D800910022114620A811F057FE04461C
:101860001FE00C481DF096F916AD034653F8080F1B
:1018700059689A68DB680FC5B7E700BF0000000031
:1018800000040040100000200C830120E8980208AA
:1018900000809F43D0980208209914A811F0BAFE46
:1018A000044610AB0E93264656F8083BB3425AD076
:1018B0000E93A368109363680F9326600023636000
:1018C00023720F9BC3F1FF4303F5FF0303F5FF43AF
:1018D0007F33032B50D904222D490EA811F09AFE14
:1018E00004460AAB0893064656F8083BB34246D076
:1018F000089383680A9363680993266000236360F2
:1019000023724FF6FF7226922793224827AB029349
:1019100026AB019300F10803009308ABE02273218A
:1019200001F04FFF08980AAB984201D006F0FEFF85
:101930000E9810AB984201D006F0F8FF209822AB29
:10194000984201D006F0F2FF149816AB984201D0ED
:1019500006F0ECFF1A981CAB984201D006F0E6FFA7
:1019600029B0BDE8F08F10AD234653F8080F596831
:101970009A68DB680FC59EE707481DF00BF90AADB2
:10198000034653F8080F59689A68DB680FC5B2E739
:10199000EC980208A07B0120D098020831B10F4BCF
:1019A0001B780344002142F2140299540C4B1B781B
:1019B0009BB942F21403C35C1BB142F21503C35C32
:1019C0005BB90122064B1A700022064B1A8042F2C4
:1019D0001403C35CDBB2044A137070476821012012
:1019E0005421012052210120502101202DE9F04FE6
:1019F0002DED048B8DB082460F464FF0010BCDF8D4
:101A00000CB0002304931C461D469FEDA79AF7EEE9
:101A1000008A9FEDA68AB7E045F62E221AF802103A
:101A2000DBB20AEB0122904444F22E0208F80230A5
:101A3000012C39D0631C9BB29846B3423CDAFF2B91
:101A40003CDC0134A4B207EB840393ED000A08F6F2
:101A500006430AEB8303D3ED000A07F03AFA20EEBF
:101A6000090A38EEC00A20EE080AFCEEC07ACDED75
:101A7000027ABDF808301D2BCEDC0135ADB2C82D81
:101A8000CADD44F222023AF8023001332AF8023069
:101A9000874B1B785344002142F2140299540DB035
:101AA000BDEC048BBDE8F08F0AEB01218B54022EB4
:101AB00015DD4FF00208C4E71C4600E01C46039BFE
:101AC0001A1F12B21046B2422EDC4FF0000C6146D3
:101AD0004FF001090AF5B44808F12E0806E0022487
:101AE000EDE7013212B21046B24220DC92B2FF2A78
:101AF000F7D8ABEB0003002BB8BF5B42C3F1040384
:101B000009FA03F39BB29C441FFA8CFC98F800E09E
:101B10000AEB0E2E704444F22E0E10F80E0010FB4D
:101B200003F3194489B2DCE74FF0000C61460CA8BE
:101B3000049A00EB4203B1FBFCF123F80C1C1346A2
:101B400001335A4203F0030302F0030258BF534229
:101B50009AB20492BBF1030F0FDD45F62E221AF85C
:101B600002200AEB022293449BB200EB430333F8BA
:101B70000C2C44F22A030BF80320039B01339BB285
:101B800003939B46FF2B08DCA0460BF10406B442EE
:101B900095DAFF2C7FF757AF91E701215046FFF709
:101BA000FDFE45F62E201AF800305A1C414981FBF3
:101BB0000231D317C3EBE1031A2101FB13230AF807
:101BC000003001230593002304933B4FCDF80CA074
:101BD0002FE0002C15DB04EB8403029A02EB0313C5
:101BE0009BB244F2D031069A01FB02F10020CA18E0
:101BF00027F81200013C24B2503B9BB2B4F1FF3FE6
:101C0000F5D12E4B07990A46A3FB02239B0903EB50
:101C10008303A1EB03139BB2002B00F0A580049B70
:101C200001330493059A01320592B3F5A07F3FF486
:101C300036AF059B99469BB20793049A204981FBD6
:101C400002131146D217C2EB631303F001021046D0
:101C5000069203EB8303A1EB03139BB20293A1F162
:101C6000020876254FF0000BD824DFF858A044F284
:101C7000D03606FB00F631E04FF4FC6337E0F11894
:101C800027F81100013C24B2503B9BB2E4B1A242C0
:101C900001DDA64518DCA242F1DAA645EFDAF1181B
:101CA00027F811B0EEE700BF000080370000A04227
:101CB000682101204FECC44EFC020020CDCCCCCCDE
:101CC00067666666702101200CF1010BA8F102081D
:101CD000053DADB2BBF11A0F3FF47BAF9AF801306E
:101CE000002BC9D0012B4FF6E43308BF1F230CA9EA
:101CF00021F8023D4FEA4B0292B2244805F02AF83F
:101D0000DC464FEA4B03DA1C4A45DDDA03F20313E3
:101D10009945D9DA45F62E230399CB5C9B441C4B9D
:101D200083FB0B324FEAEB73C3EBE2031A2202FB95
:101D300013B31BB201EB0323434444F22E029A5C1B
:101D40002A4412B244F22D0113F801E0AE440FFA16
:101D50008EFE002CB8DD04EB8403029901EB031323
:101D60009BB24FF0000B92E7BDF81030A3F14F018A
:101D700048F2A072069802FB00720192D8220092EB
:101D8000002289B2034801F039FB48E70C830120A7
:101D90004FECC44EA07B0120F8B504460D460E4B17
:101DA0001A6822F001021A600C4E37685A6A02EB78
:101DB00007420B4F3A605A6942F001025A611A68B1
:101DC00042F001021A6000233360FFF7A5FB2946A9
:101DD0002046FFF70BFEF8BD0040014060210120C6
:101DE000642101202DE9F04F2DED048BB7B083461F
:101DF0000A9100F50052143200F500530A33002115
:101E000023F8021B9A42FBD1002344F21C024BF838
:101E100002300125A94609934FF0FF3208929A46F5
:101E20009FED8B9ADFED8B8A9FED8B8A8B4B08336E
:101E30000B9397E04FF01F080023099320EE280A28
:101E4000F7EE007A77EEC07A67EE887AF4EE487A99
:101E5000F1EE10FAC8BFF0EE487AFCEEE77ACDED6D
:101E6000077ABDF81C00691E7D4B83FB0123CC174C
:101E7000C4EB631404F0010400230E930E930E9B35
:101E8000D82B48DC764A82FB0132CB17C3EB6213B6
:101E900003EB8303A1EB031189B2724F44F2D036F6
:101EA00006FB04F64FF0000C42F2107E20E04FF0EB
:101EB0001F0800230993C1E744F222023BF80230D5
:101EC00001332BF80230684B1B785B44002142F24F
:101ED0001402995437B0BDEC048BBDE8F08F334445
:101EE00027F813C00E9B01330E930E9BD82B12DCE8
:101EF0000E9B03EB830301EB03139BB20E9A9042FC
:101F0000EDDC0AF1010A0FFA8AFAF245D4DC334417
:101F100027F81380E6E7554BA3FB09239B0903EB46
:101F20008303A9EB03139BB29BB9F02D64DC09F189
:101F3000FF33A9F150014B4A48F2A07000FB042482
:101F40000194D82200929BB2002289B2434801F04A
:101F500055FA09F101091FFA89F94D46B9F5A07F33
:101F600000F3EA810A9B03EB890393ED000A05F66F
:101F700006430BEB8303D3ED000A06F0AAFF089B90
:101F8000032B3FF757AFB4EEC90AF1EE10FA8EDD1E
:101F9000B3F1FF3F03D0099B0133AB4203DA089B47
:101FA00001331BB208930FFA89F30993089B0BEBDB
:101FB000430344F2240233F8028042F20A029A5A9E
:101FC0006AB144F21C025BF8022007EE902AF8EE98
:101FD000677AF4EEC07AF1EE10FA7FF52FAF42F295
:101FE0000A0223F8029044F21C02FCEEC07A17EEBB
:101FF000903A4BF8023021E701215846FFF7CEFC1A
:1020000042F20A033BF80330002B90D0154A48F205
:10201000A07101FB042200273E460BF5005808F191
:102020000A08CDF81CA00C943C46CDF8349091469B
:10203000BEE00F481CF0AEFD0DF1780C034653F8DE
:10204000080F59689A68DB68ACE80F00E4E000BF4D
:10205000005043470000003600005843A07B012099
:1020600067666666FC02002068210120CDCCCCCCDE
:10207000D098020828991CA811F0CCFA054618AB94
:1020800016932F4657F8083BBB4200F00781169382
:10209000AB6818936B6817932F6000236B602B72EB
:1020A000179BC3F1FF4303F5FF0303F5FF437F33A2
:1020B000012B40F2FE800222974916A811F0AAFADD
:1020C000054612AB1093074657F8083BBB4200F099
:1020D000F3801093836812936B6811932F60002331
:1020E0006B602B72169818AB984201D006F01EFC5C
:1020F00028982AAB984201D006F018FC1C981EAB19
:10210000984201D006F012FC229824AB984201D0EC
:1021100006F00CFC631C03EB83039D00ADB230ABF7
:102120002E93DDF840A0119FBAF1000F00F0CF8090
:102130000F970F2F00F2D1802E98012F00F0D6803C
:10214000002F40F0D7800F9B2F9300212E9AD1545F
:1021500004F5005410340BEB4404A388349336ABDD
:1021600043F8041D049334AB03930B9B02932EABF3
:102170000193CDF8009050232A46684801F044FBB3
:102180002E9830AB984201D006F0D0FB109812ABDD
:10219000984201D006F0CAFB0136F6B23446042E4E
:1021A00000F3AD80374638F81630002B00F0AD80D4
:1021B00007EE903AF8EE677AB8F8003007EE103A7A
:1021C000B8EEC77AC7EE876A16EE900AFEF7E6F910
:1021D00041EC100B1FF0BCF851EC100BFEF70AFDA0
:1021E00082B24F4922A805F0E3F86FF00043239A2A
:1021F0009A423FF41EAF01224A4922A811F00AFA7E
:1022000005461EAB1C9386465EF8083B73453FF4BB
:1022100013AF1C9383681E936B681D93C5F800E091
:1022200000226A602A724049886ACB6A3F49D1ED30
:10223000007AF8EE677A38F8171000EE101AB8EE48
:10224000C00A27EE800A013300FB0333DB0207EEEE
:10225000903AF8EE677A80EE270A314928A805F00F
:1022600059FC1D9D299AA9181C9B1EA8834214BFC6
:102270001E980F2081427FF6FDAE28982AAFB84203
:1022800014BF2A980F2081423FF6F4AE0095002239
:10229000114628A811F03AF90546F0E60DF1600E56
:1022A0002B4653F8080F59689A68DB68AEE80F00B0
:1022B000F0E61F481CF06EFC0DF1480E034653F883
:1022C000080F59689A68DB68AEE80F0004E7002F32
:1022D0003FF42EAF17481CF05AFC00220FA92EA87D
:1022E00010F0FCFE2E900F9B309325E79AF80030FB
:1022F000037028E73A46514620F091FE23E7DDF8C7
:102300001CA00C9CDDF8349011E6DDF81CA00C9CA0
:10231000DDF834900BE600BFA0980208A07B0120F6
:102320000C83012020AF02080004004010000020B0
:10233000D0980208A49802089BF80030002B3FF4C4
:10234000C9AD42F20A033BF80350002D3FF4C2AD81
:10235000794B9A6ADB6A794991ED007AB8EE477A4F
:1023600007EE905AF8EEE77A27EE277A013302FB60
:102370000333DB0207EE903AF8EE677AC7EE276A7E
:102380000BF58043C3ED066AB2EE040A86EE800ABE
:102390001FF06EF8F2EE007AB4EE670AF1EE10FA72
:1023A00048BFB0EE670AFCEEC07ACDED077ABDF803
:1023B0001C40631B002BB8BF5B42012B40F3A58080
:1023C0005D4BDB6A03FB04F3B3FBF5F344F220023D
:1023D0002BF8023005F18043013B0A9A02EB83039C
:1023E0001868FEF7DBF88046894605F605430BEBD7
:1023F00083031868FEF7D2F806460F4642464B465E
:1024000040464946FEF71EF98046894632463B461D
:1024100030463946FEF716F902460B464046494615
:10242000FDF75EFF41EC100B1FF0C8F8B0EE409ACC
:10243000F0EE609A42F20A033BF803506B1C0A9AD2
:1024400002EB83031868FEF7A9F88046894605F673
:1024500007430BEB83031868FEF7A0F806460F4608
:1024600042464B4640464946FEF7ECF880468946D0
:1024700032463B4630463946FEF7E4F802460B4604
:1024800040464946FDF72CFF41EC100B1FF096F833
:1024900051EC100BFEF786FB07EE900AB8EEE78AC8
:1024A00051EC190BFEF77EFB07EE900AF8EEE76A97
:1024B0000BF58043D3ED067A77EEA77A07EE104A44
:1024C000B8EEC77A67EE877A36EEA77AB4EEC78A97
:1024D000F1EE10FA20DD44F220023BF80230013B1D
:1024E0002BF8023044F220033BF803305A1E92B21C
:1024F00041F26E718A423FF6EDAC0F4AD26A9A42BF
:102500003FF4E8AC0C4AD362E4E40B4BDA6A44F2E1
:1025100020032BF803205DE778EE277AF4EEE76AD4
:10252000F1EE10FADEDD44F220023BF80230013316
:102530002BF80230D6E700BF000400401000002056
:10254000F8B504460D460E4B1A6822F001021A60D7
:102550000C4E37685A6A02EB07420B4F3A605A69D1
:1025600042F001025A611A6842F001021A60002327
:102570003360FEF7D1FF29462046FFF733FCF8BD54
:10258000004001406021012064210120224B1A6C8F
:1025900042F080521A6421490A6842F480420A607B
:1025A0001F49D1F8882042F47002C1F888201A68C7
:1025B00042F480321A601A46136813F4003FFBD0CD
:1025C000154B184A5A609A689A609A6842F4004219
:1025D0009A609A6842F4A0529A601A6842F0807237
:1025E0001A601A46136813F0007FFBD040F20572A0
:1025F0000D4B1A60A3F580639A6822F003029A607B
:102600009A6842F002029A601A46936803F00C033B
:10261000082BFAD1704700BF00380240007000401C
:1026200000ED00E0085A4007003C02400B4B00223E
:102630001A604FF6FE715960F020094981F82300B5
:102640009A601A6842F004021A601A6842F00202A4
:102650001A601A6842F001021A60704710E000E048
:1026600000ED00E0324A136B43F002031363136B77
:1026700043F004031363136C43F4004313642D4BC2
:10268000196841F080611960996841F08061996032
:10269000196841F080511960A3F58063196841F40D
:1026A00000611960996841F440619960196A41F4C8
:1026B000C0011962196841F080011960996841F000
:1026C000C0019960196A41F4C0411962A3F5E4336D
:1026D000196841F400711960196841F4807119603A
:1026E000196841F008011960196841F00401196086
:1026F000196841F040011960136B43F40013136330
:102700000D4B1A6822F060621A601A6842F4005297
:102710001A601A6842F400621A601A6842F04002B5
:102720001A601A6842F400321A60044A9A607047CC
:102730000038024000080240886002400C3C004023
:10274000524A136C43F0010313644FF080435968FD
:1027500041F040015960132199623121D9625963D6
:10276000196A41F001011962996941F060019961AA
:10277000196841F001011960136B43F00103136301
:10278000136B43F004031363536C43F4807353647B
:102790003F490B6843F0C0030B603E4B196841F49E
:1027A00040611960196841F003011960A3F56043A5
:1027B000596841F4807159604FF40011D962596B26
:1027C00041F00D015963596B41F0A0015963596BF8
:1027D0005963D96841F42061D960196941F4203105
:1027E0001961196941F005011961996841F4806125
:1027F0009960996841F080519960996841F0C06191
:102800009960996841F480719960996841F4007108
:102810009960116B41F48001116302F5315230323D
:10282000116821F0C0011160116841F4003111609C
:10283000116841F400611160116841F400511160A8
:10284000116821F400711160116841F48061116018
:10285000116841F480711160116821F0C0011160AC
:10286000516841F00C0151600B4991600B49D160F6
:10287000116821F060611160116841F0010111607F
:102880009A6842F001029A60704700BF0038024027
:1028900000080240000002404C200140E4020020F9
:1028A0000E4A136C43F0020313640D4B32229A62FA
:1028B0008C22DA62DA6842F00102DA60094A4FF0EB
:1028C00000511160002182F81D131A6842F00102C4
:1028D0001A605A6942F001025A617047003802409A
:1028E0000004004000E100E00B4A536C43F48033E5
:1028F00053640A4B0A229A624FF6FF72DA62DA6870
:1029000042F00102DA60064B4FF080721A6020221A
:1029100083F81823704700BF003802400040014090
:1029200000E100E0064A136C43F008031364054B12
:1029300042F210729A624FF6FF72DA62704700BF7D
:1029400000380240000C004030B4524A136B43F090
:1029500001031363136B43F002031363136B43F020
:1029600004031363536C43F4804353644A49CB68B4
:1029700043F48013CB60494803690361A1F54441E6
:102980008B6843F480638B60CB6843F48063CB60D7
:102990000B6843F480630B60414BDC6844F0806457
:1029A000DC60446944F010044461886840F40050DD
:1029B0008860C86840F40050C860086840F400505F
:1029C0000860D96841F48051D960196841F4005118
:1029D0001960196A41F000711962D96841F48041A7
:1029E000D960196841F400411960196A41F0005139
:1029F0001962136C43F0040313642A4B00259D6293
:102A00004FF6FF74DC62996841F0030199609968A0
:102A100041F4706199604FF4FA405862196841F0CE
:102A20000101196003F50033D96841F48051D96080
:102A3000196841F400511960196A41F04071196236
:102A4000D96841F48041D960196841F400411960A6
:102A5000196A41F040511962536C43F00203536408
:102A6000114B9D62DC629A6842F003029A609A6898
:102A700042F470629A6058621A6842F001021A6069
:102A80000A4B402283F828234FF480725A6030BCEE
:102A9000704700BF0038024000000240003801408B
:102AA00000040240000800400004014000E100E092
:102AB000184A136C43F400231364174B1A6842F44A
:102AC00000021A605A6A42F400425A62A3F5DE33E9
:102AD0009968124A12681248A0FB0202D20C41EA1D
:102AE00002129A60DA6822F48052DA60DA6842F000
:102AF0000402DA60DA6842F02002DA60094A302122
:102B000082F834134FF480115160DA6842F40052B5
:102B1000DA607047003802400008024010000020D0
:102B200083DE1B4300E100E082B00191019B2BB1E9
:102B3000019B013B0193019B002BF9D102B070472F
:102B40001E4A1F485368002BFCD1836813F0030F03
:102B5000F8D0836813F0800FF4D11A4A936943F0D8
:102B600000539361087802F5B14208321449536862
:102B7000002BFCD18B6813F0030FF8D08B6813F097
:102B8000800FF4D10E4B1B6813F4006F0FD10E4B66
:102B900018700A4A0A495368002BFCD18B6813F05D
:102BA000030FF8D08B6813F0800FF4D17047044AFC
:102BB000136823F400631360E9E700BF88600240F4
:102BC000003C0040000802400C3C0040F8B50C46B8
:102BD0000968FFF7B5FF1D4A936943F400539361F9
:102BE000256863685B1B012B2FD901263046184BE3
:102BF0001849194F0CE00A6822F400620A6017E0D5
:102C00000130C0B2064625686268521B90421CD251
:102C1000AD5D5A68002AFCD18A6812F0030FF8D023
:102C20008A6812F0800FF4D10A6812F4006FE2D1C2
:102C30003D705A68002AFCD18A6812F0030FF8D060
:102C40008A6812F0800FDBD0F3E7F8BD000802407D
:102C500088600240003C00400C3C0040174A9369E9
:102C600043F400539361087802F5B14208321449E5
:102C70005368002BFCD18B6813F0030FF8D08B68DE
:102C800013F0800FF4D10E4B1B6813F4006F0FD1BB
:102C90000C4B18700C4A0A495368002BFCD18B6806
:102CA00013F0030FF8D08B6813F0800FF4D1704746
:102CB000034A136823F400631360E9E70008024045
:102CC000003C00400C3C00408860024010B42D4A9B
:102CD000936943F4005393610C88240A02F5B142CE
:102CE000083229485368002BFCD1836813F0030F86
:102CF000F8D0836813F0800FF4D1234B1B6813F4D2
:102D0000006F33D1214B1C70214A1F485368002BA0
:102D1000FCD1836813F0030FF8D0836813F0800FA1
:102D2000F4D108781A4A18495368002BFCD18B68F3
:102D300013F0030FF8D08B6813F0800FF4D1124B0F
:102D40001B6813F4006F17D1104B1870104A0E490E
:102D50005368002BFCD18B6813F0030FF8D08B68FD
:102D600013F0800FF4D15DF8044B7047064A1368E6
:102D700023F400631360C5E7034A136823F4006378
:102D80001360E1E700080240003C00400C3C0040BA
:102D90008860024010B584B00446ADF80610ADF866
:102DA0000420ADF8023004A92A2301F8023DFFF700
:102DB000C7FE0DF106012046FFF788FF0DF1020165
:102DC0002046FFF783FF04A92B2301F8013D20468D
:102DD000FFF7B6FE01A92046FFF778FF06A92046B7
:102DE000FFF774FF04B010BD30B583B004460D4644
:102DF00002A9362301F8053DFFF7A2FE032D30D8C6
:102E0000DFE805F00210182702A9582301F8043D55
:102E10002046FFF723FF2570F02363804FF4A07353
:102E2000A38014E002A9882301F8033D2046FFF7A0
:102E300015FFF0E702A9282301F8023D2046FFF71D
:102E40000DFF25704FF4A0736380F023A38003B0BF
:102E500030BD02A9E82301F8013D2046FFF7FEFE40
:102E6000EFE72570012DEDD8D6E70000F0B585B06D
:102E70000546BDF828605F1AB41A013407FB044404
:102E80000096FFF787FF0B9B1B88EB8004A92C2380
:102E900001F8013D2846FFF753FE274A936943F4A2
:102EA00000539361A2F5E632136843F400631360A4
:102EB0004FF46062214BDA60214A136823F4806387
:102EC0001360B4F5803F28D3640813465460063578
:102ED000D560126842F001021A601A4A536843F042
:102EE0000203536002F50932883216495368002BF9
:102EF000FCD18B6813F0030FF8D08B6813F0800FB0
:102F0000F4D14FF460620D4BDA6088335C601A686C
:102F100042F001021A6005B0F0BD094B5C60063555
:102F2000DD601A6842F001021A60064A536843F0F5
:102F300002035360EFE700BF000802400060024058
:102F400088600240003C004000B583B04388013BEC
:102F500001918288013A92B200929BB200221146FE
:102F6000FFF784FF03B05DF804FB0000F0B5C1B0CB
:102F70000446A44DAB6943F08043AB6144F6206145
:102F8000FFF7D2FDAB6943F48043AB6144F62061A7
:102F90002046FFF7C9FD40A9012301F8F93D20466D
:102FA000FFF7CEFD4CF250312046FFF7BDFD002368
:102FB000029303930493062005F0BFFC034602909E
:102FC000821D04929049086818608988998003924C
:102FD00002A92046FFF7FAFD029808B105F0A6FC09
:102FE0000023059306930793042005F0A6FC0590A3
:102FF000031D0793854A12680260069305A92046BF
:10300000FFF7E4FD059808B105F090FC0023089354
:1030100009930A93042005F090FC0890031D0A937D
:103020007B4A12680260099308A92046FFF7CEFD8B
:10303000089808B105F07AFC00230B930C930D93CC
:10304000032005F07AFC0B90C31C0D93714A118884
:103050009278018082700C930BA92046FFF7B6FD91
:103060000B9808B105F062FC00230E930F931093A8
:10307000052005F062FC03460E90421D1092664941
:1030800008681860097919710F920EA92046FFF798
:103090009DFD0E9808B105F049FC00231193129391
:1030A0001393022005F049FC1190831C13935B4A93
:1030B00012880280129311A92046FFF787FD11980C
:1030C00008B105F033FC00231493159316930220E6
:1030D00005F033FC1490831C1693514A1288028029
:1030E000159314A92046FFF771FD149808B105F057
:1030F0001DFC0023179318931993022005F01DFC63
:103100001790831C1993474A12880280189317A9B5
:103110002046FFF75BFD179808B105F007FC002378
:103120001A931B931C93032005F007FC1A90C31CF1
:103130001C933D4A11889278018082701B931AA9D2
:103140002046FFF743FD1A9808B105F0EFFB002376
:103150001D931E931F93022005F0EFFB1D90831C0F
:103160001F93324A128802801E931DA92046FFF742
:103170002DFD1D9808B105F0D9FB00232093219364
:103180002293022005F0D9FB2090831C2293284A29
:1031900012880280219320A92046FFF717FD20986E
:1031A00008B105F0C3FB0023239324932593022049
:1031B00005F0C3FB2390831C25931E4A12880280CE
:1031C000249323A92046FFF701FD239808B105F0B9
:1031D000ADFB0023269327932893032005F0ADFB36
:1031E0002690C31C2893144A11889278018082701B
:1031F000279326A92046FFF7E9FC2698F0B105F0B1
:1032000095FB1BE000080240F4980208FC980208B5
:103210000099020804990208089902081099020806
:1032200014990208189902081C99020820990208AA
:1032300024990208289902082C990208002329934E
:103240002A932B93042005F078FB2990031D2B93E0
:10325000624A126802602A9329A92046FFF7B6FC49
:10326000299808B105F062FB00232C932D932E932F
:10327000022005F062FB2C90831C2E93584A128882
:1032800002802D932CA92046FFF7A0FC2C9808B1B2
:1032900005F04CFB00232F9330933193052005F06C
:1032A0004CFB03462F90421D31924E49086818602E
:1032B0000979197130922FA92046FFF787FC2F98C2
:1032C00008B105F033FB0023329333933493052088
:1032D00005F033FB03463290421D349242490868A0
:1032E000186009791971339232A92046FFF76EFCF4
:1032F000329808B105F01AFB0023359336933793C3
:10330000022005F01AFB3590831C3793374A128848
:103310000280369335A92046FFF758FC359808B14E
:1033200005F004FB0023389339933A93102005F0FD
:1033300004FB0546389000F110073A972C4E0FCE4B
:1033400028606960AA60EB60399738A92046FFF7CA
:103350003DFC389808B105F0E9FA00233B933C9313
:103360003D93102005F0E9FA05463B9000F1100767
:103370003D97204E0FCE28606960AA60EB603C97B5
:103380003BA92046FFF722FC3B9808B105F0CEFA96
:1033900040A9112301F8053D2046FFF7D1FB16494E
:1033A0002046FFF7C1FB40A9292301F8043D204630
:1033B000FFF7C6FB40A92C2301F8033D2046FFF789
:1033C000BFFB03212046FFF70FFD40A9002321F892
:1033D000023D2046FFF7B8FD41B0F0BD309902082C
:1033E000349902083899020840990208489902085D
:1033F0004C9902085C99020840420F00F0B585B074
:103400000646BDF828505F1AAC1A013407FB044485
:103410000095FFF7BFFC04A92C2301F8013D3046BD
:10342000FFF78EFB104A936943F400539361A2F5B2
:10343000E632136843F4006313604FF460610B4B92
:10344000D9608833196841F4806119605C600B9918
:10345000D960196841F001011960536843F0020313
:10346000536005B0F0BD00BF00080240006002409C
:1034700030B585B004461D4600920B46FFF78AFC26
:1034800004A92C2301F8013D2046FFF759FB2946EA
:103490002046FFF71BFC05B030BD2DE9F04F89B089
:1034A00003900D4616461F46BDF848300493DDF8DC
:1034B0004CA043889942A4BF03F1FF35ADB2BB4293
:1034C000DCBF03F1FF37BFB2039B9B889A42A4BFC6
:1034D00003F1FF36B6B2049A934204DC03F1FF3BDA
:1034E0001FFA8BF30493BD4202DD2B463D461F4677
:1034F000049A964202DD3346164604937B1B1FFA5C
:1035000083FB0FFA8BF3049A921B92B205920FFA87
:1035100082F923B3B9F1000F21D04B4530DD03EB25
:10352000D3746410C3F10008DAF80030ADF81E302F
:103530000DF11E03324629460398FFF799FFBD425D
:1035400025D0444504DD059BE41A24B20135ADB213
:103550004C45E9DA5C4424B20136B6B2E4E7DAF865
:10356000002008AB23F8042D0193049B00933B46F5
:10357000324629460398FFF779FC09B0BDE8F08F81
:10358000C9F1000404EBD47444F34F04CAE7049B6C
:103590009E42D6D1F1E72DE9F04385B080460D4635
:1035A00014461F46BDF83060DDF8349043889942D8
:1035B000A4BF03F1FF35ADB2BB42DCBF03F1FF375F
:1035C000BFB283889A42A4BF03F1FF34A4B2B342CE
:1035D000DCBF03F1FF36B6B2BD4202DD2B463D46ED
:1035E0001F46B44202DD234634461E46D9F8002069
:1035F00004AB23F8082D019300943B46224629464C
:103600004046FFF733FCD9F8002004AB23F8062D21
:10361000019300962B46224629464046FFF726FC9A
:10362000D9F8002004AB23F8042D019300963B4603
:10363000324629464046FFF719FCD9F8002004AB72
:1036400023F8022D019300963B4622463946404618
:10365000FFF70CFC05B0BDE8F08300002DE9F04F4A
:1036600083B004460C9EDDF83480DDF83890307865
:1036700008446588A84203DD71780A4492B20021AB
:103680007578AB4695B3002007468446A3F1200A1F
:103690004FF4D07E0BFB0A0B736833F81B50337862
:1036A000DBB13B46002005FA00F010F4004F94F81F
:1036B00098B60EFB0B3B0BF10C0B14BFD8F80000B7
:1036C000D9F8000024F81B0001339BB2D81B80B24C
:1036D00096F800B05845E6DB1F460CF1010C1FFAC6
:1036E0008CFC60467578AB46AC45D3DB1548164F6D
:1036F0004368002BFCD1BB6813F0030FF8D0BB6804
:1037000013F0800FF4D13378013B0B4494F8980602
:103710004FF4507606FB004018300190501E2844AC
:1037200080B200909BB22046FFF768FE94F898366E
:1037300013F1FF3318BF012384F8983603B0BDE8B6
:10374000F08F00BF88600240003C00402DE9F04F40
:10375000099D0B9CDDF830E0DDF834C0667876B367
:1037600012FB031290B2002217469DF82880A8F1A0
:1037700020089146924606FB0821626832F811B093
:103780002278A2B14E465246811889B20BFA06F64B
:1037900016F4004F14BFDEF80060DCF8006025F876
:1037A0001160013292B2164621788A42ECDB013771
:1037B000BFB23A466678184480B2B742DBDBBDE858
:1037C000F08F2DE9F04F85B082468B4691460E9DD5
:1037D000DDF83C80109F1C685E682644A64210D02D
:1037E00014F8013B0297CDF8048000954A465946EB
:1037F0005046FFF733FF297859441FFA81FBA64250
:10380000EED105B0BDE8F08F2DE9F04F89B08346C9
:103810000C4606920793DDF848A0139B149EDDF832
:103820005490DDF858801D685F682F44AF4214D073
:10383000CDF81080CDF80C90029615F8013B01935D
:10384000CDF800A0079B069A21465846FFF77EFF59
:1038500033781C44A4B2AF42EAD109B0BDE8F08F7E
:1038600070B50646836B6BB1C46CC56D0435AC4254
:1038700005D254F8040B05F059F8A542F9D8B06BFD
:1038800005F054F8304670BD70B50546C469066A47
:10389000B4421FD1E86908B105F048F82C696E6997
:1038A000B44229D1286908B105F040F86C68AE68C7
:1038B000B44233D1686808B105F038F8284670BDC5
:1038C000606804F10C03984201D005F02FF83834F9
:1038D000A642DFD0206A04F128039842F0D005F018
:1038E00025F8EDE7606804F10C03984201D005F07B
:1038F0001DF83834A642D5D0206A04F12803984236
:10390000F0D005F013F8EDE7606804F10C0398427D
:1039100001D005F00BF83834A642CBD0206A04F170
:1039200028039842F0D005F001F8EDE770B4904A12
:10393000136923F0010313618E4B1A78531EDBB217
:10394000012B40F23781002A40F0D4818A4B18883D
:10395000DC88A4B299895A8A14FA80F010FA81F1AD
:1039600011FA82F292B285490A805B889BB2B3F564
:103970007A5F814BCCBF1A895A8892B27E4B1889E4
:10398000DC89A4B2998A14FA80F010FA81F10A4411
:1039900092B27B490A809988588980B21A8ADB8A58
:1039A00010FA81F111FA82F212FA83F39BB2754A8E
:1039B0001380754B1B78002B41D1744B1B7833B1AE
:1039C000734B1B78734A1278DBB2934237D0724B39
:1039D0005A68002A00F0A482704B1B889BB26E4983
:1039E000B1F900108B422ADD6D4B1B889BB26A49EE
:1039F00049888B4223DA13889BB299421FDC01224B
:103A0000614B1A70624C2178664B1888624A1388A1
:103A1000C01A00B2103102EB4101888021781031C8
:103A200002EB4102928812F4004F40F05281584A52
:103A30001278013B9BB21032574921F81230524B99
:103A40001B78BBB1524B1B781033534A32F81330FA
:103A50009BB240F23F1293420CD14D4A1378DBB235
:103A600013F1FF3318BF0123137000234B4A138057
:103A7000454A1370444B1B7853B9444B1B783BB1F8
:103A8000434B1B78434A1278DBB2934200F03481F7
:103A90003F490B78434A1088384C2488A4B203EB82
:103AA00083039B0113FA80F33F4820F813400B78FF
:103AB0001088334C2488A4B203EB83039B0113FAD0
:103AC00080F33A4820F813400B7811882D4800887D
:103AD00080B203EB83039B0113FA81F3344921F88D
:103AE00013002D4B5B681B889BB22D490B801388FC
:103AF0009BB240F23F12934200F0F880294A1388AB
:103B000001339BB21380224B1A782349103231F8CB
:103B1000123001339BB221F812301B4B1B78002B63
:103B200040F0EA801D4A138801339BB2138013884A
:103B30009BB2B3F57A7F40F3DF801A4B1B889BB2B0
:103B4000002B40F0D980124A1378DBB213F1FF3317
:103B500018BF012313700021104B198013780E4AEF
:103B6000103302EB4303998001239382C4E000BF2A
:103B70000004004006000020E4020020442101204F
:103B80004621012048210120542101206C210120DF
:103B90005021012068210120C48201204A210120F6
:103BA000C082012052210120401201204017012033
:103BB000401C012042F208039D4AD25A92B29D4B0A
:103BC0001B889BB29A422ED09B4B1B78002B00F097
:103BD0009380974B5B78002B35D1984B1E78954B93
:103BE0001D88974A1088D488A4B29189538AB2025A
:103BF00012FA85F58E4A02EB850214FA80F010FA6B
:103C000081F111FA83F307EE903AFAEECF7A9FED45
:103C10008D7A77EE677AC2ED027A864A138801338D
:103C20009BB2138068E0844B1B78002BCCD0834B75
:103C30001A787F4B1344012142F214029954002256
:103C40007D4B1A70C0E7012B22D0022BE5D17B4BB4
:103C50001E78784B1D887A4A90885489A4B2118ABC
:103C6000D38AB20212FA85F5714A02EB850214FA80
:103C700080F010FA81F111FA83F307EE903AFAEE30
:103C8000CF7A9FED707A77EE677AC2ED027AC4E759
:103C90006A4B1E78674B1D88694A50881489A4B204
:103CA000D189938AB20212FA85F5614A02EB850244
:103CB00014FA80F010FA81F111FA83F307EE903ACA
:103CC000FAEECF7A9FED5F7A77EE677AC2ED027AED
:103CD000A3E75A4A117801F110025B4901EB420156
:103CE0008A8802F5A07212B28A80A0E60022514BA7
:103CF0001A8008E7032A01D070BC70474C4B5B78F0
:103D0000002B73D14E4A1088D488A4B29189538A6B
:103D100014FA80F212FA81F212FA83F39BB24B4A40
:103D20001380454B1B784BBB494B1A8892B2494BC9
:103D30001B889BB29A4221DA444B1A8892B2454BB7
:103D40001B889BB29A4219DB3F4B93F834301BB16E
:103D50003D4B93F835308BB90122374B1A703A4BF3
:103D600093F83420D2B2354802700021314A1180D4
:103D700083F82C100278143223F812102E4B1B7883
:103D8000002B2DD02D4B1B782A4802882F490988FB
:103D900089B203EB83039B0113FA82F32E4A22F8C4
:103DA000131003889BB27BB1294B1A8892B2294B1E
:103DB0001B889BB29A4207DA244B1A8892B2254B91
:103DC0001B889BB29A4251DA1A4B1B889BB240F275
:103DD0003F12934242D0174A138801339BB213809B
:103DE0001A4B1B889BB21A4A138085E7012B0FD010
:103DF000134A90885489A4B2118AD38A14FA80F2A3
:103E000012FA81F212FA83F39BB2104A138088E708
:103E10000B4A50881489A4B2D189938A14FA80F28B
:103E200012FA81F212FA83F39BB2084A138078E700
:103E30007021012052210120542101205021012014
:103E4000E402002000E0FF44C4820120442101205C
:103E5000C0820120040000204012012000223A4BC1
:103E60001A703A4AD36A1E33D362B9E7384A92F8D5
:103E70002C300133DBB282F82C30527C9A42AFD125
:103E8000344B1978344C208880B2314A143122F8EE
:103E9000110019781144012081F834001D7823881D
:103EA0009BB22A49886AC96A2C4ED6ED006AF8EEA0
:103EB000666A07EE903AF8EEE77A77EEA77A431C47
:103EC00007EE103AB8EE477A27EE877A4B1C07EEDA
:103ED000903AF8EE677A67EE277A86EEA77A05F1D0
:103EE0000E0302EB830282ED007A0022164B1A7059
:103EF00023889BB2B3F58C7FBFF672AF23889BB249
:103F0000124AD26A02FB0333DB08154AA2FB0323E1
:103F100043F34F03002B7FF763AF0C4AD3625FE795
:103F20000122094B1A7000200B4B188009490B78AD
:103F3000074A103302EB430398800B7810334FF697
:103F4000FF7122F813107AE554210120000400408B
:103F5000C4820120502101205221012010000020A4
:103F60000FEAA00E294B5B6913F4806F23D0284B16
:103F70001B6913F4806F04D1264A536943F001038F
:103F80005361244A136843F001031360204B1B69FB
:103F900013F4806F0AD0536A642B07D901221E4B99
:103FA0001A701C4A136823F001031360174A5369FF
:103FB00043F480635361154B5B6913F4005F24D0B5
:103FC000164B1B6913F4005F04D1124A536943F086
:103FD000010353610F4A136843F0010313600F4B51
:103FE0001B6913F4005F0AD0536A642B07D90122BE
:103FF0000B4B1A70074A136823F001031360034A3E
:10400000536943F40053536170477047003C0140CB
:1040100000000240000C00406D210120000402401D
:104020006E210120044A136923F001031361034A3E
:104030001368013313607047004001406021012084
:104040000A4A13680A494B7D5268CA548A7D013274
:104050008A750133074880FB0320DA17C2EBE002C0
:1040600002EB8202A3EB82034B757047004C0040C9
:104070004082012067666666024A13680133136056
:10408000704700BF4021012070B582B005460E4642
:1040900071B1541A01940F2C0ED82868012C14D039
:1040A000B4B9019B6B602A680021D15402B070BD85
:1040B0009AB10B481AF06BFD002201A928460FF0B7
:1040C0000DF82860019BAB60E7E733780370E8E701
:1040D000224631461EF0A3FFE3E7541A0194DCE7C1
:1040E000A49802082DE9F04F2DED048BF3B002F0F7
:1040F0007FFDFEF74BFA02F0B1FDFEF7F5FBFEF790
:1041000011FCFEF7AFFAFEF71BFBFEF71DFCFEF7F6
:10411000CFFCFEF78BFA2C48FEF728FF2B48FDF763
:104120000FF9FEF7BDFB2A4804F09CFA294B1B88C7
:104130001BB2294AD2ED006AC3F5005307EE903A4C
:10414000F8EEE77A87EEA67AFCEEC77ACDED057A2F
:10415000BDF81430214A1380DFED219A00F0E4BD50
:10416000204802F0E3F900F0DFBD1F4C002120469B
:10417000FDF714FC42F21403E35C2BB942F2150381
:10418000E35C002B00F0D08542F21403164AD35CA6
:1041900083F00103154A1370154B1B78012B09D0CE
:1041A000124B1978104800EB01310831FDF7F4FD8E
:1041B00000F0BABD11780C4800EB01310831FEF770
:1041C000BFF900F0B1BD00BFA07B01205821012044
:1041D0000C830120080000200C00002004000020B7
:1041E00000008C42408201207021012068210120C2
:1041F000060000200122C04B9A750023BF4A13809D
:10420000BF4A1380BF4B5A6942F001025A611A68D3
:1042100042F001021A600022BB4B1A60BB4B1B78B4
:10422000002B00F08185BA4B1B78BA4A1278DBB2BA
:10423000934200F04A81B64A1378AF48103300EB3E
:1042400043039B88B449098889B2127801FA83F341
:10425000B24C84FB0314D917C1EBE41101EB8101CB
:10426000A3EB81139BB202EB820203EB8212AC49F7
:1042700031F8122092B206EE902AAA4A92ED006A14
:10428000A94A128812B290F90E1004EE901AF8EEB4
:10429000E47AB2EE005AC5EE275A857D089507EEFE
:1042A000905AB8EEE75AF8EEE66A66EE866A07EECE
:1042B000902AF8EEE77A36EEA77ADFED9C7A27EEC1
:1042C000277AF6EE007A37EE677A27EE257A77EED0
:1042D000277A87EE857ADFED967A67EE277ACDED3D
:1042E000687AD72292FBF5F207EE102AB8EEC74A99
:1042F0008DED674AF4EEC47AF1EE10FA00F3F9801E
:1043000068AAF7EE007ACDED667A92ED007AB4EE07
:10431000E77AF1EE10FA48BF66AAD2ED007AFCEE19
:10432000E77ACDED057ABDF814200592784A127827
:1043300002EB820203EB82127E4931F8122092B224
:1043400006EE902A774A92ED006A774A128812B2F6
:10435000F8EEE66A66EE866A07EE902AF8EEE77AED
:1043600036EEA77ADFED717A27EE277AF6EE007A3D
:1043700037EE677A27EE257A77EE277A87EE857A09
:10438000DFED6B7A67EE277ACDED657A8DED644AC5
:10439000F4EEC47AF1EE10FAD4BF65AA64AAF7EE7F
:1043A000007ACDED637A92ED007AB4EEE77AF1EE21
:1043B00010FA48BF63AAD2ED007AFCEEE77A17EE56
:1043C000907A4E4A12881744BFB2D22F03D90122E5
:1043D00012921744BFB24E4A127802EB820203EBEC
:1043E0008212554931F8122092B206EE902A4D4AB7
:1043F00092ED006A4C4A128812B2F8EEE66A66EE56
:10440000866A07EE902AF8EEE77A36EEA77ADFEDB5
:10441000477A27EE277AF6EE007A37EE677A67EE6C
:10442000255A75EEA77A87EE857ADFED417A67EE39
:10443000277ACDED6B7A8DED6A4AB4EEE74AF1EE5C
:1044400010FA54BF6BAA6AAAF7EE007ACDED697A2A
:1044500092ED007AB4EEE77AF1EE10FA48BF69AA5D
:10446000D2ED007AFCEEE77A17EE902A244909880B
:104470000A4492B211460792274A128892B2002A41
:1044800064D12E4ABDF8140010802D4A17802D4AA1
:104490001180194A00211177D1831D4A127802EB4D
:1044A000820203EB82121E4931F8122092B2264991
:1044B000098889B291426CDD01210F4A117749E0E8
:1044C000022300F007BF6C239AE6124B1B781033CF
:1044D000094A32F8132092B20F4B1B889BB29A42C2
:1044E000BFF6A9AE044B9B8A002B7FF4A4AE00F06C
:1044F0001BBC67AA05E700BFC48201204C21012034
:104500004E21012000400140602101206C2101204A
:1045100068210120502101206A210120676666661A
:10452000401201200C00002008000020000080380C
:104530000000584340170120401C01200483012043
:10454000068301200883012004000020874A127F8F
:10455000002AA2D0864A127802EB820203EB821371
:10456000844A32F8132092B2834B1B889BB29A4242
:104570000FDB7E4BDB8B33B1804A128892B2D21AAA
:10458000032A00F337857D4B1A88784BDA830022A3
:104590001A777B4B1B889BB20C9305988342B9BF5B
:1045A00006930C90059B0693764B1B889BB20D934C
:1045B000BB42BABF0A930D970A97734B1B889BB2F5
:1045C0000E931A4607988342B9BF0B930E90079B30
:1045D0000B936A4B1B889BB21A2B49DD674B1B88D8
:1045E0009BB2FA2BCCBF0B220022604B93F80CE05D
:1045F0000EF0010A0EF0020B0EF0040E6900099194
:104600009B7C0F93119300215C4E9146DFF88481CF
:1046100044F2D03C0CFB03FC109757462B465D46FA
:104620009B4663E0554A12885849886AC96A584CC3
:10463000D4ED006AF8EE666AD31A9BB207EE903AA0
:10464000F8EEE77A77EEA77A431C07EE103AB8EE59
:10465000477A27EE877A4B1C07EE903AF8EE677A96
:1046600067EE277A86EEA77A404B83ED067A8AE7D3
:104670000B22BAE76DB10A9883420ADB0D98834298
:1046800007DCA3EB0903634440F21D5028F8130034
:104690002BE0BEF1000F0DD00B9883420ADB0E9881
:1046A000834207DCA3EB090363444FF6E43028F8A8
:1046B00013001AE0308810F0030F0FD1D8240998A6
:1046C00094FBF0F01844A246089C9AFBF4FA90FB85
:1046D000FAF40AFB1400002800F0C684A3EB0903D7
:1046E00063444FF0000028F813000131CBB230884A
:1046F00080B21B28B4BFCC20D820984211DB934253
:10470000F3DB002FB6D006988342B3DB0C988342CC
:10471000B0DCA3EB090363444FF4FC6028F81300FA
:10472000E3E7109F154B1B889BB2042B34DC14EE7F
:10473000903A5C00099BBBF1010F08BF23461C4661
:1047400000200146134E44F2D035119B05FB03F5C2
:1047500045F28A2EA1421FDA90FBF4F30B3B2B4467
:1047600026F813E00131D830F4E700BFC4820120FD
:104770006821012040120120040000206A2101204C
:1047800004830120068301200883012000040040E7
:1047900010000020FC020020AD480188038800883A
:1047A00080B21B28B4BFCC24D82448F2A075A948F5
:1047B0000F9E05FB0600019000949BB289B2A648AB
:1047C000FEF71CFEA54A937CB3FA83F35B0993744E
:1047D000A34BBDF814201A80A24B1F80A24BBDF83A
:1047E0001C201A809A4A138801339BB213801388C5
:1047F0009BB2B3F5A07F00F04B81954B1B889BB219
:10480000964AB2F90020111D8B4200F05381904B63
:104810001B889BB2012B40F08782904B93F90E20AE
:1048200092B2924921A802F0C3FD01230093904B5C
:104830000022114621A80EF069FE04461DAB1B9311
:10484000064656F8083BB34200F0CA811B938368C2
:104850001D9363681C9326600023636023721C9B76
:10486000C3F1FF4303F5FF0303F5FF437F33012B40
:1048700040F2BF8102227F491BA80EF0CBFE044606
:1048800017AB1593064656F8083BB34200F0B481C7
:1048900015938368179363681693266000216160FF
:1048A000217227AB45F28A22279228AA28916A48CA
:1048B0000292019300F10803009315AB0122FEF769
:1048C00080FF159817AB984201D004F02FF81B9881
:1048D0001DAB984201D004F029F8219823AB9842EF
:1048E00001D004F023F85D4B93F90E2092B25F499A
:1048F00035A802F05DFD012300935F4B00221146B5
:1049000035A80EF003FE044631AB2F93064656F849
:10491000083BB34200F079812F9383683193636839
:1049200030932660002363602372309BC3F1FF4302
:1049300003F5FF0303F5FF437F33012B40F26E8144
:1049400002224C492FA80EF065FE04462BAB29939A
:10495000064656F8083BB34200F06381299383680A
:104960002B9363682A93266000216160217245F2CF
:104970008A233B9372AB43F8D81D374802933BAB75
:10498000019300F10803009329ABCE22FEF719FF33
:1049900029982BAB984201D003F0C8FF2F9831AB78
:1049A000984201D003F0C2FF359837AB984201D04E
:1049B00003F0BCFF294B9B8A002B40F03B81274B27
:1049C00093ED060AB5EE400AF1EE10FA00F06181AF
:1049D000002226494BA803F09DF84C9BC3F1FF43EE
:1049E00003F5FF0303F5FF437F33052B40F24581B9
:1049F000062222494BA80EF00DFE044647AB459314
:104A0000064656F8083BB34200F03A814593836866
:104A100047936368469326600023636023724FF6D2
:104A2000FF72519252930C4852AB029351AB0193D7
:104A300000F10803009345AB0122FA21FEF7C1FE05
:104A4000459847AB98421BD003F070FF18E000BFB9
:104A50006A210120FC020020A07B0120C4820120E9
:104A60000483012006830120088301200C83012098
:104A700020AF0208C4AE0208C8AE0208D8AE0208D1
:104A80004B984DAB984200F0268103F04FFF22E196
:104A90000023934A1370934A9382934B1A6822F02F
:104AA00001021A60914A12685B6A03EB0243904A62
:104AB0001360A2E68B494B889BB206EE903A8D4B71
:104AC00093ED006A8C4B1B881BB2887DF8EEE66A7A
:104AD00066EE866A07EE903AF8EEE77A36EEA77A47
:104AE000DFED867A27EE277AF6EE007A77EE676AB0
:104AF00091F90E3006EE103AB8EEC66AF2EE005AA0
:104B000085EE867A26EE877A77EE277A07EE100A08
:104B1000F8EEC76A87EEA67ADFED797A27EE277A74
:104B20008DED6E7AD72393FBF0F307EE903AF8EE13
:104B3000E77ACDED6D7AB4EEE77AF1EE10FAD4BFF4
:104B40006EAB6DABF7EE007ACDED6C7A93ED007A3B
:104B5000B4EEE77AF1EE10FA48BF6CABD3ED007A11
:104B6000FCEEE77ACDED057ABDF814405D4B5B684D
:104B700064498B4230D064498B4229D000232344BE
:104B80009CB2631F9BB2CE2B3FF641AE91B213ABEA
:104B90004FF6E0761396221F5C4D0193231D9BB2C6
:104BA00000930B4692B22846FEF777FC4D4BB3F9C3
:104BB000001014AA14960B1D043921EAE171019228
:104BC00000949BB2224689B22846FEF766FC1EE698
:104BD0004F4B1B889BB2D2E74E4B1B889BB2CEE754
:104BE0001DAD034653F8080F59689A68DB680FC576
:104BF0002FE6494819F0CEFF17AD034653F8080FCA
:104C000059689A68DB680FC545E631AD034653F82D
:104C1000080F59689A68DB680FC580E63E4819F0AE
:104C2000B9FF2BAD034653F8080F59689A68DB6843
:104C30000FC596E63FAC3D9438494FF000030A4655
:104C40000B393DA8FFF720FA4FF6FF73439372AB81
:104C5000002243F8B82D2D48029343AB019300F195
:104C6000080300933DAB0122FA21FEF7AAFD3D980F
:104C7000A04259D003F05AFE56E0274819F08AFFA7
:104C800047AD034653F8080F59689A68DB680FC5AB
:104C9000BFE647AC459422494FF000030A460A3963
:104CA00045A8FFF7F1F94FF6FF73519372AB00225D
:104CB00043F8802D1548029351AB019300F108038E
:104CC000009345AB0122FA21FEF77BFD4598A042F7
:104CD00001D003F02BFE0022024B9A6124E000BFBA
:104CE0006C210120C482012000400140602101208C
:104CF000642101200C000020080000200000803802
:104D0000000058434621012048210120A07B0120BA
:104D10004E2101204C210120D0980208D7AE020874
:104D2000EAAE0208032A5BD0A04803F021FDA04BA5
:104D30001B785BB19F4B1A689D4B5B6803F5EA33A8
:104D4000C033934202D29A48FCF7BEFA974B9B7845
:104D5000002BE9D1984A1278042A3FF401AA511E87
:104D6000C9B201297FF601AA002ADBD1934B1B7837
:104D7000002B7FF453AA924B1B78002B40F0088144
:104D8000904B9B8A002B3FF449AA8F4B1B78B3FAB8
:104D900083F35B098D4A13700122884B1A7000223D
:104DA0008B4B1A80874B5B7B002B3FF423AA854BF0
:104DB00093F90C30072B00F08A82022B40F3F1802C
:104DC000042B00F0EE8002217E4A917513F0010F52
:104DD0007FF476AB00227F4B1A806C23FFF710BA6A
:104DE000784A92F82D2012BB764991F83410F1B12F
:104DF000744A518E89B2528D92B2914205DA714A4B
:104E000092F82E20002A40F08B806E4A92F83420CF
:104E1000002A00F091806B4A518E89B2528D92B275
:104E2000914200F08B80674B93F82E2015E0654986
:104E300091F82E10002973D1624991F8351000299C
:104E40006ED06049088E80B2098D89B2884202DA3C
:104E5000002A65D1D9E7002AD7D05C490A700878C2
:104E6000584B1844012280F82D200878183000246F
:104E700023F8104009780E3103EB810393ED000A0B
:104E80004A4959A802F046FE5A9BC3F1FF4303F575
:104E9000FF0303F5FF437F33032B51D904224E490F
:104EA00059A80EF0B7FB044655AB5393054655F889
:104EB000083BAB4247D05393836855936368549340
:104EC00025600023636023724FF6FF725F92609348
:104ED000424860AB02935FAB019300F1080300937B
:104EE00053ABE0228C21FEF76CFC539855AB9842F3
:104EF00001D003F01BFD59985BAB984201D003F041
:104F000015FD01222F4B9A75354B5A6942F001026B
:104F10005A611A6842F001021A600022314B1A608D
:104F20002A4B00221A701B78DBB2012B3FF7FCAE34
:104F3000264C9FED2D9AADE101228EE71A468CE7B3
:104F40002A4819F027FE55AE034653F8080F596852
:104F50009A68DB680FC6B1E770ABF8E000273B4604
:104F60003AE12278174B1A44002182F82D1022785A
:104F7000134483F834101A4B1A6822F001021A60A5
:104F8000184A12685B6A03EB0243194A136078E11E
:104F90000C4B9B8A002B7FF4F8AE0B4B1B78DBB2DB
:104FA000F8E60122074B9A75FFF727B90C83012019
:104FB0005821012040210120060000206C21012001
:104FC00054210120C48201205021012068210120A8
:104FD0006A2101204C210120EC980208A07B0120CD
:104FE000004001406021012000002043D0980208C9
:104FF00064210120BE4AD2ED066AF5EEC06AF1EEE8
:1050000010FA7FF70FABBB4A1288BB49886AC96A9E
:10501000BA4C94ED006AB8EE466AD31A9BB207EE1A
:10502000903AF8EEE77A77EEA77A431C07EE103A4B
:10503000B8EE477A27EE877A4B1C07EE903AF8EEE7
:10504000677A67EE277A86EE277AF0EE087A66EEC0
:10505000A76A37EE267AF5EE007A67EE277AA44B38
:10506000C3ED067AFFF78FBAA3EB0903634445F259
:105070008A2028F81300FFF738BB23789C4A1433A2
:1050800032F813309BB29AFBF3F303F58073594265
:10509000C3F30903C1F3090158BF4B4203F60603EA
:1050A000974901EB8303D3ED007A67EEA97A77EE97
:1050B000897AFDEEE77ACDED057A237803EB830359
:1050C00006EB83138F4931F813309BB207EE903A09
:1050D0008D4B93ED006A8D4B1B881BB2917DF8EED2
:1050E000E77A67EE867A07EE103AB8EEC77A37EEBF
:1050F000877A27EE287AF6EE007A77EE676A92F9D9
:105100000E3006EE103AB8EEC66AF2EE005A85EEA0
:10511000867A26EE877A77EE277A07EE101AF8EE6F
:10512000C76A87EEA67A27EE087A8DED717AD723C3
:1051300093FBF1F307EE903AF8EEE77ACDED707A53
:10514000B4EEE77AF1EE10FA3FF706AF71ABF7EE87
:10515000007ACDED6F7A93ED007AB4EEE77AF1EE56
:1051600010FA48BF6FABD3ED007AFCEEE77ACDEDD5
:10517000067ABDF81850237818335D4A32F8133098
:105180009BB2A03B23EAE3739E4204BF604B1D80A9
:105190002278574B183233F8122092B22178183106
:1051A00033F81170BFB22178183133F811309BB247
:1051B0009E3B9E42FFF6D2AE921B8BFB0213C3EBCB
:1051C000E2733F335B019BB2BF1B524A82FB071263
:1051D000C2EBE7771F37BFB2BDF81410DFF830819C
:1051E000B8F8002092B272A840F8443D01900092B5
:1051F0000B462A464848FEF750F9237814333C4AB8
:1052000032F8131089B299FBF1F189B2B8F8003085
:105210009BB272AA42F8407D019200930B462A4647
:105220003D48FEF73AF9A8F80050013609F5A07993
:105230000AF5806A237818332D4A32F813309BB26E
:105240009E4207DC2378143332F813309BB29E421F
:105250007FF713AF2178264A183132F81130013325
:105260009BB222F811302378183332F8131089B228
:105270002378143332F813309BB2A03399423FF4B1
:1052800070AE23780133DBB223702378DBB2012BBD
:105290003FF74AAD2278164B134493F82D30002B7C
:1052A000EFD023781833124A32F81360B6B2A03E1A
:1052B00026EAE67606EB86094FEA89194FEA862A3E
:1052C000DFED168A9FED168ADFF85CB0B2E70323A4
:1052D000074A9375D82292FBF3F212490A80022BF7
:1052E0003FF4F1A8032B0CBF90230023FEF788BFE7
:1052F000C48201206A210120000400401000002027
:1053000070210120401201200C0000200800002024
:1053100004830120ABAAAA2AA07B012000008038C8
:10532000000058434C2101205655555570B582B0A8
:1053300005460E4671B1541A01940F2C0ED82868F8
:10534000012C14D0B4B9019B6B602A680021D154A0
:1053500002B070BD9AB10B4819F019FC002201A9E6
:1053600028460DF0BBFE2860019BAB60E7E7337871
:105370000370E8E7224631461DF051FEE3E7541A78
:105380000194DCE7A49802082DE9F043FFB007463A
:10539000002484708DF8004003AB0193B7494FF0AF
:1053A00000030A460B3901A8FEF76EFE8DF81C407B
:1053B0000AAB089309948DF8284001238DF8383002
:1053C00011AB0F93AE494FF000030A460A390FA8FC
:1053D000FEF75AFE4FF004088DF8548018AB169370
:1053E00017948DF8604002268DF870601FAB1D93F6
:1053F000A4494FF000030A460B391DA8FEF744FEEE
:105400000A238DF88C3026AB249325948DF8984090
:1054100003258DF8A8502DAB2B939B494FF000032B
:105420000A460A392BA8FEF72FFE0C238DF8C4304C
:1054300034AB329333948DF8D0408DF8E0803BABA1
:10544000399392494FF000030A46093939A8FEF70B
:105450001BFE4FF007088DF8FC8042AB409341944F
:105460008DF808414FF005098DF8189149AB479325
:1054700087494FF000030A46093947A8FEF704FEA2
:1054800006238DF8343150AA4E924F948DF8404146
:105490008DF8503157AB55937E494FF000030A46C3
:1054A0000A3955A8FEF7F0FD8DF86C915EAB5C9360
:1054B0005D948DF878418DF8888165AB639376496A
:1054C0004FF000030A460B3963A8FEF7DDFD8DF8A7
:1054D000A4616CAB6A936B948DF8B04108238DF88E
:1054E000C03173AB71936D494FF000030A460C391C
:1054F00071A8FEF7C9FD8DF8DC517AAB78937994E9
:105500008DF8E8417C60BC60FC604FF4FC7003F0F7
:1055100014FA0646786000F5FC73FB6000F10C0598
:105520006C46D6B1237805F80C3C45F8085C6168F8
:10553000A2684FF000030A44301DFFF7F7FE237FF7
:105540002B7406F128036B61216A626A4FF0000335
:105550000A4406F12000FFF7E9FE383438363835C2
:105560007EAB9C42DDD1BE601C466E4608E068689A
:105570002C3CA04201D003F0D9F92C46B54209D009
:10558000A4F13805286AA4F110039842EFD003F083
:10559000CDF9ECE700248DF8004003AB01933749C7
:1055A0004FF000030A460B3901A8FEF76DFD8DF898
:1055B0001C400AAB089309948DF8284001238DF80C
:1055C000383011AB0F9336494FF000030A460839C3
:1055D0000FA8FEF759FD08238DF8543018AB169329
:1055E00017948DF8604002238DF870301FAB1D9327
:1055F0002C494FF000030A4607391DA8FEF744FD69
:1056000009238DF88C3026AB249325948DF898408F
:105610003C617C61BC61A82003F08FF906463861CB
:1056200000F1A803BB6100F10C056C460DF1A80860
:10563000D6B1237805F80C3C45F8085C6168A2688F
:105640004FF000030A44301DFFF770FE237F2B74D8
:1056500006F128036B61216A626A4FF000030A4475
:1056600006F12000FFF762FE3834383638354445FD
:10567000DED17E612AAC6E461FE000BF3FAE02085D
:105680004AAE020857AE020862AE02086DAE0208CA
:1056900079AE020886AE020893AE0208A0AE0208F8
:1056A000ACAE0208B7AE020868682C3CA04201D03C
:1056B00003F03CF92C46B54209D0A4F13805286A1C
:1056C000A4F110039842EFD003F030F9ECE7002486
:1056D0008DF8004003AB019342494FF000030A46A6
:1056E0000A3901A8FEF7D0FC04238DF81C300AAB60
:1056F000089309948DF8284001238DF8383011ABB8
:105700000F9339494FF000030A4607390FA8FEF7F7
:10571000BBFC09238DF8543018AB169317948DF801
:10572000604002238DF870301FAB1D932F494FF05E
:1057300000030A460A391DA8FEF7A6FC0B238DF8C4
:105740008C3026AB249325948DF89840FC613C6204
:105750007C62A82003F0F1F80646F86100F1A80386
:105760007B6200F10C056C460DF1A808D6B12378D8
:1057700005F80C3C45F8085C6168A2684FF000032E
:105780000A44301DFFF7D2FD237F2B7406F1280356
:105790006B61216A626A4FF000030A4406F120003F
:1057A000FFF7C4FD3834383638354445DED13E6223
:1057B0002AAC6E4608E068682C3CA04201D003F099
:1057C000B5F82C46B54209D0A4F13805286AA4F1F1
:1057D00010039842EFD003F0A9F8ECE738467FB009
:1057E000BDE8F0834AAE0208B7AE0208C2AE0208B6
:1057F000F8B54C4B00261E70F0225A804FF4A07270
:105800009A80494D03F1080295E8030082E80300FD
:1058100003F1100205F1080103C982E8030083F8CF
:1058200098664248FBF704FE414C2046FFF7ACFD6A
:10583000404A4149204603F07BF8404C2675667586
:10584000A67504F1180710350FCD0FC795E80F00A6
:1058500087E80F00A66326646664A664E66426658E
:105860006665A665E6650823E363202003F065F816
:105870000646A063E46B013C640800EB84052B1D25
:105880009D4205D24FF4007003F057F846F824000B
:105890002A48C56456F82430436403F500728264D4
:1058A000C5654365826503640365002480F8604034
:1058B00080F878401F4A224903F03AF8214B0A2227
:1058C0001A8041F6583159801F4959601C725A722A
:1058D0005A8107221A7301225A73082199730B21E6
:1058E000D97309211974022159749C749C829A7588
:1058F0001C771C845C849C84DC841C855C8583F818
:105900002C4083F82D4083F82E401C865C8683F85B
:10591000344083F8354000229A63DA630B4B1C70E5
:10592000F8BD00BFA07B01205C9802087021012017
:105930000C830120000000208938000840820120EB
:1059400061380008C482012044210120582101202F
:1059500038B5094BA3F5907502E02346AC4209D057
:10596000A3F1180453F8180C103B9842F5D002F03C
:10597000DDFFF2E738BD00BF54840120F0B589B0E7
:1059800005461478204AA2FB0432D20802EB4203F7
:10599000A4EB8304E4B204AB02933032012102A8E9
:1059A0000DF00AFC194A61000B1952F833300C440F
:1059B00002EBC402526800920022114602A80DF0C8
:1059C000A5FD05F108012960034653F8082B9A420A
:1059D00011D02A608268AA6042686A60036000236E
:1059E00043600372029804AB984201D002F09EFF1C
:1059F000284609B0F0BD1F685E689C68DA68AF6031
:105A0000EE602C616A61E7E7ABAAAAAA34830120A1
:105A10002DE9F04F89B0079004911468D2F804A0E2
:105A200093680093D2F80CB004F110069E422FD078
:105A3000CDF814B0009B0393CDF804A0049DAF688B
:105A40006B692969C91B0911ABEB03029210501E47
:105A5000A4EB0A02121102EB40120A440692686A91
:105A60002A46AD69D269AA1A1211C31A9B10013BCA
:105A700002EB43131944069BB3EB510F80F09D805A
:105A8000A74274D0002B72DD9946DDF8148045E002
:105A90000BF104030593DBF8046006F50073039330
:105AA0000196CBE7009D214645E03A46334649E062
:105AB0005042014418441DF0BDFA4BE0002B14DDA8
:105AC0001C46B8BF03F11F0464110BEB840BDBF819
:105AD00000A0A3EB44140AEB04147F1B1F2F08D86B
