:020000040800F2
:100000000000022051680008A1680008A1680008EB
:10001000A1680008A1680008A168000800000000AD
:10002000000000000000000000000000A1680008BF
:10003000A168000800000000A1680008A16800088D
:10004000A1680008A1680008A1680008A16800086C
:10005000A1680008A1680008A1680008A16800085C
:10006000193B0008A1680008A1680008A168000801
:10007000A1680008A1680008A1680008A16800083C
:10008000A1680008A1680008A1680008A16800082C
:10009000A1680008A1680008A1680008753B000875
:1000A000A1680008A1680008A1680008A16800080C
:1000B000A168000809350008A13C0008A1680008F3
:1000C000A1680008A1680008A1680008A1680008EC
:1000D000A1680008A1680008A1680008A1680008DC
:1000E000353C0008A1680008A1680008A168000864
:1000F000A1680008A1680008A1680008A1680008BC
:10010000A1680008A1680008A1680008A1680008AB
:1001100091510008A1680008A1680008A1680008C2
:10012000A1680008A1680008A1680008A16800088B
:10013000A16800080000000000000000A16800089D
:10014000A1680008A1680008A1680008A16800086B
:10015000A1680008A1680008A1680008A16800085B
:10016000A1680008A1680008A1680008A16800084B
:10017000A1680008A1680008A1680008000000004C
:1001800000000000A168000800000000000000005E
:10019000A16800080000000000000000A16800083D
:1001A000000000000000000000000000A16800083E
:1001B000A1680008A1680008A1680008A1680008FB
:0401C000A16800082A
:1001D00010B5054C237833B9044B13B10448AFF381
:1001E00000800123237010BDC80200200000000021
:1001F000708F020808B5034B1BB103490348AFF3E6
:10020000008008BD00000000CC020020708F0208B2
:1002100001F0FF01102A2BDB10F0070F08D010F8B7
:10022000013B013A8B422DD010F0070F42B3F6D1BB
:10023000F0B441EA012141EA014122F007047FF0D4
:1002400000070023F0E80256083C85EA010586EA2B
:10025000010685FA47F5A3FA87F586FA47F6A5FA67
:1002600087F68EB9EED1F0BC01F0FF0102F0070273
:1002700032B110F8013B013A83EA010313B1F8D11E
:100280000020704701387047002D06BF35460338FF
:10029000073815F0010F07D1013015F4807F02BF38
:1002A000013015F4C03F0130F0BC0138704700BF89
:1002B00010F8012B11F8013B012A28BF9A42F7D010
:1002C000D01A7047034613F8012B002AFBD1181AE5
:1002D0000138704781F0004102E000BF83F0004325
:1002E00030B54FEA41044FEA430594EA050F08BFD1
:1002F00090EA020F1FBF54EA000C55EA020C7FEA95
:10030000645C7FEA655C00F0E2804FEA5454D4EB11
:100310005555B8BF6D420CDD2C4480EA020281EADB
:10032000030382EA000083EA010180EA020281EA13
:100330000303362D88BF30BD11F0004F4FEA013165
:100340004FF4801C4CEA113102D0404261EB410174
:1003500013F0004F4FEA03334CEA133302D05242FA
:1003600063EB430394EA050F00F0A780A4F10104B6
:10037000D5F1200E0DDB02FA0EFC22FA05F28018F0
:1003800041F1000103FA0EF2801843FA05F35941D6
:100390000EE0A5F120050EF1200E012A03FA0EFC55
:1003A00028BF4CF0020C43FA05F3C01851EBE3717F
:1003B00001F0004507D54FF0000EDCF1000C7EEB9C
:1003C00000006EEB0101B1F5801F1BD3B1F5001FDA
:1003D0000CD349085FEA30004FEA3C0C04F10104F9
:1003E0004FEA445212F5800F80F09A80BCF1004F22
:1003F00008BF5FEA500C50F1000041EB045141EAA4
:10040000050130BD5FEA4C0C404141EB010111F4A4
:10041000801FA4F10104E9D191F0000F04BF01464F
:100420000020B1FA81F308BF2033A3F10B03B3F12D
:1004300020020CDA0C3208DD02F1140CC2F10C02BD
:1004400001FA0CF021FA02F10CE002F11402D8BF1B
:10045000C2F1200C01FA02F120FA0CFCDCBF41EAE7
:100460000C019040E41AA2BF01EB0451294330BDB6
:100470006FEA04041F3C1CDA0C340EDC04F1140493
:10048000C4F1200220FA04F001FA02F340EA03006A
:1004900021FA04F345EA030130BDC4F10C04C4F1B0
:1004A000200220FA02F001FA04F340EA0300294690
:1004B00030BD21FA04F0294630BD94F0000F83F4DA
:1004C000801306BF81F480110134013D4EE77FEABD
:1004D000645C18BF7FEA655C29D094EA050F08BF09
:1004E00090EA020F05D054EA000C04BF19461046EA
:1004F00030BD91EA030F1EBF0021002030BD5FEA2E
:10050000545C05D14000494128BF41F0004130BD55
:1005100014F580043CBF01F5801130BD01F00045A9
:1005200045F0FE4141F470014FF0000030BD7FEA1C
:10053000645C1ABF194610467FEA655C1CBF0B4617
:10054000024650EA013406BF52EA033591EA030F2E
:1005500041F4002130BD00BF90F0000F04BF002126
:10056000704730B54FF4806404F132044FF0000559
:100570004FF0000150E700BF90F0000F04BF0021D2
:10058000704730B54FF4806404F1320410F0004538
:1005900048BF40424FF000013EE700BF42004FEA33
:1005A000E2014FEA31014FEA02701FBF12F07F43B0
:1005B00093F07F4F81F06051704792F0000F14BFAD
:1005C00093F07F4F704730B54FF4607401F00045F1
:1005D00021F0004120E700BF50EA010208BF704748
:1005E00030B54FF000050AE050EA010208BF70473D
:1005F00030B511F0004502D5404261EB41014FF4A6
:10060000806404F132045FEA915C3FF4DCAE4FF0A9
:1006100003025FEADC0C18BF03325FEADC0C18BF90
:10062000033202EBDC02C2F1200300FA03FC20FAE1
:1006300002F001FA03FE40EA0E0021FA02F114442E
:10064000C1E600BF70B54FF0FF0C4CF4E06C1CEA43
:1006500011541DBF1CEA135594EA0C0F95EA0C0FB8
:1006600000F0DEF82C4481EA030621EA4C5123EA2B
:100670004C5350EA013518BF52EA033541F480115A
:1006800043F4801338D0A0FB02CE4FF00005E1FB0D
:1006900002E506F00042E0FB03E54FF00006E1FB57
:1006A00003569CF0000F18BF4EF0010EA4F1FF049A
:1006B000B6F5007F64F5407404D25FEA4E0E6D41DA
:1006C00046EB060642EAC62141EA55514FEAC520EB
:1006D00040EA5E504FEACE2EB4F1FD0C88BFBCF567
:1006E000E06F1ED8BEF1004F08BF5FEA500E50F118
:1006F000000041EB045170BD06F0004646EA0101DE
:1007000040EA020081EA0301B4EB5C04C2BFD4EB0F
:100710000C0541EA045170BD41F480114FF0000E08
:10072000013C00F3AB8014F1360FDEBF002001F076
:10073000004170BDC4F10004203C35DA0C341BDCF0
:1007400004F11404C4F1200500FA05F320FA04F0C2
:1007500001FA05F240EA020001F0004221F00041F6
:1007600010EBD37021FA04F642EB06015EEA430E69
:1007700008BF20EAD37070BDC4F10C04C4F1200599
:1007800000FA04F320FA05F001FA04F240EA02004C
:1007900001F0004110EBD37041F100015EEA430E1D
:1007A00008BF20EAD37070BDC4F1200500FA05F23D
:1007B0004EEA020E20FA04F301FA05F243EA0203BC
:1007C00021FA04F001F0004121FA04F220EA0200CB
:1007D00000EBD3705EEA430E08BF20EAD37070BD11
:1007E00094F0000F0FD101F00046400041EB0101F1
:1007F00011F4801F08BF013CF7D041EA060195F0D3
:10080000000F18BF704703F00046520043EB03038C
:1008100013F4801F08BF013DF7D043EA0603704779
:1008200094EA0C0F0CEA135518BF95EA0C0F0CD084
:1008300050EA410618BF52EA4306D1D181EA0301CA
:1008400001F000414FF0000070BD50EA410606BFC4
:100850001046194652EA430619D094EA0C0F02D109
:1008600050EA013613D195EA0C0F05D152EA03364E
:100870001CBF104619460AD181EA030101F000416C
:1008800041F0FE4141F470014FF0000070BD41F0B5
:10089000FE4141F4780170BD70B54FF0FF0C4CF48F
:1008A000E06C1CEA11541DBF1CEA135594EA0C0FAE
:1008B00095EA0C0F00F0A7F8A4EB050481EA030EFB
:1008C00052EA03354FEA013100F088804FEA0333E2
:1008D0004FF0805545EA131343EA12634FEA0222B0
:1008E00045EA111545EA10654FEA00260EF0004171
:1008F0009D4208BF964244F1FD0404F5407402D2C3
:100900005B084FEA3202B61A65EB03055B084FEA53
:1009100032024FF480104FF4002CB6EB020E75EB50
:10092000030E22BFB61A754640EA0C005B084FEA78
:100930003202B6EB020E75EB030E22BFB61A7546F5
:1009400040EA5C005B084FEA3202B6EB020E75EB40
:10095000030E22BFB61A754640EA9C005B084FEAB8
:100960003202B6EB020E75EB030E22BFB61A7546C5
:1009700040EADC0055EA060E18D04FEA051545EAB4
:1009800016754FEA06164FEAC30343EA52734FEA5D
:10099000C2025FEA1C1CC0D111F4801F0BD141EAD6
:1009A00000014FF000004FF0004CB6E711F4801F3B
:1009B00004BF01430020B4F1FD0C88BFBCF5E06F1B
:1009C0003FF6AFAEB5EB030C04BFB6EB020C5FEA2B
:1009D000500C50F1000041EB045170BD0EF0004E80
:1009E0004EEA113114EB5C04C2BFD4EB0C0541EAB2
:1009F000045170BD41F480114FF0000E013C90E6AF
:100A000045EA060E8DE60CEA135594EA0C0F08BF72
:100A100095EA0C0F3FF43BAF94EA0C0F0AD150EA71
:100A200001347FF434AF95EA0C0F7FF425AF104604
:100A300019462CE795EA0C0F06D152EA03353FF42C
:100A4000FDAE1046194622E750EA410618BF52EAA9
:100A500043067FF4C5AE50EA41047FF40DAF52EA7D
:100A600043057FF4EBAE12E74FF0FF3C06E000BF1A
:100A70004FF0010C02E000BF4FF0010C4DF804CD27
:100A80004FEA410C7FEA6C5C4FEA430C18BF7FEAE7
:100A90006C5C1BD001B050EA410C0CBF52EA430C15
:100AA00091EA030F02BF90EA020F0020704710F195
:100AB000000F91EA030F58BF994208BF90422CBF24
:100AC000D8176FEAE37040F0010070474FEA410C1D
:100AD0007FEA6C5C02D150EA013C07D14FEA430C3B
:100AE0007FEA6C5CD6D152EA033CD3D05DF8040BAC
:100AF000704700BF8446104662468C4619466346DE
:100B000000E000BF01B5FFF7B7FF002848BF10F1B4
:100B1000000F01BD4DF808EDFFF7F4FF0CBF0120F9
:100B200000205DF808FB00BF4DF808EDFFF7EAFF75
:100B300034BF012000205DF808FB00BF4DF808ED30
:100B4000FFF7E0FF94BF012000205DF808FB00BF25
:100B50004DF808EDFFF7CEFF94BF012000205DF8AF
:100B600008FB00BF4DF808EDFFF7C4FF34BF0120BC
:100B700000205DF808FB00BF4FEA410C7FEA6C5C87
:100B800002D150EA013C0AD14FEA430C7FEA6C5C87
:100B900002D152EA033C02D14FF0000070474FF0FF
:100BA000010070474FEA410212F5001215D211D52B
:100BB0006FF47873B3EB625212D94FEAC12343F05A
:100BC000004343EA505311F0004F23FA02F018BFDC
:100BD000404270474FF00000704750EA013005D1A5
:100BE00011F0004008BF6FF0004070474FF0000068
:100BF000704700BF4A0011D212F5001211D20DD574
:100C00006FF47873B3EB62520ED44FEAC12343F012
:100C1000004343EA505323FA02F070474FF00000BC
:100C2000704750EA013002D14FF0FF3070474FF06B
:100C3000000070474FEA4102B2F1E04324BFB3F530
:100C4000001CDCF1FE5C0DD901F0004C4FEAC00243
:100C50004CEA5070B2F1004F40EB830008BF20F027
:100C60000100704711F0804F21D113F13872BCBFE1
:100C700001F00040704741F480114FEA5252C2F136
:100C80001802C2F1200C10FA0CF320FA02F018BF7F
:100C900040F001004FEAC1234FEAD32303FA0CFCD2
:100CA00040EA0C0023FA02F34FEA4303CCE77FEA61
:100CB000625307D150EA01331EBF4FF0FE4040F4AB
:100CC0004000704701F0004040F0FE4040F400005A
:100CD000704700BF53B94AB9002908BF00281CBF9C
:100CE0004FF0FF314FF0FF3000F07AB9ADF1080C52
:100CF0006DE904CE00F006F8DDF804E0DDE902233A
:100D000004B070472DE9F0478C460D460446089E16
:100D1000002B51D18A4217466DD9B2FA82FEBEF13C
:100D2000000F0BD0CEF1200C01FA0EF520FA0CFCCE
:100D300002FA0EF74CEA050C00FA0EF44FEA174AD5
:100D4000250CBCFBFAF81FFA87F90AFB18CC45EA18
:100D50000C4508FB09F3AB420AD9ED1908F1FF3243
:100D600080F02381AB4240F22081A8F102083D448B
:100D7000ED1AA4B2B5FBFAF00AFB105544EA05449B
:100D800000FB09F9A14509D9E41900F1FF3380F00E
:100D90000A81A14540F2078102383C44A4EB0904D2
:100DA00040EA08400021002E61D024FA0EF400230E
:100DB00034607360BDE8F0878B4207D9002E54D0B1
:100DC000002186E821000846BDE8F087B3FA83F1E8
:100DD000002940F08E80AB4202D3824200F2FA80BA
:100DE000841A65EB03050120AC46002E3FD086E84F
:100DF0001010BDE8F08712B90127B7FBF2F7B7FA78
:100E000087FEBEF1000F34D1EB1B3A0C1FFA87FCB2
:100E10000121B3FBF2F8250C02FB183345EA034528
:100E20000CFB08F3AB4207D9ED1908F1FF3002D2F1
:100E3000AB4200F2D1808046ED1AA3B2B5FBF2F0CE
:100E400002FB105543EA05440CFB00FCA44507D9FE
:100E5000E41900F1FF3302D2A44500F2B88018462D
:100E6000A4EB0C0440EA08409DE731463046BDE85B
:100E7000F087CEF1200405FA0EF307FA0EF720FAF8
:100E800004F83A0C25FA04F448EA0308B4FBF2F13A
:100E90004FEA184502FB11441FFA87FC45EA044556
:100EA00001FB0CF3AB4200FA0EF409D9ED1901F184
:100EB000FF3080F08A80AB4240F2878002393D44A7
:100EC000EB1A1FFA88F5B3FBF2F002FB103345EA88
:100ED000034500FB0CF3AB4207D9ED1900F1FF38D5
:100EE0006FD2AB426DD902383D44EB1A40EA014162
:100EF0008FE7C1F1200722FA07F88B4005FA01F4C9
:100F000048EA030320FA07FE4FEA134CFD404EEA7D
:100F1000040EB5FBFCF94FEA1E440CFB19551FFAF1
:100F200083F844EA054509FB08F4AC4202FA01F2F1
:100F300000FA01FA08D9ED1809F1FF3043D2AC42AA
:100F400041D9A9F102091D442D1B1FFA8EFEB5FBE4
:100F5000FCF00CFB10554EEA054400FB08F8A045D8
:100F600007D9E41800F1FF3529D2A04527D9023866
:100F70001C4440EA0940A4EB0804A0FB02894C454C
:100F8000C6464D4615D312D056B1BAEB0E0364EBEC
:100F9000050404FA07F7CB401F43CC403760746068
:100FA0000021BDE8F0871846F8E69046E0E6C24525
:100FB000EAD2B8EB020E69EB03050138E4E72846F4
:100FC000D7E7404691E78146BEE7014678E7023819
:100FD0003C4445E7084608E7A8F102083D442BE7F2
:100FE000704700BF000000002DE9F047054600F5FE
:100FF00000534FF480621A80012242F20203C2546D
:10100000002442F20E03C45442F20F03C45442F2CD
:101010001003C454082243F21403C254072243F2BB
:101020001503C25444F22002831803F108018150D1
:101030005C6044F22803C45444F23803C45044F2C0
:101040003C03C45244F23E068219254B03CBA851FF
:1010500051601B88138145F64823EC5405F5005A6E
:101060000AF1140A0FF27009D9E9008900261D4F10
:1010700007EE904AF8EEE77A77EEA77A17EE900A35
:10108000FFF78CFA42464B46FFF7DCFA32463B4606
:10109000FFF7D8FA41EC100B1FF03EFD51EC100B9E
:1010A000FFF7C8FD4AF8040B0134B4F5806FDFD1B7
:1010B00005F58043473305F5B4404730502103F52B
:1010C000807203F8011F9342FBD113469042F6D180
:1010D0002846BDE8F08700BF182D4454FB21094085
:1010E000888F02080000503F31B10D4B1B7803443C
:1010F000002142F20E0299540A4B1B787BB942F24E
:101100000E03C35C1BB142F20F02825C3AB90121AB
:10111000044A11700021044A1180044A1370704778
:10112000391200201C120020141200200812002086
:101130002DE9F04F2DED048B89B081460F464FF01D
:10114000010BCDF80CB0002304931C461D469FED07
:10115000C19AF7EE008A9FEDC08AB5E045F64822B5
:1011600019F80210DBB209EB0122904444F2480264
:1011700008F80230012C37D0631C9BB29846B3426A
:101180003ADAFF2B3ADC0134A4B207EB840393ED87
:10119000000A08F6064309EB8303D3ED000A07F0C3
:1011A00036FA20EE090A38EEC00A20EE080AFCEEF4
:1011B000C07ACDED027ABDF808301D2BCEDC0135AA
:1011C000ADB2C82DCADDA54A138801339BB2138086
:1011D000A34B1B784B44002142F20E02995409B0F4
:1011E000BDEC048BBDE8F08F09EB01218B54022E7E
:1011F00015DD4FF00208C6E71C4600E01C46039BC5
:101200001A1F12B21046B2422EDC4FF0000C61469B
:101210004FF0010A09F5B44808F1480806E0022435
:10122000EDE7013212B21046B24220DC92B2FF2A40
:10123000F7D8ABEB0003002BB8BF5B42C3F104034C
:101240000AFA03F39BB29C441FFA8CFC98F800E066
:1012500009EB0E2E704444F2480E10F80E0010FBFD
:1012600003F3194489B2DCE74FF0000C614608A88B
:10127000049A00EB4203B1FBFCF123F8081C13466F
:1012800001335A4203F0030302F0030258BF5342F2
:101290009AB20492BBF1030F0FDD45F6482219F80C
:1012A000022009EB022293449BB200EB430333F884
:1012B000082C44F244030BF80320039B01339BB238
:1012C00003939B46FF2B08DCA0460BF10406B442B7
:1012D00095DAFF2C7FF759AF91E701214846FFF7D8
:1012E00003FF45F6482019F800305A1C5D4981FB80
:1012F0000231D317C3EBE1031A2101FB132309F8D1
:101300000030002303934FF0010A9B462EE0002B90
:1013100014DB03EB8302029901EB021292B20599EE
:1013200001F58050063059F8201021F812B0013B29
:101330001BB2503A92B2B3F1FF3FF4D14A4B049939
:101340000A46A3FB02239B0903EB8303A1EB0313D0
:101350009BB2002B00F08C800AF1010A039B013341
:10136000039340F241139A453FF439AF1FFA8AF3D1
:101370000493039A3D4981FB02131146D217C2EB35
:10138000631303F001021446059203EB8303A1EB00
:1013900003139BB202934FF4FC60762603274FF0B1
:1013A000000CD72309F5B44808F1480804F5805E1D
:1013B0000EF1060E1FE059F82E4024F81200013BF2
:1013C0001BB2503A92B263B1994201DD9D4208DCF2
:1013D0009942F0DA9D42EEDA59F82E4024F812B024
:1013E000EDE70CF1010C0237053EB6B2403880B291
:1013F000BCF11A0F8BD05745F3DA07F580725245CE
:10140000EFDD98F8002002EB0C01164A82FB012464
:10141000CA17C2EBE4021A2404FB121212B2AAEB9E
:10142000070109EB0222114444F24805495D3144A9
:1014300009B20AF1FF34E41B2244555D35442DB254
:10144000002BCEDD03EB8302029C04EB021292B26E
:10145000BAE700BF000080370000A042FC02002075
:10146000391200204FECC44ECDCCCCCC67666666FA
:101470000A4B5A680A4B1A605039059B03F5805392
:10148000063359F823300193D7230093BDF80C306D
:101490005A4689B2034801F04FFB5DE7A064024061
:1014A00034120020A06C002044F21803C15044F212
:1014B0001C03C2507047000070B582B005460E464E
:1014C00071B1541A01940F2C0ED82868012C14D035
:1014D000B4B9019B6B602A680021D15402B070BD81
:1014E0009AB10B481CF0EFFE002201A9284611F02A
:1014F00091F92860019BAB60E7E733780370E8E778
:101500002246314621F027F9E3E7541A0194DCE73B
:10151000F88F02082DE9F04F2DED048BB5B004468D
:10152000099100F500520E3200F5005304330021FA
:1015300023F8021B9342FBD1002344F23802A3504C
:101540000126B34608934FF0FF3899469A469FED1F
:10155000D89ADFEDD88A9FEDD88A099B03EB8B03DD
:1015600093ED000A06F6064304EB8303D3ED000A6D
:1015700007F04DF8B8F1030F34DCB4EEC90AF1EE10
:1015800010FA5EDDB8F1FF3F03D0089B0133B34290
:1015900003DA08F101080FFA88F80FFA8BF30893C1
:1015A00004EB480344F23E0233F802E042F2040244
:1015B0009A5A5AB144F23802A25807EE902AF8EE2D
:1015C000677AF4EEC07AF1EE10FA0FD542F2040217
:1015D00023F802B044F23802FCEEC07A17EE903ADB
:1015E000A35003E04FF01F0ECDF820A020EE280AF4
:1015F000F7EE007A77EEC07A67EE887AF4EE487AF2
:10160000F1EE10FAC8BFF0EE487AFCEEE77ACDEDC5
:10161000077ABDF81C10731EA84880FB0320DA1758
:10162000C2EB601202F00100079002EB8202A3EB12
:1016300002139BB2002200F58055063542F2107766
:101640001EE04FF01F0ECDF820A0CFE79C4A138874
:1016500001339BB213809B4B1B781C44002242F247
:101660000E03E25435B0BDEC048BBDE8F08F54F8A6
:10167000250020F813A0013250339BB2D82A0CD099
:101680009142F4DC09F101090FFA89F9B945DDDC71
:1016900054F8250020F813E0EDE78B4BA3FB0B2358
:1016A0009B0903EB8303ABEB03139BB2ABB9F02EA7
:1016B00000F314810BF1FF32ABF15001079B03F5EE
:1016C0008053063354F823300193D723009393B209
:1016D000524689B27D4801F02FFA0BF1010B1FFA37
:1016E0008BFB5E46BBF5A07F7FF737AF42F202036C
:1016F000E35C002BB6D042F20403E65A002EB1D0D0
:10170000734B9A6ADB6A734991ED007AB8EE477AB7
:1017100007EE906AF8EEE77A27EE277A013302FBAC
:101720000333DB0207EE903AF8EE677AC7EE276ADA
:10173000694BC3ED006A93ED000AF2EE047A80EE85
:10174000270A1FF031FAF2EE007AB4EE670AF1EEE2
:1017500010FA48BFB0EE670AFCEEC07ACDED077A0A
:10176000BDF81C50AB1B002BB8BF5B42012B40F3F4
:101770002182574BDB6A03FB05F3B3FBF6F344F21C
:101780003C02A35206F18043013B099A02EB83031A
:101790001868FEF703FF8046894606F6054304EB0A
:1017A00083031868FEF7FAFE06460F4642464B468C
:1017B00040464946FEF746FF8046894632463B464C
:1017C00030463946FEF73EFF02460B464046494644
:1017D000FEF786FD41EC100B1FF08CFA5BEC10ABB2
:1017E00042F2040334F8038008F10103099A02EB82
:1017F00083031868FEF7D2FE06460F4608F6074335
:1018000004EB83031868FEF7C9FE8046894632461A
:101810003B4630463946FEF715FF06460F46424620
:101820004B4640464946FEF70DFF02460B46304602
:101830003946FEF755FD41EC100B1FF05BFA51ECF9
:10184000100BFFF7AFF907EE900AB8EEE78A5046A3
:101850005946FFF7A7F907EE900AF8EEE76A1E4B24
:1018600093ED007A07EE905AF8EEE77A37EE077AB2
:10187000B0EE666A07EE276AB4EEC86AF1EE10FAB7
:1018800040F19E8144F23C02A35A013BA35244F230
:101890003C03E35A5A1E92B241F26E718A423FF6FD
:1018A000E1AE0B4AD26A9A421CBF094AD362D9E61A
:1018B00000504347000000360000574367666666E5
:1018C000FC02002039120020CDCCCCCCA06C002032
:1018D00000040040200000209C6C002001212046D4
:1018E000FFF702FC42F20403E35A002B3FF4E2AE9E
:1018F000574655465646BC4A08320A92CDF82C90B7
:10190000CDF83080CDF834B0DDF81CB0ADE0B7488C
:101910001CF0DCFC0DF17008034653F8080F596801
:101920009A68DB68A8E80F00D4E026991AA811F09D
:101930000DFA074616AB1493BE465EF8083B734596
:1019400000F011811493BB6816937B681593C7F858
:1019500000E0C7F804A087F808A0159BC3F1FF4377
:1019600003F5FF0303F5FF437F33012B40F20681AC
:1019700002229F4914A811F0E9F9074610AB0E9313
:1019800086465EF8083B734500F0FB800E93836843
:1019900010937B680F93C7F800E0C7F804A087F89E
:1019A00008A0149816AB984201D006F05DFB26986B
:1019B00028AB984201D006F057FB1A981CAB98420E
:1019C00001D006F051FB209822AB984201D006F0DE
:1019D0004BFB0BF58053063354F823900DF1B00800
:1019E0002EAF2C970E994FF000030F9A0A444046F1
:1019F000FFF762FD05F500531C3304EB4303DB885E
:101A0000329334AB43F804AD013505EB8505AA00EC
:101A100092B2049332AB03930A9B0293CDF80480F5
:101A2000CDF80090502351466F4800F09EFE2C9850
:101A3000B84201D006F018FB6E4B5A686E4B1A6024
:101A40000E9810AB984201D006F00EFB0136F6B2AC
:101A50003546042E00F3A080374604F500530433C6
:101A600033F81630002B00F09E8007EE903AF8EE27
:101A7000677A42F20403E35A07EE103AB8EEC77AE7
:101A8000C7EE876A16EE900AFEF788FD41EC100B50
:101A90001EF0FAFF51EC100BFFF7ACF882B2574979
:101AA00020A805F091FB6FF00043219A9A423FF481
:101AB0002EAF0122524920A811F048F986461CABEE
:101AC0001A9384465CF8083B63453FF423AF1A93AE
:101AD00083681C93DEF804301B93CEF800C0CEF868
:101AE00004A08EF808A0474B996ADB6A464A92ED3B
:101AF000007AB8EE477A04F50052043232F8172023
:101B000007EE902AF8EEE77A27EE270A013301FB69
:101B10000333DB0207EE903AF8EE677A524680EE26
:101B2000270A364926A805F05DFC1B99279A8F18CD
:101B30001A9B1CA8834214BF1C980F2087427FF673
:101B4000F4AE26980DF1A00E704514BF28980F2012
:101B500087423FF6EAAE00915246514626A811F060
:101B600071F80746E6E60DF1580C3B4653F8080FAE
:101B700059689A68DB68ACE80F00E6E61B481CF081
:101B8000A5FB0DF1400C034653F8080F59689A68FD
:101B9000DB68ACE80F00FCE6DDF82C90DDF8308067
:101BA000DDF834B086E5DDF82C90DDF83080DDF826
:101BB00034B07FE5134BDA6A44F23C03E252E1E5CC
:101BC000124B93ED007A37EE077A07EE278AB4EED0
:101BD000E68AF1EE10FA7FF55AAE44F23C02A35ABF
:101BE0000133A35253E600BFA06C0020D08F02083F
:101BF000E88F0208A064024034120020EC73002039
:101C000034A6020800040040200000209C6C002044
:101C1000F0B5ABB004468E4A916AD36A8D4A92ED14
:101C2000000AB8EE400A013301FB0333DB0207EE82
:101C3000903AF8EE677A012280EE270A864916A8C4
:101C400005F0D0FB179BC3F1FF4303F5FF0303F53A
:101C5000FF437F33022B4BD90322804916A811F092
:101C600075F8054612AB1093064656F8083BB3428A
:101C700041D01093836812936B6811932E600023F8
:101C80006B602B72724A916AD36A724AD2ED007A03
:101C9000F8EE677A9FED720A67EE807A013301FBF6
:101CA0000333DB0207EE103AB8EE470A012287EE53
:101CB000800A69491CA805F095FB11981D9A8118A6
:101CC000109B12ADAB4214BF129D0F25A9421BD928
:101CD0001C9E1EADAE4214BF1E9D0F25A94213D8F7
:101CE0000090002211461CA810F0ACFF054610E041
:101CF0005C481CF0EBFA12AF034653F8080F596822
:101D00009A68DB680FC7B7E71C9910A811F01EF896
:101D100005460CAB0A932E4656F8083BB34276D0E4
:101D20000A93AB680C936B680B932E6000236B6077
:101D30002B720B9BC3F1FF4303F5FF0303F5FF4336
:101D40007F33032B6CD9042247490AA810F0FEFF09
:101D5000054606AB0493064656F8083BB34262D0EC
:101D60000493836806936B6805932E6000236B6071
:101D70002B720A980CAB984201D006F075F91C98AA
:101D80001EAB984201D006F06FF9109812AB984242
:101D900001D006F069F9169818AB984201D006F008
:101DA00063F9059D04F5804320335B689D4243D071
:101DB00024AE229604994FF000034A1922A8FFF797
:101DC0007BFB4FF6FF7328932AAB002243F8042DC8
:101DD0002648029328AB019300F10803009322AB3D
:101DE000DF22732100F05EFF2298B04201D006F09E
:101DF0003BF904A904F58040203010F098FD0498C8
:101E000006AB984201D006F02FF92BB0F0BD0CAF15
:101E10002B4653F8080F59689A68DB680FC782E7AA
:101E200010481CF053FA06AF034653F8080F5968E0
:101E30009A68DB680FC796E7002DE0D02A4644F287
:101E40002003E158049820F077FC0028D7D0AFE7B2
:101E50000004004020000020EC730020EC8F0208FA
:101E600000809F43D08F0208F08F0208A06C0020F2
:101E70002DE9F04F83B00746009100F5005420880B
:101E8000FEF76AFB41EC100B1EF0EAFD51EC100B63
:101E9000FEF7B0FE23884BB180B2DDF800E071465A
:101EA0000022C0F1200007F5005413E007F50053AD
:101EB0001B88012B40F3FD804FF0010B07F5005EFE
:101EC000CDF804B0DFED7E3A3CE0013204312388E6
:101ED0009342EBDD92FAA2F363FA00F39BB29342D2
:101EE000F3DD0D680EEB83031E680E601D60ECE7EA
:101EF000BEF80030FBB1009B043307F540511831A8
:101F00000022D3ED007A13ED017A37EE677A83ED84
:101F1000007AC1ED013A13ED017A77EE877A43ED4D
:101F2000017A13EE900A41F8080B02320833BEF82A
:101F300000009042E5DC4FEA4B0BBEF800305B45F9
:101F400040F3B780BBF1010FD2D0BBEB530F5FD092
:101F5000BBF1000FEFDD4FEA4B0CDDF800A007F5F9
:101F6000405909F118094FEACB064FEA8B054FF0AB
:101F700000084FEA882393FBFCF307EB830303F588
:101F800000521432D2ED004A03F51053143393ED8E
:101F9000004ABEF80030434531DD09EB05014A46F1
:101FA00053464446D3ED005A92ED007A5819D0EDCD
:101FB000006AD1ED007A24EE265A24EEA76A35EEA7
:101FC000466A64EE277A64EEA66A77EEA67A75EE24
:101FD000C66AC0ED006A77EE676AC1ED006A35EE49
:101FE000866A83ED006A77EE277AC2ED007A644450
:101FF000431932443144BEF80000A042D2DC08F15B
:1020000001080AF1040A09F10409D845B1D192E79F
:10201000BEF80030032B8ED94FEA4B000122019904
:10202000009C930293FBF0F39BB207EB830303F551
:1020300000551435D5ED007A03F51053143393EDA4
:10204000007A0BEB02039B00E518D5ED006A3B44D8
:1020500004EB810696ED006A67EE265A03F54053BD
:102060001833D3ED006A67EEA66A75EEE66A76EE7F
:10207000866AC6ED006AD5ED006A07EB820202F5BA
:102080004052183293ED006A27EE067A67EEA67A80
:1020900077EE277AD2ED006A77EEA67AC2ED007A63
:1020A000013189B20A46BEF80030B1EB530FB8DBFC
:1020B00041E73846FFF7ACFD03B0BDE8F08F00BF45
:1020C00000000000F8B504460D460E4B1A6822F0D9
:1020D00001021A600C4E37685A6A02EB07420B4F36
:1020E0003A605A6942F001025A611A6842F00102EC
:1020F0001A6000233360FFF7BBFE29462046FFF736
:1021000009FAF8BD000800402C120020301200200F
:10211000F8B504460D460E4B1A6822F001021A600B
:102120000C4E37685A6A02EB07420B4F3A605A6905
:1021300042F001025A611A6842F001021A6000235B
:102140003360FFF795FE29462046FEF7F1FFF8BD04
:10215000000800402C12002030120020224B1A6C84
:1021600042F080521A6421490A6842F480420A60AF
:102170001F49D1F8882042F47002C1F888201A68FB
:1021800042F480321A601A46136813F4003FFBD001
:10219000154B184A5A609A689A609A6842F400424D
:1021A0009A609A6842F4A0529A601A6842F080726B
:1021B0001A601A46136813F0007FFBD040F20572D4
:1021C0000D4B1A60A3F580639A6822F003029A60AF
:1021D0009A6842F002029A601A46936803F00C0370
:1021E000082BFAD1704700BF003802400070004051
:1021F00000ED00E0085A4007003C0240384A136BEB
:1022000043F004031363136B43F002031363136C73
:1022100043F400431364334B196841F00101196022
:10222000996841F001019960196841F00401196051
:10223000D96841F00401D960996941F4003199618C
:10224000996941F002019961A3F58063196841F031
:1022500002011960996841F003019960196A41F01F
:1022600007011962196841F080011960996841F00D
:10227000C0019960196A41F4C0411962A3F5E433C1
:10228000196841F400711960196841F4807119608E
:10229000196841F008011960196841F004011960DA
:1022A000196841F040011960136B43F40013136384
:1022B0000D4B1A6822F060621A601A6842F40052EC
:1022C0001A601A6842F400621A601A6842F040020A
:1022D0001A601A6842F400321A60044A9A60704721
:1022E0000038024000080240886002400C3C004078
:1022F000524A136C43F0010313644FF08043596852
:1023000041F040015960132199623121D96259632A
:10231000196A41F001011962996941F060019961FE
:10232000196841F001011960136B43F00103136355
:10233000136B43F004031363536C43F480735364CF
:102340003F490B6843F0C0030B603E4B196841F4F2
:1023500040611960196841F003011960A3F56043F9
:10236000596841F4807159604FF40011D962596B7A
:1023700041F00D015963596B41F0A0015963596B4C
:102380005963D96841F44061D960196941F4403119
:102390001961196941F006011961996841F4806178
:1023A0009960996841F080519960996841F0C061E5
:1023B0009960996841F480719960996841F400715D
:1023C0009960116B41F48001116302F53152303292
:1023D000116821F0C0011160116841F400311160F1
:1023E000116841F400611160116841F400511160FD
:1023F000116821F400711160116841F4806111606D
:10240000116841F480711160116821F0C001116000
:10241000516841F00C0151600B4991600B49D1604A
:10242000116821F060611160116841F001011160D3
:102430009A6842F001029A60704700BF003802407B
:1024400000080240000002404C200140E40200204D
:102450000E4A136C43F0020313640D4B32229A624E
:102460008C22DA62DA6842F00102DA60094A4FF03F
:1024700000511160002182F81D131A6842F0010218
:102480001A605A6942F001025A61704700380240EE
:102490000004004000E100E00B4A136C43F0040329
:1024A00013640A4B0A229A624FF6FF72DA62DA6804
:1024B00042F00102DA60064B4FF080421A6020229F
:1024C00083F81E23704700BF003802400008004018
:1024D00000E100E0064A136C43F008031364054B67
:1024E00042F210729A624FF6FF72DA62704700BFD2
:1024F00000380240000C0040494B1A6B42F00102C8
:102500001A631A6B42F004021A635A6C42F4804256
:102510005A644449CB6843F01003CB60424A936845
:1025200043F400739360414B986840F00400986056
:10253000D86840F00400D860186840F004001860C3
:10254000C86840F48010C860106940F400701061E1
:10255000986840F480609860D86840F48060D860E3
:10256000186840F480601860C86840F08070C860E7
:10257000516941F002015161996841F480519960BB
:10258000D96841F48051D960196841F480511960CB
:102590002749C86840F48040C860D068D060986817
:1025A00040F080009860D86840F08000D8601868DB
:1025B00040F080001860C86840F48030C86010693E
:1025C0001061986840F480709860D86840F480701A
:1025D000D860186840F480701860C86840F48020A3
:1025E000C860116911619A6842F400729A60DA68F1
:1025F00042F40072DA601A6842F400721A600D4BFD
:10260000402283F808234FF48071196083F8172360
:102610004FF40000186083F828235960704700BF0A
:10262000003802400008024000380140003C0140F0
:102630000000024000E100E0184A136C43F400235C
:102640001364174B1A6842F400021A605A6A42F483
:1026500000425A62A3F5DE339968124A12681248A2
:10266000A0FB0202D20C41EA02129A60DA6822F45C
:102670008052DA60DA6842F00402DA60DA6842F026
:102680002002DA60094A302182F834134FF48011B5
:102690005160DA6842F40052DA6070470038024054
:1026A000000802402000002083DE1B4300E100E020
:1026B000094B1A6B42F001021A631A6C42F0005285
:1026C0001A64A3F5E2331A6842F001021A601A682C
:1026D00042F002021A6070470038024082B0019155
:1026E000019B2BB1019B013B0193019B002BF9D175
:1026F00002B070472DE9F04F099D0B9CDDF830E0EA
:10270000DDF834C0667876B312FB031290B2002273
:1027100017469DF82880A8F120089146924606FBAE
:102720000821626832F811B02278A2B14E465246B2
:10273000811889B20BFA06F616F4004F14BFDEF8C2
:102740000060DCF8006025F81160013292B2164694
:1027500021788A42ECDB0137BFB23A4666781844EA
:1027600080B2B742DBDBBDE8F08F2DE9F04F89B0D6
:1027700083460C4606920793DDF848A0139B149EEF
:10278000DDF85490DDF858801D685F682F44AF4233
:1027900014D0CDF81080CDF80C90029615F8013BBE
:1027A0000193CDF800A0079B069A21465846FFF7F3
:1027B000A1FF33781C44A4B2AF42EAD109B0BDE80E
:1027C000F08F00000B4A136823F0400313600B786E
:1027D000012B0AD0074A136823F400631360054AEB
:1027E000136843F0400313607047136843F40063B9
:1027F0001360F4E7003C004010B582B01F4A204C43
:102800005368002BFCD1A36813F0030FF8D0A36822
:1028100013F0800FF4D11B4A936943F48033936122
:102820000C7802F5B142083215495368002BFCD1EF
:102830008B6813F0030FF8D08B6813F0800FF4D17E
:102840000F4B1B6813F4006F10D10D4BDC600B4A6B
:1028500019465368002BFCD18B6813F0030FF8D096
:102860008B6813F0800FF4D102B010BD02A90023D1
:1028700001F8013DFFF7A6FFE7E700BF88600240CF
:10288000003C0040000802402DE9F04383B0804640
:102890000F460968FFF7B0FF204A936943F0010330
:1028A00093613A687B689B1A012B33D901210E464C
:1028B0001B4C1C4D0FE002A9002301F8013D4046CE
:1028C000FFF780FF18E00136F6B231463A687B68C0
:1028D0009B1A9E421ED212F801906368002BFCD115
:1028E000AB6813F0030FF8D0AB6813F0800FF4D18E
:1028F0002B6813F4006FDED1C5F80C906368002BD1
:10290000FCD1AB6813F0030FF8D0AB6813F0800F65
:10291000D9D0F3E703B0BDE8F08300BF0008024060
:1029200088600240003C004010B582B0184A9369AC
:1029300043F0010393610C7802F5B1420832154966
:102940005368002BFCD18B6813F0030FF8D08B6811
:1029500013F0800FF4D10F4B1B6813F4006F10D1EC
:102960000C4BDC600C4A19465368002BFCD18B6879
:1029700013F0030FF8D08B6813F0800FF4D102B07E
:1029800010BD02A9002301F8013DFFF71BFFE7E797
:1029900000080240003C00408860024030B583B02F
:1029A00004460D4602A9362301F8053DFFF724FF32
:1029B000032D1FD8DFE805F00209101702A95823DC
:1029C00001F8043D2046FFF7AFFF02A9882301F874
:1029D000033D2046FFF7A8FF02A9282301F8023D86
:1029E0002046FFF7A1FF02A9E82301F8013D204698
:1029F000FFF79AFF2570012D06D94FF4A07363806D
:102A0000F023A38003B030BDF02363804FF4A073A4
:102A1000A380F7E770B582B004460D462E4A93694D
:102A200043F0010393610E8802F5B14208322B494D
:102A30005368002BFCD18B6813F0030FF8D08B6820
:102A400013F0800FF4D1254B1B6813F4006F33D1C2
:102A5000360A224BDE60224A19465368002BFCD10D
:102A60008B6813F0030FF8D08B6813F0800FF4D14C
:102A70002D781B4A19495368002BFCD18B6813F041
:102A8000030FF8D08B6813F0800FF4D1134B1B6841
:102A900013F4006F18D1114BDD60114A19465368C9
:102AA000002BFCD18B6813F0030FF8D08B6813F068
:102AB000800FF4D102B070BD02A9002301F8013DDE
:102AC0002046FFF77FFEC3E702A9002301F8023D7D
:102AD0002046FFF777FEDEE700080240003C00409A
:102AE0008860024010B584B00446ADF80610ADF819
:102AF0000420ADF8023004A92A2301F8023DFFF7B3
:102B00007BFE0DF106012046FFF784FF0DF1020167
:102B10002046FFF77FFF04A92B2301F8013D204643
:102B2000FFF76AFE01A92046FFF774FF06A92046B9
:102B3000FFF770FF04B010BDF0B585B00546BDF8D5
:102B400028605F1AB41A013407FB04440096FFF7AB
:102B5000C9FF04A92C2301F8023D2846FFF74CFECB
:102B6000114A936943F00103936104A9012301F819
:102B7000013D2846FFF726FE4FF440620B4BDA601A
:102B800088331A6842F480621A605C600B9ADA60DB
:102B90001A6842F001021A60054A536843F00203C2
:102BA000536005B0F0BD00BF000802400060024065
:102BB000003C00402DE9F04F83B004460C9EDDF848
:102BC0003480DDF83890307808446588A84203DD09
:102BD00071780A4492B200217578AB4695B3002013
:102BE00007468446A3F1200A4FF4D07E0BFB0A0B64
:102BF000736833F81B503378DBB13B46002005FA8D
:102C000000F010F4004F94F898B60EFB0B3B0BF15C
:102C10000C0B14BFD8F80000D9F8000024F81B00F2
:102C200001339BB2D81B80B296F800B05845E6DB62
:102C30001F460CF1010C1FFA8CFC60467578AB4600
:102C4000AC45D3DB1548164F4368002BFCD1BB685D
:102C500013F0030FF8D0BB6813F0800FF4D1337872
:102C6000013B0B4494F898064FF4507606FB004065
:102C700018300190501E284480B200909BB220462C
:102C8000FFF75AFF94F8983613F1FF3318BF01236A
:102C900084F8983603B0BDE8F08F00BF886002402A
:102CA000003C00402DE9F04F85B082468B469146AE
:102CB0000E9DDDF83C80109F1C685E682644A6428D
:102CC00010D014F8013B0297CDF8048000954A46D5
:102CD00059465046FFF76EFF297859441FFA81FB89
:102CE000A642EED105B0BDE8F08F30B585B0044600
:102CF0001D4600920B46FFF7F5FE04A92C2301F8B0
:102D0000013D2046FFF778FD29462046FFF782FE69
:102D100005B030BD30B4134C134D6368002BFCD1AB
:102D2000AB6813F0030FF8D0AB6813F0800FF4D149
:102D30000B8820F8063F4FF440610C4BD960883374
:102D4000196821F48061196012885A60D8601A6885
:102D500042F001021A60044A536843F002035360D0
:102D600030BC704788600240003C00400060024078
:102D7000F0B585B00546BDF828605F1AB41A013475
:102D800007FB04440096FFF7ADFE04A92C2301F8CD
:102D9000063D2846FFF730FD184A936943F00103CA
:102DA000936104A9012301F8053D2846FFF70AFDB8
:102DB0004FF6FF73A34228BF234604AA22F8043D1E
:102DC0000B992846FFF7A6FFB4F5803F14D30C4AB1
:102DD0000C495368002BFCD18B6813F0030FF8D01B
:102DE0008B6813F0800FF4D1013404AA22F8024D4D
:102DF0000B992846FFF78EFF05B0F0BD0008024092
:102E000088600240003C004000B583B04388013B2D
:102E100001918288013A92B200929BB2002211463F
:102E2000FFF7A6FF03B05DF804FB0000F0B5C1B0EA
:102E30000446A44DAB6943F40033AB6144F6206112
:102E4000FFF74CFCAB6943F00203AB6144F6206131
:102E50002046FFF743FC40A9012301F8F93D204635
:102E6000FFF7CAFC4CF250312046FFF737FC002335
:102E7000029303930493062005F0FDF803460290A5
:102E8000821D04929049086818608988998003928D
:102E900002A92046FFF7F8FC029808B105F0E4F813
:102EA0000023059306930793042005F0E4F80590AA
:102EB000031D0793854A12680260069305A9204600
:102EC000FFF7E2FC059808B105F0CEF8002308935F
:102ED00009930A93042005F0CEF80890031D0A9385
:102EE0007B4A12680260099308A92046FFF7CCFCD0
:102EF000089808B105F0B8F800230B930C930D93D4
:102F0000032005F0B8F80B90C31C0D93714A11888B
:102F10009278018082700C930BA92046FFF7B4FCD5
:102F20000B9808B105F0A0F800230E930F931093AF
:102F3000052005F0A0F803460E90421D1092664948
:102F400008681860097919710F920EA92046FFF7D9
:102F50009BFC0E9808B105F087F80023119312939B
:102F60001393022005F087F81190831C13935B4A9A
:102F700012880280129311A92046FFF785FC119850
:102F800008B105F071F800231493159316930220ED
:102F900005F071F81490831C1693514A1288028030
:102FA000159314A92046FFF76FFC149808B105F09B
:102FB0005BF80023179318931993022005F05BF830
:102FC0001790831C1993474A12880280189317A9F7
:102FD0002046FFF759FC179808B105F045F8002383
:102FE0001A931B931C93032005F045F81A90C31CF9
:102FF0001C933D4A11889278018082701B931AA914
:103000002046FFF741FC1A9808B105F02DF800237F
:103010001D931E931F93022005F02DF81D90831C15
:103020001F93324A128802801E931DA92046FFF783
:103030002BFC1D9808B105F017F80023209321936D
:103040002293022005F017F82090831C2293284A2F
:1030500012880280219320A92046FFF715FC2098B2
:1030600008B105F001F8002323932493259302204F
:1030700005F001F82390831C25931E4A12880280D4
:10308000249323A92046FFF7FFFB239808B104F0FF
:10309000EBFF0023269327932893032004F0EBFFF4
:1030A0002690C31C2893144A11889278018082705C
:1030B000279326A92046FFF7E7FB2698F0B104F0F6
:1030C000D3FF1BE000080240249002082C90020865
:1030D00030900208349002083890020840900208AC
:1030E00044900208489002084C9002085090020850
:1030F00054900208589002085C900208002329931B
:103100002A932B93042004F0B6FF2990031D2B93E0
:10311000624A126802602A9329A92046FFF7B4FB8D
:10312000299808B104F0A0FF00232C932D932E932F
:10313000022004F0A0FF2C90831C2E93584A128882
:1031400002802D932CA92046FFF79EFB2C9808B1F6
:1031500004F08AFF00232F9330933193052004F06D
:103160008AFF03462F90421D31924E49086818602D
:103170000979197130922FA92046FFF785FB2F9806
:1031800008B104F071FF0023329333933493052088
:1031900004F071FF03463290421D349242490868A0
:1031A000186009791971339232A92046FFF76CFB38
:1031B000329808B104F058FF0023359336933793C3
:1031C000022004F058FF3590831C3793374A128849
:1031D0000280369335A92046FFF756FB359808B193
:1031E00004F042FF0023389339933A93102004F0FF
:1031F00042FF0546389000F110073A972C4E0FCE4B
:1032000028606960AA60EB60399738A92046FFF70B
:103210003BFB389808B104F027FF00233B933C9315
:103220003D93102004F027FF05463B9000F1100766
:103230003D97204E0FCE28606960AA60EB603C97F6
:103240003BA92046FFF720FB3B9808B104F00CFF98
:1032500040A9112301F8053D2046FFF7CDFA164994
:103260002046FFF73BFA40A9292301F8043D2046F8
:10327000FFF7C2FA40A92C2301F8033D2046FFF7CF
:10328000BBFA02212046FFF789FB40A9002321F861
:10329000023D2046FFF7B8FD41B0F0BD6090020846
:1032A0006490020868900208709002087890020802
:1032B0007C9002088C90020840420F002DE9F04FEC
:1032C00089B003900D4616461F46BDF8483004935A
:1032D000DDF84CA043889942A4BF03F1FF35ADB29D
:1032E000BB42DCBF03F1FF37BFB2039B9B889A420E
:1032F000A4BF03F1FF36B6B2049A934204DC03F193
:10330000FF3B1FFA8BF30493BD4202DD2B463D4683
:103310001F46049A964202DD3346164604937B1BF1
:103320001FFA83FB0FFA8BF3049A921B92B2059259
:103330000FFA82F923B3B9F1000F21D04B4530DDEC
:1033400003EBD3746410C3F10008DAF80030ADF871
:103350001E300DF11E03324629460398FFF7C5FCC7
:10336000BD4225D0444504DD059BE41A24B2013555
:10337000ADB24C45E9DA5C4424B20136B6B2E4E7BA
:10338000DAF8002008AB23F8042D0193049B009386
:103390003B46324629460398FFF7EAFC09B0BDE8F0
:1033A000F08FC9F1000404EBD47444F34F04CAE76E
:1033B000049B9E42D6D1F1E72DE9F04385B08046CB
:1033C0000D4614461F46BDF83060DDF83490438842
:1033D0009942A4BF03F1FF35ADB2BB42DCBF03F19C
:1033E000FF37BFB283889A42A4BF03F1FF34A4B26F
:1033F000B342DCBF03F1FF36B6B2BD4202DD2B465D
:103400003D461F46B44202DD234634461E46D9F8E7
:10341000002004AB23F8082D019300943B4622467C
:1034200029464046FFF7A4FCD9F8002004AB23F856
:10343000062D019300962B46224629464046FFF76B
:1034400097FCD9F8002004AB23F8042D01930096D3
:103450003B46324629464046FFF78AFCD9F8002011
:1034600004AB23F8022D019300963B4622463946D1
:103470004046FFF77DFC05B0BDE8F08310B504467B
:1034800044F22003C05804F580432833984201D009
:1034900004F0EAFD204610BD70B505460469466992
:1034A000B44217D1286908B104F0DEFD6C68AE683B
:1034B000B44221D1686808B104F0D6FD284670BD39
:1034C000606804F10C03984201D004F0CDFD38345B
:1034D000A642E7D0206A04F128039842F0D004F015
:1034E000C3FDEDE7606804F10C03984201D004F0DD
:1034F000BBFD3834A642DDD0206A04F1280398428F
:10350000F0D004F0B1FDEDE770B4964A136923F0F2
:1035100001031361944B1A78531EDBB2012B40F266
:10352000E980032A00F0A281002A40F015828F4B27
:103530001888DC88A4B299895A8A14FA80F010FAA3
:1035400081F111FA82F292B289490A8058881C8965
:10355000A4B2D9899A8A14FA80F010FA81F111FA8A
:1035600082F292B283490A809988588980B21A8A75
:10357000DB8A10FA81F111FA82F212FA83F39BB21C
:103580007D4A13807D4B1B78002B3FD17C4B1B78F1
:1035900033B17C4B1B787C4A1278DBB2934235D036
:1035A0007A4B5A68002A00F08D82794B1B889BB2B7
:1035B000764909888B4229DD764B1B889BB273497B
:1035C00049888B4222DA13889BB299421EDC012281
:1035D0006A4B1A706B4C2178C9B26F4B1A886B4BCF
:1035E0001B88D21A12B26D4820F811202278D2B26C
:1035F00030F8122012F4004F40F0DA81614A12785C
:10360000D2B2013B9BB2664921F812305B4B1B786A
:10361000BBB15C4B1B78DBB2614A32F813309BB212
:1036200040F23F1293420CD1564A1378DBB213F1A9
:10363000FF3318BF012313700023554A13804F4AEC
:1036400013704E4B1B7853B94D4B1B783BB14D4B10
:103650001B784D4A1278DBB2934200F07D81434BD8
:103660001B889BB24F4A936046490B784A4A1088A0
:103670003F4C2488A4B203EB83039B0113FA80F32D
:10368000494820F813400B7810883A4C2488A4B29B
:1036900003EB83039B0113FA80F3444820F81340A3
:1036A0000B7811883448008880B203EB83039B01B8
:1036B00013FA81F33E4921F81300344B5B681B88F1
:1036C0009BB234490B8013889BB240F23F12934265
:1036D00000F07A81304A138801339BB21380274B64
:1036E0001B78002B40F07481294A138801339BB268
:1036F000138031E1284B1B889BB22E4A12889A42D4
:103700005ED01E4B1B78002B00F0268142F2100386
:10371000294AD35C002B63D11A4B1E781E4B1D889F
:10372000124A1088D488A4B29189538AB20212FA3C
:1037300085F5214A02EB850214FA80F010FA81F136
:1037400011FA83F307EE903AFAEECF7A9FED1B7AE7
:1037500077EE677AC2ED007A0F4A138801339BB285
:103760001380F9E00004004038120020E402002039
:103770000012002002120020041200201C1200205F
:10378000421200200812002039120020C4730020C9
:1037900006120020C0730020141200203C120020EA
:1037A00018120020007400400003002000080020D0
:1037B000000D00204C3200204C12002000E0FF449D
:1037C000894B1B78002B9CD0884B1A78884B13446C
:1037D000012142F20E0299540022834B1A7090E7A5
:1037E000012B22D0022BB7D1804B1E78814B1D8834
:1037F000814A90885489A4B2118AD38AB20212FAFB
:1038000085F57B4A02EB850214FA80F010FA81F10B
:1038100011FA83F307EE903AFAEECF7A9FED777ABA
:1038200077EE677AC2ED007A96E7704B1E78714B9F
:103830001D88714A50881489A4B2D189938AB20232
:1038400012FA85F56A4A02EB850214FA80F010FA42
:1038500081F111FA83F307EE903AFAEECF7A9FEDF9
:10386000677A77EE677AC2ED007A75E742F2100365
:103870005F4AD35C002B71D15F4A1088D488A4B210
:103880009189538A14FA80F212FA81F212FA83F3C0
:103890009BB25B4A1380544B1B782BBB594B1A8845
:1038A00092B2594B1B889BB29A421DDA544B1A882C
:1038B00092B2554B1B889BB29A4215DB534B1B7837
:1038C00013B1524B5B787BB90122474B1A704F4BB7
:1038D0001B78DBB245490B700022464B1A800B78EF
:1038E000DBB24B4921F813203F4B1B78002B2ED025
:1038F0003E4B1B783F4802884149098889B203EB57
:1039000083039B0113FA82F3424A22F813100388BF
:103910009BB20A2B0FDD3B4B1A8892B23A4B1B88A5
:103920009BB29A4207DA364B1A8892B2364B1B8802
:103930009BB29A4276DA2F4B1B889BB240F23F1221
:1039400093422DD02B4A138801339BB213802C4B0A
:103950001B889BB22B4A138070BC7047012B0FD081
:10396000254A90885489A4B2118AD38A14FA80F225
:1039700012FA81F212FA83F39BB2214A13808AE78A
:103980001D4A50881489A4B2D189938A14FA80F20E
:1039900012FA81F212FA83F39BB2194A13807AE782
:1039A0000022114B1A701C4AD36A1E33D362CEE731
:1039B0000E4A1178C9B2194830F8112002F5A072E8
:1039C00012B220F8112019E600220A4B1A8086E66E
:1039D000064B1A78D2B2124931F8123001339BB239
:1039E00021F81230B8E700BF1C1200200812002096
:1039F0004C12002014120020E402002000E0FF44DA
:103A000000120020C07300200400002020120020BB
:103A10000874002000030020000400403C12002035
:103A200018120020314B1A78D2B23148018889B27D
:103A3000304C24F812101A78D2B201242E498C543A
:103A40001C7803889BB22D4A916AD26A2C4DD5ED21
:103A5000006AF8EE666A07EE903AF8EEE77A77EEDB
:103A6000A77A4B1C07EE103AB8EE477A27EE877A12
:103A7000531C07EE903AF8EE677A67EE277A86EEE7
:103A8000A77A204B03EB840383ED007A00221E4BC0
:103A90001A7003889BB2B3F58C7FBFF658AF144BF6
:103AA0001B889BB2154AD26A02FB0333DB08174A14
:103AB000A2FB032343F34F03002B7FF748AF0F4ACA
:103AC000D36244E70122104B1A700021084B198081
:103AD000064A1378DBB20E4820F813101378DBB2D5
:103AE0004FF6FF710B4A22F813108FE508120020E1
:103AF000141200200874002020120020000400404E
:103B0000200000200C1200201C1200200FEAA00E42
:103B10003C12002018120020124B1B6913F0040FF6
:103B200004D1114A536943F0010353610E4A1368EB
:103B300043F0010313600B4B1B6913F0040F0AD011
:103B4000536A642B07D90122084B1A70064A13687E
:103B500023F001031360064A536943F004035361E1
:103B6000704700BF00080240000C004043120020D4
:103B7000003C0140284B5B6913F0800F1FD0274B9E
:103B80001B6913F0800F04D1254A536943F00103E8
:103B90005361234A136843F0010313601F4B1B69F1
:103BA00013F0800F31D0536AC82B2ED901221D4B40
:103BB0001A701B4A136823F00103136025E0174BAA
:103BC0001B6903F48073002B0CBF02210021134BEF
:103BD0001B69154A107800F00F0083F40073C3F3DB
:103BE00040230B43114901EB8001CB56137013782E
:103BF00013F0300F09D0137803F03003102B0CBFF3
:103C000001224FF0FF320A4B1A70034A536943F402
:103C100060735361704700BF003C014000000240E8
:103C2000000C0040441200204812002008980208AE
:103C300046120020154B1B6903F48063002B0CBF58
:103C400002210021114B1B69114A107800F00F006E
:103C500083F48053C3F300330B430E4901EB80011F
:103C6000CB561370137813F0300F09D0137803F08C
:103C70003003102B0CBF01224FF0FF32064B1A709D
:103C8000064A536943F4A053536170470008024049
:103C9000471200200898020845120020003C01400D
:103CA000044A136923F001031361034A13680133C3
:103CB00013607047000800402C1200202DE9F04FDF
:103CC0002DED068BADF5873DE3B002F0EBFDFEF781
:103CD00045FA02F00DFEFEF7DFFBFEF7FBFBFEF7F9
:103CE0008DFAFEF705FBFEF707FCFEF7A5FCFEF7D5
:103CF000DFFC2B48FFF79AF832230DF58735243582
:103D00004FF47846264C1F462E60019506230093FB
:103D10000A23022219462046FFF7D0FA0DF5873311
:103D200028331F221A600193082300930A230422D8
:103D300019462046FFF7C2FA1A492046FEF7CEFC84
:103D4000013FE1D10797FEF783FB174804F072F8B3
:103D500009AA0DF5074124311448FDF7A5FB09AA6E
:103D60000DF507412431124802F06EFD114B1B88FE
:103D70001BB2114AD2ED006AC3F5005307EE903A28
:103D8000F8EEE77A87EEA67AFCEEC77ACDED057AF3
:103D9000BDF81430094A13809FED09AA15E000BF51
:103DA000A06C0020A0860100EC7300204C120020C3
:103DB000C47300200600002008000020040000203A
:103DC00000008C42CC4802F009FACC4C204604F0AA
:103DD000B3F8A378002BF8D1C94B1B78042BF1D092
:103DE0005A1ED2B2012A40F24282032B00F06582B1
:103DF000002BEAD1C34B1B78C3B9C34B1B78ABB1C3
:103E0000C24B1B78DBB2C24A13700122BD4B1A7041
:103E10000021C04B1980C04B5A6942F001025A611F
:103E20001A6842F001021A60BC4B1960B54B1B784E
:103E3000002BCAD0B64B1B78B44A1278DBB293423F
:103E400000F03A83B24A1378DBB2B54931F8133047
:103E5000B049098889B2127801FA83F3B14880FB2E
:103E60000310D917C1EBE01101EB8101A3EB811322
:103E70009BB202EB820203EB8212AB4931F81220B3
:103E800092B206EE902AA94A92ED006AA84A1288D8
:103E900012B207EE902AA74A127852B2F8EEE66AFA
:103EA00066EE866AF8EEE77A36EEA77ADFEDA27A5A
:103EB00027EE277AF6EE007A77EE676A07EE102A89
:103EC000B8EEC76AF2EE005A85EE867A26EE877A59
:103ED00077EE277A9FED997A67EE877A0DF587322C
:103EE00002F5BC72C2ED007A9FED957A0DF587322E
:103EF00002F5BA7282ED007AF4EEC77AF1EE10FAAA
:103F000000F3E8820DF5873202F5BC72F7EE007A15
:103F10000DF5873101F5B871C1ED007A92ED007AA7
:103F2000B4EEE77AF1EE10FA48BF0A46D2ED007A15
:103F3000FCEEE77ACDED057ABDF81470744A12787C
:103F400002EB820203EB82127E4931F8122092B218
:103F500006EE902A754A92ED006A754A128812B2EE
:103F600007EE902A734A127852B2F8EEE66A66EECD
:103F7000866AF8EEE77A36EEA77ADFED6F7A27EEFB
:103F8000277AF6EE007A77EE676A07EE102AB8EE27
:103F9000C76AF2EE005A85EE867A26EE877A77EEC9
:103FA000277A9FED667A67EE877A0DF5873202F5FC
:103FB000B672C2ED007A9FED627A0DF5873202F596
:103FC000B47282ED007AF4EEC77AF1EE10FA0DF5D4
:103FD0008732D4BF02F5B67202F5B472F7EE007AFA
:103FE0000DF5873101F5B271C1ED007A92ED007ADD
:103FF000B4EEE77AF1EE10FA48BF0A46D2ED007A45
:10400000FCEEE77ACDED057ABDF81460404A1278EF
:1040100002EB820203EB82124B4931F8122092B27A
:1040200006EE902A414A92ED006A414A128812B285
:1040300007EE902A3F4A127852B2F8EEE66A66EE30
:10404000866AF8EEE77A36EEA77ADFED3B7A27EE5E
:10405000277AF6EE007A77EE676A07EE102AB8EE56
:10406000C76AF2EE005A85EE867A26EE877A77EEF8
:10407000277A9FED327A67EE877A0DF5873202F55F
:10408000B072C2ED007A9FED2E7A0DF5873202F5FF
:10409000AE7282ED007AF4EEC77AF1EE10FA0DF509
:1040A0008732D4BF02F5B07202F5AE72F7EE007A35
:1040B0000DF5873101F5AC71C1ED007A92ED007A12
:1040C000B4EEE77AF1EE10FA48BF0A46D2ED007A74
:1040D000FCEEE77ACDED057ABDF814201146059285
:1040E0000C4A128892B2002A3BD1184A1780184A0B
:1040F0001680184A11802FE040730020EC730020D6
:1041000038120020421200201C1200200812002049
:104110003912002040120020000800402C1200201C
:104120003C1200206766666600030020080000203D
:10413000060000200C0000200000803800005743DB
:104140000000564300080020000D0020E47300200A
:10415000E6730020E8730020002276490A70764951
:104160000A80744A12788AB9744A127802EB820281
:1041700003EB8212724931F8121089B2714A128827
:1041800092B2914202DA01216A4A1170694A1278A8
:10419000002A4DD0694A127802EB820203EB8213A7
:1041A000674A32F8132092B2664B1B889BB29A4240
:1041B0003EDB614B1B889BB293B3634B1B885E4A0B
:1041C0001488624A916AD26A6148624D95ED006A2C
:1041D000B8EE466A1B1B9BB207EE903AF8EEE77A00
:1041E00077EEA77A4B1C07EE103AB8EE477A27EE27
:1041F000877A531C07EE903AF8EE677A67EE277AD3
:10420000C6EE276A90ED037AF0EE087A67EE277A19
:1042100036EEA77AF5EE007A67EE277AC0ED037ADC
:10422000494B1B889BB2444A13800022414B1A70B1
:10423000494BB3F800E01FFA8EFEBE45BABF754683
:10424000BE463D46454BB3F800801FFA88F8B0459E
:10425000BABFC446B046B44607993B4C3C484FF001
:10426000000945F28A2A4FF4FC6B069654E13C4C57
:1042700000212046FCF738FF42F20E03E35C2BB925
:1042800042F20F02A25C002A3FF49FAD83F00103CB
:104290002A4A1370334B1B78012B07D0274B197810
:1042A0002F4800EB0131FDF733FF8EE511782C48E4
:1042B00000EB0131FDF706FF87E52B4B1B786BB94F
:1042C0002A4B1B7853B12A4B5A8892B2294B5B88F0
:1042D0009BB29A4219DA244B5B78B3B1224B5B78DC
:1042E000002B40F0B980214B5B78002B00F0B480AC
:1042F0001F4B1A8892B21F4B1B889BB29A4204DA5A
:10430000194B1B78002B40F0A780174B1B7803F04C
:10431000FF02002B31D1154B1B786BB3144B59881E
:1043200089B2144B5B889BB2994226D00E4B5A78C7
:10433000D2B222E0986C00209A6C00203912002042
:104340000003002004000020401200200004004070
:10435000C473002020000020E4730020E6730020D6
:104360004C120020381200202812002020120020B9
:1043700024120020087400200122714B1A70197851
:10438000C9B201226F4842541978C9B200246E485C
:1043900020F8114019786D4B03EB810393ED000A6F
:1043A0000DF5873444346A49204603F01BF86368EE
:1043B000C3F1FF4303F5FF0303F5FF437F33032BF3
:1043C00057D9042263490DF5873044300EF0BEFC06
:1043D00004460DF5873234320DF587332C331A60DD
:1043E000054655F8082BAA4246D00DF587332C33E5
:1043F0001A6082689A6063680DF587362C367360A0
:1044000025600023636023720DF587325C324FF61E
:10441000FF7111600DF5873160310B604E480291DC
:10442000019200F1080300933346DF228C21FEF74E
:1044300039FC30680DF587333433984201D003F0EE
:1044400013FE0DF58733443318680DF587334C336D
:10445000984201D003F008FE394B00221A701B78F5
:10446000DBB2012B3FF7B1AC354CDFED3C9A00F0ED
:10447000A7BC3B4819F02AFF0DF5873634360346B2
:1044800053F8080F59689A68DB680FC6B3E70DF553
:10449000873303F5A873DFE34FF000094B4600F0C4
:1044A0002ABC2378DBB200222649CA542378DBB227
:1044B0002C49CA5400F07BBC2B4B1B78DBB22B4A37
:1044C00032F8132092B22A4B1B889BB29A42BFF655
:1044D000B9AC7AE40DF5873202F5BA7216E5634598
:1044E0000BDB434509DC027F00EB8202CBB2526951
:1044F00040F21D5622F813600DE0228812F0030FDF
:1045000002D16B2B00F07684027F00EB8202CBB2EB
:10451000526922F813900131CBB2228892B21B2A41
:10452000B4BFCC22D7229A4224DBAB42D7DB7345FF
:10453000D5DC027F00EB8202526922F813B0EAE771
:104540003912002028120020241200200C12002012
:10455000EC730020F08F0208A06C002000002043C4
:10456000D08F02082012002008120020181200200C
:1045700040120020069EC44B5A68C44B1A60C44ABD
:1045800011881388128892B21B2AB4BFCC20D7207E
:10459000C04C227F04EB82025269019200909BB2D0
:1045A000002289B2BC48FEF7C7FA237FB3FA83F32F
:1045B0005B092377B94B1F80B94B1E80B94BBDF8FF
:1045C00014201A80B24A138801339BB213801388D7
:1045D0009BB2B3F5A07F00F0DF81AD4B1B889BB28F
:1045E000AC4A11880A1D934200F0E681A84B1B8853
:1045F0009BB2012B7FF4E9ABAB4B1A7852B292B26B
:10460000AA490DF58730A43002F0DEFD01230093A6
:10461000A74B002211460DF58730A4300EF012FB97
:1046200004460DF5873394330DF587328C321360D1
:10463000064656F8083BB34200F048820DF5873233
:104640008C32136083680DF587329432136063688F
:104650000DF5873290321360266000236360237269
:104660001368C3F1FF4303F5FF0303F5FF437F33F3
:10467000012B40F2368202228E490DF587308C30B4
:104680000EF064FB04460DF587327C320DF587335E
:1046900074331A60064656F8082BB24200F02482A2
:1046A0000DF5873374331A6082689A6063680DF57C
:1046B000873574356B60266000216160217245F298
:1046C0008A230DF58732BC3213600DF5873303F56D
:1046D000C47343F8C81D70480293019200F10803A7
:1046E00000932B460122FEF7DDFA28680DF587338B
:1046F0007C33984201D003F0B7FC0DF587338C333F
:1047000018680DF587339433984201D003F0ACFC60
:104710000DF58733A43318680DF58733AC33984211
:1047200001D003F0A1FC604B1A7852B292B25F49FB
:104730000DF58730F43002F047FD012300935E4B06
:10474000002211460DF58730F4300EF07BFA044656
:104750000DF58733E4330DF58732DC3213600646FE
:1047600056F8083BB34200F0CA810DF58732DC32BF
:10477000136083680DF58732E432136063680DF5CA
:104780008732E0321360266000236360237213686F
:10479000C3F1FF4303F5FF0303F5FF437F33012B11
:1047A00040F2B881022243490DF58730DC300EF02B
:1047B000CDFA04460DF58733CC330DF58732C4327C
:1047C0001360064656F8083BB34200F0A6810DF58B
:1047D0008732C432136083680DF58732CC321360A0
:1047E00063680DF58732C83213602660002161606E
:1047F000217245F28A230DF5873202F58672136025
:104800000DF5873303F588731960234802930192ED
:1048100000F1080300930DF58733C433CD22FEF772
:1048200041FA0DF58733C43318680DF58733CC335F
:10483000984201D003F018FC0DF58733DC3318687B
:104840000DF58733E433984201D003F00DFC0DF5EC
:104850008733F43318680DF58733FC33984201D061
:1048600003F002FC00220B4B93ED030A0F490DF5F8
:10487000873000F5967002F0B5FD0DF5873303F52E
:1048800098731B681AE000BF886002403412002051
:1048900040120020C4730020A06C0020E4730020AC
:1048A000E6730020E87300200C000020EC73002069
:1048B00034A60208F0A50208F4A50208C3F1FF43DC
:1048C00003F5FF0303F5FF437F33052B40F23081EF
:1048D00006229F490DF5873000F596700EF036FAE6
:1048E00004460DF5873303F58E730DF5873202F517
:1048F0008A721360064656F8083BB34200F01B81EB
:104900000DF5873202F58A72136083680DF58732E0
:1049100002F58E72136063680DF5873202F58C72B2
:10492000136026600023636023724FF6FF720DF55B
:10493000873101F5A2710A600DF5873202F5A47284
:10494000136084480292019100F1080300930DF571
:10495000873303F58A730122FA21FEF7A3F90DF5D7
:10496000873303F58A7318680DF5873303F58E7363
:10497000984201D003F078FB0DF5873303F5967369
:1049800018680DF5873303F59A7398423FF41DAA12
:1049900003F06AFBFFF719BA00226F4B1A706F4BD6
:1049A0001A6822F001021A606D4A12685B6A03EB12
:1049B00002436C4A136010E66B4B5B889BB206EEB9
:1049C000903A6A4B93ED006A694B1B881BB207EE65
:1049D000903A684B1B785BB2F8EEE66A66EE866A40
:1049E000F8EEE77A36EEA77ADFED637A27EE277ADC
:1049F000F6EE007A77EE676A07EE103AB8EEC76A0D
:104A0000F2EE005A85EE867A26EE877A77EE277ADE
:104A10009FED5A7A67EE877A0DF5873303F5C273F7
:104A2000C3ED007A9FED567A0DF5873303F5C07319
:104A300083ED007AF4EEC77AF1EE10FA0DF58733C4
:104A4000D4BF03F5C27303F5C073F7EE007A0DF51A
:104A5000873202F5BE72C2ED007A93ED007AB4EEB1
:104A6000E77AF1EE10FA48BF1346D3ED007AFCEE78
:104A7000E77ACDED057ABDF81440631F9BB2CD2BCC
:104A80003FF6B4AD0DF587336C334FF6E0761E601C
:104A9000221F304D0193231D9BB200930B4692B20F
:104AA0002846FEF70BFC304B19880DF58732703223
:104AB00016600B1D043921EAE171019200949BB24A
:104AC000224689B22846FEF7F9FB8FE50DF58735BA
:104AD0009435034653F8080F59689A68DB680FC588
:104AE000B5E5284819F0F2FB0DF587357C3503460E
:104AF00053F8080F59689A68DB680FC5D6E50DF5BD
:104B00008735E435034653F8080F59689A68DB681F
:104B10000FC533E61B4819F0D9FB0DF58735CC35A9
:104B2000034653F8080F59689A68DB680FC557E6C3
:104B3000144819F0CBFB0DF5873505F58E75034646
:104B400053F8080F59689A68DB680FC5E3E600BFA1
:104B5000F8A50208A06C00204212002000080040C6
:104B60002C12002030120020C47300200800002006
:104B7000060000200C000020000080380000574391
:104B800000005643D08F02082378DBB29D4A32F8EA
:104B900013309BB297FBF3F303F580735A42C3F3D0
:104BA0000903C2F3090258BF534203F60403964AAD
:104BB00002EB8303D3ED017A67EE8A7A77EEA97A66
:104BC000FDEEE77ACDED057A237803EB830305EB61
:104BD00083138E4A32F813309BB207EE103A8C4B97
:104BE000D3ED006A8B4B1B881BB207EE903A8A4BC1
:104BF0001B785BB2B8EEC77A27EE267AF8EEE77A32
:104C000077EE277A67EE897AB6EE007A77EEC77A82
:104C100006EE903AB8EEE66AF2EE005AC5EE866A03
:104C200067EEA67A77EE877A67EEA87A0DF5873376
:104C300003F5AA73C3ED007A0DF5873303F5A87366
:104C400083ED008AF4EEC87AF1EE10FA3FF71FAC5C
:104C50000DF5873303F5AA73F7EE007A0DF5873269
:104C600002F5A672C2ED007A93ED007AB4EEE77A0F
:104C7000F1EE10FA48BF1346D3ED007AFCEEE77A66
:104C8000CDED067ABDF818802378DBB2634A32F89E
:104C900013309BB2A03B23EAE3739D4204BF604BF9
:104CA000A3F800802378DBB25C4931F8132092B27C
:104CB0002378DBB231F813901FFA89F92378DBB23D
:104CC00031F813309BB29E3B9D42FFF6E5AB521B81
:104CD000544B83FB0213C3EBE2733F335B019BB284
:104CE000A9EB0502504981FB0219C9EBE27909F1F0
:104CF0001F091FFA89F9BDF81410DFF824A1BAF8CA
:104D0000002092B20DF5873064300360DFF82CB1DB
:104D1000019000920B4642465846FEF7CFFA2378A0
:104D2000DBB2384A32F8131089B296FBF1F189B23E
:104D3000BAF800309BB20DF587326832C2F80090A5
:104D4000019200930B4642465846FEF7B7FAAAF87E
:104D50000080013506F5A07607F580672378DBB281
:104D60002E4A32F813309BB29D4208DC2378DBB226
:104D7000244A32F813309BB29D427FF705AF227868
:104D8000D2B2264931F8123001339BB221F81230E9
:104D90002378DBB231F8132092B22378DBB21949C1
:104DA00031F813309BB2A0339A423FF47AAB2378A8
:104DB0000133DBB223702378DBB2012B3FF705A868
:104DC0002378DBB2194AD35C002BF0D02378DBB216
:104DD000124A32F81350ADB2A03D25EAE57505EB55
:104DE0008506B601AF029FED129ADFED128A9FEDA4
:104DF000128AB3E7037F00EB83035B69A3F8D6A0B5
:104E0000FFF789BB087400204C120020000300202B
:104E100008000020060000200C00002024120020C2
:104E2000E473002056555555ABAAAA2A2812002033
:104E3000000080380000574300005643A06C00205B
:104E400070B5064603686BB14469456A0435AC42E7
:104E500005D254F8040B03F007F9A542F9D83068DD
:104E600003F002F9304670BD70B50646C36A6BB1F7
:104E7000046C056D0435AC4205D254F8040B03F004
:104E8000F3F8A542F9D8F06A03F0EEF83046FFF7E0
:104E9000D7FF304670BD2DE9F84F0646480A451C3D
:104EA0000330082838BF08207060B0F1804F30D23E
:104EB0008946800003F0DFF88346306073685B1B2F
:104EC0004FEA530800EB880A0AEB8505AA4509D288
:104ED00054464FF40077384603F0CDF844F8040BFD
:104EE000A542F8D8C6F814A05BF82820F26002F5B5
:104EF000007333612B1F736255F8043CF36103F5B3
:104F000000713162B260C9F308094B44B361BDE876
:104F1000F88F19F0D2F900002DE9F0418AB004466B
:104F20000025009501950295039504950595069534
:104F300007950895099529466846FFF7ACFF256057
:104F40006560A560E56025616561A561E561256233
:104F5000656229462046FFF79EFF009E7EB3D4F887
:104F60000880D4F80CC0D4F810E0676904F1080593
:104F700002AB0FCB85E80F00CDF80880CDF80CC050
:104F8000CDF810E00597D4F81880D4F81CC0D4F8F8
:104F900020E0676A04F118050AAB13E90F0085E801
:104FA0000F00CDF81880CDF81CC0CDF820E009978F
:104FB0002368266000936368019A626001936846E3
:104FC000FFF73EFF002384F82830E3626363A363A6
:104FD000E36323646364A364E364236508232363B6
:104FE000202003F048F80746E062256B013D6D087C
:104FF00000EB8506331D9E4205D24FF4007003F08E
:105000003AF847F82500266457F82530A36303F5DE
:105010000072E2632665A364E2646363636404F17F
:105020006005054E0FCE0FC596E80F0085E80F000E
:1050300020460AB0BDE8F081948F020870B582B0B6
:1050400005460E4671B1541A01940F2C0ED82868EB
:10505000012C14D0B4B9019B6B602A680021D15493
:1050600002B070BD9AB10B4819F02DF9002201A9C8
:1050700028460DF0CFFB2860019BAB60E7E7337853
:105080000370E8E7224631461DF065FBE3E7541A5A
:105090000194DCE7F88F02082DE9F04704460E463C
:1050A0004268406A2568431BA2EBA303012B14D975
:1050B000656A4FF4007002F0DEFF6860A369327821
:1050C00003B11A70636A1A1D62625B68E36103F5DB
:1050D00000722262A361BDE8F0876169471ABF10C0
:1050E000013707F10109B2EB490F19D9A2EB090207
:1050F000520805EB8208414507D9021D521A930850
:105100002CD040461DF032FB28E0BB00021D521A95
:10511000900823D09B1A08EB03001DF027FB1DE02D
:1051200032B15200951CB5F1804F02D319F0C5F889
:105130000325A80002F09FFF8246A5EB0902520852
:1051400000EB82086169626A0432521A93081AD12C
:10515000206802F089FFC4F800A06560C4F81480DC
:10516000D8F80030E36003F50073236107F180474E
:10517000013F08EB8703636258F82730E36103F5CA
:105180000073236294E740461DF0F0FAE0E7000068
:1051900000B583B00D4B1A685B68DBB28DF8073041
:1051A0000B4A9169126A013A914208D001B10B7021
:1051B000074A93690133936103B05DF804FB0DF175
:1051C00007010348FFF768FFF6E700BF004C004007
:1051D000407300202DE9F041E2B0074600248470BE
:1051E0008DF8004003AB0193B6494FF000030A4627
:1051F0000C3901A8FFF722FF8DF81C400AAB089379
:1052000009948DF8284001258DF8385011AB0F9383
:10521000AD494FF000030A460A390FA8FFF70EFF09
:105220008DF8545018AB169317948DF860404FF0DA
:1052300002088DF870801FAB1D93A4494FF0000346
:105240000A460A391DA8FFF7F9FE04258DF88C508F
:1052500026AB249325948DF8984003268DF8A860FA
:105260002DAB2B939A494FF000030A4609392BA81E
:10527000FFF7E4FE06238DF8C43034AB3293339449
:105280008DF8D0408DF8E0503BAB399391494FF009
:1052900000030A460A3939A8FFF7D0FE05258DF824
:1052A000FC5042AB409341948DF808418DF8185161
:1052B00049AB479388494FF000030A460B3947A88A
:1052C000FFF7BCFE8DF8348150AB4E934F948DF8B0
:1052D00040418DF8505157AB559380494FF0000332
:1052E0000A460C3955A8FFF7A9FE8DF86C615EAB34
:1052F0005C935D948DF878417C60BC60FC604FF4F9
:10530000C47002F0B8FE0646786000F5C473FB6016
:1053100000F10C056C46D6B1237805F80C3C45F835
:10532000085C6168A2684FF000030A44301DFCF776
:10533000C3F8237F2B7406F128036B61216A626A2C
:105340004FF000030A4406F12000FCF7B5F83834AA
:105350003836383562AB9C42DDD1BE601C466E46A5
:1053600008E068682C3CA04201D002F07DFE2C468B
:10537000B54209D0A4F13805286AA4F11003984277
:10538000EFD002F071FEECE700248DF8004003AB93
:1053900001934C494FF000030A460C3901A8FFF76E
:1053A0004DFE8DF81C400AAB089309948DF82840F7
:1053B00001258DF8385011AB0F9343494FF000038E
:1053C0000A460A390FA8FFF739FE8DF8545018AB7A
:1053D000169317948DF8604002238DF870301FAB40
:1053E0001D933F494FF000030A4608391DA8FFF7F7
:1053F00025FE07238DF88C3026AB249325948DF859
:10540000984003238DF8A8302DAB2B9335494FF0EE
:1054100000030A4607392BA8FFF710FE08238DF872
:10542000C43034AB329333948DF8D0403C617C610E
:10543000BC61E02002F01FFE0646386100F1E00387
:10544000BB6100F10C056C460DF1E008D6B1237884
:1054500005F80C3C45F8085C6168A2684FF0000351
:105460000A44301DFCF728F8237F2B7406F128032B
:105470006B61216A626A4FF000030A4406F1200062
:10548000FCF71AF83834383638354445DED17E61B9
:1054900038AC6E4608E068682C3CA04201D002F0AF
:1054A000E3FD2C46B54209D0A4F13805286AA4F1E1
:1054B00010039842EFD002F0D7FDECE7384662B017
:1054C000BDE8F0818CA502089AA50208A6A50208ED
:1054D000B1A50208BEA50208CBA50208D8A50208FE
:1054E000E4A50208EFA5020870B5214B00241C704A
:1054F000F0225A804FF4A0729A801E4A03F10805E8
:1055000002F1200103C985E8030003F110052832E8
:1055100092E8030085E8030083F89846164E30466B
:10552000FBF762FD154D2A461549304602F09EFDF7
:10553000144E3046FFF74EFE2A461349304602F01D
:1055400095FD124E3046FFF7E7FC2A4610493046DB
:1055500002F08CFD0F4B0A221A8042F2283159804A
:105560000D4959601C72042159721A821C7770BD52
:10557000A06C0020948F02084C1200200000002034
:105580007D340008EC73002099340008407300203B
:10559000694E0008C47300200012002038B5094B82
:1055A000A3F5907502E02346AC4209D0A3F118049C
:1055B00053F8180C103B9842F5D002F055FDF2E775
:1055C00038BD00BF2C750020F0B589B005461478B1
:1055D000204AA2FB0432D20802EB4203A4EB83046C
:1055E000E4B204AB02933032012102A80DF080F93D
:1055F000194A61000B1952F833300C4402EBC40213
:10560000526800920022114602A80DF01BFB05F122
:1056100008012960034653F8082B9A4211D02A60EA
:105620008268AA6042686A60036000234360037274
:10563000029804AB984201D002F016FD284609B04A
:10564000F0BD1F685E689C68DA68AF60EE602C6130
:105650006A61E7E7ABAAAAAA0C7400202DE9F04F13
:1056600089B0079004911468D2F804A0936800935D
:10567000D2F80CB004F110069E422FD0CDF814B031
:10568000009B0393CDF804A0049DAF686B69296962
:10569000C91B0911ABEB03029210501EA4EB0A02C6
:1056A000121102EB40120A440692686A2A46AD695A
:1056B000D269AA1A1211C31A9B10013B02EB4313C1
:1056C0001944069BB3EB510F80F09D80A74274D024
:1056D000002B72DD9946DDF8148045E00BF10403E0
:1056E0000593DBF8046006F5007303930196CBE79E
:1056F000009D214645E03A46334649E05042014488
:1057000018441DF033F84BE0002B14DD1C46B8BFE5
:1057100003F11F0464110BEB840BDBF800A0A3EB77
:1057200044140AEB04147F1B1F2F08D8C5EB057324
:1057300006EB031613E0DC436FEA5414EBE7002F8B
:1057400037DD3E46B8BF07F11F06761108EB860825
:10575000D8F800300193A7EB461703EB0716A9EB27
:105760000509B9F1000F28DDA4EB0A03019AB71A65
:105770003F111B110093BBD15BF8041C01F50071B4
:105780002025002FB7D158F8043C03F500732022E0
:105790004D45A8BF4D469542A8BF15462A01ADD13B
:1057A000009B5B1B1F2BAFD8C5EB057304EB0314E9
:1057B000B9E7FE436FEA5616C8E704998B680A6991
:1057C000103A934211D010338B60049A13469068BC
:1057D000D2681C695969831A069E06EB23131F2B96
:1057E00000F29B8000EB0613A7E0049CE06802F047
:1057F0003BFC63691A1D62615B68E36003F500723C
:105800002261A360E1E7B5426FD0059BA0EB0309DD
:105810004FEAA90909F1FF3902EB4919039B9B1BC8
:1058200009EB2319B9F1000F5FDDDDF804803EE0DC
:105830001A46314620461CF099FF49E0002F1BDD37
:105840003E46B8BF07F11F067611059B03EB8603A2
:105850000593D3F8008008F500730393A7EB461770
:1058600008EB0716029BA3EB0A0305EB23131F2B80
:1058700006D8019B1C4415E0FE436FEA5616E4E788
:10588000002B2EDD1C46B8BF03F11F0464110BEB87
:10589000840BDBF800A00AF500720092A3EB44141D
:1058A0000AEB0414A9EB0509B9F1000F1DDD374619
:1058B0000294039B9D1B2D11009B1B1B1B119D42E2
:1058C000A8BF1D464D45A8BF4D462B010193AFD142
:1058D000A7EB080705EB27171F2FAFD8019B1E4426
:1058E000C0E7DC436FEA5414D1E704998869CB69B7
:1058F000984202D01038886167E702F0B5FB04983F
:10590000436A1A1F426253F8043CC36103F50072F4
:10591000026203F5F873836157E7002B16DD184622
:10592000B8BF03F11F00401101EB80010A6802F5C6
:105930000074A3EB401302EB0313079D28462B6072
:105940006A60AC60E96009B0BDE8F08FD8436FEAE7
:105950005010E9E710B50446C06802F085FB6369A2
:105960001A1D62615B68E36003F500722261A36047
:1059700010BD2DE9F04704460E464268406A25688E
:10598000431BA2EBA303012B16D9656A4FF40070E9
:1059900002F071FB6860A5691DB196E80F0085E80B
:1059A0000F00636A1A1D62625B68E36103F50072AF
:1059B0002262A361BDE8F0876169471ABF10013711
:1059C00007F10109B2EB490F19D9A2EB09025208FC
:1059D00005EB8208414507D9021D521A93082CD0C5
:1059E00040461CF0C3FE28E0BB00021D521A90087E
:1059F00023D09B1A08EB03001CF0B8FE1DE032B167
:105A00005200951CB5F1804F02D318F056FC0325C7
:105A1000A80002F030FB8246A5EB0902520800EB19
:105A200082086169626A0432521A93081AD12068A6
:105A300002F01AFBC4F800A06560C4F81480D8F81E
:105A40000030E36003F50073236107F18047013FF5
:105A500008EB8703636258F82730E36103F50073AE
:105A6000236292E740461CF081FEE0E72DE9F04119
:105A7000ADF5127D05460C46487A00F1300335F845
:105A80001330DA1252000892C3F3451207925B00FA
:105A900003F03E030693AB6D0A689B1A0593059BC2
:105AA000DB100593089A059B9A42B4BF089A059AA1
:105AB000089B9B1A0893079A059B9A42B4BF079AC2
:105AC000059A079B9B1A0793069A059B9A42B4BFB7
:105AD000069A059A069B9B1A06930899079A069BB5
