:020000040800F2
:100000000000022089670008D9670008D967000846
:10001000D9670008D9670008D96700080000000008
:10002000000000000000000000000000D967000888
:10003000D967000800000000D9670008D9670008E8
:10004000D9670008D9670008D9670008D967000890
:10005000D9670008D9670008D9670008D967000880
:100060006D3A0008D9670008D9670008D967000809
:10007000D9670008D9670008D9670008D967000860
:10008000D9670008D9670008D9670008D967000850
:10009000D9670008D9670008D9670008C93A00087D
:1000A000253B0008D9670008D9670008D967000810
:1000B000D96700085D340008D9670008D9670008CF
:1000C000D9670008D9670008D9670008D967000810
:1000D000D9670008D9670008D9670008D967000800
:1000E000D9670008D9670008D9670008D9670008F0
:1000F000D9670008D9670008D9670008D9670008E0
:10010000D9670008D9670008D9670008D9670008CF
:1001100095500008D9670008D9670008D96700081A
:10012000D9670008D9670008D9670008D9670008AF
:10013000D96700080000000000000000D96700082F
:10014000D9670008D9670008D9670008D96700088F
:10015000D9670008D9670008D9670008D96700087F
:10016000D9670008D9670008D9670008D96700086F
:10017000D9670008D9670008D967000800000000A7
:1001800000000000D9670008000000000000000027
:10019000D96700080000000000000000D9670008CF
:1001A000000000000000000000000000D967000807
:1001B000D9670008D9670008D9670008D96700081F
:0401C000D9670008F3
:1001D00010B5054C237833B9044B13B10448AFF381
:1001E00000800123237010BDC80200200000000021
:1001F0007091020808B5034B1BB103490348AFF3E4
:10020000008008BD00000000CC02002070910208B0
:1002100001F0FF01102A2BDB10F0070F08D010F8B7
:10022000013B013A8B422DD010F0070F42B3F6D1BB
:10023000F0B441EA012141EA014122F007047FF0D4
:1002400000070023F0E80256083C85EA010586EA2B
:10025000010685FA47F5A3FA87F586FA47F6A5FA67
:1002600087F68EB9EED1F0BC01F0FF0102F0070273
:1002700032B110F8013B013A83EA010313B1F8D11E
:100280000020704701387047002D06BF35460338FF
:10029000073815F0010F07D1013015F4807F02BF38
:1002A000013015F4C03F0130F0BC0138704700BF89
:1002B00010F8012B11F8013B012A28BF9A42F7D010
:1002C000D01A7047034613F8012B002AFBD1181AE5
:1002D0000138704781F0004102E000BF83F0004325
:1002E00030B54FEA41044FEA430594EA050F08BFD1
:1002F00090EA020F1FBF54EA000C55EA020C7FEA95
:10030000645C7FEA655C00F0E2804FEA5454D4EB11
:100310005555B8BF6D420CDD2C4480EA020281EADB
:10032000030382EA000083EA010180EA020281EA13
:100330000303362D88BF30BD11F0004F4FEA013165
:100340004FF4801C4CEA113102D0404261EB410174
:1003500013F0004F4FEA03334CEA133302D05242FA
:1003600063EB430394EA050F00F0A780A4F10104B6
:10037000D5F1200E0DDB02FA0EFC22FA05F28018F0
:1003800041F1000103FA0EF2801843FA05F35941D6
:100390000EE0A5F120050EF1200E012A03FA0EFC55
:1003A00028BF4CF0020C43FA05F3C01851EBE3717F
:1003B00001F0004507D54FF0000EDCF1000C7EEB9C
:1003C00000006EEB0101B1F5801F1BD3B1F5001FDA
:1003D0000CD349085FEA30004FEA3C0C04F10104F9
:1003E0004FEA445212F5800F80F09A80BCF1004F22
:1003F00008BF5FEA500C50F1000041EB045141EAA4
:10040000050130BD5FEA4C0C404141EB010111F4A4
:10041000801FA4F10104E9D191F0000F04BF01464F
:100420000020B1FA81F308BF2033A3F10B03B3F12D
:1004300020020CDA0C3208DD02F1140CC2F10C02BD
:1004400001FA0CF021FA02F10CE002F11402D8BF1B
:10045000C2F1200C01FA02F120FA0CFCDCBF41EAE7
:100460000C019040E41AA2BF01EB0451294330BDB6
:100470006FEA04041F3C1CDA0C340EDC04F1140493
:10048000C4F1200220FA04F001FA02F340EA03006A
:1004900021FA04F345EA030130BDC4F10C04C4F1B0
:1004A000200220FA02F001FA04F340EA0300294690
:1004B00030BD21FA04F0294630BD94F0000F83F4DA
:1004C000801306BF81F480110134013D4EE77FEABD
:1004D000645C18BF7FEA655C29D094EA050F08BF09
:1004E00090EA020F05D054EA000C04BF19461046EA
:1004F00030BD91EA030F1EBF0021002030BD5FEA2E
:10050000545C05D14000494128BF41F0004130BD55
:1005100014F580043CBF01F5801130BD01F00045A9
:1005200045F0FE4141F470014FF0000030BD7FEA1C
:10053000645C1ABF194610467FEA655C1CBF0B4617
:10054000024650EA013406BF52EA033591EA030F2E
:1005500041F4002130BD00BF90F0000F04BF002126
:10056000704730B54FF4806404F132044FF0000559
:100570004FF0000150E700BF90F0000F04BF0021D2
:10058000704730B54FF4806404F1320410F0004538
:1005900048BF40424FF000013EE700BF42004FEA33
:1005A000E2014FEA31014FEA02701FBF12F07F43B0
:1005B00093F07F4F81F06051704792F0000F14BFAD
:1005C00093F07F4F704730B54FF4607401F00045F1
:1005D00021F0004120E700BF50EA010208BF704748
:1005E00030B54FF000050AE050EA010208BF70473D
:1005F00030B511F0004502D5404261EB41014FF4A6
:10060000806404F132045FEA915C3FF4DCAE4FF0A9
:1006100003025FEADC0C18BF03325FEADC0C18BF90
:10062000033202EBDC02C2F1200300FA03FC20FAE1
:1006300002F001FA03FE40EA0E0021FA02F114442E
:10064000C1E600BF70B54FF0FF0C4CF4E06C1CEA43
:1006500011541DBF1CEA135594EA0C0F95EA0C0FB8
:1006600000F0DEF82C4481EA030621EA4C5123EA2B
:100670004C5350EA013518BF52EA033541F480115A
:1006800043F4801338D0A0FB02CE4FF00005E1FB0D
:1006900002E506F00042E0FB03E54FF00006E1FB57
:1006A00003569CF0000F18BF4EF0010EA4F1FF049A
:1006B000B6F5007F64F5407404D25FEA4E0E6D41DA
:1006C00046EB060642EAC62141EA55514FEAC520EB
:1006D00040EA5E504FEACE2EB4F1FD0C88BFBCF567
:1006E000E06F1ED8BEF1004F08BF5FEA500E50F118
:1006F000000041EB045170BD06F0004646EA0101DE
:1007000040EA020081EA0301B4EB5C04C2BFD4EB0F
:100710000C0541EA045170BD41F480114FF0000E08
:10072000013C00F3AB8014F1360FDEBF002001F076
:10073000004170BDC4F10004203C35DA0C341BDCF0
:1007400004F11404C4F1200500FA05F320FA04F0C2
:1007500001FA05F240EA020001F0004221F00041F6
:1007600010EBD37021FA04F642EB06015EEA430E69
:1007700008BF20EAD37070BDC4F10C04C4F1200599
:1007800000FA04F320FA05F001FA04F240EA02004C
:1007900001F0004110EBD37041F100015EEA430E1D
:1007A00008BF20EAD37070BDC4F1200500FA05F23D
:1007B0004EEA020E20FA04F301FA05F243EA0203BC
:1007C00021FA04F001F0004121FA04F220EA0200CB
:1007D00000EBD3705EEA430E08BF20EAD37070BD11
:1007E00094F0000F0FD101F00046400041EB0101F1
:1007F00011F4801F08BF013CF7D041EA060195F0D3
:10080000000F18BF704703F00046520043EB03038C
:1008100013F4801F08BF013DF7D043EA0603704779
:1008200094EA0C0F0CEA135518BF95EA0C0F0CD084
:1008300050EA410618BF52EA4306D1D181EA0301CA
:1008400001F000414FF0000070BD50EA410606BFC4
:100850001046194652EA430619D094EA0C0F02D109
:1008600050EA013613D195EA0C0F05D152EA03364E
:100870001CBF104619460AD181EA030101F000416C
:1008800041F0FE4141F470014FF0000070BD41F0B5
:10089000FE4141F4780170BD70B54FF0FF0C4CF48F
:1008A000E06C1CEA11541DBF1CEA135594EA0C0FAE
:1008B00095EA0C0F00F0A7F8A4EB050481EA030EFB
:1008C00052EA03354FEA013100F088804FEA0333E2
:1008D0004FF0805545EA131343EA12634FEA0222B0
:1008E00045EA111545EA10654FEA00260EF0004171
:1008F0009D4208BF964244F1FD0404F5407402D2C3
:100900005B084FEA3202B61A65EB03055B084FEA53
:1009100032024FF480104FF4002CB6EB020E75EB50
:10092000030E22BFB61A754640EA0C005B084FEA78
:100930003202B6EB020E75EB030E22BFB61A7546F5
:1009400040EA5C005B084FEA3202B6EB020E75EB40
:10095000030E22BFB61A754640EA9C005B084FEAB8
:100960003202B6EB020E75EB030E22BFB61A7546C5
:1009700040EADC0055EA060E18D04FEA051545EAB4
:1009800016754FEA06164FEAC30343EA52734FEA5D
:10099000C2025FEA1C1CC0D111F4801F0BD141EAD6
:1009A00000014FF000004FF0004CB6E711F4801F3B
:1009B00004BF01430020B4F1FD0C88BFBCF5E06F1B
:1009C0003FF6AFAEB5EB030C04BFB6EB020C5FEA2B
:1009D000500C50F1000041EB045170BD0EF0004E80
:1009E0004EEA113114EB5C04C2BFD4EB0C0541EAB2
:1009F000045170BD41F480114FF0000E013C90E6AF
:100A000045EA060E8DE60CEA135594EA0C0F08BF72
:100A100095EA0C0F3FF43BAF94EA0C0F0AD150EA71
:100A200001347FF434AF95EA0C0F7FF425AF104604
:100A300019462CE795EA0C0F06D152EA03353FF42C
:100A4000FDAE1046194622E750EA410618BF52EAA9
:100A500043067FF4C5AE50EA41047FF40DAF52EA7D
:100A600043057FF4EBAE12E74FF0FF3C06E000BF1A
:100A70004FF0010C02E000BF4FF0010C4DF804CD27
:100A80004FEA410C7FEA6C5C4FEA430C18BF7FEAE7
:100A90006C5C1BD001B050EA410C0CBF52EA430C15
:100AA00091EA030F02BF90EA020F0020704710F195
:100AB000000F91EA030F58BF994208BF90422CBF24
:100AC000D8176FEAE37040F0010070474FEA410C1D
:100AD0007FEA6C5C02D150EA013C07D14FEA430C3B
:100AE0007FEA6C5CD6D152EA033CD3D05DF8040BAC
:100AF000704700BF8446104662468C4619466346DE
:100B000000E000BF01B5FFF7B7FF002848BF10F1B4
:100B1000000F01BD4DF808EDFFF7F4FF0CBF0120F9
:100B200000205DF808FB00BF4DF808EDFFF7EAFF75
:100B300034BF012000205DF808FB00BF4DF808ED30
:100B4000FFF7E0FF94BF012000205DF808FB00BF25
:100B50004DF808EDFFF7CEFF94BF012000205DF8AF
:100B600008FB00BF4DF808EDFFF7C4FF34BF0120BC
:100B700000205DF808FB00BF4FEA410C7FEA6C5C87
:100B800002D150EA013C0AD14FEA430C7FEA6C5C87
:100B900002D152EA033C02D14FF0000070474FF0FF
:100BA000010070474FEA410212F5001215D211D52B
:100BB0006FF47873B3EB625212D94FEAC12343F05A
:100BC000004343EA505311F0004F23FA02F018BFDC
:100BD000404270474FF00000704750EA013005D1A5
:100BE00011F0004008BF6FF0004070474FF0000068
:100BF000704700BF4A0011D212F5001211D20DD574
:100C00006FF47873B3EB62520ED44FEAC12343F012
:100C1000004343EA505323FA02F070474FF00000BC
:100C2000704750EA013002D14FF0FF3070474FF06B
:100C3000000070474FEA4102B2F1E04324BFB3F530
:100C4000001CDCF1FE5C0DD901F0004C4FEAC00243
:100C50004CEA5070B2F1004F40EB830008BF20F027
:100C60000100704711F0804F21D113F13872BCBFE1
:100C700001F00040704741F480114FEA5252C2F136
:100C80001802C2F1200C10FA0CF320FA02F018BF7F
:100C900040F001004FEAC1234FEAD32303FA0CFCD2
:100CA00040EA0C0023FA02F34FEA4303CCE77FEA61
:100CB000625307D150EA01331EBF4FF0FE4040F4AB
:100CC0004000704701F0004040F0FE4040F400005A
:100CD000704700BF53B94AB9002908BF00281CBF9C
:100CE0004FF0FF314FF0FF3000F07AB9ADF1080C52
:100CF0006DE904CE00F006F8DDF804E0DDE902233A
:100D000004B070472DE9F0478C460D460446089E16
:100D1000002B51D18A4217466DD9B2FA82FEBEF13C
:100D2000000F0BD0CEF1200C01FA0EF520FA0CFCCE
:100D300002FA0EF74CEA050C00FA0EF44FEA174AD5
:100D4000250CBCFBFAF81FFA87F90AFB18CC45EA18
:100D50000C4508FB09F3AB420AD9ED1908F1FF3243
:100D600080F02381AB4240F22081A8F102083D448B
:100D7000ED1AA4B2B5FBFAF00AFB105544EA05449B
:100D800000FB09F9A14509D9E41900F1FF3380F00E
:100D90000A81A14540F2078102383C44A4EB0904D2
:100DA00040EA08400021002E61D024FA0EF400230E
:100DB00034607360BDE8F0878B4207D9002E54D0B1
:100DC000002186E821000846BDE8F087B3FA83F1E8
:100DD000002940F08E80AB4202D3824200F2FA80BA
:100DE000841A65EB03050120AC46002E3FD086E84F
:100DF0001010BDE8F08712B90127B7FBF2F7B7FA78
:100E000087FEBEF1000F34D1EB1B3A0C1FFA87FCB2
:100E10000121B3FBF2F8250C02FB183345EA034528
:100E20000CFB08F3AB4207D9ED1908F1FF3002D2F1
:100E3000AB4200F2D1808046ED1AA3B2B5FBF2F0CE
:100E400002FB105543EA05440CFB00FCA44507D9FE
:100E5000E41900F1FF3302D2A44500F2B88018462D
:100E6000A4EB0C0440EA08409DE731463046BDE85B
:100E7000F087CEF1200405FA0EF307FA0EF720FAF8
:100E800004F83A0C25FA04F448EA0308B4FBF2F13A
:100E90004FEA184502FB11441FFA87FC45EA044556
:100EA00001FB0CF3AB4200FA0EF409D9ED1901F184
:100EB000FF3080F08A80AB4240F2878002393D44A7
:100EC000EB1A1FFA88F5B3FBF2F002FB103345EA88
:100ED000034500FB0CF3AB4207D9ED1900F1FF38D5
:100EE0006FD2AB426DD902383D44EB1A40EA014162
:100EF0008FE7C1F1200722FA07F88B4005FA01F4C9
:100F000048EA030320FA07FE4FEA134CFD404EEA7D
:100F1000040EB5FBFCF94FEA1E440CFB19551FFAF1
:100F200083F844EA054509FB08F4AC4202FA01F2F1
:100F300000FA01FA08D9ED1809F1FF3043D2AC42AA
:100F400041D9A9F102091D442D1B1FFA8EFEB5FBE4
:100F5000FCF00CFB10554EEA054400FB08F8A045D8
:100F600007D9E41800F1FF3529D2A04527D9023866
:100F70001C4440EA0940A4EB0804A0FB02894C454C
:100F8000C6464D4615D312D056B1BAEB0E0364EBEC
:100F9000050404FA07F7CB401F43CC403760746068
:100FA0000021BDE8F0871846F8E69046E0E6C24525
:100FB000EAD2B8EB020E69EB03050138E4E72846F4
:100FC000D7E7404691E78146BEE7014678E7023819
:100FD0003C4445E7084608E7A8F102083D442BE7F2
:100FE000704700BF000000002DE9F047054600F5FE
:100FF00000534FF480621A80012242F20203C2546D
:10100000002442F20E03C45442F20F03C45442F2CD
:101010001003C454082243F21403C254072243F2BB
:101020001503C25444F22002831803F108018150D1
:101030005C6044F22803C45444F23803C45044F2C0
:101040003C03C45244F23E068219254B03CBA851FF
:1010500051601B88138145F64823EC5405F5005A6E
:101060000AF1140A0FF27009D9E9008900261D4F10
:1010700007EE904AF8EEE77A77EEA77A17EE900A35
:10108000FFF78CFA42464B46FFF7DCFA32463B4606
:10109000FFF7D8FA41EC100B1FF03EFE51EC100B9D
:1010A000FFF7C8FD4AF8040B0134B4F5806FDFD1B7
:1010B00005F58043473305F5B4404730502103F52B
:1010C000807203F8011F9342FBD113469042F6D180
:1010D0002846BDE8F08700BF182D4454FB21094085
:1010E000889102080000503F31B10D4B1B7803443A
:1010F000002142F20E0299540A4B1B787BB942F24E
:101100000E03C35C1BB142F20F02825C3AB90121AB
:10111000044A11700021044A1180044A1370704778
:10112000391200201C120020141200200812002086
:101130002DE9F04F2DED048B89B081460F464FF01D
:10114000010BCDF80CB0002304931C461D469FED07
:10115000C99AF7EE008A9FEDC88AB5E045F64822A5
:1011600019F80210DBB209EB0122904444F2480264
:1011700008F80230012C37D0631C9BB29846B3426A
:101180003ADAFF2B3ADC0134A4B207EB840393ED87
:10119000000A08F6064309EB8303D3ED000A07F0C3
:1011A00036FB20EE090A38EEC00A20EE080AFCEEF3
:1011B000C07ACDED027ABDF808301D2BCEDC0135AA
:1011C000ADB2C82DCADDAD4A138801339BB213807E
:1011D000AB4B1B784B44002142F20E02995409B0EC
:1011E000BDEC048BBDE8F08F09EB01218B54022E7E
:1011F00015DD4FF00208C6E71C4600E01C46039BC5
:101200001A1F12B21046B2422EDC4FF0000C61469B
:101210004FF0010A09F5B44808F1480806E0022435
:10122000EDE7013212B21046B24220DC92B2FF2A40
:10123000F7D8ABEB0003002BB8BF5B42C3F104034C
:101240000AFA03F39BB29C441FFA8CFC98F800E066
:1012500009EB0E2E704444F2480E10F80E0010FBFD
:1012600003F3194489B2DCE74FF0000C614608A88B
:10127000049A00EB4203B1FBFCF123F8081C13466F
:1012800001335A4203F0030302F0030258BF5342F2
:101290009AB20492BBF1030F0FDD45F6482219F80C
:1012A000022009EB022293449BB200EB430333F884
:1012B000082C44F244030BF80320039B01339BB238
:1012C00003939B46FF2B08DCA0460BF10406B442B7
:1012D00095DAFF2C7FF759AF91E701214846FFF7D8
:1012E00003FF45F6482019F800305A1C654981FB78
:1012F0000231D317C3EBE1031A2101FB132309F8D1
:101300000030002303934FF0010A9B462CE0002B92
:1013100014DB03EB8302029901EB021292B20599EE
:1013200001F58050063059F8201021F812B0013B29
:101330001BB2503A92B2B3F1FF3FF4D1049A524932
:10134000A1FB02139B0903EB8303A2EB03139BB2E4
:10135000002B7CD00AF1010A039B0133039340F276
:1013600041139A453FF43BAF1FFA8AF30493039A63
:10137000464981FB02131146D217C2EB631303F0F7
:1013800001021446059203EB8303A1EB03139BB206
:1013900002934FF4FC60762603274FF0000CD7230E
:1013A00009F5B44808F1480804F5805E0EF1060E10
:1013B0001FE059F82E4024F81200013B1BB2503AAE
:1013C00092B263B1994201DD9D4208DC9942F0DAA4
:1013D0009D42EEDA59F82E4024F812B0EDE70CF1F8
:1013E000010C0237053EB6B2403880B2BCF11A0F8C
:1013F0008DD05745F3DA07F580725245EFDD98F846
:10140000002002EB0C011F4A82FB0124CA17C2EB29
:10141000E4021A2404FB121212B2AAEB070109EB30
:101420000222114444F24805495D314409B20AF1EF
:10143000FF34E41B2244555D35442DB2002BCEDD34
:1014400003EB8302029C04EB021292B2BAE7A2F110
:101450005001059B03F58053063359F8233001935F
:10146000D7230093BDF80C305A4689B2084801F0E2
:101470007DFD6FE7000080370000A042FC020020E5
:10148000391200204FECC44ECDCCCCCC67666666DA
:101490009C6C002044F21803C15044F21C03C2505B
:1014A0007047000070B582B005460E4671B1541AFF
:1014B00001940F2C0ED82868012C14D0B4B9019BCC
:1014C0006B602A680021D15402B070BD9AB10B48FC
:1014D0001CF0F9FF002201A9284611F09BFA2860B0
:1014E000019BAB60E7E733780370E8E722463146BB
:1014F00021F031FAE3E7541A0194DCE7F89102088D
:101500002DE9F04F2DED048BB3B00446089100F5A2
:1015100000520E3200F500530433002123F8021B61
:101520009342FBD1002344F23802A3500126B34674
:1015300007934FF0FF399A469FED549ADFED548A96
:101540009FED548A544B08330993089B03EB8B039C
:1015500093ED000A06F6064304EB8303D3ED000A7D
:1015600007F055F9B9F1030F34DCB4EEC90AF1EE16
:1015700010FA5EDDB9F1FF3F03D0079B0133B342A0
:1015800003DA09F101090FFA89F90FFA8BF30793CE
:1015900004EB490344F23E0233F802C042F2040273
:1015A0009A5A5AB144F23802A25807EE902AF8EE3D
:1015B000677AF4EEC07AF1EE10FA0FD542F2040227
:1015C00023F802B044F23802FCEEC07A17EE903AEB
:1015D000A35003E04FF01F0C0023079320EE280ACE
:1015E000F7EE007A77EEC07A67EE887AF4EE487A02
:1015F000F1EE10FAC8BFF0EE487AFCEEE77ACDEDD6
:10160000067ABDF81810731E244880FB0320DA17F1
:10161000C2EB601202F0010802EB8202A3EB02139C
:101620009BB2002208F580550635964642F21077A7
:101630001EE04FF01F0C00230793CFE7184A1388D2
:1016400001339BB21380174B1B781C44002242F2DB
:101650000E03E25433B0BDEC048BBDE8F08F54F8B8
:10166000250020F813E0013250339BB2D82A1BD05A
:101670009142F4DC0AF1010A0FFA8AFABA45DDDC7C
:1016800054F8250020F813C0EDE700BF0050434791
:1016900000000036000057439C6C002067666666B9
:1016A000FC02002039120020984BA3FB0B239B095E
:1016B00003EB8303ABEB03139BB2ABB9F02E00F348
:1016C000FE800BF1FF33ABF1500108F5805808F1B3
:1016D000060854F828200192D72200929BB20022DB
:1016E00089B28B4801F042FC0BF1010B1FFA8BFB16
:1016F0005E46BBF5A07F7FF728AF42F20203E35CB2
:10170000002BA7D042F20403E65A002EA2D0814B50
:101710009A6ADB6A804991ED007AB8EE477A07EE63
:10172000906AF8EEE77A27EE277A013302FB03335B
:10173000DB0207EE903AF8EE677AC7EE276A774B3E
:10174000C3ED006A93ED000AF2EE047A80EE270AF8
:101750001FF02AFBF2EE007AB4EE670AF1EE10FAFF
:1017600048BFB0EE670AFCEEC07ACDED067ABDF850
:101770001850AB1B002BB8BF5B42012B40F3048217
:10178000644BDB6A03FB05F3B3FBF6F344F23C0264
:10179000A35206F18043013B089A02EB83031868C9
:1017A000FEF7FCFE8046894606F6054304EB8303FC
:1017B0001868FEF7F3FE06460F4642464B46404683
:1017C0004946FEF73FFF8046894632463B46304653
:1017D0003946FEF737FF02460B4640464946FEF7BC
:1017E0007FFD41EC100B1FF085FB5BEC10AB42F270
:1017F000040334F8038008F10103089A02EB830321
:101800001868FEF7CBFE06460F4608F6074304EBC2
:1018100083031868FEF7C2FE8046894632463B467F
:1018200030463946FEF70EFF06460F4642464B4607
:1018300040464946FEF706FF02460B46304639460B
:10184000FEF74EFD41EC100B1FF054FB51EC100B5A
:10185000FFF7A8F907EE900AB8EEE78A5046594616
:10186000FFF7A0F907EE900AF8EEE76A2B4B93ED2D
:10187000007A07EE905AF8EEE77A37EE077AB0EE84
:10188000666A07EE276AB4EEC86AF1EE10FA40F114
:10189000818144F23C02A35A013BA35244F23C032F
:1018A000E35A5A1E92B241F26E718A423FF6D2AEAC
:1018B000184AD26A9A421CBF164AD362CAE601216C
:1018C0002046FFF711FC42F20403E35A002B3FF4D9
:1018D000F8AE00273D463E4604F500520432CDF8EE
:1018E00018A0CDF82890CDF82CB0A2469146ACE0D7
:1018F0000B481CF0EBFD0DF1680C034653F8080F84
:1019000059689A68DB68ACE80F00D2E0CDCCCCCC4B
:101910009C6C00200004004020000020986C0020F7
:10192000D0910208249918A811F010FB044614ABBA
:101930001293274657F8083BBB4200F0FC801293F5
:10194000A368149363681393276000236360237272
:10195000139BC3F1FF4303F5FF0303F5FF437F33FD
:10196000012B40F2F3800222944912A811F0EEFA02
:1019700004460EAB0C93074657F8083BBB4200F0F9
:10198000E8800C9383680E9363680D9327600023AF
:1019900063602372129814AB984201D006F064FC85
:1019A000249826AB984201D006F05EFC18981AAB3A
:1019B000984201D006F058FC1E9820AB984201D006
:1019C00006F052FC08F5805306335AF823B02AACCF
:1019D0002CAF2A970C994FF000030D9A0A44204629
:1019E000FFF760FD05F500531C330AEB4303DB886A
:1019F0003093002132AB43F8041D013505EB85051A
:101A0000AA0092B2049330AB0393099B0293019412
:101A1000CDF800B050236A4801F0AEFC2A98B842D5
:101A200001D006F021FC0C980EAB984201D006F0D4
:101A30001BFC0136F6B23546042E00F3958037467E
:101A400039F81630002B00F0978007EE903AF8EE48
:101A5000677AB9F8003007EE103AB8EEC77AC7EEE9
:101A6000876A16EE900AFEF799FD41EC100B1FF005
:101A70000BF951EC100BFFF7BDF882B251491EA8CB
:101A800005F03EFC6FF000431F9A9A423FF430AFDE
:101A900001224D491EA811F059FA04461AAB1893B9
:101AA00086465EF8083B73453FF425AF189383687C
:101AB0001A9363681993C4F800E0002262602272EE
:101AC000424B996ADB6A424890ED007AB8EE477A59
:101AD00039F8170007EE900AF8EEE77A27EE270AA2
:101AE000013301FB0333DB0207EE903AF8EE677A2D
:101AF00080EE270A334924A805F010FD1999259A8C
:101B00008C18189B1AA8834214BF1A980F2084427D
:101B10007FF608AF249826AFB84214BF26980F204E
:101B200084423FF6FFAE00910022114624A811F036
:101B300089F90446FBE60DF1500E234653F8080FD1
:101B400059689A68DB68AEE80F00FBE621481CF094
:101B5000BDFC0DF1380E034653F8080F59689A681A
:101B6000DB68AEE80F000FE7DDF82890DDF82CB059
:101B70005446DDF818A0A4E5DDF82890DDF82CB077
:101B80005446DDF818A09CE5104BDA6A44F23C0399
:101B9000E252FEE5104B93ED007A37EE077A07EE3E
:101BA000278AB4EEE68AF1EE10FA7FF577AE44F2BA
:101BB0003C02A35A0133A35270E600BFE891020829
:101BC0009C6C0020E473002024A80208000400405C
:101BD00020000020D0910208986C0020F0B5ABB036
:101BE00004468E4A916AD36A8D4A92ED000AB8EE95
:101BF000400A013301FB0333DB0207EE903AF8EEB3
:101C0000677A012280EE270A864916A805F086FC2D
:101C1000179BC3F1FF4303F5FF0303F5FF437F3336
:101C2000022B4BD90322804916A811F08FF90546E3
:101C300012AB1093064656F8083BB34241D01093BE
:101C4000836812936B6811932E6000236B602B7274
:101C5000724A916AD36A724AD2ED007AF8EE677AD4
:101C60009FED720A67EE807A013301FB0333DB02DA
:101C700007EE103AB8EE470A012287EE800A69495A
:101C80001CA805F04BFC11981D9A8118109B12ADF1
:101C9000AB4214BF129D0F25A9421BD91C9E1EAD3D
:101CA000AE4214BF1E9D0F25A94213D800900022FA
:101CB00011461CA811F0C6F8054610E05C481CF05F
:101CC00005FC12AF034653F8080F59689A68DB68A1
:101CD0000FC7B7E71C9910A811F038F905460CABEF
:101CE0000A932E4656F8083BB34276D00A93AB6867
:101CF0000C936B680B932E6000236B602B720B9B15
:101D0000C3F1FF4303F5FF0303F5FF437F33032BC9
:101D10006CD9042247490AA811F018F9054606AB08
:101D20000493064656F8083BB34262D00493836896
:101D300006936B6805932E6000236B602B720A98E4
:101D40000CAB984201D006F08FFA1C981EAB98425B
:101D500001D006F089FA109812AB984201D006F033
:101D600083FA169818AB984201D006F07DFA059DCB
:101D700004F5804320335B689D4243D024AE229615
:101D800004994FF000034A1922A8FFF78BFB4FF686
:101D9000FF7328932AAB002243F8042D26480293B0
:101DA00028AB019300F10803009322ABDF227321DB
:101DB00001F0BFFA2298B04201D006F055FA04A90A
:101DC00004F58040203010F0B2FE049806AB984233
:101DD00001D006F049FA2BB0F0BD0CAF2B4653F8FA
:101DE000080F59689A68DB680FC782E710481CF033
:101DF0006DFB06AF034653F8080F59689A68DB6815
:101E00000FC796E7002DE0D02A4644F22003E158A0
:101E1000049820F091FD0028D7D0AFE700040040DF
:101E200020000020E4730020EC91020800809F4312
:101E3000D0910208F09102089C6C00202DE9F04F2F
:101E400083B00746009100F500542088FEF784FB1C
:101E500041EC100B1EF004FF51EC100BFEF7CAFE14
:101E600023884BB180B2DDF800E071460022C0F15A
:101E7000200007F5005413E007F500531B88012BE1
:101E800040F3FD804FF0010B07F5005ECDF804B084
:101E9000DFED7E3A3CE00132043123889342EBDDF2
:101EA00092FAA2F363FA00F39BB29342F3DD0D685A
:101EB0000EEB83031E680E601D60ECE7BEF8003079
:101EC000FBB1009B043307F5405118310022D3EDDC
:101ED000007A13ED017A37EE677A83ED007AC1ED6F
:101EE000013A13ED017A77EE877A43ED017A13EE2A
:101EF000900A41F8080B02320833BEF80000904205
:101F0000E5DC4FEA4B0BBEF800305B4540F3B78091
:101F1000BBF1010FD2D0BBEB530F5FD0BBF1000F71
:101F2000EFDD4FEA4B0CDDF800A007F5405909F151
:101F300018094FEACB064FEA8B054FF000084FEA2D
:101F4000882393FBFCF307EB830303F50052143261
:101F5000D2ED004A03F51053143393ED004ABEF856
:101F60000030434531DD09EB05014A4653464446FE
:101F7000D3ED005A92ED007A5819D0ED006AD1EDF8
:101F8000007A24EE265A24EEA76A35EE466A64EEFD
:101F9000277A64EEA66A77EEA67A75EEC66AC0ED79
:101FA000006A77EE676AC1ED006A35EE866A83EDF6
:101FB000006A77EE277AC2ED007A6444431932440E
:101FC0003144BEF80000A042D2DC08F101080AF159
:101FD000040A09F10409D845B1D192E7BEF80030EE
:101FE000032B8ED94FEA4B0001220199009C9302EA
:101FF00093FBF0F39BB207EB830303F50055143515
:10200000D5ED007A03F51053143393ED007A0BEB02
:1020100002039B00E518D5ED006A3B4404EB810602
:1020200096ED006A67EE265A03F540531833D3ED58
:10203000006A67EEA66A75EEE66A76EE866AC6ED17
:10204000006AD5ED006A07EB820202F540521832B1
:1020500093ED006A27EE067A67EEA67A77EE277A86
:10206000D2ED006A77EEA67AC2ED007A013189B22C
:102070000A46BEF80030B1EB530FB8DB41E73846F3
:10208000FFF7ACFD03B0BDE8F08F00BF000000001B
:10209000F8B504460D460E4B1A6822F001021A608C
:1020A0000C4E37685A6A02EB07420B4F3A605A6986
:1020B00042F001025A611A6842F001021A600023DC
:1020C0003360FFF7BBFE29462046FFF719FAF8BD3B
:1020D000004001402C12002030120020F8B50446C8
:1020E0000D460E4B1A6822F001021A600C4E37683A
:1020F0005A6A02EB07420B4F3A605A6942F00102FA
:102100005A611A6842F001021A6000233360FFF737
:1021100095FE29462046FFF70BF8F8BD0040014028
:102120002C12002030120020224B1A6C42F08052F8
:102130001A6421490A6842F480420A601F49D1F8B2
:10214000882042F47002C1F888201A6842F4803274
:102150001A601A46136813F4003FFBD0154B184A57
:102160005A609A689A609A6842F4A0529A609A6893
:1021700042F400429A601A6842F080721A601A466D
:10218000136813F0007FFBD040F205720D4B1A600C
:10219000A3F580639A6822F003029A609A6842F07D
:1021A00002029A601A46936803F00C03082BFAD1D6
:1021B000704700BF003802400070004000ED00E0B2
:1021C000085A4007003C0240324A136B43F00403B4
:1021D0001363136B43F002031363136C43F4004364
:1021E00013642D4B196841F001011960996841F0A1
:1021F00001019960A3F58063196841F0010119603C
:10220000196841F400611960996841F4406199606E
:10221000196A41F4C0011962196841F0800119601E
:10222000996841F0C0019960196A41F4C04119628E
:10223000A3F5E433196841F400711960196841F499
:1022400080711960196841F008011960196841F03E
:1022500004011960196841F040011960136B43F4DF
:10226000001313630D4B1A6822F060621A601A683B
:1022700042F400521A601A6842F400621A601A6846
:1022800042F040021A601A6842F400321A60044AAE
:102290009A6070470038024000080240886002409F
:1022A0000C3C0040524A136C43F0010313644FF09E
:1022B0008043596841F040015960132199623121EE
:1022C000D9625963196A41F001011962996941F0B3
:1022D00060019961196841F001011960136B43F0C5
:1022E00001031363136B43F004031363536C43F450
:1022F000807353643F490B6843F0C0030B603E4B4F
:10230000196841F440611960196841F003011960CE
:10231000A3F56043596841F4807159604FF400118E
:10232000D962596B41F00D015963596B41F0A0011D
:102330005963596B5963D96841F44061D96019698F
:1023400041F440311961196941F006011961996838
:1023500041F480619960996841F080519960996871
:1023600041F0C0619960996841F480719960996801
:1023700041F400719960116B41F48001116302F521
:1023800031523032116821F0C0011160116841F4FE
:1023900000311160116841F400611160116841F46D
:1023A00000511160116821F400711160116841F44D
:1023B00080611160116841F480711160116821F031
:1023C000C0011160516841F00C0151600B499160EE
:1023D0000B49D160116821F060611160116841F012
:1023E000010111609A6842F001029A60704700BFD3
:1023F0000038024000080240000002404C2001402A
:10240000E40200200E4A136C43F0020313640D4BE8
:1024100032229A628C22DA62DA6842F00102DA60D1
:10242000094A4FF000511160002182F81D131A680B
:1024300042F001021A605A6942F001025A61704783
:10244000003802400004004000E100E00B4A536CF9
:1024500043F4803353640A4B0A229A624FF6FF72A8
:10246000DA62DA6842F00102DA60064B4FF08072FD
:102470001A60202283F81823704700BF00380240FA
:102480000040014000E100E0064A136C43F00803FD
:102490001364054B42F210729A624FF6FF72DA62D1
:1024A000704700BF00380240000C004030B4534A6F
:1024B000136B43F001031363136B43F004031363C3
:1024C000536C43F4804353644D4BD96841F0100181
:1024D000D9604C48816841F4007181604A498C6838
:1024E00044F004048C60CC6844F00404CC600C68B4
:1024F00044F004040C60454DEC6844F48044EC6006
:10250000C468C460886840F080008860C86840F093
:102510008000C860086840F080000860D96841F415
:102520008051D960196841F400511960196A41F06D
:1025300040711962D96841F48041D960196841F449
:1025400000411960196A41F040511962536C43F01F
:10255000020353642E4B00259D624FF6FF74DC622C
:10256000996841F003019960996841F4706199603C
:1025700064205862196841F001011960136B43F03F
:1025800002031363234BD96841F48051D960196861
:1025900041F400511960196A41F000711962D9685B
:1025A00041F48041D960196841F400411960196A09
:1025B00041F000511962136C43F004031364164B8D
:1025C0009D62DC629A6842F003029A609A6842F463
:1025D00070629A6058621A6842F001021A600F4BEA
:1025E000402283F808234FF48071196083F8172381
:1025F0004FF400021A6030BC704700BF0038024040
:102600000008024000380140003C01400000024048
:1026100000040140000402400008004000E100E026
:10262000184A136C43F400231364174B1A6842F4DE
:1026300000021A605A6A42F400425A62A3F5DE337D
:102640009968124A12681248A0FB0202D20C41EAB1
:1026500002129A60DA6822F48052DA60DA6842F094
:102660000402DA60DA6842F02002DA60094A3021B6
:1026700082F834134FF480115160DA6842F400524A
:10268000DA60704700380240000802402000002055
:1026900083DE1B4300E100E082B00191019B2BB17E
:1026A000019B013B0193019B002BF9D102B07047C4
:1026B0001E4A1F485368002BFCD1836813F0030F98
:1026C000F8D0836813F0800FF4D11A4A936943F469
:1026D00080339361087802F5B14208321449536897
:1026E000002BFCD18B6813F0030FF8D08B6813F02C
:1026F000800FF4D10E4B1B6813F4006F0FD10E4BFB
:1027000018700A4A0A495368002BFCD18B6813F0F1
:10271000030FF8D08B6813F0800FF4D17047044A90
:10272000136823F400631360E9E700BF8860024088
:10273000003C0040000802400C3C0040F8B50C464C
:102740000968FFF7B5FF1D4A936943F001039361E0
:10275000256863685B1B012B2FD901263046184B77
:102760001849194F0CE00A6822F400620A6017E069
:102770000130C0B2064625686268521B90421CD2E6
:10278000AD5D5A68002AFCD18A6812F0030FF8D0B8
:102790008A6812F0800FF4D10A6812F4006FE2D157
:1027A0003D705A68002AFCD18A6812F0030FF8D0F5
:1027B0008A6812F0800FDBD0F3E7F8BD0008024012
:1027C00088600240003C00400C3C0040174A93697E
:1027D00043F001039361087802F5B14208321449CD
:1027E0005368002BFCD18B6813F0030FF8D08B6873
:1027F00013F0800FF4D10E4B1B6813F4006F0FD150
:102800000C4B18700C4A0A495368002BFCD18B689A
:1028100013F0030FF8D08B6813F0800FF4D17047DA
:10282000034A136823F400631360E9E700080240D9
:10283000003C00400C3C00408860024010B42D4A2F
:10284000936943F0010393610C88240A02F5B142B5
:10285000083229485368002BFCD1836813F0030F1A
:10286000F8D0836813F0800FF4D1234B1B6813F466
:10287000006F33D1214B1C70214A1F485368002B35
:10288000FCD1836813F0030FF8D0836813F0800F36
:10289000F4D108781A4A18495368002BFCD18B6888
:1028A00013F0030FF8D08B6813F0800FF4D1124BA4
:1028B0001B6813F4006F17D1104B1870104A0E49A3
:1028C0005368002BFCD18B6813F0030FF8D08B6892
:1028D00013F0800FF4D15DF8044B7047064A13687B
:1028E00023F400631360C5E7034A136823F400630D
:1028F0001360E1E700080240003C00400C3C00404F
:102900008860024010B584B00446ADF80610ADF8FA
:102910000420ADF8023004A92A2301F8023DFFF794
:10292000C7FE0DF106012046FFF788FF0DF10201F9
:102930002046FFF783FF04A92B2301F8013D204621
:10294000FFF7B6FE01A92046FFF778FF06A920464B
:10295000FFF774FF04B010BD30B583B004460D46D8
:1029600002A9362301F8053DFFF7A2FE032D30D85A
:10297000DFE805F00210182702A9582301F8043DEA
:102980002046FFF723FF2570F02363804FF4A073E8
:10299000A38014E002A9882301F8033D2046FFF735
:1029A00015FFF0E702A9282301F8023D2046FFF7B2
:1029B0000DFF25704FF4A0736380F023A38003B054
:1029C00030BD02A9E82301F8013D2046FFF7FEFED5
:1029D000EFE72570012DEDD8D6E70000F0B585B002
:1029E0000546BDF828605F1AB41A013407FB044499
:1029F0000096FFF787FF0B9B1B88EB8004A92C2315
:102A000001F8013D2846FFF753FE274A936943F03A
:102A100001039361A2F5E632136843F40063136087
:102A20004FF46062214BDA60214A136823F480631B
:102A30001360B4F5803F28D364081346546006350C
:102A4000D560126842F001021A601A4A536843F0D6
:102A50000203536002F50932883216495368002B8D
:102A6000FCD18B6813F0030FF8D08B6813F0800F44
:102A7000F4D14FF460620D4BDA6088335C601A6801
:102A800042F001021A6005B0F0BD094B5C600635EA
:102A9000DD601A6842F001021A60064A536843F08A
:102AA00002035360EFE700BF0008024000600240ED
:102AB00088600240003C004000B583B04388013B81
:102AC00001918288013A92B200929BB20022114693
:102AD000FFF784FF03B05DF804FB0000F0B5C1B060
:102AE0000446A44DAB6943F48033AB6144F62061E6
:102AF000FFF7D2FDAB6943F00103AB6144F62061FF
:102B00002046FFF7C9FD40A9012301F8F93D204601
:102B1000FFF7CEFD4CF250312046FFF7BDFD0023FC
:102B2000029303930493062005F0A5FB034602904D
:102B3000821D0492904908681860898899800392E0
:102B400002A92046FFF7FAFD029808B105F08CFBB8
:102B50000023059306930793042005F08CFB059052
:102B6000031D0793854A12680260069305A9204653
:102B7000FFF7E4FD059808B105F076FB0023089304
:102B800009930A93042005F076FB0890031D0A932D
:102B90007B4A12680260099308A92046FFF7CEFD20
:102BA000089808B105F060FB00230B930C930D937C
:102BB000032005F060FB0B90C31C0D93714A118834
:102BC0009278018082700C930BA92046FFF7B6FD26
:102BD0000B9808B105F048FB00230E930F93109358
:102BE000052005F048FB03460E90421D10926649F1
:102BF00008681860097919710F920EA92046FFF72D
:102C00009DFD0E9808B105F02FFB00231193129340
:102C10001393022005F02FFB1190831C13935B4A42
:102C200012880280129311A92046FFF787FD1198A0
:102C300008B105F019FB0023149315931693022095
:102C400005F019FB1490831C1693514A12880280D8
:102C5000159314A92046FFF771FD149808B105F0EB
:102C600003FB0023179318931993022005F003FB2D
:102C70001790831C1993474A12880280189317A94A
:102C80002046FFF75BFD179808B105F0EDFA002329
:102C90001A931B931C93032005F0EDFA1A90C31CA2
:102CA0001C933D4A11889278018082701B931AA967
:102CB0002046FFF743FD1A9808B105F0D5FA002326
:102CC0001D931E931F93022005F0D5FA1D90831CBF
:102CD0001F93324A128802801E931DA92046FFF7D7
:102CE0002DFD1D9808B105F0BFFA00232093219314
:102CF0002293022005F0BFFA2090831C2293284AD9
:102D000012880280219320A92046FFF717FD209802
:102D100008B105F0A9FA00232393249325930220F8
:102D200005F0A9FA2390831C25931E4A128802807D
:102D3000249323A92046FFF701FD239808B105F04D
:102D400093FA0023269327932893032005F093FA00
:102D50002690C31C2893144A1188927801808270AF
:102D6000279326A92046FFF7E9FC2698F0B105F045
:102D70007BFA1BE000040240249202082C92020815
:102D800030920208349202083892020840920208F7
:102D900044920208489202084C920208509202089B
:102DA00054920208589202085C9202080023299368
:102DB0002A932B93042005F05EFA2990031D2B9390
:102DC000624A126802602A9329A92046FFF7B6FCDE
:102DD000299808B105F048FA00232C932D932E93DF
:102DE000022005F048FA2C90831C2E93584A128832
:102DF00002802D932CA92046FFF7A0FC2C9808B147
:102E000005F032FA00232F9330933193052005F01B
:102E100032FA03462F90421D31924E4908681860DD
:102E20000979197130922FA92046FFF787FC2F9856
:102E300008B105F019FA0023329333933493052037
:102E400005F019FA03463290421D3492424908684F
:102E5000186009791971339232A92046FFF76EFC88
:102E6000329808B105F000FA002335933693379372
:102E7000022005F000FA3590831C3793374A1288F8
:102E80000280369335A92046FFF758FC359808B1E3
:102E900005F0EAF90023389339933A93102005F0AE
:102EA000EAF90546389000F110073A972C4E0FCEFC
:102EB00028606960AA60EB60399738A92046FFF75F
:102EC0003DFC389808B105F0CFF900233B933C93C3
:102ED0003D93102005F0CFF905463B9000F1100717
:102EE0003D97204E0FCE28606960AA60EB603C974A
:102EF0003BA92046FFF722FC3B9808B105F0B4F946
:102F000040A9112301F8053D2046FFF7D1FB1649E2
:102F10002046FFF7C1FB40A9292301F8043D2046C4
:102F2000FFF7C6FB40A92C2301F8033D2046FFF71D
:102F3000BFFB02212046FFF70FFD40A9002321F827
:102F4000023D2046FFF7B8FD41B0F0BD6092020897
:102F5000649202086892020870920208789202084D
:102F60007C9202088C92020840420F00F0B585B0B6
:102F70000646BDF828505F1AAC1A013407FB04441A
:102F80000095FFF7BFFC04A92C2301F8013D304652
:102F9000FFF78EFB104A936943F001039361A2F59A
:102FA000E632136843F4006313604FF444610B4B43
:102FB000D9608833196841F4806119605C600B99AD
:102FC000D960196841F001011960536843F00203A8
:102FD000536005B0F0BD00BF000802400060024031
:102FE00030B585B004461D4600920B46FFF78AFCBB
:102FF00004A92C2301F8013D2046FFF759FB29467F
:103000002046FFF71BFC05B030BD2DE9F04F89B01D
:1030100003900D4616461F46BDF848300493DDF870
:103020004CA043889942A4BF03F1FF35ADB2BB4227
:10303000DCBF03F1FF37BFB2039B9B889A42A4BF5A
:1030400003F1FF36B6B2049A934204DC03F1FF3B6E
:103050001FFA8BF30493BD4202DD2B463D461F460B
:10306000049A964202DD3346164604937B1B1FFAF0
:1030700083FB0FFA8BF3049A921B92B205920FFA1C
:1030800082F923B3B9F1000F21D04B4530DD03EBBA
:10309000D3746410C3F10008DAF80030ADF81E30C4
:1030A0000DF11E03324629460398FFF799FFBD42F2
:1030B00025D0444504DD059BE41A24B20135ADB2A8
:1030C0004C45E9DA5C4424B20136B6B2E4E7DAF8FA
:1030D000002008AB23F8042D0193049B00933B468A
:1030E000324629460398FFF779FC09B0BDE8F08F16
:1030F000C9F1000404EBD47444F34F04CAE7049B01
:103100009E42D6D1F1E72DE9F04385B080460D46C9
:1031100014461F46BDF83060DDF83490438899426C
:10312000A4BF03F1FF35ADB2BB42DCBF03F1FF37F3
:10313000BFB283889A42A4BF03F1FF34A4B2B34262
:10314000DCBF03F1FF36B6B2BD4202DD2B463D4681
:103150001F46B44202DD234634461E46D9F80020FD
:1031600004AB23F8082D019300943B4622462946E0
:103170004046FFF733FCD9F8002004AB23F8062DB6
:10318000019300962B46224629464046FFF726FC2F
:10319000D9F8002004AB23F8042D019300963B4698
:1031A000324629464046FFF719FCD9F8002004AB07
:1031B00023F8022D019300963B46224639464046AD
:1031C000FFF70CFC05B0BDE8F08300002DE9F04FDF
:1031D00083B004460C9EDDF83480DDF838903078FA
:1031E00008446588A84203DD71780A4492B2002140
:1031F0007578AB4695B3002007468446A3F1200AB4
:103200004FF4D07E0BFB0A0B736833F81B503378F6
:10321000DBB13B46002005FA00F010F4004F94F8B3
:1032200098B60EFB0B3B0BF10C0B14BFD8F800004B
:10323000D9F8000024F81B0001339BB2D81B80B2E0
:1032400096F800B05845E6DB1F460CF1010C1FFA5A
:103250008CFC60467578AB46AC45D3DB1548164F01
:103260004368002BFCD1BB6813F0030FF8D0BB6898
:1032700013F0800FF4D13378013B0B4494F8980697
:103280004FF4507606FB004018300190501E284441
:1032900080B200909BB22046FFF768FE94F8983603
:1032A00013F1FF3318BF012384F8983603B0BDE84B
:1032B000F08F00BF88600240003C00402DE9F04FD5
:1032C000099D0B9CDDF830E0DDF834C0667876B3FC
:1032D00012FB031290B2002217469DF82880A8F135
:1032E00020089146924606FB0821626832F811B028
:1032F0002278A2B14E465246811889B20BFA06F6E0
:1033000016F4004F14BFDEF80060DCF8006025F80A
:103310001160013292B2164621788A42ECDB013705
:10332000BFB23A466678184480B2B742DBDBBDE8EC
:10333000F08F2DE9F04F85B082468B4691460E9D69
:10334000DDF83C80109F1C685E682644A64210D0C1
:1033500014F8013B0297CDF8048000954A4659467F
:103360005046FFF733FF297859441FFA81FBA642E4
:10337000EED105B0BDE8F08F2DE9F04F89B083465E
:103380000C4606920793DDF848A0139B149EDDF8C7
:103390005490DDF858801D685F682F44AF4214D008
:1033A000CDF81080CDF80C90029615F8013B0193F2
:1033B000CDF800A0079B069A21465846FFF77EFFEE
:1033C00033781C44A4B2AF42EAD109B0BDE8F08F13
:1033D00010B5044644F22003C05804F58043283356
:1033E000984201D004F040FF204610BD70B505465C
:1033F00004694669B44217D1286908B104F034FF62
:103400006C68AE68B44221D1686808B104F02CFF42
:10341000284670BD606804F10C03984201D004F0A6
:1034200023FF3834A642E7D0206A04F128039842EB
:10343000F0D004F019FFEDE7606804F10C03984246
:1034400001D004F011FF3834A642DDD0206A04F127
:1034500028039842F0D004F007FFEDE770B4964AD5
:10346000136923F001031361944B1A78531EDBB2E6
:10347000012B40F2E980032A00F0A281002A40F0EB
:1034800015828F4B1888DC88A4B299895A8A14FA5D
:1034900080F010FA81F111FA82F292B289490A8021
:1034A00058881C89A4B2D9899A8A14FA80F010FA33
:1034B00081F111FA82F292B283490A80998858897F
:1034C00080B21A8ADB8A10FA81F111FA82F212FABA
:1034D00083F39BB27D4A13807D4B1B78002B3FD139
:1034E0007C4B1B7833B17C4B1B787C4A1278DBB267
:1034F000934235D07A4B5A68002A00F08D82794B7E
:103500001B889BB2764909888B4229DD764B1B8844
:103510009BB2734949888B4222DA13889BB2994245
:103520001EDC01226A4B1A706B4C2178C9B26F4BBA
:103530001A886B4B1B88D21A12B26D4820F81120E2
:103540002278D2B230F8122012F4004F40F0DA8123
:10355000614A1278D2B2013B9BB2664921F812301F
:103560005B4B1B78BBB15C4B1B78DBB2614A32F81A
:1035700013309BB240F23F1293420CD1564A13785B
:10358000DBB213F1FF3318BF012313700023554A38
:1035900013804F4A13704E4B1B7853B94D4B1B7819
:1035A0003BB14D4B1B784D4A1278DBB2934200F091
:1035B0007D81434B1B889BB24F4A936046490B78F1
:1035C0004A4A10883F4C2488A4B203EB83039B0132
:1035D00013FA80F3494820F813400B7810883A4CCE
:1035E0002488A4B203EB83039B0113FA80F34448BD
:1035F00020F813400B7811883448008880B203EB20
:1036000083039B0113FA81F33E4921F81300344BE5
:103610005B681B889BB234490B8013889BB240F2D5
:103620003F12934200F07A81304A138801339BB2F3
:103630001380274B1B78002B40F07481294A138894
:1036400001339BB2138031E1284B1B889BB22E4A79
:1036500012889A425ED01E4B1B78002B00F0268108
:1036600042F21003294AD35C002B63D11A4B1E7817
:103670001E4B1D88124A1088D488A4B29189538A9F
:10368000B20212FA85F5214A02EB850214FA80F0A3
:1036900010FA81F111FA83F307EE903AFAEECF7A3D
:1036A0009FED1B7A77EE677AC2ED007A0F4A138896
:1036B00001339BB21380F9E000040040381200206F
:1036C000E402002000120020021200200412002058
:1036D0001C12002042120020081200203912002083
:1036E000BC73002006120020B873002014120020C2
:1036F0003C1200201812002000740040000300203B
:1037000000080020000D0020483200204812002050
:1037100000E0FF44894B1B78002B9CD0884B1A7823
:10372000884B1344012142F20E0299540022834B2C
:103730001A7090E7012B22D0022BB7D1804B1E7854
:10374000814B1D88814A90885489A4B2118AD38AFA
:10375000B20212FA85F57B4A02EB850214FA80F078
:1037600010FA81F111FA83F307EE903AFAEECF7A6C
:103770009FED777A77EE677AC2ED007A96E7704B25
:103780001E78714B1D88714A50881489A4B2D18962
:10379000938AB20212FA85F56A4A02EB850214FA9C
:1037A00080F010FA81F111FA83F307EE903AFAEE05
:1037B000CF7A9FED677A77EE677AC2ED007A75E788
:1037C00042F210035F4AD35C002B71D15F4A10882C
:1037D000D488A4B29189538A14FA80F212FA81F241
:1037E00012FA83F39BB25B4A1380544B1B782BBBBA
:1037F000594B1A8892B2594B1B889BB29A421DDAD8
:10380000544B1A8892B2554B1B889BB29A4215DBD7
:10381000534B1B7813B1524B5B787BB90122474B5A
:103820001A704F4B1B78DBB245490B700022464B98
:103830001A800B78DBB24B4921F813203F4B1B78E1
:10384000002B2ED03E4B1B783F4802884149098807
:1038500089B203EB83039B0113FA82F3424A22F8F5
:10386000131003889BB20A2B0FDD3B4B1A8892B2D0
:103870003A4B1B889BB29A4207DA364B1A8892B2AF
:10388000364B1B889BB29A4276DA2F4B1B889BB231
:1038900040F23F1293422DD02B4A138801339BB242
:1038A00013802C4B1B889BB22B4A138070BC704733
:1038B000012B0FD0254A90885489A4B2118AD38A4B
:1038C00014FA80F212FA81F212FA83F39BB2214ABF
:1038D00013808AE71D4A50881489A4B2D189938A3B
:1038E00014FA80F212FA81F212FA83F39BB2194AA7
:1038F00013807AE70022114B1A701C4AD36A1E33D8
:10390000D362CEE70E4A1178C9B2194830F81120B7
:1039100002F5A07212B220F8112019E600220A4B1B
:103920001A8086E6064B1A78D2B2124931F8123064
:1039300001339BB221F81230B8E700BF1C120020FF
:10394000081200204812002014120020E402002077
:1039500000E0FF4400120020B873002004000020A3
:10396000201200200074002000030020000400400A
:103970003C12002018120020314B1A78D2B2314884
:10398000018889B2304C24F812101A78D2B201247E
:103990002E498C541C7803889BB22D4A916AD26AB6
:1039A0002C4DD5ED006AF8EE666A07EE903AF8EE17
:1039B000E77A77EEA77A4B1C07EE103AB8EE477A13
:1039C00027EE877A531C07EE903AF8EE677A67EE97
:1039D000277A86EEA77A204B03EB840383ED007AE7
:1039E00000221E4B1A7003889BB2B3F58C7FBFF682
:1039F00058AF144B1B889BB2154AD26A02FB0333A3
:103A0000DB08174AA2FB032343F34F03002B7FF786
:103A100048AF0F4AD36244E70122104B1A700021CD
:103A2000084B1980064A1378DBB20E4820F81310B1
:103A30001378DBB24FF6FF710B4A22F813108FE5B3
:103A40000812002014120020007400202012002010
:103A500000040040200000200C1200201C12002056
:103A60000FEAA00E3C12002018120020124B1B6916
:103A700013F0040F04D1114A536943F00103536159
:103A80000E4A136843F0010313600B4B1B6913F0DC
:103A9000040F0AD0536A642B07D90122084B1A700D
:103AA000064A136823F001031360064A536943F082
:103AB00004035361704700BF00080240000C00403F
:103AC00043120020003C0140124B1B6913F0800F91
:103AD00004D1114A536943F0010353610E4A13683C
:103AE00043F0010313600B4B1B6913F0800F0AD0E6
:103AF000536A642B07D90122084B1A70064A1368CF
:103B000023F001031360064A536943F080035361B5
:103B1000704700BF00000240000C0040441200202B
:103B2000003C0140044A136923F001031361034A76
:103B30001368013313607047004001402C120020CD
:103B40002DE9F04F2DED068BADF5873DE3B002F08A
:103B500045FEFEF7E9FA02F067FEFEF777FCFEF796
:103B600093FCFEF731FBFEF79DFBFEF79FFCFEF793
:103B700057FD1748FEF7B2FFFEF744FC154804F066
:103B800025FA0BAA0DF507412C311348FDF782FCED
:103B90000BAA0DF507412C31104802F0F1FD104B36
:103BA0001B881BB20F4AD2ED006AC3F5005307EE23
:103BB000903AF8EEE77A87EEA67AFCEEC77ACDED7A
:103BC000057ABDF81430084A13809FED08AA12E068
:103BD0009C6C0020E473002048120020BC7300207D
:103BE00006000020080000200400002000008C4295
:103BF000CC4802F08FFACC4C204604F069FAA37846
:103C0000002BF8D1C94B1B78042BF1D05A1ED2B22D
:103C1000012A40F25B82032B00F07E82002BEAD166
:103C2000C34B1B78C3B9C34B1B78ABB1C24B1B78DA
:103C3000DBB2C24A13700122BD4B1A700021C04B87
:103C40001980C04B5A6942F001025A611A6842F069
:103C500001021A60BC4B1960B54B1B78002BCAD00F
:103C6000B64B1B78B44A1278DBB2934200F057830C
:103C7000B24A1378DBB2B54931F81330B04909883C
:103C800089B2127801FA83F3B14880FB0310D91787
:103C9000C1EBE01101EB8101A3EB81139BB202EBBD
:103CA000820203EB8212AB4931F8122092B206EE87
:103CB000902AA94A92ED006AA84A128812B207EE29
:103CC000902AA74A127852B2F8EEE66A66EE866A41
:103CD000F8EEE77A36EEA77ADFEDA27A27EE277ABA
:103CE000F6EE007A77EE676A07EE102AB8EEC76A3A
:103CF000F2EE005A85EE867A26EE877A77EE277AFC
:103D00009FED997A67EE877A0DF5873202F5BC72DE
:103D1000C2ED007A9FED957A0DF5873202F5BA7201
:103D200082ED007AF4EEC77AF1EE10FA00F3058323
:103D30000DF5873202F5BC72F7EE007A0DF587318A
:103D400001F5B871C1ED007A92ED007AB4EEE77A30
:103D5000F1EE10FA48BF0A46D2ED007AFCEEE77A9F
:103D6000CDED057ABDF81480744A127802EB820218
:103D700003EB82127E4931F8122092B206EE902AAD
:103D8000754A92ED006A754A128812B207EE902ABF
:103D9000734A127852B2F8EEE66A66EE866AF8EE78
:103DA000E77A36EEA77ADFED6F7A27EE277AF6EE1E
:103DB000007A77EE676A07EE102AB8EEC76AF2EE6D
:103DC000005A85EE867A26EE877A77EE277A9FED7F
:103DD000667A67EE877A0DF5873202F5B672C2ED24
:103DE000007A9FED627A0DF5873202F5B47282EDAA
:103DF000007AF4EEC77AF1EE10FA0DF58732D4BFEF
:103E000002F5B67202F5B472F7EE007A0DF587315D
:103E100001F5B271C1ED007A92ED007AB4EEE77A65
:103E2000F1EE10FA48BF0A46D2ED007AFCEEE77ACE
:103E3000CDED057ABDF81470404A127802EB82028B
:103E400003EB82124B4931F8122092B206EE902A0F
:103E5000414A92ED006A414A128812B207EE902A56
:103E60003F4A127852B2F8EEE66A66EE866AF8EEDB
:103E7000E77A36EEA77ADFED3B7A27EE277AF6EE81
:103E8000007A77EE676A07EE102AB8EEC76AF2EE9C
:103E9000005A85EE867A26EE877A77EE277A9FEDAE
:103EA000327A67EE877A0DF5873202F5B072C2ED8D
:103EB000007A9FED2E7A0DF5873202F5AE7282ED13
:103EC000007AF4EEC77AF1EE10FA0DF58732D4BF1E
:103ED00002F5B07202F5AE72F7EE007A0DF5873199
:103EE00001F5AC71C1ED007A92ED007AB4EEE77A9B
:103EF000F1EE10FA48BF0A46D2ED007AFCEEE77AFE
:103F0000CDED057ABDF814600D4A128892B2002AF0
:103F10003CD1194AA2F80080184A1780184A168026
:103F200000222FE038730020E473002038120020B4
:103F3000421200201C12002008120020391200201A
:103F400040120020004001402C1200203C120020B2
:103F50006766666600030020080000200600002057
:103F60000C0000200000803800005743000056433A
:103F700000080020000D0020DC730020DE7300200C
:103F8000E073002083490A7083490A80814A1278CD
:103F90008AB9824A127802EB820203EB82128049CC
:103FA00031F8121089B27F4A128892B2914202DA35
:103FB0000121784A1170774A1278002A4DD0774A49
:103FC000127802EB820203EB8213754A32F8132057
:103FD00092B2744B1B889BB29A423EDB6E4B1B889D
:103FE0009BB293B3704B1B886B4A14886F4A916ADB
:103FF000D26A6F486F4D95ED006AB8EE466A1B1B9A
:104000009BB207EE903AF8EEE77A77EEA77A4B1C70
:1040100007EE103AB8EE477A27EE877A531C07EE80
:10402000903AF8EE677A67EE277AC6EE276A90ED47
:10403000037AF0EE087A67EE277A36EEA77AF5EE85
:10404000007A67EE277AC0ED037A574B1B889BB244
:10405000514A138000224F4B1A70574BB3F800C0DF
:104060001FFA8CFCC445BABFCDF814C0C446CDF8C5
:104070001480524BB3F800901FFA89F9B945BABFC2
:10408000CDF81890B94606974D4BB3F800A01FFA2B
:104090008AFAB245BABFCDF81CA0B2460796424B89
:1040A0001B889BB21A2B40F34D813F4B1B889BB260
:1040B000FA2BCCBF0A22002200203B4D96463C4CF6
:1040C0008346C2F16B030893099673E13D4C0021CE
:1040D0002046FDF709F842F20E03E35C2BB942F2E9
:1040E0000F02A25C002A3FF486AD83F001032B4A45
:1040F0001370354B1B78012B07D0284B19783148AA
:1041000000EB0131FDF7EAFF75E511782D4800EB72
:104110000131FDF7BDFF6EE52C4B1B786BB92C4BC5
:104120001B7853B12B4B5A8892B22B4B5B889BB2B6
:104130009A4219DA254B5B78B3B1244B5B78002B9C
:1041400040F0BC80224B5B78002B00F0B780214B05
:104150001A8892B2204B1B889BB29A4204DA1B4BFE
:104160001B78002B40F0AA80184B1B7803F0FF024D
:10417000002B34D1164B1B7883B3164B598889B268
:10418000154B5B889BB2994229D0104B5A78D2B21A
:1041900025E000BF946C0020966C002039120020AE
:1041A0000003002004000020401200200004004012
:1041B000BC73002020000020DC730020DE73002090
:1041C000E07300204812002038120020281200203E
:1041D0002012002024120020007400200122854BB0
:1041E0001A701978C9B20122834842541978C9B2A9
:1041F0000024824820F811401978814B03EB810399
:1042000093ED000A0DF5873444347E49204603F0CF
:1042100085F96368C3F1FF4303F5FF0303F5FF432B
:104220007F33032B57D9042277490DF5873044306B
:104230000EF08CFE04460DF5873234320DF58733CF
:104240002C331A60054655F8082BAA4246D00DF5C6
:1042500087332C331A6082689A6063680DF587365D
:104260002C36736025600023636023720DF587325E
:104270005C324FF6FF7111600DF5873160310B60D4
:1042800062480291019200F1080300933346DF2255
:104290008C21FFF74EF830680DF5873334339842A0
:1042A00001D003F0E1FF0DF58733443318680DF5B5
:1042B00087334C33984201D003F0D6FF4D4B002298
:1042C0001A701B78DBB2012B3FF795AC494CDFED40
:1042D000509A00F0F3BC4F481AF0F8F80DF5873605
:1042E0003436034653F8080F59689A68DB680FC6DE
:1042F000B3E70DF5873303F5A87300F02BBC4FF03F
:1043000000094B4600F075BC2378DBB200223A4925
:10431000CA542378DBB24049CA5400F0C6BC3F4BB4
:104320001B78DBB23E4A32F8132092B23D4B1B8819
:104330009BB29A42BFF69CAC5DE40DF5873202F564
:10434000BA72F9E40A22B7E611F0020F0FD0069E06
:10435000B3420CDB4B450ADC217F04EB8101A3EB6C
:104360000E03496940F21D5621F8136021E011F057
:10437000040F0FD007998B420CDB53450ADC217FD9
:1043800004EB8101A3EB0E0349694FF6E43621F8F3
:1043900013600EE0298811F0030F02D16B2B00F09F
:1043A000A784217F04EB8101A3EB0E03496921F867
:1043B00013B00130C3B2298889B21B29B4BFCB2105
:1043C000D721994230DB9342F3DB617F11F0010F7B
:1043D000BAD0059EB342B7DB6345B5DC217F04EB61
:1043E0008101A3EB0E0349694FF4FC6621F81360C9
:1043F000DFE700BF3912002028120020241200201D
:104400000C120020E4730020F09102089C6C002044
:1044100000002043D0910208201200200812002042
:104420001812002040120020099EC14B1B889BB22D
:10443000042B1EDCBF4B1B781B06002B19DD002153
:104440000846BC4DBC4C45F28A2E2B785BB294F8E2
:104450001CC004EB8C0C5B0091FBF3F3DCF814C084
:104460002CF813E001302B785BB2D731B0EB430F5F
:10447000EBDBB24B5968B24B1960AD480188038839
:10448000008880B21B28B4BFCB25D725AA4C207F3B
:1044900004EB80004069019000959BB289B2A94865
:1044A000FEF764FD237FB3FA83F35B092377A64B02
:1044B000A3F80080A54B1F80A54B1E809C4A138843
:1044C00001339BB2138013889BB2B3F5A07F00F039
:1044D000DF81974B1B889BB2974A11880A1D934234
:1044E00000F0E681924B1B889BB2012B7FF483ABDB
:1044F000904B1A7852B292B296490DF58730A4309B
:1045000002F0FEFE01230093934B002211460DF5AD
:104510008730A4300EF096FC04460DF587339433B3
:104520000DF587328C321360064656F8083BB342CD
:1045300000F048820DF587328C32136083680DF5E8
:1045400087329432136063680DF5873290321360BE
:1045500026600023636023721368C3F1FF4303F5F1
:10456000FF0303F5FF437F33012B40F23682022223
:104570007A490DF587308C300EF0E8FC04460DF5D5
:1045800087327C320DF5873374331A60064656F84D
:10459000082BB24200F024820DF5873374331A6081
:1045A00082689A6063680DF5873574356B602660A4
:1045B00000216160217245F28A230DF58732BC32F9
:1045C00013600DF5873303F5C47343F8C81D5D48C8
:1045D0000293019200F1080300932B460122FEF79B
:1045E000A8FE28680DF587337C33984201D003F08C
:1045F0003BFE0DF587338C3318680DF58733943304
:10460000984201D003F030FE0DF58733A4331868CB
:104610000DF58733AC33984201D003F025FE454BAE
:104620001A7852B292B24B490DF58730F43002F04D
:1046300067FE012300934A4B002211460DF5873097
:10464000F4300EF0FFFB04460DF58733E4330DF52F
:104650008732DC321360064656F8083BB34200F05E
:10466000CA810DF58732DC32136083680DF587321D
:10467000E432136063680DF58732E0321360266020
:104680000023636023721368C3F1FF4303F5FF0344
:1046900003F5FF437F33012B40F2B88102222F49FB
:1046A0000DF58730DC300EF051FC04460DF58733F4
:1046B000CC330DF58732C4321360064656F8083BFA
:1046C000B34200F0A6810DF58732C43213608368CF
:1046D0000DF58732CC32136063680DF58732C8322E
:1046E0001360266000216160217245F28A230DF576
:1046F000873202F5867213600DF5873303F58873F0
:10470000196010480293019200F1080300930DF51F
:104710008733C433CD22FEF70CFE0DF58733C43347
:1047200018680DF58733CC3398421DD01AE000BFCE
:10473000401200200C000020BC7300208860024062
:10474000341200209C6C0020DC730020DE730020FB
:10475000E0730020E473002024A80208E0A7020808
:10476000E4A7020803F080FD0DF58733DC331868F9
:104770000DF58733E433984201D003F075FD0DF554
:104780008733F43318680DF58733FC33984201D032
:1047900003F06AFD0022AC4B93ED030AAB490DF523
:1047A000873000F5967002F0B9FE0DF5873303F5FA
:1047B00098731B68C3F1FF4303F5FF0303F5FF4341
:1047C0007F33052B40F230810622A1490DF5873059
:1047D00000F596700EF0BAFB04460DF5873303F52D
:1047E0008E730DF5873202F58A721360064656F80D
:1047F000083BB34200F01B810DF5873202F58A7247
:10480000136083680DF5873202F58E72136063685A
:104810000DF5873202F58C72136026600023636009
:1048200023724FF6FF720DF5873101F5A2710A6010
:104830000DF5873202F5A472136086480292019149
:1048400000F1080300930DF5873303F58A73012205
:10485000FA21FEF76EFD0DF5873303F58A731868AC
:104860000DF5873303F58E73984201D003F0FCFCFD
:104870000DF5873303F5967318680DF5873303F547
:104880009A7398423FF4B7A903F0EEFCFFF7B3B96F
:104890000022714B1A70714B1A6822F001021A60E3
:1048A0006F4A12685B6A03EB02436E4A136010E6BC
:1048B000654B5B889BB206EE903A6B4B93ED006ABA
:1048C0006A4B1B881BB207EE903A694B1B785BB2B0
:1048D000F8EEE66A66EE866AF8EEE77A36EEA77AD2
:1048E000DFED647A27EE277AF6EE007A77EE676AD4
:1048F00007EE103AB8EEC76AF2EE005A85EE867AF5
:1049000026EE877A77EE277A9FED5B7A67EE877AD5
:104910000DF5873303F5C273C3ED007A9FED577A27
:104920000DF5873303F5C07383ED007AF4EEC77A93
:10493000F1EE10FA0DF58733D4BF03F5C27303F51A
:10494000C073F7EE007A0DF5873202F5BE72C2ED44
:10495000007A93ED007AB4EEE77AF1EE10FA48BFF0
:104960001346D3ED007AFCEEE77ACDED057ABDF87B
:104970001440631F9BB2CD2B3FF6B4AD0DF58733CA
:104980006C334FF6E0761E60221F324D0193231DDB
:104990009BB200930B4692B22846FEF736FB2A4B99
:1049A00019880DF58732703216600B1D043921EA23
:1049B000E171019200949BB2224689B22846FEF72B
:1049C00024FB8FE50DF587359435034653F8080F22
:1049D00059689A68DB680FC5B5E5294819F076FD76
:1049E0000DF587357C35034653F8080F59689A68EA
:1049F000DB680FC5D6E50DF58735E435034653F87A
:104A0000080F59689A68DB680FC533E61C4819F02F
:104A10005DFD0DF58735CC35034653F8080F596811
:104A20009A68DB680FC557E6154819F04FFD0DF57C
:104A3000873505F58E75034653F8080F59689A684F
:104A4000DB680FC5E3E600BFBC730020E473002001
:104A5000E8A702089C6C00204212002000400140A0
:104A60002C12002030120020080000200600002038
:104A70000C0000200000803800005743000056431F
:104A8000D09102082378DBB29F4A32F813309BB2F0
:104A900097FBF3F303F580735A42C3F30903C2F3A0
:104AA000090258BF534203F60403984A02EB8303FA
:104AB000D3ED017A67EE8A7A77EEA97AFDEEE77A8E
:104AC000CDED057A237803EB830305EB8313904A3E
:104AD00032F813309BB207EE103A8E4BD3ED006ADA
:104AE0008D4B1B881BB207EE903A8C4B1B785BB248
:104AF000B8EEC77A27EE267AF8EEE77A77EE277ACD
:104B000067EE897AB6EE007A77EEC77A06EE903ACB
:104B1000B8EEE66AF2EE005AC5EE866A67EEA67A4D
:104B200077EE877A67EEA87A0DF5873303F5AA73D7
:104B3000C3ED007A0DF5873303F5A87383ED008A82
:104B4000F4EEC87AF1EE10FA3FF7D3AB0DF58733E8
:104B500003F5AA73F7EE007A0DF5873202F5A67217
:104B6000C2ED007A93ED007AB4EEE77AF1EE10FA36
:104B700048BF1346D3ED007AFCEEE77ACDED067A16
:104B8000BDF818802378DBB2654A32F813309BB247
:104B9000A03B23EAE3739D4204BF624BA3F800806D
:104BA0002378DBB25E4931F8132092B22378DBB26E
:104BB00031F813901FFA89F92378DBB231F81330FA
:104BC0009BB29E3B9D42FFF69AAB521B564B83FB1A
:104BD0000213C3EBE2733F335B019BB2A9EB050207
:104BE000524981FB0219C9EBE27909F11F091FFA49
:104BF00089F9BDF81410DFF82CA1BAF8002092B2A0
:104C00000DF5873064300360DFF834B10190009215
:104C10000B4642465846FEF7F8F92378DBB23A4A8B
:104C200032F8131089B296FBF1F189B2BAF800306C
:104C30009BB20DF587326832C2F800900192009362
:104C40000B4642465846FEF7E0F9AAF800800135C7
:104C500006F5A07607F580672378DBB2304A32F894
:104C600013309BB29D4208DC2378DBB2264A32F82F
:104C700013309BB29D427FF705AF2278D2B228490C
:104C800031F8123001339BB221F812302378DBB2B5
:104C900031F8132092B22378DBB21B4931F813307C
:104CA0009BB2A0339A423FF42FAB23780133DBB29F
:104CB00023702378DBB2012B3EF79DAF2378DBB264
:104CC0001B4AD35C002BF0D02378DBB2144A32F8B5
:104CD0001350ADB2A03D25EAE57505EB8506B6019A
:104CE000AF029FED149ADFED148A9FED148AB3E7AB
:104CF000237F04EB83035B69089945F28A2623F836
:104D00001160FFF756BB00BF00740020481200205E
:104D10000003002008000020060000200C000020F6
:104D200024120020DC73002056555555ABAAAA2A40
:104D3000281200200000803800005743000056432E
:104D40009C6C002070B5064603686BB14469456AE7
:104D50000435AC4205D254F8040B03F085FAA542A1
:104D6000F9D8306803F080FA304670BD70B5064659
:104D7000C36A6BB1046C056D0435AC4205D254F8BE
:104D8000040B03F071FAA542F9D8F06A03F06CFA4B
:104D90003046FFF7D7FF304670BD2DE9F84F064685
:104DA000480A451C0330082838BF08207060B0F15D
:104DB000804F30D28946800003F05DFA8346306030
:104DC00073685B1B4FEA530800EB880A0AEB850502
:104DD000AA4509D254464FF40077384603F04BFAFF
:104DE00044F8040BA542F8D8C6F814A05BF82820B4
:104DF000F26002F5007333612B1F736255F8043CB7
:104E0000F36103F500713162B260C9F308094B44E4
:104E1000B361BDE8F88F19F050FB00002DE9F041B7
:104E20008AB00446002500950195029503950495E6
:104E30000595069507950895099529466846FFF753
:104E4000ACFF25606560A560E56025616561A561D1
:104E5000E5612562656229462046FFF79EFF009EB8
:104E60007EB3D4F80880D4F80CC0D4F810E0676999
:104E700004F1080502AB0FCB85E80F00CDF80880E0
:104E8000CDF80CC0CDF810E00597D4F81880D4F810
:104E90001CC0D4F820E0676A04F118050AAB13E9D6
:104EA0000F0085E80F00CDF81880CDF81CC0CDF8B4
:104EB00020E009972368266000936368019A626086
:104EC00001936846FFF73EFF002384F82830E36231
:104ED0006363A363E36323646364A364E36423659C
:104EE00008232363202003F0C6F90746E062256B00
:104EF000013D6D0800EB8506331D9E4205D24FF43F
:104F0000007003F0B8F947F82500266457F82530FB
:104F1000A36303F50072E2632665A364E26463633E
:104F2000636404F16005054E0FCE0FC596E80F00CF
:104F300085E80F0020460AB0BDE8F0819491020890
:104F400070B582B005460E4671B1541A01940F2C0B
:104F50000ED82868012C14D0B4B9019B6B602A6864
:104F60000021D15402B070BD9AB10B4819F0ABFAD0
:104F7000002201A928460DF04DFD2860019BAB6081
:104F8000E7E733780370E8E7224631461DF0E3FC9B
:104F9000E3E7541A0194DCE7F89102082DE9F047A1
:104FA00004460E464268406A2568431BA2EBA303F1
:104FB000012B14D9656A4FF4007003F05CF9686046
:104FC000A369327803B11A70636A1A1D62625B6862
:104FD000E36103F500722262A361BDE8F0876169B5
:104FE000471ABF10013707F10109B2EB490F19D970
:104FF000A2EB0902520805EB8208414507D9021DC0
:10500000521A93082CD040461DF0B0FC28E0BB009B
:10501000021D521A900823D09B1A08EB03001DF0C2
:10502000A5FC1DE032B15200951CB5F1804F02D3B2
:1050300019F043FA0325A80003F01DF98246A5EBF9
:105040000902520800EB82086169626A0432521A4E
:1050500093081AD1206803F007F9C4F800A065602E
:10506000C4F81480D8F80030E36003F500732361BE
:1050700007F18047013F08EB8703636258F8273048
:10508000E36103F50073236294E740461DF06EFC74
:10509000E0E7000000B583B00D4B1A685B68DBB237
:1050A0008DF807300B4A9169126A013A914208D093
:1050B00001B10B70074A93690133936103B05DF846
:1050C00004FB0DF107010348FFF768FFF6E700BF97
:1050D000004C0040387300202DE9F043F1B0074642
:1050E000002484708DF8004003AB0193B5494FF064
:1050F00000030A460C3901A8FFF722FF8DF81C4077
:105100000AAB089309948DF8284001258DF8385092
:1051100011AB0F93AC494FF000030A460A390FA8B0
:10512000FFF70EFF8DF8545018AB169317948DF8B7
:1051300060404FF002098DF870901FAB1D93A3499A
:105140004FF000030A460A391DA8FFF7F9FE0425AF
:105150008DF88C5026AB249325948DF898404FF011
:1051600003088DF8A8802DAB2B9399494FF00003CD
:105170000A4609392BA8FFF7E3FE06268DF8C4601E
:1051800034AB329333948DF8D0408DF8E0503BAB84
:10519000399390494FF000030A460A3939A8FFF7BE
:1051A000CFFE05258DF8FC5042AB409341948DF81D
:1051B00008418DF8185149AB479387494FF00003D8
:1051C0000A460B3947A8FFF7BBFE8DF8349150AB68
:1051D0004E934F948DF840418DF8505157AB5593F5
:1051E0007E494FF000030A460C3955A8FFF7A8FE88
:1051F0008DF86C815EAB5C935D948DF878418DF891
:10520000886165AB639376494FF000030A460B391A
:1052100063A8FFF795FE09238DF8A4316CAB6A9360
:105220006B948DF8B0417C60BC60FC604FF4E07022
:1052300003F021F80646786000F5E073FB6000F1AA
:105240000C056C46D6B1237805F80C3C45F8085C93
:105250006168A2684FF000030A44301DFCF722F990
:10526000237F2B7406F128036B61216A626A4FF079
:1052700000030A4406F12000FCF714F938343836EC
:10528000383570AB9C42DDD1BE601C466E4608E0EE
:1052900068682C3CA04201D002F0E6FF2C46B542E3
:1052A00009D0A4F13805286AA4F110039842EFD080
:1052B00002F0DAFFECE700248DF8004003AB019325
:1052C00040494FF000030A460C3901A8FFF738FEA9
:1052D0008DF81C400AAB089309948DF828400125ED
:1052E0008DF8385011AB0F9337494FF000030A4641
:1052F0000A390FA8FFF724FE8DF8545018AB169307
:1053000017948DF8604002238DF870301FAB1D9309
:1053100034494FF000030A4608391DA8FFF710FE74
:1053200007238DF88C3026AB249325948DF8984074
:1053300003238DF8A8302DAB2B932B494FF000039E
:105340000A4607392BA8FFF7FBFD08238DF8C43068
:1053500034AB329333948DF8D0403C617C61BC61B6
:10536000E02002F088FF0646386100F1E003BB61EF
:1053700000F10C056C460DF1E008D6B1237805F874
:105380000C3C45F8085C6168A2684FF000030A44D1
:10539000301DFCF787F8237F2B7406F128036B611F
:1053A000216A626A4FF000030A4406F12000FCF70C
:1053B00079F83834383638354445DED17E6138AC3A
:1053C0006E461CE070A702087EA702088AA70208A2
:1053D00095A70208A2A70208AFA70208BCA7020867
:1053E000CBA70208D4A70208DFA7020868682C3CF4
:1053F000A04201D002F038FF2C46B54209D0A4F1FA
:105400003805286AA4F110039842EFD002F02CFF6F
:10541000ECE7384671B0BDE8F08300BF70B5224BB1
:1054200000241C70F0225A804FF4A0729A801F4A08
:1054300003F1080502F1200103C985E8030003F127
:105440001005283292E8030085E8030083F89846A7
:10545000174E3046FBF7C8FD164D2A461649304612
:1054600002F004FF154E3046FFF736FE2A46144977
:10547000304602F0FBFE134E3046FFF7CFFC2A46C3
:105480001149304602F0F2FE104B0A221A8042F215
:10549000283159800E4959601C72042159721A82B0
:1054A0001C7707225A7770BD9C6C002094910208EB
:1054B0004812002000000020D1330008E4730020CF
:1054C000ED330008387300206D4D0008BC730020D8
:1054D0000012002038B5094BA3F5907502E0234671
:1054E000AC4209D0A3F1180453F8180C103B9842B1
:1054F000F5D002F0B9FEF2E738BD00BF24750020F8
:10550000F0B589B005461478204AA2FB0432D208CF
:1055100002EB4203A4EB8304E4B204AB0293303207
:10552000012102A80DF0E4FA194A61000B1952F8A2
:1055300033300C4402EBC402526800920022114640
:1055400002A80DF07FFC05F108012960034653F81D
:10555000082B9A4211D02A608268AA6042686A6069
:105560000360002343600372029804AB984201D0A9
:1055700002F07AFE284609B0F0BD1F685E689C689C
:10558000DA68AF60EE602C616A61E7E7ABAAAAAAAD
:10559000047400202DE9F04F89B00790049114683D
:1055A000D2F804A093680093D2F80CB004F110066E
:1055B0009E422FD0CDF814B0009B0393CDF804A0E9
:1055C000049DAF686B692969C91B0911ABEB030224
:1055D0009210501EA4EB0A02121102EB40120A4470
:1055E0000692686A2A46AD69D269AA1A1211C31ACC
:1055F0009B10013B02EB43131944069BB3EB510F85
:1056000080F09D80A74274D0002B72DD9946DDF8B2
:10561000148045E00BF104030593DBF8046006F504
:10562000007303930196CBE7009D214645E03A467F
:10563000334649E05042014418441DF097F94BE0CD
:10564000002B14DD1C46B8BF03F11F0464110BEBE3
:10565000840BDBF800A0A3EB44140AEB04147F1BBB
:105660001F2F08D8C5EB057306EB031613E0DC43C8
:105670006FEA5414EBE7002F37DD3E46B8BF07F161
:105680001F06761108EB8608D8F800300193A7EBC7
:10569000461703EB0716A9EB0509B9F1000F28DD42
:1056A000A4EB0A03019AB71A3F111B110093BBD157
:1056B0005BF8041C01F500712025002FB7D158F8C4
:1056C000043C03F5007320224D45A8BF4D4695428A
:1056D000A8BF15462A01ADD1009B5B1B1F2BAFD87D
:1056E000C5EB057304EB0314B9E7FE436FEA5616E6
:1056F000C8E704998B680A69103A934211D01033B5
:105700008B60049A13469068D2681C695969831AA1
:10571000069E06EB23131F2B00F29B8000EB061363
:10572000A7E0049CE06802F09FFD63691A1D6261B6
:105730005B68E36003F500722261A360E1E7B542B4
:105740006FD0059BA0EB03094FEAA90909F1FF39C6
:1057500002EB4919039B9B1B09EB2319B9F1000FBD
:105760005FDDDDF804803EE01A46314620461DF03C
:10577000FDF849E0002F1BDD3E46B8BF07F11F06CC
:105780007611059B03EB86030593D3F8008008F59B
:1057900000730393A7EB461708EB0716029BA3EBD6
:1057A0000A0305EB23131F2B06D8019B1C4415E0AD
:1057B000FE436FEA5616E4E7002B2EDD1C46B8BF09
:1057C00003F11F0464110BEB840BDBF800A00AF556
:1057D00000720092A3EB44140AEB0414A9EB050930
:1057E000B9F1000F1DDD37460294039B9D1B2D115F
:1057F000009B1B1B1B119D42A8BF1D464D45A8BF0A
:105800004D462B010193AFD1A7EB080705EB2717F6
:105810001F2FAFD8019B1E44C0E7DC436FEA54142E
:10582000D1E704998869CB69984202D01038886121
:1058300067E702F019FD0498436A1A1F426253F8A1
:10584000043CC36103F50072026203F5F8738361DF
:1058500057E7002B16DD1846B8BF03F11F004011B3
:1058600001EB80010A6802F50074A3EB401302EB20
:105870000313079D28462B606A60AC60E96009B09D
:10588000BDE8F08FD8436FEA5010E9E710B5044641
:10589000C06802F0E9FC63691A1D62615B68E3603D
:1058A00003F500722261A36010BD2DE9F0470446A4
:1058B0000E464268406A2568431BA2EBA303012BF6
:1058C00016D9656A4FF4007002F0D5FC6860A569CE
:1058D0001DB196E80F0085E80F00636A1A1D626229
:1058E0005B68E36103F500722262A361BDE8F087A3
:1058F0006169471ABF10013707F10109B2EB490F7F
:1059000019D9A2EB0902520805EB8208414507D9D3
:10591000021D521A93082CD040461DF027F828E0AB
:10592000BB00021D521A900823D09B1A08EB0300FB
:105930001DF01CF81DE032B15200951CB5F1804FEE
:1059400002D318F0BAFD0325A80002F094FC8246A9
:10595000A5EB0902520800EB82086169626A043211
:10596000521A93081AD1206802F07EFCC4F800A0F5
:105970006560C4F81480D8F80030E36003F5007364
:10598000236107F18047013F08EB8703636258F802
:105990002730E36103F50073236292E740461CF071
:1059A000E5FFE0E72DE9F041ADF5127D05460C4637
:1059B000487A00F1300335F81330DA1252000892B9
:1059C000C3F3451207925B0003F03E030693AB6DF1
:1059D0000A689B1A0593059BDB100593089A059BA3
:1059E0009A42B4BF089A059A089B9B1A0893079A93
:1059F000059B9A42B4BF079A059A079B9B1A079387
:105A0000069A059B9A42B4BF069A059A069B9B1A72
:105A100006930899079A069B5B1003EB4213491003
:105A200003EBC123ADF8263095F8283003EB0313C0
:105A3000DBB28DF813309DF81380421CB64910A8D4
:105A400001F05EFC119A6FF000439A4245D00122AA
:105A5000B24910A80DF07AFA06460CAB0A93074635
:105A600057F8083BBB423BD00A9383680C9373689A
:105A70000B93376000237360337216AABDF82610AB
:105A8000169117A91793A6480291019200F11003ED
:105A900000930AAB42460A21FDF74BFC0A980CAB77
:105AA000984201D002F0E0FB109812AB984201D06E
:105AB00002F0DAFB237AA3F10802D2B2012A1AD942
:105AC0000D2B00F04C810E2B00F0C0810B2B00F051
:105AD00045820DF5127DBDE8F081924818F0F6FC84
