:020000040800F2
:100000000000022041A8000891A8000891A800085B
:1000100091A8000891A8000891A80008000000001D
:1000200000000000000000000000000091A800088F
:1000300091A800080000000091A80008CD64000805
:1000400091A8000891A8000891A8000891A80008AC
:1000500091A8000891A8000891A8000891A800089C
:1000600091A8000891A8000891A8000891A800088C
:1000700091A8000891A8000891A8000891A800087C
:1000800091A8000891A8000891A8000891A800086C
:1000900091A8000891A8000891A8000891A800085C
:1000A0003D64000891A8000891A8000891A80008E4
:1000B00091A80008815A000891A8000891A800089A
:1000C00091A8000891A8000891A8000891A800082C
:1000D00091A8000891A8000891A8000891A800081C
:1000E0001563000891A8000891A8000891A80008CD
:1000F00091A8000891A8000891A8000891A80008FC
:1001000091A8000891A8000891A8000891A80008EB
:100110006964000891A8000891A8000891A8000847
:1001200091A8000891A8000891A8000891A80008CB
:1001300091A80008000000000000000091A800083D
:1001400091A8000891A8000891A8000891A80008AB
:1001500091A8000891A8000891A8000891A800089B
:1001600091A8000891A8000891A8000891A800088B
:1001700091A8000891A8000891A8000800000000BC
:100180000000000091A8000800000000000000002E
:1001900091A80008000000000000000091A80008DD
:1001A00000000000000000000000000091A800080E
:1001B00091A8000891A8000891A8000891A800083B
:0401C00091A80008FA
:1001D00010B5054C237833B9044B13B10448AFF381
:1001E00000800123237010BDC80200200000000021
:1001F000F0E6020808B5034B1BB103490348AFF30F
:10020000008008BD00000000CC020020F0E60208DB
:1002100001F0FF01102A2BDB10F0070F08D010F8B7
:10022000013B013A8B422DD010F0070F42B3F6D1BB
:10023000F0B441EA012141EA014122F007047FF0D4
:1002400000070023F0E80256083C85EA010586EA2B
:10025000010685FA47F5A3FA87F586FA47F6A5FA67
:1002600087F68EB9EED1F0BC01F0FF0102F0070273
:1002700032B110F8013B013A83EA010313B1F8D11E
:100280000020704701387047002D06BF35460338FF
:10029000073815F0010F07D1013015F4807F02BF38
:1002A000013015F4C03F0130F0BC0138704700BF89
:1002B00010F8012B11F8013B012A28BF9A42F7D010
:1002C000D01A7047034613F8012B002AFBD1181AE5
:1002D0000138704781F0004102E000BF83F0004325
:1002E00030B54FEA41044FEA430594EA050F08BFD1
:1002F00090EA020F1FBF54EA000C55EA020C7FEA95
:10030000645C7FEA655C00F0E2804FEA5454D4EB11
:100310005555B8BF6D420CDD2C4480EA020281EADB
:10032000030382EA000083EA010180EA020281EA13
:100330000303362D88BF30BD11F0004F4FEA013165
:100340004FF4801C4CEA113102D0404261EB410174
:1003500013F0004F4FEA03334CEA133302D05242FA
:1003600063EB430394EA050F00F0A780A4F10104B6
:10037000D5F1200E0DDB02FA0EFC22FA05F28018F0
:1003800041F1000103FA0EF2801843FA05F35941D6
:100390000EE0A5F120050EF1200E012A03FA0EFC55
:1003A00028BF4CF0020C43FA05F3C01851EBE3717F
:1003B00001F0004507D54FF0000EDCF1000C7EEB9C
:1003C00000006EEB0101B1F5801F1BD3B1F5001FDA
:1003D0000CD349085FEA30004FEA3C0C04F10104F9
:1003E0004FEA445212F5800F80F09A80BCF1004F22
:1003F00008BF5FEA500C50F1000041EB045141EAA4
:10040000050130BD5FEA4C0C404141EB010111F4A4
:10041000801FA4F10104E9D191F0000F04BF01464F
:100420000020B1FA81F308BF2033A3F10B03B3F12D
:1004300020020CDA0C3208DD02F1140CC2F10C02BD
:1004400001FA0CF021FA02F10CE002F11402D8BF1B
:10045000C2F1200C01FA02F120FA0CFCDCBF41EAE7
:100460000C019040E41AA2BF01EB0451294330BDB6
:100470006FEA04041F3C1CDA0C340EDC04F1140493
:10048000C4F1200220FA04F001FA02F340EA03006A
:1004900021FA04F345EA030130BDC4F10C04C4F1B0
:1004A000200220FA02F001FA04F340EA0300294690
:1004B00030BD21FA04F0294630BD94F0000F83F4DA
:1004C000801306BF81F480110134013D4EE77FEABD
:1004D000645C18BF7FEA655C29D094EA050F08BF09
:1004E00090EA020F05D054EA000C04BF19461046EA
:1004F00030BD91EA030F1EBF0021002030BD5FEA2E
:10050000545C05D14000494128BF41F0004130BD55
:1005100014F580043CBF01F5801130BD01F00045A9
:1005200045F0FE4141F470014FF0000030BD7FEA1C
:10053000645C1ABF194610467FEA655C1CBF0B4617
:10054000024650EA013406BF52EA033591EA030F2E
:1005500041F4002130BD00BF90F0000F04BF002126
:10056000704730B54FF4806404F132044FF0000559
:100570004FF0000150E700BF90F0000F04BF0021D2
:10058000704730B54FF4806404F1320410F0004538
:1005900048BF40424FF000013EE700BF42004FEA33
:1005A000E2014FEA31014FEA02701FBF12F07F43B0
:1005B00093F07F4F81F06051704792F0000F14BFAD
:1005C00093F07F4F704730B54FF4607401F00045F1
:1005D00021F0004120E700BF50EA010208BF704748
:1005E00030B54FF000050AE050EA010208BF70473D
:1005F00030B511F0004502D5404261EB41014FF4A6
:10060000806404F132045FEA915C3FF4DCAE4FF0A9
:1006100003025FEADC0C18BF03325FEADC0C18BF90
:10062000033202EBDC02C2F1200300FA03FC20FAE1
:1006300002F001FA03FE40EA0E0021FA02F114442E
:10064000C1E600BF70B54FF0FF0C4CF4E06C1CEA43
:1006500011541DBF1CEA135594EA0C0F95EA0C0FB8
:1006600000F0DEF82C4481EA030621EA4C5123EA2B
:100670004C5350EA013518BF52EA033541F480115A
:1006800043F4801338D0A0FB02CE4FF00005E1FB0D
:1006900002E506F00042E0FB03E54FF00006E1FB57
:1006A00003569CF0000F18BF4EF0010EA4F1FF049A
:1006B000B6F5007F64F5407404D25FEA4E0E6D41DA
:1006C00046EB060642EAC62141EA55514FEAC520EB
:1006D00040EA5E504FEACE2EB4F1FD0C88BFBCF567
:1006E000E06F1ED8BEF1004F08BF5FEA500E50F118
:1006F000000041EB045170BD06F0004646EA0101DE
:1007000040EA020081EA0301B4EB5C04C2BFD4EB0F
:100710000C0541EA045170BD41F480114FF0000E08
:10072000013C00F3AB8014F1360FDEBF002001F076
:10073000004170BDC4F10004203C35DA0C341BDCF0
:1007400004F11404C4F1200500FA05F320FA04F0C2
:1007500001FA05F240EA020001F0004221F00041F6
:1007600010EBD37021FA04F642EB06015EEA430E69
:1007700008BF20EAD37070BDC4F10C04C4F1200599
:1007800000FA04F320FA05F001FA04F240EA02004C
:1007900001F0004110EBD37041F100015EEA430E1D
:1007A00008BF20EAD37070BDC4F1200500FA05F23D
:1007B0004EEA020E20FA04F301FA05F243EA0203BC
:1007C00021FA04F001F0004121FA04F220EA0200CB
:1007D00000EBD3705EEA430E08BF20EAD37070BD11
:1007E00094F0000F0FD101F00046400041EB0101F1
:1007F00011F4801F08BF013CF7D041EA060195F0D3
:10080000000F18BF704703F00046520043EB03038C
:1008100013F4801F08BF013DF7D043EA0603704779
:1008200094EA0C0F0CEA135518BF95EA0C0F0CD084
:1008300050EA410618BF52EA4306D1D181EA0301CA
:1008400001F000414FF0000070BD50EA410606BFC4
:100850001046194652EA430619D094EA0C0F02D109
:1008600050EA013613D195EA0C0F05D152EA03364E
:100870001CBF104619460AD181EA030101F000416C
:1008800041F0FE4141F470014FF0000070BD41F0B5
:10089000FE4141F4780170BD70B54FF0FF0C4CF48F
:1008A000E06C1CEA11541DBF1CEA135594EA0C0FAE
:1008B00095EA0C0F00F0A7F8A4EB050481EA030EFB
:1008C00052EA03354FEA013100F088804FEA0333E2
:1008D0004FF0805545EA131343EA12634FEA0222B0
:1008E00045EA111545EA10654FEA00260EF0004171
:1008F0009D4208BF964244F1FD0404F5407402D2C3
:100900005B084FEA3202B61A65EB03055B084FEA53
:1009100032024FF480104FF4002CB6EB020E75EB50
:10092000030E22BFB61A754640EA0C005B084FEA78
:100930003202B6EB020E75EB030E22BFB61A7546F5
:1009400040EA5C005B084FEA3202B6EB020E75EB40
:10095000030E22BFB61A754640EA9C005B084FEAB8
:100960003202B6EB020E75EB030E22BFB61A7546C5
:1009700040EADC0055EA060E18D04FEA051545EAB4
:1009800016754FEA06164FEAC30343EA52734FEA5D
:10099000C2025FEA1C1CC0D111F4801F0BD141EAD6
:1009A00000014FF000004FF0004CB6E711F4801F3B
:1009B00004BF01430020B4F1FD0C88BFBCF5E06F1B
:1009C0003FF6AFAEB5EB030C04BFB6EB020C5FEA2B
:1009D000500C50F1000041EB045170BD0EF0004E80
:1009E0004EEA113114EB5C04C2BFD4EB0C0541EAB2
:1009F000045170BD41F480114FF0000E013C90E6AF
:100A000045EA060E8DE60CEA135594EA0C0F08BF72
:100A100095EA0C0F3FF43BAF94EA0C0F0AD150EA71
:100A200001347FF434AF95EA0C0F7FF425AF104604
:100A300019462CE795EA0C0F06D152EA03353FF42C
:100A4000FDAE1046194622E750EA410618BF52EAA9
:100A500043067FF4C5AE50EA41047FF40DAF52EA7D
:100A600043057FF4EBAE12E74FF0FF3C06E000BF1A
:100A70004FF0010C02E000BF4FF0010C4DF804CD27
:100A80004FEA410C7FEA6C5C4FEA430C18BF7FEAE7
:100A90006C5C1BD001B050EA410C0CBF52EA430C15
:100AA00091EA030F02BF90EA020F0020704710F195
:100AB000000F91EA030F58BF994208BF90422CBF24
:100AC000D8176FEAE37040F0010070474FEA410C1D
:100AD0007FEA6C5C02D150EA013C07D14FEA430C3B
:100AE0007FEA6C5CD6D152EA033CD3D05DF8040BAC
:100AF000704700BF8446104662468C4619466346DE
:100B000000E000BF01B5FFF7B7FF002848BF10F1B4
:100B1000000F01BD4DF808EDFFF7F4FF0CBF0120F9
:100B200000205DF808FB00BF4DF808EDFFF7EAFF75
:100B300034BF012000205DF808FB00BF4DF808ED30
:100B4000FFF7E0FF94BF012000205DF808FB00BF25
:100B50004DF808EDFFF7CEFF94BF012000205DF8AF
:100B600008FB00BF4DF808EDFFF7C4FF34BF0120BC
:100B700000205DF808FB00BF4FEA410C7FEA6C5C87
:100B800002D150EA013C0AD14FEA430C7FEA6C5C87
:100B900002D152EA033C02D14FF0000070474FF0FF
:100BA000010070474FEA410212F5001215D211D52B
:100BB0006FF47873B3EB625212D94FEAC12343F05A
:100BC000004343EA505311F0004F23FA02F018BFDC
:100BD000404270474FF00000704750EA013005D1A5
:100BE00011F0004008BF6FF0004070474FF0000068
:100BF000704700BF4A0011D212F5001211D20DD574
:100C00006FF47873B3EB62520ED44FEAC12343F012
:100C1000004343EA505323FA02F070474FF00000BC
:100C2000704750EA013002D14FF0FF3070474FF06B
:100C3000000070474FEA4102B2F1E04324BFB3F530
:100C4000001CDCF1FE5C0DD901F0004C4FEAC00243
:100C50004CEA5070B2F1004F40EB830008BF20F027
:100C60000100704711F0804F21D113F13872BCBFE1
:100C700001F00040704741F480114FEA5252C2F136
:100C80001802C2F1200C10FA0CF320FA02F018BF7F
:100C900040F001004FEAC1234FEAD32303FA0CFCD2
:100CA00040EA0C0023FA02F34FEA4303CCE77FEA61
:100CB000625307D150EA01331EBF4FF0FE4040F4AB
:100CC0004000704701F0004040F0FE4040F400005A
:100CD000704700BF53B94AB9002908BF00281CBF9C
:100CE0004FF0FF314FF0FF3000F07AB9ADF1080C52
:100CF0006DE904CE00F006F8DDF804E0DDE902233A
:100D000004B070472DE9F0478C460D460446089E16
:100D1000002B51D18A4217466DD9B2FA82FEBEF13C
:100D2000000F0BD0CEF1200C01FA0EF520FA0CFCCE
:100D300002FA0EF74CEA050C00FA0EF44FEA174AD5
:100D4000250CBCFBFAF81FFA87F90AFB18CC45EA18
:100D50000C4508FB09F3AB420AD9ED1908F1FF3243
:100D600080F02381AB4240F22081A8F102083D448B
:100D7000ED1AA4B2B5FBFAF00AFB105544EA05449B
:100D800000FB09F9A14509D9E41900F1FF3380F00E
:100D90000A81A14540F2078102383C44A4EB0904D2
:100DA00040EA08400021002E61D024FA0EF400230E
:100DB00034607360BDE8F0878B4207D9002E54D0B1
:100DC000002186E821000846BDE8F087B3FA83F1E8
:100DD000002940F08E80AB4202D3824200F2FA80BA
:100DE000841A65EB03050120AC46002E3FD086E84F
:100DF0001010BDE8F08712B90127B7FBF2F7B7FA78
:100E000087FEBEF1000F34D1EB1B3A0C1FFA87FCB2
:100E10000121B3FBF2F8250C02FB183345EA034528
:100E20000CFB08F3AB4207D9ED1908F1FF3002D2F1
:100E3000AB4200F2D1808046ED1AA3B2B5FBF2F0CE
:100E400002FB105543EA05440CFB00FCA44507D9FE
:100E5000E41900F1FF3302D2A44500F2B88018462D
:100E6000A4EB0C0440EA08409DE731463046BDE85B
:100E7000F087CEF1200405FA0EF307FA0EF720FAF8
:100E800004F83A0C25FA04F448EA0308B4FBF2F13A
:100E90004FEA184502FB11441FFA87FC45EA044556
:100EA00001FB0CF3AB4200FA0EF409D9ED1901F184
:100EB000FF3080F08A80AB4240F2878002393D44A7
:100EC000EB1A1FFA88F5B3FBF2F002FB103345EA88
:100ED000034500FB0CF3AB4207D9ED1900F1FF38D5
:100EE0006FD2AB426DD902383D44EB1A40EA014162
:100EF0008FE7C1F1200722FA07F88B4005FA01F4C9
:100F000048EA030320FA07FE4FEA134CFD404EEA7D
:100F1000040EB5FBFCF94FEA1E440CFB19551FFAF1
:100F200083F844EA054509FB08F4AC4202FA01F2F1
:100F300000FA01FA08D9ED1809F1FF3043D2AC42AA
:100F400041D9A9F102091D442D1B1FFA8EFEB5FBE4
:100F5000FCF00CFB10554EEA054400FB08F8A045D8
:100F600007D9E41800F1FF3529D2A04527D9023866
:100F70001C4440EA0940A4EB0804A0FB02894C454C
:100F8000C6464D4615D312D056B1BAEB0E0364EBEC
:100F9000050404FA07F7CB401F43CC403760746068
:100FA0000021BDE8F0871846F8E69046E0E6C24525
:100FB000EAD2B8EB020E69EB03050138E4E72846F4
:100FC000D7E7404691E78146BEE7014678E7023819
:100FD0003C4445E7084608E7A8F102083D442BE7F2
:100FE000704700BF80B400AF074B1B69002B05DAC8
:100FF000054B064A5A60044B054A5A6000BFBD467D
:101000005DF8047B704700BF003C02402301674548
:10101000AB89EFCD80B400AF054A054B1B6943F0A7
:101020000043136100BFBD465DF8047B704700BFFD
:10103000003C024080B584B000AF78600B46FB7086
:101040000023FB600923FB72FB78002B02D10023F5
:10105000FB6010E0FB78012B03D14FF48073FB6041
:1010600009E0FB78022B03D14FF40073FB6002E030
:101070004FF44073FB6000F0BFF80346FB72FB7A4D
:10108000092B2FD11A4A1A4B1B6923F440731361A1
:101090001749174B1A69FB6813430B61144A144B29
:1010A0001B6923F0F80313611149114B1A697B681E
:1010B000134343F002030B610D4A0D4B1B6943F4CC
:1010C0008033136100F098F80346FB72084A084B1E
:1010D0001B6923F002031361054A054B1B6923F0CA
:1010E000F8031361FB7A18461037BD4680BD00BF78
:1010F000003C024080B584B000AF78600B46FB70C6
:101100000923FB7300F078F80346FB73FB7B092B84
:101110001CD1114A104B1B6923F4407313610E4A12
:101120000D4B1B6913610C4A0B4B1B6943F0010308
:1011300013617B68FA781A7000F05EF80346FB735F
:10114000054A054B1B6923F001031361FB7B18461D
:101150001037BD4680BD00BF003C024080B483B064
:1011600000AF7860044A7B68D36000BF0C37BD468F
:101170005DF8047B704700BF003C024080B483B040
:1011800000AF0923FB711B4BDB6803F48033B3F51D
:10119000803F02D10123FB7125E0164BDB6803F091
:1011A0001003002B02D00623FB711CE0114BDB68FF
:1011B00003F48073002B02D00223FB7113E00D4B6C
:1011C000DB6803F0E003002B02D00723FB710AE089
:1011D000084BDB6803F00203002B02D00823FB71ED
:1011E00001E00923FB71FB7918460C37BD465DF819
:1011F000047B7047003C024080B582B000AF0923F9
:10120000FB71FFF7BBFF0346FB7103E0FFF7B6FF7F
:101210000346FB71FB79DBB2012BF7D0FB79DBB224
:1012200018460837BD4680BD80B483B000AF7860F3
:101230007B6801221A70054B1A687B685A6000BFF0
:101240000C37BD465DF8047B704700BFE402002008
:1012500080B483B000AF78607B680A4A1A607B680C
:1012600001221A717B6800225A717B68064A213379
:10127000106818607B6818460C37BD465DF8047B23
:10128000704700BF4346470008E7020880B590B0AA
:1012900000AF78607B6800221A70234BBB63092380
:1012A00087F8373007F108031846FFF7D1FF07F139
:1012B00008031946786800F039F872B6FFF792FE15
:1012C000F320FFF74BFF02213820FFF7B3FE034660
:1012D00087F837302823BB8697F83730092B1BD186
:1012E0000023FB63FB6B272B16D807F10802FB6B6F
:1012F00013441B7887F83330BA6BFB6B134497F8B1
:10130000332011461846FFF7F5FE034687F83730BD
:10131000FB6B0133FB63E5E7FFF77CFE62B600BFC2
:101320004037BD4680BD00BF0000060880B483B0D2
:1013300000AF78603960304B1A783B685A712F4B98
:101340001B881AB23B68DA802D4B1A683B689A609A
:101350002C4BB3F900203B689A812A4B5B881A46D4
:101360003B681A61274B5B68274A93420FD0254B95
:101370005B68264A934208D0224B5B68244A93421A
:1013800001D1032304E0002302E0022300E0012353
:101390003A6813751B4B1A7A3B685A75194B5A7A7F
:1013A0003B689A75174B5A893B681A83154B93F91A
:1013B0000C203B689A76134B5A7B3B68DA76114BCC
:1013C00093F90E203B681A77124B1A783B685A77CC
:1013D000104B5A783B689A770E4B9A783B68DA77CD
:1013E0000C4BDA783B6883F8202000BF0C37BD46F1
:1013F0005DF8047B704700BF0E0000200400002051
:1014000008000020F88201202E2101203021012037
:101410003221012008280120B0B58CB000AF7860DF
:1014200007F108031846FFF713FF374B07F10804CD
:101430001D460FCD0FC40FCD0FC495E8030084E8FF
:10144000030007F1080331491846FEF731FF034650
:10145000002B55D107F1080321332D491846FEF71B
:1014600027FF0346002B4BD13B7B012B48D17A7BD6
:10147000284B1A70B7F90E20274B1A803B69274A70
:101480001360B7F91420264B1A80BB699AB2244B1B
:101490005A803B7F012B0BD03B7F022B06D03B7F3A
:1014A000032B01D11F4B04E0002302E01E4B00E0A0
:1014B0001E4B1B4A53607A7F194B1A72BA7F184B26
:1014C0005A723A8C164B5A8197F92220144B1A7390
:1014D00097F82320124B5A7397F92420104B9A73D4
:1014E00097F82520124B1A7097F82620104B5A7047
:1014F00097F827200E4B9A7097F828200C4BDA703B
:1015000000BF3037BD46B0BD000006080CE702083A
:1015100008E702080E000020040000200800002058
:10152000F882012032210120302101202E210120CA
:101530000828012080B582B000AF87ED010AC7ED11
:10154000000AD7ED000A97ED010A0BF017F8F0EE4C
:10155000407AB0EE670A0837BD4680BD80B582B0DC
:1015600000AF87ED010A97ED010A23F0C1FFF0EE0D
:10157000407AB0EE670A0837BD4680BD80B584B0BA
:1015800000AFF860B9607A607B68002B01D100235E
:1015900005E07A68B968F86826F08EFC03461846BC
:1015A0001037BD4680BD000090B585B000AF7860B3
:1015B0007B6801221A707B6800225A707B680922BE
:1015C0009A707B680822DA707B6803F50053043355
:1015D0004FF480621A807B6803F5005310330022B9
:1015E0001A707B6803F50053113300221A707B6870
:1015F00003F5804314334FF000021A607B6803F553
:1016000080431833184610F013FF7B6803F58043BE
:10161000303300221A607B6803F5804334330022A4
:101620001A807B6803F58043363300221A807B687A
:1016300003F580433833364A07CA03C31A807B68F0
:1016400003F5B443423300221A700023FB60FB68A9
:10165000B3F5806F35DAFB6807EE903AF8EEE77A7B
:1016600077EEA77A17EE900AFEF798FF26A3D3E944
:101670000023FEF7E7FF03460C46184621464FF0CD
:101680000002244BFFF708F903460C4644EC173BD5
:10169000B0EE470AF0EE670A23F0E2FE54EC103B8E
:1016A00018462146FFF7C6FA01467A68FB6803F63A
:1016B00004039B00134404331960FB680133FB608F
:1016C000C5E700237B817B89192B17DC00233B8135
:1016D0003B89FF2B0EDC7A893B89796812020A4428
:1016E000134403F58043423350221A703B8901337F
:1016F0003B81EDE77B8901337B81E4E77B6818461A
:101700001437BD4690BD00BF182D4454FB2109403D
:1017100010E702080000904080B582B000AF78600A
:101720003960144A134B1B6823F001031360124BFA
:101730001B681A040F4B5B6A1344104A13600D4A6E
:101740000C4B5B6943F0010353610A4A094B1B6868
:1017500043F001031360084B00221A60396878686F
:1017600000F0C8FA3968786800F006FD00BF083755
:10177000BD4680BD00400140602101206421012060
:1017800080B582B000AF78603960144A134B1B6893
:1017900023F001031360124B1B681A040F4B5B6AA2
:1017A0001344104A13600D4A0C4B5B6943F001036C
:1017B00053610A4A094B1B6843F001031360084B4D
:1017C00000221A603968786800F094FA39687868FD
:1017D00000F00AF800BF0837BD4680BD0040014058
:1017E000602101206421012090B595B002AFF8601E
:1017F000B9600023A7F846300023A7F84030002343
:10180000FB870123BB87BB8FFF2B00F31381FA8F6C
:10181000BB8F04339A427BDAFB8FFF2B78DCFB8F84
:101820009B00BA681344D3ED007AFB8FFA6803F685
:1018300004439B001344043393ED007AF0EE470A0F
:10184000B0EE670AFFF776FEF0EE406A9FED767A1B
:10185000C6EE877AB7EE007A77EE677A9FED737AF5
:1018600067EE877AFCEEE77AC7ED017ABB88A7F8C6
:101870004430B7F844301D2B20DCB7F84630013334
:10188000A7F84630B7F84630C82B17DDFB6803F5DC
:10189000804336331B8801339AB2FB6803F58043DB
:1018A00036331A80624B1B78DBB21A46FB6813444E
:1018B00003F50053103300221A70F6E1FB6803F5BC
:1018C000B44342331B781A46FB8FB7F84410C8B2B2
:1018D000F96812020A44134403F580434233024676
:1018E0001A70FB8F012B0FD1FB6803F5B443423311
:1018F0001B78B7F84420D1B2FA681B02134403F5F1
:10190000804342330A461A70FB8F0133FB877EE720
:101910000023A7F84230B7F84230A7F84430BB8F15
:10192000043B9BB27B87B7F93A20BB8F04339A42C2
:101930003BDCB7F93A30002B30DBB7F93A30FF2BFC
:101940002CDCBA8FB7F93A30D31A002BB8BF5B4200
:10195000C3F10403012202FA03F37B86B7F84220A5
:101960007B8E1344A7F84230FB6803F5B44342333F
:101970001B781A46B7F93A30F96812020A44134440
:1019800003F5804342331B789BB27A8E12FB03F33C
:101990009AB2B7F844301344A7F84430B7F93A3054
:1019A0009BB201339BB27B87BDE7B7F84420B7F801
:1019B0004230B2FBF3F3A7F84430B7F840305B0095
:1019C00007F148021344B7F8442023F8342CB7F841
:1019D000403001335A4203F0030302F0030258BFC0
:1019E0005342A7F84030BB8F032B19DDFB6803F58A
:1019F000B44342331B781C46BB8F1A1FB7F84030E4
:101A00005B0007F148010B4433F8343CD8B2F96865
:101A100023020B44134403F58043423302461A70F9
:101A2000BB8F0133BB87EEE6000080470000A04279
:101A3000452101200121F86801F02CF8FB6803F52D
:101A4000B44342331B780133994A82FB0312D1100D
:101A5000DA178A1A1A2101FB02F29A1AD2B2FB682B
:101A600003F5B44342331A7001233B873B8FB3F530
:101A7000A07F00F31A813B8F013B8E4A82FB031249
:101A80005211DB17D31A03F00103002B14BF0123FB
:101A90000023DBB287F83130D823FB860023BB86D6
:101AA000BB8E192B00F3AF80BB8E5B009BB2C3F1E2
:101AB0003F039BB25B01FB85FB6803F5B4434233F4
:101AC0001B781A46BB8E1344794A82FB0312D1104D
:101AD000DA178A1A1A2101FB02F29A1A1346BB85F9
:101AE000BB8E5B000333BB62BB8EC3F11A0213468D
:101AF0009B0013440C3B7B623A8FBB6A9A427EDDAB
:101B00003A8FBB6A03F580739A4278DAB7F92C20D2
:101B1000398FBB6ACB1AF96812020A44134403F5E1
:101B2000804342331B789AB27B6A9BB213449BB2C8
:101B30007B84B7F92C20398FBB6ACB1A013BF9683B
:101B400012020A44134403F5804342331B789AB2CD
:101B50007B6A9BB213449BB23B84B7F93630002BAF
:101B60004DDDB7F93620B7F922309A4205DAB7F9D8
:101B70003620B7F920309A4241DBFB8E1A4692009C
:101B800013441B0198B23B8F5A1E4A4B83FB02132E
:101B90005911D317C91A0B469B000B441B01D11ACC
:101BA0008BB20344FB83B7F93620B7F922309A424F
:101BB00012DDB7F93620B7F920309A420CDD97F8DC
:101BC0003120FB8B3C4944F2D03000FB02F213443D
:101BD000002221F813200BE097F83120FB8B3649C7
:101BE00044F2D03000FB02F21344FA8D21F81320A6
:101BF000B7F936309BB2013B9BB2FB86ADE7BB8E9B
:101C00000133BB864CE7B7F93630002B26DBFB8E61
:101C10001A46920013441B0198B23B8F5A1E254B63
:101C200083FB02135911D317C91A0B469B000B44AF
:101C30001B01D11A8BB20344BB8397F83120BB8BB5
:101C40001D4944F2D03000FB02F21344002221F877
:101C50001320FB8E013B9BB2FB86D4E73A8F174BD8
:101C6000A3FB021399090B469B000B441B01D31ADB
:101C70009BB2002B15D13B8F503B99B23B8F013B60
:101C800098B297F8313048F2A07202FB03F30A4A87
:101C900013440193D823009303460022084802F01E
:101CA0002BFB3B8F01333B87E0E64C37BD4690BDB5
:101CB0004FECC44E67666666E8020020CDCCCCCC03
:101CC0006C21012090B583B000AF78607868FEF792
:101CD00053FC03460C4644EC103B23F079FBB0EE7A
:101CE000407AF0EE607AB0EE470AF0EE670A0C3701
:101CF000BD4690BD90B59BB000AF786039600023C1
:101D0000A7F84E307B6803F5005304331B889BB261
:101D10001846FEF721FC03460C4644EC103B23F02A
:101D200043FB54EC103B18462146FEF763FF034685
:101D3000A7F84C3000237B667B6803F5005304331F
:101D40001B889BB21A467B6E9A42CCBF01230023AC
:101D5000DBB2002B2BD0B7F84C30C3F120027B6EE6
:101D600093FAA3F363FA02F3A7F84E30B7F84E20C4
:101D70007B6E9A4217DD7B6E9B003A6813441B68AA
:101D8000BB647B6E9B003A681344B7F84E20920008
:101D900039680A4412681A60B7F84E309B003A68F6
:101DA0001344BA6C1A607B6E01337B66C4E701236F
:101DB0003B667B6803F5005304331B889BB21A46CD
:101DC0003B6E9A42CCBF01230023DBB2002B00F014
:101DD000CA813B6E012B53D10023FB657B6803F561
:101DE000005304331B889BB21A46FB6D9A42CCBF4A
:101DF00001230023DBB2002B00F0B181FA6D3B6EB2
:101E000013447B647B6C9B003A6813441B683B64FF
:101E10007B6C9B003A681344FA6D920039680A445F
:101E200092ED007AD7ED107A77EE677AC3ED007AFB
:101E30007A687B6C03F604439B00134404334FF031
:101E400000021A60FB6D9B003A681344FA6D920021
:101E500039680A4492ED007AD7ED107A77EE277A46
:101E6000C3ED007A7A68FB6D03F604439B001344CC
:101E700004334FF000021A60FB6D0233FB65ADE7DF
:101E80007B6803F5005304331B889BB25B089BB24D
:101E90001A463B6E9A420CBF01230023DBB2002B93
:101EA00000F09E800123A7F85A30B7F85A207B68CB
:101EB00003F5005304331B889BB25B089BB29A4224
:101EC000B4BF01230023DBB2002B00F04881B7F838
:101ED0005A309A023B6E5B0092FBF3F31846FFF711
:101EE000F1FE54EC103B18462146FEF783FE0346F4
:101EF000FB87FB8F7A6803F604039B0013440433CB
:101F00001B68BB63FB8F03F580737A6803F60403D9
:101F10009B00134404331B687B63B7F85A203B6E65
:101F200013443B633B6B9B003A68134493ED007A88
:101F3000D7ED0D7A27EE277A7A683B6B03F60443D8
:101F40009B0013440433D3ED006AD7ED0E7A66EE9E
:101F5000A77A77EE677AB7F85A309B003A6813444D
:101F6000B7F85A20920039680A4492ED007A77EE69
:101F7000277AC3ED007A7A683B6B03F604439B0033
:101F80001344043393ED007AD7ED0D7A27EE277AC8
:101F90003B6B9B003A681344D3ED006AD7ED0E7A91
:101FA00066EEA77A77EE277AB7F85A30B7F85A2054
:101FB000796802F6044292000A44043292ED007AF3
:101FC00077EE277A7A6803F604439B0013440433C0
:101FD000C3ED007AB7F85A300133A7F85A3064E7F6
:101FE00000237B657A6D3B6E9A4280F2B8807B6DF0
:101FF0009A023B6E5B0092FBF3F31846FFF762FE1A
:1020000054EC103B18462146FEF7CCFD0346FB621C
:102010007A68FB6A03F604039B00134404331B68CD
:10202000BB62FB6A03F580737A6803F604039B00C6
:10203000134404331B687B627B6D3B657B6803F54F
:10204000005304331B889BB21A463B6D9A42CCBFA7
:1020500001230023DBB2002B7DD03A6D3B6E13448D
:102060003B623B6D9B003A6813441B68FB617A68D6
:102070003B6D03F604439B00134404331B68BB61B0
:102080003B6A9B003A6813441B687B617A683B6A31
:1020900003F604439B00134404331B683B6197ED34
:1020A000097AD7ED057A27EE277AD7ED0A6AD7EDB8
:1020B000047A66EEA77A77EE677AC7ED037A97ED32
:1020C000097AD7ED047A27EE277AD7ED0A6AD7ED99
:1020D000057A66EEA77A77EE277AC7ED027A3B6A31
:1020E0009B003A68134497ED077AD7ED037A77EEB1
:1020F000677AC3ED007A97ED067AD7ED027A77EE2C
:10210000677A7A683B6A03F604439B0013440433FE
:10211000C3ED007A3B6D9B003A68134497ED077A54
:10212000D7ED037A77EE277AC3ED007A97ED067A3A
:10213000D7ED027A77EE277A7A683B6D03F604438F
:102140009B0013440433C3ED007A3B6E5B003A6D91
:1021500013443B6572E77B6D01337B6542E73B6E61
:102160005B003B6625E6786800F0ECFC00BF6C374E
:10217000BD4690BD00000000B0B52DED028BC0B093
:1021800006AFF860B960FB6803F500530633002220
:102190007A8607F132021146184600F0C8FD002386
:1021A000A7F8E6304FF6FF73A7F8E4300023A7F84E
:1021B000E230FB6803F58043303300221A600123CC
:1021C000A7F8E030B7F8E030B3F5A07F00F3608205
:1021D0001F23A7F8DE30B7F8E0309B00BA6813443D
:1021E000D3ED007AB7F8E030FA6803F604439B00B9
:1021F0001344043393ED007AF0EE470AB0EE670A19
:10220000FFF798F987ED360AB7F9E430032B66DC5F
:10221000D7ED367A9FED887AF4EEC77AF1EE10FAB0
:102220005DDDB7F9E430B3F1FF3F06D0B7F8E02049
:10223000B7F9E23001339A4206DDB7F9E4309BB2D8
:1022400001339BB2A7F8E430B7F8E030A7F8E230EA
:10225000B7F9E430FA6803F500531C3332F8133051
:10226000A7F8DE30FB6803F500530633B7F9E42026
:102270001146184600F080FD03461B88002B0FD046
:10228000FB6803F5804330331B6807EE903AB8EEE5
:10229000677AD7ED367AB4EEE77AF1EE10FA01D527
:1022A000012300E00023002B1CD0FB6803F5005342
:1022B0000633B7F9E4201146184600F05DFD0246EA
:1022C000B7F8E0301380D7ED367AFCEEE77A17EEF8
:1022D000902AFB6803F5804330331A6002E0002344
:1022E000A7F8E23097ED367ADFED546AC7EE267A2A
:1022F000B7EE007A77EE677A9FED517A67EE877ACC
:10230000C7ED0D7A4F4BBB6307F1380207F1340379
:102310001146184600F03FFD0346D3ED007AFCEE6F
:10232000E77AC7ED017ABB88A7F8D630B7F8E03076
:10233000013B454A82FB03125211DB17D31A03F00B
:102340000103002B14BF01230023DBB287F8D53033
:102350000023FB620023FB62FB6AD82BD4BF01235E
:102360000023DBB2002B75D0FB6A9BB21A469200A9
:1023700013441B0198B2B7F8E0305A1E324B83FB6E
:1023800002135911D317C91A0B469B000B441B01AA
:10239000D11A8BB20344A7F8D030B7F8D620FB6A25
:1023A0009A42D4BF01230023DBB2002B33D0B7F90C
:1023B000E6309BB201339BB2A7F8E630B7F9E630BE
:1023C00042F21072934217DDFB6803F58043363307
:1023D0001B8801339AB2FB6803F5804336331A80B9
:1023E0001A4B1B78DBB21A46FB68134403F5005303
:1023F000103300221A7012E397F8D520B7F8D030C6
:10240000134944F2D03000FB02F21344B7F8DE2047
:1024100021F813200CE097F8D520B7F8D0300C49FC
:1024200044F2D03000FB02F21344002221F81320C2
:10243000FB6A0133FB628FE700504347000000490D
:102440000000584300005843676666664521012036
:10245000E8020020B7F8E020CF4BA3FB0213990954
:102460000B469B000B441B01D31A9BB2002B40F080
:102470000981B7F8E030F02B40F3EC800121F868D7
:1024800000F008FB002387F8DD3097F8DD30042BDF
:1024900000F3E080FB6803F50053063397F8DD2076
:1024A0001146184600F068FC03461B88002B0CBF41
:1024B00001230023DBB2002B40F0CB80FB6803F547
:1024C0000053063397F8DD201146184600F054FCFF
:1024D00003461B8807EE903AB8EE678AFB6803F55F
:1024E000005306330021184600F046FC03461B88C3
:1024F00007EE903AF8EEE77A88EE277A17EE100AA0
:10250000FEF74CF803460C4644EC103B22F060FF0B
:1025100054EC103B18462146FEF76CFB0346A7F827
:10252000D23007F16C03B7F8D2209C49184609F065
:10253000B9FD07F1540307F16C01994A184600F000
:1025400043FCFB6803F50053063397F8DD20114682
:10255000184600F011FC03461B881946F86800F085
:1025600069FAF0EE407A07F184030022B0EE670AC0
:102570008A49184609F090FC07F13C0307F18402F0
:1025800007F15401184600F086FB07F1140307F128
:102590003C01844A184600F017FC07F13C0318463A
:1025A0000FF070FF07F1840318460FF06BFF07F17F
:1025B000540318460FF066FF07F16C0318460FF03E
:1025C00061FF97F8DD3001339BB21A469200134445
:1025D0009B009DB297F8D53048F2A07202FB03F33E
:1025E000714A9C1807F1140207F19C031146184622
:1025F00010F042FA97F8DD30FA6803F500531C3307
:1026000032F81330C7F8B4300023C7F8B83007F1F8
:10261000B803049307F1B4030393644B029307F1E7
:102620009C030193009450232A460021604802F045
:10263000A4F907F19C0318460FF024FF07F11403D7
:1026400018460FF01FFF97F8DD30013387F8DD30B3
:102650001BE700BFB7F8E030503B99B2B7F8E03065
:10266000013B98B297F8D53048F2A07202FB03F311
:102670004D4A13440193D8230093034600224C484B
:1026800001F03AFEB7F8E0300133A7F8E03099E501
:10269000FB681B78002B0DD0FB6803F50053063355
:1026A0000021184600F068FB03461B88002B01DD63
:1026B000012300E00023002B00F0B181FB6803F54B
:1026C000005306330021184600F056FB03461B88D2
:1026D0001946F86800F0AEF9F0EE407AFB6803F5B1
:1026E00080431433C3ED007AFB6803F58043143351
:1026F000D3ED007AB2EE047AC7EE876AB0EE660ACE
:10270000FEF72CFFF0EE407AC7ED2F7A4FF08243B0
:10271000C7F8C03007F1C00207F1BC0311461846E4
:1027200000F069FB0346D3ED007AFCEEE77AC7EDD3
:10273000017ABB88A7F8CE30B7F8CE40FB6803F526
:10274000005306330021184600F016FB03461B8891
:10275000E31A002BB8BF5B42012BCCBF012300233F
:10276000DBB2002B28D0B7F8CE30124AD26A02FB77
:1027700003F4FB6803F5005306330021184600F00C
:10278000FBFA03461B88B4FBF3F39AB2FB6803F52C
:10279000804334331A8017E0CDCCCCCC4C8201205E
:1027A0001CE7020820E70208E8020020742101204B
:1027B0006C210120000400409D4BDB6A9AB2FB684B
:1027C00003F5804334331A80FB6803F50053063366
:1027D0000021184600F0D0FA03461B8803F180431D
:1027E000013B9B00BA6813441B681846FDF7D6FEF0
:1027F00003460C469FED8C1B44EC103B22F01EFF61
:1028000055EC104BFB6803F50053063300211846C6
:1028100000F0B2FA03461B88013BFA6803F6044352
:102820009B00134404331B681846FDF7B7FE0246AD
:102830000B469FED7D1B43EC102B22F0FFFE53EC6B
:10284000102B20462946FDF74BFD03460C4644EC71
:10285000173BB0EE470AF0EE670A23F067F854EC36
:10286000103B18462146FEF79DF90346C7F8C830CD
:10287000FB6803F5005306330021184600F07CFA8C
:1028800003461B8801339B00BA6813441B68184633
:10289000FDF784FE03460C469FED631B44EC103BA2
:1028A00022F0CCFE55EC104BFB6803F500530633C9
:1028B0000021184600F060FA03461B880133FA68CD
:1028C00003F604439B00134404331B681846FDF7CA
:1028D00065FE02460B469FED541B43EC102B22F085
:1028E000ADFE53EC102B20462946FDF7F9FC0346BC
:1028F0000C4644EC173BB0EE470AF0EE670A23F0B3
:1029000015F854EC103B18462146FEF74BF90346E8
:10291000C7F8C430D7F8C43007EE903AB8EEE77A7B
:10292000D7F8C83007EE903AF8EEE76AFB6803F58F
:1029300080431433D3ED007A37EEA76AB7F8CE3070
:1029400007EE903AF8EEE77A66EE277A76EEA77A07
:10295000B4EEE77AF1EE10FA0CDDFB6803F5804384
:1029600034331B88013B9AB2FB6803F58043343350
:102970001A802EE0D7F8C83007EE903AB8EEE77A22
:10298000D7F8C43007EE903AF8EEE76AFB6803F533
:1029900080431433D3ED007A37EEA76AB7F8CE3010
:1029A00007EE903AF8EEE77A66EE277A76EEA77AA7
:1029B000B4EEE77AF1EE10FA0BDDFB6803F5804325
:1029C00034331B8801339AB2FB6803F580433433F8
:1029D0001A80FB6803F5804334331B88002B14DD19
:1029E000FB6803F5804334331B881A4641F26F734A
:1029F0009A420ADC0E4BDA6AFB6803F580433433F3
:102A00001B889A4201D0012300E00023002B06D04E
:102A1000074AFB6803F5804334331B88D362E837E9
:102A2000BD46BDEC028BB0BD0000000000000040C0
:102A30000004004080B483B000AF78600B467B8018
:102A4000124B1B6807EE903AB8EE677A7B8807EE68
:102A5000903AF8EEE77A27EE277A0D4B9B6A01331E
:102A60000B4AD26A013202FB03F3DB0207EE903A13
:102A7000F8EE677AC7EE276AF0EE667AB0EE670A7C
:102A80000C37BD465DF8047B704700BF1000002086
:102A90000004004080B483B000AF78600B46FB7048
:102AA000FB78002B0AD0234B1B78DBB21A467B68DD
:102AB000134403F50053103300221A701E4B1B7889
:102AC000DBB283F00103DBB2002B17D07B6803F588
:102AD000005310331B78DBB283F00103DBB2002B11
:102AE0000AD17B6803F5005311331B78DBB283F006
:102AF0000103DBB2002B01D0012300E00023002BF7
:102B000012D00D4B01221A700C4B00221A807B68E8
:102B100003F5005310331B78DBB2002B01D00122E8
:102B200000E00022064B1A7000BF0C37BD465DF86E
:102B3000047B7047452101204021012036210120DE
:102B40004421012080B5ACB004AF786001217868E1
:102B5000FFF770FFF0EE407A07F150030122B0EE6C
:102B6000670A4249184609F097F907F1380307F157
:102B700050013F4A184600F027F940F23F117868AB
:102B8000FFF758FFF0EE407A07F168030122B0EE3C
:102B9000670A3649184609F07FF907F1200307F163
:102BA000680207F13801184600F075F807F10803CC
:102BB00007F120012F4A184600F006F907F120031B
:102BC00018460FF05FFC07F1680318460FF05AFC37
:102BD00007F1380318460FF055FC07F1500318466B
:102BE0000FF050FC7B6803F58043183307F10802AF
:102BF0001946104600F018F90346002B2DD007F1B6
:102C0000080207F18003114618460FF035FF4FF612
:102C1000FF73C7F898300023C7F89C3007F1800293
:102C200007F19C03029307F198030193124B009361
:102C30001346E0227321114801F05BFE07F1800387
:102C400018460FF01FFC7B6803F58043183307F12B
:102C50000802114618460FF01BFC07F1080318463E
:102C60000FF010FC00BFA037BD4680BD4C82012094
:102C700024E7020828E70208742101206C210120C2
:102C800080B483B000AF78607B6818460C37BD46CF
:102C90005DF8047B704790B587B000AFF860B9600D
:102CA0007A60B8680FF024FC044678680FF020FCC6
:102CB000034623447B61B8680FF01EFC02467B6923
:102CC0009A4208D278680FF017FC02467B699A4254
:102CD00001D3012300E00023FB74FB7C002B0AD00E
:102CE000BA68002178680FF095FD03461846FFF793
:102CF000C7FF034608E07968B8680FF0C7FD0346D0
:102D00001846FFF7BDFF03461946F8680FF0A0FB11
:102D1000F8681C37BD4690BD80B483B000AF7860C2
:102D2000052318460C37BD465DF8047B704790B507
:102D300083B000AF78603960786800F086F80446A8
:102D40007868FFF7E9FF03463A681946204600F025
:102D500088F800BF0C37BD4690BD80B483B000AF8B
:102D6000786039603B685B007A68134418460C371A
:102D7000BD465DF8047B704780B582B000AF7860D7
:102D800039607B6839681846FFF7E7FF0346184645
:102D90000837BD4680BD80B483B000AF786039602D
:102DA0003B6893ED007A7B68D3ED007AB4EEE77A66
:102DB000F1EE10FA01D53B6800E07B6818460C374D
:102DC000BD465DF8047B704780B584B000AFF86005
:102DD000B9607A607968B8680FF072FD03461846EA
:102DE000FFF74EFF03461946F8680FF031FBF8680D
:102DF0001037BD4680BD80B483B000AF78603960C5
:102E00007B6893ED007A3B68D3ED007AB4EEE77A05
:102E1000F1EE10FA01D53B6800E07B6818460C37EC
:102E2000BD465DF8047B704780B582B000AF786026
:102E300039603968786800F028F8034683F00103A8
:102E4000DBB218460837BD4680BD80B582B000AF02
:102E50007860786800F04EF8034618460837BD469B
:102E600080BD80B584B000AFF860B9607A60F86862
:102E700000F04DF803467A68B968184600F052F839
:102E8000034618461037BD4680BDB0B582B000AFCE
:102E90007860396078680FF02BFB044638680FF0D3
:102EA00027FB03469C4215D178680FF0B0FD04461D
:102EB00038680FF0ACFD054678680FF019FB034643
:102EC0001A4629462046FEF759FB0346002B01D13E
:102ED000012300E0002318460837BD46B0BD80B48A
:102EE00083B000AF78607B6818460C37BD465DF84C
:102EF000047B704780B582B000AF78607B6818466D
:102F0000FFF7EDFF034618460837BD4680BD80B485
:102F100083B000AF78607B6818460C37BD465DF81B
:102F2000047B704780B487B000AFF860B9607A6006
:102F30007B681B887B82BB687B617B69002B09D027
:102F4000FB687A8A1A807B69013B7B61FB680233EC
:102F5000FB60F2E7FB6818461C37BD465DF8047B52
:102F60007047000080B483B000AF0346FB7109498D
:102F700097F907305B0997F9072002F01F0201203B
:102F800000FA02F241F8232000BF0C37BD465DF87D
:102F9000047B704700E100E080B483B000AF0346DB
:102FA0003960FB7197F90730002B0BDA0D49FB797B
:102FB00003F00F03043B3A68D2B21201D2B20B44C1
:102FC0001A7609E0084997F907303A68D2B2120137
:102FD000D2B20B4483F8002300BF0C37BD465DF826
:102FE000047B704700ED00E000E100E080B400AF3A
:102FF000354A354B1B6C43F080531364334A334BD3
:103000001B6843F480431360314A314BD3F8883056
:1030100043F47003C2F888302B4A2B4B1B6843F4EF
:1030200080331360284B1B6803F40033002B0CBF64
:1030300001230023DBB2002B00D0F3E7224B254A0B
:103040005A60214A204B9B6893601F4A1E4B9B6825
:1030500043F4004393601C4A1B4B9B6843F4A0530A
:103060009360194A184B1B6843F080731360164B2A
:103070001B6803F00073002B0CBF01230023DBB29D
:10308000002B00D0F3E7144B40F205721A600E4A91
:103090000D4B9B6823F0030393600B4A0A4B9B681C
:1030A00043F002039360084B9B6803F00C03082B6A
:1030B00014BF01230023DBB2002B00D0F3E700BFD5
:1030C000BD465DF8047B7047003802400070004048
:1030D00000ED00E0085A4007003C024080B500AF18
:1030E000114B00221A60104B4FF6FE725A600F21EE
:1030F0004FF0FF30FFF750FF0B4B00229A600A4A57
:10310000094B1B6843F004031360074A064B1B6816
:1031100043F002031360044A034B1B6843F00103AE
:10312000136000BF80BD00BF10E000E080B400AFBE
:10313000484A484B1B6B43F002031363454A454B17
:103140001B6B43F004031363424A424B1B6C43F472
:1031500000431364404A404B1B6843F08063136094
:103160003D4A3D4B9B6843F0806393603A4A3A4B3B
:103170001B6843F080531360384A384B1B6843F494
:1031800000631360354A354B9B6843F4406393609A
:10319000324A324B1B6A43F4C00313622F4A2F4B4F
:1031A0001B6843F0800313602C4A2C4B9B6843F050
:1031B000C0039360294A294B1B6A43F4C04313623E
:1031C000274A274B1B6843F400731360244A244B9F
:1031D0001B6843F480731360214A214B1B6843F042
:1031E000080313601E4A1E4B1B6843F00403136060
:1031F0001B4A1B4B1B6843F040031360154A154BD9
:103200001B6B43F400131363164A164B1B6823F021
:1032100060631360134A134B1B6843F4005313603D
:10322000104A104B1B6843F4006313600D4A0D4BAA
:103230001B6843F0400313600A4A0A4B1B6843F4BF
:1032400000331360074B084A9A6000BFBD465DF823
:10325000047B70470038024000080240000402402E
:10326000003C0040886002400C3C004080B400AF4D
:103270007C4A7C4B1B6C43F0010313644FF080428B
:103280004FF080435B6843F0400353604FF080434E
:1032900013229A624FF080433122DA624FF080436A
:1032A00031225A634FF080424FF080431B6A43F053
:1032B000010313624FF080424FF080439B6943F05B
:1032C000600393614FF080424FF080431B6843F0EE
:1032D00001031360634A634B1B6B43F001031363E9
:1032E000604A604B1B6B43F0040313635D4A5D4B04
:1032F0005B6C43F4807353645B4A5B4B1B6843F025
:10330000C0031360594A594B1B6843F44063136070
:10331000564A564B1B6843F003031360544A544B00
:103320005B6843F480735360514B4FF40012DA62D0
:103330004F4A4F4B5B6B43F00D0353634C4A4C4B6E
:103340005B6B43F0A0035363494A494B5B6B536388
:10335000474A474BDB6843F44063D360444A444BDD
:103360001B6943F440331361414A414B1B6943F0ED
:10337000060313613E4A3E4B9B6843F480639360AF
:103380003B4A3B4B9B6843F080539360384A384B31
:103390009B6843F0C0639360354A354B9B6843F4A8
:1033A00080739360324A324B9B6843F4007393609E
:1033B0002C4A2C4B1B6B43F4800313632D4A2D4B7B
:1033C0001B6823F0C00313602A4A2A4B1B6843F48E
:1033D00000331360274A274B1B6843F400631360D4
:1033E000244A244B1B6843F400531360214A214BA9
:1033F0001B6823F4007313601E4A1E4B1B6843F4C2
:10340000806313601B4A1B4B1B6843F4807313607B
:10341000184A184B1B6823F0C0031360154A154B5C
:103420005B6843F00C035360124B134A9A60114BD4
:10343000124ADA600F4A0F4B1B6823F06063136077
:103440000C4A0C4B1B6843F001031360084A084BFD
:103450009B6843F00103936000BFBD465DF8047BA9
:10346000704700BF003802400008024000000240E0
:1034700000200140706402404C200140482101209E
:1034800080B500AF134A134B1B6C43F00203136467
:10349000114B32229A62104B8C22DA620E4A0E4B8A
:1034A000DB6843F00103D3601D20FFF75BFD0021C3
:1034B0001D20FFF771FD084A074B1B6843F001030D
:1034C0001360054A044B5B6943F00103536100BF7D
:1034D00080BD00BF003802400004004080B500AF4E
:1034E0000D4A0D4B5B6C43F4803353640B4B0A2243
:1034F0009A620A4B4FF6FF72DA62084A074BDB68A2
:1035000043F00103D3601820FFF72CFD022118209F
:10351000FFF742FD00BF80BD00380240004001407F
:1035200080B400AF094A094B1B6C43F008031364D5
:10353000074B42F210729A62054B4FF6FF72DA6245
:1035400000BFBD465DF8047B704700BF00380240F5
:10355000000C004080B500AF744A744B1B6B43F005
:1035600001031363714A714B1B6B43F00203136336
:103570006E4A6E4B1B6B43F0040313636B4A6B4B39
:103580005B6C43F480435364694A694BDB6843F4E2
:103590008013D360674A674B1B691361664A664BA9
:1035A0009B6843F480639360634A634BDB6843F436
:1035B0008063D360604A604B1B6843F48063136090
:1035C0005E4A5E4BDB6843F08063D360594A594BD7
:1035D0005B6943F010035361574A574B9B6843F4B0
:1035E00000539360544A544BDB6843F40053D36058
:1035F000514A514B1B6843F4005313604F4A4F4BE1
:10360000DB6843F48053D3604C4A4C4B1B6843F453
:1036100000531360494A494B1B6A43F0007313621D
:10362000464A464BDB6843F48043D360434A434BEE
:103630001B6843F400431360404A404B1B6A43F04D
:1036400000531362394A394B1B6C43F00403136473
:103650003B4B00229A623A4B4FF6FF72DA62384ACD
:10366000374B9B6843F003039360354A344B9B68A8
:1036700043F470639360324B4FF4FA425A62304A1B
:103680002F4B1B6843F0010313602E4A2D4BDB6860
:1036900043F48053D3602B4A2A4B1B6843F40053F6
:1036A0001360284A274B1B6A43F040731362254A74
:1036B000244BDB6843F48043D360224A214B1B68D0
:1036C00043F4004313601F4A1E4B1B6A43F04053F0
:1036D0001362164A154B5B6C43F0020353641A4B9A
:1036E00000229A62184B4FF6FF72DA62164A164BA6
:1036F0009B6843F003039360134A134B9B6843F4A6
:1037000070639360104B4FF4FA425A620E4A0E4BAC
:103710001B6843F00103136004212820FFF73CFCE1
:103720002820FFF71FFC00BF80BD00BF003802400B
:103730000000024000380140003C0140000402400B
:1037400000080040000802400004014080B582B03B
:1037500000AF214A204B1B6C43F4002313641F4A23
:103760001E4B1B6843F4000313601C4A1B4B5B6A2F
:1037700043F4004353621A4B1B681A4AA2FB03230B
:10378000DB0C7B601849184B9B687A681201134365
:103790008B60154A144BDB6823F48053D360124AC4
:1037A000114BDB6843F00403D3600F4A0E4BDB6818
:1037B00043F02003D36003213420FFF7EDFB3420D6
:1037C000FFF7D0FB084A084BDB6843F40053D36093
:1037D00000BF0837BD4680BD0038024000080240E7
:1037E0001000002083DE1B43004C004080B5FCB07D
:1037F00000AF3B1D1860E74AE64B9B6943F08043EE
:1038000093613B1D44F62061186800F0B1FBE14A6A
:10381000E04B9B6943F4804393613B1D44F6206178
:10382000186800F0A5FB07F10B0301221A7007F1DD
:103830000B023B1D1146186800F0B2FB3B1D4CF219
:103840005031186800F094FB07F11803D24A92E84F
:10385000030083E8030007F12003184601F04CF948
:1038600007F1200307F1180207F10C0006CA01F066
:1038700084F907F10C023B1D1146186800F040FB6B
:1038800007F10C03184601F099F907F120031846D7
:1038900001F03EF907F13003C04A92E8030083E8E3
:1038A000030007F13803184601F026F907F1380341
:1038B00007F1300207F1240006CA01F05EF907F1B2
:1038C00024023B1D1146186800F01AFB07F124037F
:1038D000184601F073F907F13803184601F018F99A
:1038E00007F14803AE4A92E8030083E8030007F1BA
:1038F0005003184601F000F907F1500307F14802A0
:1039000007F13C0006CA01F038F907F13C023B1D03
:103910001146186800F0F4FA07F13C03184601F06C
:103920004DF907F15003184601F0F2F807F1600372
:103930009C4A92E8030083E8030007F168031846F5
:1039400001F0DAF807F1680307F1600207F15400AB
:1039500006CA01F012F907F154023B1D114618681E
:1039600000F0CEFA07F15403184601F027F907F1E9
:103970006803184601F0CCF807F178038A4A92E808
:10398000030083E8030007F18003184601F0B4F850
:1039900007F1800307F1780207F16C0006CA01F015
:1039A000ECF807F16C023B1D1146186800F0A8FA0C
:1039B00007F16C03184601F001F907F1800318467E
:1039C00001F0A6F807F19003784A92E8030083E833
:1039D000030007F19803184601F08EF807F19803E9
:1039E00007F1900207F1840006CA01F0C6F807F15A
:1039F00084023B1D1146186800F082FA07F1840327
:103A0000184601F0DBF807F19803184601F080F83A
:103A100007F1A803664A92E8030083E8030007F170
:103A2000B003184601F068F807F1B00307F1A802E7
:103A300007F19C0006CA01F0A0F807F19C023B1DAB
:103A40001146186800F05CFA07F19C03184601F073
:103A5000B5F807F1B003184601F05AF807F1C003B2
:103A6000544A92E8030083E8030007F1C8031846AC
:103A700001F042F807F1C80307F1C00207F1B400F2
:103A800006CA01F07AF807F1B4023B1D1146186826
:103A900000F036FA07F1B403184601F08FF807F189
:103AA000C803184601F034F807F1D803424A92E8F7
:103AB000030083E8030007F1E003184601F01CF857
:103AC00007F1E00307F1D80207F1CC0006CA01F0C4
:103AD00054F807F1CC023B1D1146186800F010FAAB
:103AE00007F1CC03184601F069F807F1E003184626
:103AF00001F00EF807F1F003304A92E8030083E882
:103B0000030007F1F803184600F0F6FF07F1F80389
:103B100007F1F00207F1E40006CA01F02EF807F100
:103B2000E4023B1D1146186800F0EAF907F1E403CE
:103B3000184601F043F807F1F803184600F0E8FFD3
:103B40001F4A07F5847392E8030083E8030007F532
:103B50008873184600F0D0FF07F5887307F1FC0062
:103B600007F5847206CA01F008F807F1FC023B1D54
:103B70001146186800F0C4F907F1FC03184601F07B
:103B80001DF807F58873184600F0C2FF0D4A07F5C7
:103B9000907319E00008024030E7020838E7020895
:103BA00040E7020848E7020850E7020858E7020821
:103BB00060E7020868E7020870E7020878E7020891
:103BC00080E7020888E7020892E8030083E8030020
:103BD00007F59473184600F08FFF07F5947307F507
:103BE0008A7007F5907206CA00F0C7FF07F58A725F
:103BF0003B1D1146186800F083F907F58A731846D3
:103C000000F0DCFF07F59473184600F081FFB34A1B
:103C100007F59C7392E8030083E8030007F5A0739F
:103C2000184600F069FF07F5A07307F5967007F5D1
:103C30009C7206CA00F0A1FF07F596723B1D114663
:103C4000186800F05DF907F59673184600F0B6FFA6
:103C500007F5A073184600F05BFFA14A07F5A873AB
:103C600092E8030083E8030007F5AC73184600F000
:103C700043FF07F5AC7307F5A27007F5A87206CAF3
:103C800000F07BFF07F5A2723B1D1146186800F09B
:103C900037F907F5A273184600F090FF07F5AC73EB
:103CA000184600F035FF8F4A07F5B47392E8030019
:103CB00083E8030007F5B873184600F01DFF07F509
:103CC000B87307F5AE7007F5B47206CA00F055FF79
:103CD00007F5AE723B1D1146186800F011F907F5A3
:103CE000AE73184600F06AFF07F5B873184600F087
:103CF0000FFF7D4A07F5C07392E8030083E80300D5
:103D000007F5C473184600F0F7FE07F5C47307F50E
:103D1000BA7007F5C07206CA00F02FFF07F5BA7235
:103D20003B1D1146186800F0EBF807F5BA7318460A
:103D300000F044FF07F5C473184600F0E9FE6B4A33
:103D400007F5CC7392E8030083E8030007F5D0730E
:103D5000184600F0D1FE07F5D07307F5C67007F5D9
:103D6000CC7206CA00F009FF07F5C6723B1D11466A
:103D7000186800F0C5F807F5C673184600F01EFF76
:103D800007F5D073184600F0C3FE594A07F5D873FB
:103D900092E8030083E8030007F5DC73184600F09F
:103DA000ABFE07F5DC7307F5D27007F5D87206CACB
:103DB00000F0E3FE07F5D2723B1D1146186800F0D3
:103DC0009FF807F5D273184600F0F8FE07F5DC738C
:103DD000184600F09DFE474A07F5E47392E8030099
:103DE00083E8030007F5E873184600F085FE07F541
:103DF000E87307F5DE7007F5E47206CA00F0BDFE51
:103E000007F5DE723B1D1146186800F079F807F5DA
:103E1000DE73184600F0D2FE07F5E873184600F08E
:103E200077FE354A07F5F07392E8030083E8030054
:103E300007F5F473184600F05FFE07F5F47307F515
:103E4000EA7007F5F07206CA00F097FE07F5EA720D
:103E50003B1D1146186800F053F807F5EA73184641
:103E600000F0ACFE07F5F473184600F051FE112384
:103E700087F8EB3107F2EB123B1D1146186800F092
:103E80008FF83B1D1D49186800F072F8292387F848
:103E9000EC3107F5F6723B1D1146186800F080F80A
:103EA0002C2387F8ED3107F2ED123B1D11461868FF
:103EB00000F076F83B1D0321186800F013F9002389
:103EC000A7F8EE3107F5F7723B1D1146186800F0B0
:103ED00065F900BF07F5F877BD4680BD90E7020899
:103EE00098E70208A0E70208A8E70208B0E702087E
:103EF000B8E70208C0E70208C8E7020840420F001E
:103F000090B585B000AF786039600021386800F066
:103F100070FE03461946786800F042F8134A134BC6
:103F20009B6943F4005393610123FB73FC7B386866
:103F300000F06EFE03469C4234BF01230023DBB237
:103F4000002B0ED0FB7B1946386800F052FE03466A
:103F50001B781946786800F07BFDFB7B0133FB730F
:103F6000E4E700BF1437BD4690BD00BF0008024023
:103F700080B483B000AF786039603B68002B14BF19
:103F800001230023DBB2002B03D03B68013B3B60E5
:103F9000F3E700BF0C37BD465DF8047B70470000B7
:103FA00080B582B000AF78603960134B5B68002B3E
:103FB0000BD1124B9B6803F00303002B05D00F4B72
:103FC0009B6803F08003002B01D0012300E0002355
:103FD000002B00D0E9E70A4A094B9B6943F00053E4
:103FE00093613B681B781946786800F031FD00BF8B
:103FF0000837BD4680BD00BF88600240003C0040DD
:104000000008024080B582B000AF78603960084A8D
:10401000074B9B6943F4005393613B681B78194637
:10402000786800F015FD00BF0837BD4680BD00BFB1
:104030000008024080B582B000AF786039600C4A59
:104040000B4B9B6943F4005393613B681B881B1225
:10405000DBB21946786800F0FBFC3B681B88DBB2DA
:104060001946786800F0F4FC00BF0837BD4680BDF3
:104070000008024080B586B000AFF86008461146DF
:104080001A4603467B810B463B811346FB802A235D
:10409000BB7507F116031946F868FFF781FF07F1B2
:1040A0000A031946F868FFF7C5FFBB1D1946F868F3
:1040B000FFF7C0FF2B23FB7507F117031946F868BC
:1040C000FFF76EFF07F108031946F868FFF7B2FF24
:1040D00007F12001F868FFF7ADFF00BF1837BD46B4
:1040E00080BD000080B584B000AF78600B46FB70E7
:1040F0003623FB7207F10B0319467868FFF750FF70
:10410000FB78032B2ED801A252F823F01D410008A2
:104110002F410008414100085341000858233B73D8
:1041200007F10C0319467868FFF76CFF1AE0882343
:104130007B7307F10D0319467868FFF763FF11E001
:104140002823BB7307F10E0319467868FFF75AFF5F
:1041500008E0E823FB7307F10F0319467868FFF7BF
:1041600051FF00BF7B68FA781A70FB78002B02D0F1
:10417000FB78012B07D17B68F0225A807B684FF4D3
:10418000A0729A8006E07B684FF4A0725A807B6828
:10419000F0229A8000BF1037BD4680BD80B584B044
:1041A00002AF786039607B685B88013B99B27B68BD
:1041B0009B88013B9BB23A68019200930B46002218
:1041C0000021786800F004F800BF0837BD4680BDC4
:1041D00080B588B002AFF860084611461A4603461B
:1041E0007B810B463B811346FB80FA887B89D31A7F
:1041F0000133398C3A898A1A013202FB03F37B615D
:10420000F8883A8979893B8C00930346F868FFF770
:1042100031FF7B6A1A88FB68DA802C23BB7407F1B4
:1042200012031946F868FFF7BBFE2F4A2E4B9B6915
:1042300043F4005393610123FB7407F11303194600
:10424000F86800F0E7FB294B4FF46062DA60284A17
:10425000274B1B6823F480631360254A7B69B3F501
:10426000803F02D37B695B0800E07B695360204A92
:10427000FB680633D3601E4A1D4B1B6843F00103E5
:1042800013601C4A1B4B5B6843F0020353607B695D
:10429000B3F5803F23D3164B5B68002B0BD1154B36
:1042A0009B6803F00303002B05D0124B9B6803F0BF
:1042B0008003002B01D0012300E00023002B00D05D
:1042C000E9E70A4B4FF46062DA60094A7B695B08F0
:1042D0005360074A064B1B6843F00103136000BF9D
:1042E0001837BD4680BD00BF000802400060024094
:1042F00088600240003C004080B588B002AFF860A2
:10430000084611461A4603467B810B463B811346FD
:10431000FB80FA887B89D31A0133398C3A898A1A4F
:10432000013202FB03F37B61F8883A8979893B8C7F
:1043300000930346F868FFF79DFE2C23BB7407F13A
:1043400012031946F868FFF72BFE174A164B9B69B4
:1043500043F4005393610123FB7407F113031946DF
:10436000F86800F057FB114B4FF46062DA60104AB6
:104370000F4B1B6843F4806313600D4A7B695360E5
:104380000B4A7B6AD3600A4A094B1B6843F001035E
:104390001360084A074B5B6843F00203536000BF99
:1043A0001837BD4680BD00BF0008024000600240D3
:1043B00088600240003C004080B588B002AFF860E1
:1043C0007B600B467B8113463B8178893A897989EA
:1043D0003B8900930346F868FFF74CFE2C23FB75DE
:1043E00007F117031946F868FFF7DAFD7968F868EE
:1043F000FFF720FE00BF1837BD4680BD90B58BB0DB
:1044000002AFF860084611461A4603467B810B4608
:104410003B811346FB807B891A46FB685B889A4286
:1044200004DBFB685B88013B9BB27B81FB881A46FF
:10443000FB685B889A4204DBFB685B88013B9BB2AC
:10444000FB803B891A46FB689B889A4204DBFB6829
:104450009B88013B9BB23B813B8E1A46FB689B8845
:104460009A4204DBFB689B88013B9BB23B867B89BD
:104470001A46FB889A4206DDBA1D07F10A03114667
:10448000184600F0E0FB3B891A463B8E9A4206DD57
:1044900007F1080307F13001184600F0D4FBFA8851
:1044A0007B89D31A9BB2BB833A8E3B89D31A9BB2CA
:1044B0007B83B7F91C30002B03D0B7F91A30002BDF
:1044C00011D179893889FC883B8E7A6B126892B257
:1044D000FA8207F116020192009323460246F86819
:1044E000FFF776FE48E0B7F91C20B7F91A309A4278
:1044F00006DDB7F91C30DA0F13445B101BB206E07F
:10450000B7F91A305B42DA0F13445B101BB2FB831E
:1045100079893A897B6B1B689BB23B8307F118034F
:10452000F868FFF749FF7A89FB889A4203D13A89F4
:104530003B8E9A421FD0B7F91E20B7F91C305B4260
:104540009A4208DDFA8B7B8BD31A9BB2FB837B8963
:1045500001339BB27B81B7F91E20B7F91A309A421A
:10456000D6DAFA8BBB8B13449BB2FB833B890133B6
:104570009BB23B81CCE700BF2437BD4690BD90B5D0
:1045800089B002AFF860084611461A4603467B819F
:104590000B463B811346FB807B891A46FB685B8890
:1045A0009A4204DBFB685B88013B9BB27B81FB8802
:1045B0001A46FB685B889A4204DBFB685B88013B18
:1045C0009BB2FB803B891A46FB689B889A4204DBBE
:1045D000FB689B88013B9BB23B813B8D1A46FB6885
:1045E0009B889A4204DBFB689B88013B9BB23B851E
:1045F0007B891A46FB889A4206DDBA1D07F10A0339
:104600001146184600F01FFB3B891A463B8D9A4223
:1046100006DD07F1080307F12801184600F013FB37
:1046200079893889FC883B89FA6A126892B23A82A1
:1046300007F110020192009323460246F868FFF743
:10464000C7FD798938897C893B8DFA6A126892B2F4
:104650007A8207F112020192009323460246F8681B
:10466000FFF7B6FD7989388DFC883B8DFA6A1268B0
:1046700092B2BA8207F114020192009323460246D5
:10468000F868FFF7A5FDF9883889FC883B8DFA6A40
:10469000126892B2FA8207F1160201920093234641
:1046A0000246F868FFF794FD00BF1C37BD4690BD79
:1046B00090B589B002AFF860084611461A46034625
:1046C0007B810B463B811346FB717B89BA6A12786A
:1046D0001344FA685288934207DDBB6A5B789AB24A
:1046E0003B8913443B8100237B8100237B82002391
:1046F000BB82BB8ABA6A527893424CDABB6A5A6868
:10470000FB79203BB96A497801FB03F1BB8A0B4472
:104710005B0013441B883B820023FB82FB8ABA6A3E
:104720001278934233DA3A8AFB8A02FA03F303F4EB
:104730000043002B12D0FB6893F898361C467A8A07
:10474000FB6A1B6898B2FB684FF4D07101FB04F15F
:104750000A440C32014623F8121011E0FB6893F86A
:1047600098361C467A8A3B6B1B6898B2FB684FF4FC
:10477000D07101FB04F10A440C32014623F81210F7
:104780007B8A01337B82FB8A0133FB82C6E7BB8ACB
:104790000133BB82ADE7254B5B68002B0BD1244B6B
:1047A0009B6803F00303002B05D0214B9B6803F0AB
:1047B0008003002B01D0012300E00023002B00D058
:1047C000E9E7BB6A1B789AB27B8913449BB2013B31
:1047D0009CB2BB6A5B789AB23B8913449BB2013BA3
:1047E0009BB2FA6892F8982611464FF4507202FB79
:1047F00001F21832F9680A443889798901920093E4
:1048000023460246F868FFF777FDFB6893F8983671
:10481000012B14BF01230023DBB21A46FB6883F887
:10482000982600BF1C37BD4690BD00BF886002407F
:10483000003C004080B487B000AFF86008461146E5
:104840001A4603467B810B463B811346FB800023BF
:10485000BB82BB8ABA6A5278934244DA3A89BB8AED
:1048600013449BB2FA8812FB03F39AB27B89134478
:104870007B82BB6A5A6897F82430203BB96A497832
:1048800001FB03F1BB8A0B445B0013441B883B8292
:104890000023FB82FB8ABA6A127893421FDA3A8AB3
:1048A000FB8A02FA03F303F40043002B08D07B8A4F
:1048B0005B003A6A1344FA6A126892B21A8007E0FF
:1048C0007B8A5B003A6A13443A6B126892B21A8090
:1048D0007B8A01337B82FB8A0133FB82DAE7BB8A66
:1048E0000133BB82B5E700BF1C37BD465DF8047BD2
:1048F000704780B58CB004AFF8607B600B467B815D
:1049000013463B817B68FB61F8690DF0ECFD0346C3
:104910007B61F8690DF0E9FD03463B6107F1100288
:1049200007F114031146184600F0ACF90346002BBA
:104930001FD007F11403184600F0CCF9B861BB6929
:1049400018783A8979893B6B0293FB6A0193BB6AB9
:1049500000930346F868FFF7ABFEBB6A1B789AB278
:104960007B8913447B8107F11403184600F0A2F9F8
:10497000D4E700BF2037BD4680BD90B58FB006AFED
:10498000F860084611461A4603467B810B463B8178
:104990001346FB807B6BFB61F8690DF0A4FD0346B9
:1049A0007B61F8690DF0A1FD03463B6107F1100240
:1049B00007F114031146184600F064F90346002B72
:1049C00024D007F11403184600F084F9B861BB69DC
:1049D0001B78FC88388979893A6C0492FA6B0392C7
:1049E000BA6B029201933B6B009323460246F86830
:1049F000FFF720FFBB6B1B789AB27B8913447B8146
:104A000007F11403184600F055F9CFE700BF24372B
:104A1000BD4690BD80B483B000AF786039603B681C
:104A20001B78012B06D1094A084B1B6843F400632D
:104A3000136005E0054A054B1B6823F4006313600F
:104A400000BF0C37BD465DF8047B7047003C00405A
:104A500080B584B000AF78600B46FB70234B5B6879
:104A6000002B0BD1224B9B6803F00303002B05D0D6
:104A70001F4B9B6803F08003002B01D0012300E053
:104A80000023002B00D0E9E7194B1B6803F40063F7
:104A9000002B14BF01230023DBB2002B07D000231F
:104AA000FB7207F10B0319467868FFF7B3FF114B50
:104AB000FB60FB68FA781A700C4B5B68002B0BD11B
:104AC0000B4B9B6803F00303002B05D0084B9B683E
:104AD00003F08003002B01D0012300E00023002B12
:104AE00000D0E9E700BF1037BD4680BD88600240B6
:104AF000003C00400C3C004080B582B000AF7860C4
:104B0000786800F0F3F87B6818460837BD4680BD2A
:104B100080B582B000AF7860786800F0F2F87B680A
:104B200018460837BD4680BD80B483B000AF7860BA
:104B30007B681B6818460C37BD465DF8047B7047E0
:104B400080B483B000AF78607B685B6818460C3730
:104B5000BD465DF8047B704790B583B000AF7860C8
:104B60007868FFF7E1FF04467868FFF7E9FF03463E
:104B7000234418460C37BD4690BDB0B586B000AF93
:104B8000F860381D80E806003B60FB68396818460D
:104B900000F0CEF83B1D1846FFF7C6FF04463B1D4C
:104BA0001846FFF7D9FF02462B462146F86800F069
:104BB000E7F8FB6818461837BD46B0BDB0B582B0FF
:104BC00000AF78607B681C687B685D687B6818460E
:104BD00000F004F903461A462946204600F009F978
:104BE0007B68184600F0B3F87B6818460837BD4666
:104BF000B0BD80B483B000AF786039607B681A685C
:104C00003B68134418460C37BD465DF8047B70477B
:104C100080B483B000AF78607B685B681A467B68BD
:104C20001B68D31A18460C37BD465DF8047B7047E5
:104C300080B483B000AF78607B6818460C37BD46FF
:104C40005DF8047B704780B584B000AF7860396050
:104C50007868FFF7EDFF03461B88FB813868FFF794
:104C6000E7FF03461A887B681A8007F10E0318468F
:104C7000FFF7DEFF03461A883B681A8000BF103733
:104C8000BD4680BD90B583B000AF7860396078686C
:104C900000F0BDF803461C68386800F0B8F8034619
:104CA0001B689C4214BF01230023DBB218460C375B
:104CB000BD4690BD80B483B000AF78607B681B6850
:104CC0005A1C7B681A607B6818460C37BD465DF835
:104CD000047B704780B483B000AF78607B681B684A
:104CE00018460C37BD465DF8047B704780B483B02E
:104CF00000AF78607B6818460C37BD465DF8047BD2
:104D0000704780B483B000AF78607B6818460C377A
:104D1000BD465DF8047B704780B582B000AF786017
:104D20007868FFF7F5FE7B6818460837BD4680BDFA
:104D300080B582B000AF786039607B68396818460A
:104D400000F070F87B6818460837BD4680BD80B516
:104D500082B000AF78607B6819687B689B681A46F0
:104D60007B681B68D31A1A46786800F072F87B6873
:104D70001846FFF7D1FF7B6818460837BD4680BD4F
:104D800090B587B000AFF860B9607A603B70796821
:104D9000B86800F071F803467B61FB6879691846D2
:104DA00000F07EF80246FB681A60FB681A687B69AF
:104DB0001A44FB689A60FB681C68FB68184600F0A0
:104DC0000DF8034622467968B86800F07DF802467F
:104DD000FB685A6000BF1C37BD4690BD80B483B0ED
:104DE00000AF78607B6818460C37BD465DF8047BE1
:104DF000704780B584B000AFF860B9607A60B96878
:104E0000F86800F072F800BF1037BD4680BD80B46E
:104E100083B000AF78607B6818460C37BD465DF8FC
:104E2000047B704780B582B000AF78603960396824
:104E3000786800F067F87B6800221A607B680022BF
:104E40005A607B6800229A607B6818460837BD4626
:104E500080BD80B584B000AFF860B9607A60BB688F
:104E6000002B05D0FB687A68B968184600F058F83E
:104E700000BF1037BD4680BDB0B584B000AF7860CC
:104E800039607C683B1D184600F059F82A4639689D
:104E9000204600F05EF8034618461037BD46B0BD08
:104EA00080B582B000AF786039603B68002B06D0D7
:104EB0007B683968184600F05BF8034600E0002381
:104EC00018460837BD4680BD80B584B000AFF86095
:104ED000B9607A603B607A68B968F86800F057F8A2
:104EE000034618461037BD4680BD80B582B000AF7E
:104EF000786039603968786800F05BF800BF08377F
:104F0000BD4680BD80B582B000AF78603960396839
:104F1000786800F059F87B6818460837BD4680BDB0
:104F200080B584B000AFF860B9607A607A68B9681B
:104F3000F86800F055F800BF1037BD4680BD80B45A
:104F400083B000AF786018460C37BD465DF8047B2F
:104F5000704780B485B000AFF860B9603A71BA6844
:104F6000FB68D31A18461437BD465DF8047B7047BA
:104F700080B582B000AF7860396000223968786807
:104F800000F03BF8034618460837BD4680BD80B5A3
:104F900086B000AFF860B9607A600123FB757A686B
:104FA000B968F86800F045F8034618461837BD465A
:104FB00080BD80B483B000AF7860396000BF0C372B
:104FC000BD465DF8047B704780B483B000AF786065
:104FD00039607B6818460C37BD465DF8047B704726
:104FE00080B584B000AFF860B9607A60B86807F047
:104FF000A3FA00BF1037BD4680BD80B584B000AFB6
:10500000F860B9607A60F86800F023F80246BB687F
:105010009A4234BF01230023DBB2002B01D014F0ED
:1050200074FDB86807F08FFA034618461037BD467E
:1050300080BD80B584B000AFF860B9607A607A68EE
:10504000B968F86800F011F8034618461037BD46F5
:1050500080BD80B483B000AF78604FF0FF33184656
:105060000C37BD465DF8047B704790B585B000AF46
:10507000F860B9607A60F86800F00FF80446B86824
:1050800000F00BF803467A681946204600F010F845
:10509000034618461437BD4690BD80B483B000AFB8
:1050A00078607B6818460C37BD465DF8047B704716
:1050B000B0B584B000AFF860B9607A60F86800F00D
:1050C00013F80446B86800F00FF80546786800F059
:1050D00016F803461A462946204600F01BF80346F8
:1050E00018461037BD46B0BD80B483B000AF7860BD
:1050F0007B6818460C37BD465DF8047B704780B46A
:1051000083B000AF78607B6818460C37BD465DF809
:10511000047B704780B586B000AFF860B9607A60F4
:105120000123FB757A68B968F86800F005F8034652
:1051300018461837BD4680BD80B586B000AFF86010
:10514000B9607A60BA68FB68D31A7B617B69002B0F
:1051500005D07B691A46F968786822F0C7FE7B693A
:105160007A68134418461837BD4680BD80B483B0B2
:1051700000AF786039603B6818460C37BD465DF873
:10518000047B704780B483B000AF78607B68B3F570
:10519000007F05D24FF400727B68B2FBF3F300E0AE
:1051A000012318460C37BD465DF8047B704780B577
:1051B00082B000AF78607B68203318460DF062F94A
:1051C0007B68043318460DF05DF97B681846083794
:1051D000BD4680BD80B483B000AF78607B6800229C
:1051E0001A707B68F0225A807B684FF4A0729A8014
:1051F0007B680C4A083392E8030083E803007B686D
:10520000094A103392E8030083E803007B68002218
:1052100083F898267B6818460C37BD465DF8047BFA
:10522000704700BFD0E70208D8E7020890B5ADF597
:105230006D7D00AF3B1D18603B1D1B6800229A70FE
:105240003B1D1B681C1D07F1100300221A7007F597
:105250000273184607F090F907F5027207F1100380
:105260000433EF4918460DF039FC07F11003002212
:105270001A7707F11003203318460DF0D9F807F11B
:105280001003012283F8382007F50373184607F04E
:1052900073F907F5037207F110033C33E14918462F
:1052A0000DF01CFC07F11003042283F8542007F1D1
:1052B0001003583318460DF0BBF807F11003022213
:1052C00083F8702007F50473184607F055F907F5C1
:1052D000047207F110037433D34918460DF0FEFB36
:1052E00007F110030A2283F88C2007F11003903392
:1052F00018460DF09DF807F11003032283F8A8204B
:1053000007F50573184607F037F907F5057207F139
:105310001003AC33C54918460DF0E0FB07F110034C
:105320000C2283F8C42007F11003C83318460DF08F
:105330007FF807F11003042283F8E02007F50673D5
:10534000184607F019F907F5067207F11003E43360
:10535000B74918460DF0C2FB07F11003072283F886
:10536000FC2007F1100303F5807318460DF060F878
:1053700007F11003052283F8182107F50773184673
:1053800007F0FAF807F5077207F1100303F58E73BB
:10539000A84918460DF0A2FB07F11003062283F876
:1053A000342107F1100303F59C7318460DF040F803
:1053B00007F11003062283F8502107F508731846F9
:1053C00007F0DAF807F5087207F1100303F5AA737E
:1053D000994918460DF082FB07F11003052283F866
:1053E0006C2107F1100303F5B87318460DF020F88F
:1053F00007F11003072283F8882107F5097318467F
:1054000007F0BAF807F5097207F1100303F5C67340
:105410008A4918460DF062FB07F11003022283F857
:10542000A42107F1100303F5D47318460DF000F81A
:1054300007F11003082283F8C02107F50A73184604
:1054400007F09AF807F50A7207F1100303F5E27303
:105450007B4918460DF042FB07F11003032283F845
:10546000DC2107F1100303F5F07318460CF0E0FFA0
:1054700007F1080307F110021A6007F10803092277
:105480005A6007F50B73184602F072F907F50B73B3
:1054900007F1080206CA204602F0AFF907F50B73C0
:1054A000184602F071F907F1100404F5FC7407F1D5
:1054B00010039C4204D0383C2046FFF778FEF6E704
:1054C00007F50A73184607F058F807F509731846E8
:1054D00007F053F807F50873184607F04EF807F57C
:1054E0000773184607F049F807F50673184607F0E2
:1054F00044F807F50573184607F03FF807F50473FD
:10550000184607F03AF807F50373184607F035F820
:1055100007F50273184607F030F83B1D1B6803F1CE
:10552000100407F50E7300221A7007F53873184639
:1055300007F022F807F5387207F50E73043338497F
:1055400018460DF0CBFA07F50E7300221A7707F50F
:105550000E73203318460CF06BFF07F50E73012213
:1055600083F8382007F53973184607F005F807F572
:10557000397207F50E733C33324918460DF0AEFA16
:1055800007F50E73082283F8542007F50E7358337D
:1055900018460CF04DFF07F50E73022283F87020B9
:1055A00007F53A73184606F0E7FF07F53A7207F574
:1055B0000E737433244918460DF090FA07F50E73F4
:1055C000092283F88C2007F50E73903318460CF0EF
:1055D0002FFF07F50C7307F50E721A6007F50C73B1
:1055E00003225A6007F53B73184602F0C1F807F52D
:1055F0003B7307F50C7206CA204602F0FEF807F569
:105600003B73184602F0C0F807F50E74A83407F58E
:105610000E739C421AD0383C2046FFF7C8FDF6E7CF
:10562000E0E70208ECE70208F8E7020804E80208ED
:1056300010E802081CE8020828E8020834E802081A
:1056400040E8020850E802085CE8020807F53A73EF
:10565000184606F092FF07F53973184606F08DFFDD
:1056600007F53873184606F088FF3B1D1B6803F1E9
:105670001C04002387F8F83207F56873184606F013
:105680007BFF07F5687207F53E7304333D49184602
:105690000DF024FA042387F8143307F53E73203302
:1056A00018460CF0C5FE012387F8303307F56973FF
:1056B000184606F061FF07F5697207F53E733C3343
:1056C000314918460DF00AFA092387F84C3307F5DB
:1056D0003E73583318460CF0ABFE022387F868334C
:1056E00007F56A73184606F047FF07F56A7207F573
:1056F0003E737433254918460DF0F0F90B2387F8F3
:10570000843307F53E73903318460CF091FE07F58D
:105710003E73C7F8F0320323C7F8F43207F56B7312
:10572000184602F025F807F56B7307F53C7206CAB8
:10573000204602F062F807F56B73184602F024F871
:1057400007F53E74A83407F53E739C4204D0383CFC
:105750002046FFF72CFDF6E707F56A73184606F0BA
:105760000CFF07F56973184606F007FF07F5687325
:10577000184606F002FF3B1D1B68184607F56D77BB
:10578000BD4690BDECE702085CE8020864E8020848
:10579000B0B582B000AF78607B6800221A757B6874
:1057A00000225A757B6800229A757B680D4A03F1C6
:1057B000180415460FCD0FC495E80F0084E80F00BC
:1057C0007B683833184602F054F87B68002283F86F
:1057D00060207B68002283F878207B6818460837B1
:1057E000BD46B0BD70E8020880B483B000AF7860F9
:1057F0007B680A221A807B6841F658325A807B689F
:10580000314A5A607B6800221A727B6807225A72FA
:105810007B680A225A817B6807221A737B680122FF
:105820005A737B6808229A737B680922DA737B6853
:105830000B221A747B6802225A747B6800229A74C5
:105840007B6800229A827B6801229A757B6800221D
:105850001A777B6800221A847B6800225A847B684E
:1058600000229A847B680022DA847B6800221A85F1
:105870007B6800225A857B68002283F82C207B6895
:10588000002283F82D207B68002283F82E207B687D
:1058900000221A867B6800225A867B68002283F8E1
:1058A00034207B68002283F835207B684FF00002AB
:1058B0009A637B684FF00002DA637B6818460C3706
:1058C000BD465DF8047B70472E21012080B483B073
:1058D00000AF78607B6800221A707B6818460C372E
:1058E000BD465DF8047B704780B586B000AF786038
:1058F0007B681B889BB207EE903AB8EEE77A304B94
:10590000D3ED007A27EE277A2E4B1B881BB207EEC9
:10591000903AF8EEE77A37EE277ADFED2B6AC7EE9A
:10592000267AB6EE007A37EEC77A284B93F90E3016
:1059300007EE903AF8EEE76AB2EE006AC6EE267A13
:1059400067EE277AB6EE007A77EE876A1F4B9B7D6B
:1059500007EE903AB8EEE77AC6EE877A9FED1C7AAA
:1059600067EE877AC7ED037A184B9B7D1A46D723DB
:1059700093FBF2F307EE903AF8EEE77AC7ED047A7C
:1059800007F1100207F10C0311461846FDF703FA60
:1059900002464FF07E537B6107F11403194610460F
:1059A000FDF729FA0346D3ED007AFCEEE77AC7ED5E
:1059B000007A3B889BB218461837BD4680BD00BFB1
:1059C000080000200400002000008046F88201202A
:1059D0000000584380B483B000AF0D4B1B881BB24E
:1059E000C3F5005307EE903AF8EEE76A094B93EDE2
:1059F000007AC6EE877AFCEEE77AC7ED017ABB88BB
:105A00009BB218460C37BD465DF8047B704700BF5B
:105A1000040000200800002080B483B000AF0346DB
:105A2000FB80154B1B6807EE903AB8EE677AFB884F
:105A300007EE903AF8EEE77A77EEA76A0F4B9B6A8B
:105A4000013307EE903AF8EE677A66EEA76A0B4BE1
:105A5000DB6A013307EE903AF8EE677A66EEA77AD2
:105A6000C7EE276AF0EE667AB0EE670A0C37BD46DD
:105A70005DF8047B704700BF100000200004004068
:105A800090B583B000AF844A834B1B6923F00103B8
:105A90001361824B1B78012B04D0804B1B78022BA7
:105AA00040F0C3807E4B03F5005304331B889AB249
:105AB0007C4B1B889BB29A4206D17B4B1B78DBB296
:105AC000002B01D0012300E00023002B0DD0774BE9
:105AD0001B78DBB21A46724B134403F500531033A4
