:020000040800F2
:1000000000000220E1690008316A0008316A000836
:10001000316A0008316A0008316A000800000000F7
:10002000000000000000000000000000316A00082D
:10003000316A000800000000316A00083D460008EF
:10004000316A0008316A0008316A0008316A000824
:10005000316A0008316A0008316A0008316A000814
:10006000316A0008316A0008316A0008316A000804
:10007000316A0008316A0008316A0008316A0008F4
:10008000316A0008316A0008316A0008316A0008E4
:10009000316A0008316A0008316A0008316A0008D4
:1000A000E5450008316A0008316A0008316A000835
:1000B000316A0008B53F0008316A0008316A00085B
:1000C000316A0008316A0008316A0008316A0008A4
:1000D000316A0008316A0008316A0008316A000894
:1000E00031450008316A0008316A0008316A0008A9
:1000F000316A0008316A0008316A0008316A000874
:10010000316A0008316A0008316A0008316A000863
:1001100001460008316A0008316A0008316A0008A7
:10012000316A0008316A0008316A0008316A000843
:10013000316A00080000000000000000316A000879
:10014000316A0008316A0008316A0008316A000823
:10015000316A0008316A0008316A0008316A000813
:10016000316A0008316A0008316A0008316A000803
:10017000316A0008316A0008316A00080000000096
:1001800000000000316A00080000000000000000CC
:10019000316A00080000000000000000316A000819
:1001A000000000000000000000000000316A0008AC
:1001B000316A0008316A0008316A0008316A0008B3
:0401C000316A000898
:1001D00010B5054C237833B9044B13B10448AFF381
:1001E00000800123237010BDC00200200000000029
:1001F000E094020808B5034B1BB103490348AFF371
:10020000008008BD00000000C4020020E094020845
:1002100001F0FF01102A2BDB10F0070F08D010F8B7
:10022000013B013A8B422DD010F0070F42B3F6D1BB
:10023000F0B441EA012141EA014122F007047FF0D4
:1002400000070023F0E80256083C85EA010586EA2B
:10025000010685FA47F5A3FA87F586FA47F6A5FA67
:1002600087F68EB9EED1F0BC01F0FF0102F0070273
:1002700032B110F8013B013A83EA010313B1F8D11E
:100280000020704701387047002D06BF35460338FF
:10029000073815F0010F07D1013015F4807F02BF38
:1002A000013015F4C03F0130F0BC0138704700BF89
:1002B00010F8012B11F8013B012A28BF9A42F7D010
:1002C000D01A7047034613F8012B002AFBD1181AE5
:1002D0000138704781F0004102E000BF83F0004325
:1002E00030B54FEA41044FEA430594EA050F08BFD1
:1002F00090EA020F1FBF54EA000C55EA020C7FEA95
:10030000645C7FEA655C00F0E2804FEA5454D4EB11
:100310005555B8BF6D420CDD2C4480EA020281EADB
:10032000030382EA000083EA010180EA020281EA13
:100330000303362D88BF30BD11F0004F4FEA013165
:100340004FF4801C4CEA113102D0404261EB410174
:1003500013F0004F4FEA03334CEA133302D05242FA
:1003600063EB430394EA050F00F0A780A4F10104B6
:10037000D5F1200E0DDB02FA0EFC22FA05F28018F0
:1003800041F1000103FA0EF2801843FA05F35941D6
:100390000EE0A5F120050EF1200E012A03FA0EFC55
:1003A00028BF4CF0020C43FA05F3C01851EBE3717F
:1003B00001F0004507D54FF0000EDCF1000C7EEB9C
:1003C00000006EEB0101B1F5801F1BD3B1F5001FDA
:1003D0000CD349085FEA30004FEA3C0C04F10104F9
:1003E0004FEA445212F5800F80F09A80BCF1004F22
:1003F00008BF5FEA500C50F1000041EB045141EAA4
:10040000050130BD5FEA4C0C404141EB010111F4A4
:10041000801FA4F10104E9D191F0000F04BF01464F
:100420000020B1FA81F308BF2033A3F10B03B3F12D
:1004300020020CDA0C3208DD02F1140CC2F10C02BD
:1004400001FA0CF021FA02F10CE002F11402D8BF1B
:10045000C2F1200C01FA02F120FA0CFCDCBF41EAE7
:100460000C019040E41AA2BF01EB0451294330BDB6
:100470006FEA04041F3C1CDA0C340EDC04F1140493
:10048000C4F1200220FA04F001FA02F340EA03006A
:1004900021FA04F345EA030130BDC4F10C04C4F1B0
:1004A000200220FA02F001FA04F340EA0300294690
:1004B00030BD21FA04F0294630BD94F0000F83F4DA
:1004C000801306BF81F480110134013D4EE77FEABD
:1004D000645C18BF7FEA655C29D094EA050F08BF09
:1004E00090EA020F05D054EA000C04BF19461046EA
:1004F00030BD91EA030F1EBF0021002030BD5FEA2E
:10050000545C05D14000494128BF41F0004130BD55
:1005100014F580043CBF01F5801130BD01F00045A9
:1005200045F0FE4141F470014FF0000030BD7FEA1C
:10053000645C1ABF194610467FEA655C1CBF0B4617
:10054000024650EA013406BF52EA033591EA030F2E
:1005500041F4002130BD00BF90F0000F04BF002126
:10056000704730B54FF4806404F132044FF0000559
:100570004FF0000150E700BF90F0000F04BF0021D2
:10058000704730B54FF4806404F1320410F0004538
:1005900048BF40424FF000013EE700BF42004FEA33
:1005A000E2014FEA31014FEA02701FBF12F07F43B0
:1005B00093F07F4F81F06051704792F0000F14BFAD
:1005C00093F07F4F704730B54FF4607401F00045F1
:1005D00021F0004120E700BF50EA010208BF704748
:1005E00030B54FF000050AE050EA010208BF70473D
:1005F00030B511F0004502D5404261EB41014FF4A6
:10060000806404F132045FEA915C3FF4DCAE4FF0A9
:1006100003025FEADC0C18BF03325FEADC0C18BF90
:10062000033202EBDC02C2F1200300FA03FC20FAE1
:1006300002F001FA03FE40EA0E0021FA02F114442E
:10064000C1E600BF70B54FF0FF0C4CF4E06C1CEA43
:1006500011541DBF1CEA135594EA0C0F95EA0C0FB8
:1006600000F0DEF82C4481EA030621EA4C5123EA2B
:100670004C5350EA013518BF52EA033541F480115A
:1006800043F4801338D0A0FB02CE4FF00005E1FB0D
:1006900002E506F00042E0FB03E54FF00006E1FB57
:1006A00003569CF0000F18BF4EF0010EA4F1FF049A
:1006B000B6F5007F64F5407404D25FEA4E0E6D41DA
:1006C00046EB060642EAC62141EA55514FEAC520EB
:1006D00040EA5E504FEACE2EB4F1FD0C88BFBCF567
:1006E000E06F1ED8BEF1004F08BF5FEA500E50F118
:1006F000000041EB045170BD06F0004646EA0101DE
:1007000040EA020081EA0301B4EB5C04C2BFD4EB0F
:100710000C0541EA045170BD41F480114FF0000E08
:10072000013C00F3AB8014F1360FDEBF002001F076
:10073000004170BDC4F10004203C35DA0C341BDCF0
:1007400004F11404C4F1200500FA05F320FA04F0C2
:1007500001FA05F240EA020001F0004221F00041F6
:1007600010EBD37021FA04F642EB06015EEA430E69
:1007700008BF20EAD37070BDC4F10C04C4F1200599
:1007800000FA04F320FA05F001FA04F240EA02004C
:1007900001F0004110EBD37041F100015EEA430E1D
:1007A00008BF20EAD37070BDC4F1200500FA05F23D
:1007B0004EEA020E20FA04F301FA05F243EA0203BC
:1007C00021FA04F001F0004121FA04F220EA0200CB
:1007D00000EBD3705EEA430E08BF20EAD37070BD11
:1007E00094F0000F0FD101F00046400041EB0101F1
:1007F00011F4801F08BF013CF7D041EA060195F0D3
:10080000000F18BF704703F00046520043EB03038C
:1008100013F4801F08BF013DF7D043EA0603704779
:1008200094EA0C0F0CEA135518BF95EA0C0F0CD084
:1008300050EA410618BF52EA4306D1D181EA0301CA
:1008400001F000414FF0000070BD50EA410606BFC4
:100850001046194652EA430619D094EA0C0F02D109
:1008600050EA013613D195EA0C0F05D152EA03364E
:100870001CBF104619460AD181EA030101F000416C
:1008800041F0FE4141F470014FF0000070BD41F0B5
:10089000FE4141F4780170BD70B54FF0FF0C4CF48F
:1008A000E06C1CEA11541DBF1CEA135594EA0C0FAE
:1008B00095EA0C0F00F0A7F8A4EB050481EA030EFB
:1008C00052EA03354FEA013100F088804FEA0333E2
:1008D0004FF0805545EA131343EA12634FEA0222B0
:1008E00045EA111545EA10654FEA00260EF0004171
:1008F0009D4208BF964244F1FD0404F5407402D2C3
:100900005B084FEA3202B61A65EB03055B084FEA53
:1009100032024FF480104FF4002CB6EB020E75EB50
:10092000030E22BFB61A754640EA0C005B084FEA78
:100930003202B6EB020E75EB030E22BFB61A7546F5
:1009400040EA5C005B084FEA3202B6EB020E75EB40
:10095000030E22BFB61A754640EA9C005B084FEAB8
:100960003202B6EB020E75EB030E22BFB61A7546C5
:1009700040EADC0055EA060E18D04FEA051545EAB4
:1009800016754FEA06164FEAC30343EA52734FEA5D
:10099000C2025FEA1C1CC0D111F4801F0BD141EAD6
:1009A00000014FF000004FF0004CB6E711F4801F3B
:1009B00004BF01430020B4F1FD0C88BFBCF5E06F1B
:1009C0003FF6AFAEB5EB030C04BFB6EB020C5FEA2B
:1009D000500C50F1000041EB045170BD0EF0004E80
:1009E0004EEA113114EB5C04C2BFD4EB0C0541EAB2
:1009F000045170BD41F480114FF0000E013C90E6AF
:100A000045EA060E8DE60CEA135594EA0C0F08BF72
:100A100095EA0C0F3FF43BAF94EA0C0F0AD150EA71
:100A200001347FF434AF95EA0C0F7FF425AF104604
:100A300019462CE795EA0C0F06D152EA03353FF42C
:100A4000FDAE1046194622E750EA410618BF52EAA9
:100A500043067FF4C5AE50EA41047FF40DAF52EA7D
:100A600043057FF4EBAE12E74FF0FF3C06E000BF1A
:100A70004FF0010C02E000BF4FF0010C4DF804CD27
:100A80004FEA410C7FEA6C5C4FEA430C18BF7FEAE7
:100A90006C5C1BD001B050EA410C0CBF52EA430C15
:100AA00091EA030F02BF90EA020F0020704710F195
:100AB000000F91EA030F58BF994208BF90422CBF24
:100AC000D8176FEAE37040F0010070474FEA410C1D
:100AD0007FEA6C5C02D150EA013C07D14FEA430C3B
:100AE0007FEA6C5CD6D152EA033CD3D05DF8040BAC
:100AF000704700BF8446104662468C4619466346DE
:100B000000E000BF01B5FFF7B7FF002848BF10F1B4
:100B1000000F01BD4DF808EDFFF7F4FF0CBF0120F9
:100B200000205DF808FB00BF4DF808EDFFF7EAFF75
:100B300034BF012000205DF808FB00BF4DF808ED30
:100B4000FFF7E0FF94BF012000205DF808FB00BF25
:100B50004DF808EDFFF7CEFF94BF012000205DF8AF
:100B600008FB00BF4DF808EDFFF7C4FF34BF0120BC
:100B700000205DF808FB00BF4FEA410C7FEA6C5C87
:100B800002D150EA013C0AD14FEA430C7FEA6C5C87
:100B900002D152EA033C02D14FF0000070474FF0FF
:100BA000010070474FEA410212F5001215D211D52B
:100BB0006FF47873B3EB625212D94FEAC12343F05A
:100BC000004343EA505311F0004F23FA02F018BFDC
:100BD000404270474FF00000704750EA013005D1A5
:100BE00011F0004008BF6FF0004070474FF0000068
:100BF000704700BF4A0011D212F5001211D20DD574
:100C00006FF47873B3EB62520ED44FEAC12343F012
:100C1000004343EA505323FA02F070474FF00000BC
:100C2000704750EA013002D14FF0FF3070474FF06B
:100C3000000070474FEA4102B2F1E04324BFB3F530
:100C4000001CDCF1FE5C0DD901F0004C4FEAC00243
:100C50004CEA5070B2F1004F40EB830008BF20F027
:100C60000100704711F0804F21D113F13872BCBFE1
:100C700001F00040704741F480114FEA5252C2F136
:100C80001802C2F1200C10FA0CF320FA02F018BF7F
:100C900040F001004FEAC1234FEAD32303FA0CFCD2
:100CA00040EA0C0023FA02F34FEA4303CCE77FEA61
:100CB000625307D150EA01331EBF4FF0FE4040F4AB
:100CC0004000704701F0004040F0FE4040F400005A
:100CD000704700BF53B94AB9002908BF00281CBF9C
:100CE0004FF0FF314FF0FF3000F07AB9ADF1080C52
:100CF0006DE904CE00F006F8DDF804E0DDE902233A
:100D000004B070472DE9F0478C460D460446089E16
:100D1000002B51D18A4217466DD9B2FA82FEBEF13C
:100D2000000F0BD0CEF1200C01FA0EF520FA0CFCCE
:100D300002FA0EF74CEA050C00FA0EF44FEA174AD5
:100D4000250CBCFBFAF81FFA87F90AFB18CC45EA18
:100D50000C4508FB09F3AB420AD9ED1908F1FF3243
:100D600080F02381AB4240F22081A8F102083D448B
:100D7000ED1AA4B2B5FBFAF00AFB105544EA05449B
:100D800000FB09F9A14509D9E41900F1FF3380F00E
:100D90000A81A14540F2078102383C44A4EB0904D2
:100DA00040EA08400021002E61D024FA0EF400230E
:100DB00034607360BDE8F0878B4207D9002E54D0B1
:100DC000002186E821000846BDE8F087B3FA83F1E8
:100DD000002940F08E80AB4202D3824200F2FA80BA
:100DE000841A65EB03050120AC46002E3FD086E84F
:100DF0001010BDE8F08712B90127B7FBF2F7B7FA78
:100E000087FEBEF1000F34D1EB1B3A0C1FFA87FCB2
:100E10000121B3FBF2F8250C02FB183345EA034528
:100E20000CFB08F3AB4207D9ED1908F1FF3002D2F1
:100E3000AB4200F2D1808046ED1AA3B2B5FBF2F0CE
:100E400002FB105543EA05440CFB00FCA44507D9FE
:100E5000E41900F1FF3302D2A44500F2B88018462D
:100E6000A4EB0C0440EA08409DE731463046BDE85B
:100E7000F087CEF1200405FA0EF307FA0EF720FAF8
:100E800004F83A0C25FA04F448EA0308B4FBF2F13A
:100E90004FEA184502FB11441FFA87FC45EA044556
:100EA00001FB0CF3AB4200FA0EF409D9ED1901F184
:100EB000FF3080F08A80AB4240F2878002393D44A7
:100EC000EB1A1FFA88F5B3FBF2F002FB103345EA88
:100ED000034500FB0CF3AB4207D9ED1900F1FF38D5
:100EE0006FD2AB426DD902383D44EB1A40EA014162
:100EF0008FE7C1F1200722FA07F88B4005FA01F4C9
:100F000048EA030320FA07FE4FEA134CFD404EEA7D
:100F1000040EB5FBFCF94FEA1E440CFB19551FFAF1
:100F200083F844EA054509FB08F4AC4202FA01F2F1
:100F300000FA01FA08D9ED1809F1FF3043D2AC42AA
:100F400041D9A9F102091D442D1B1FFA8EFEB5FBE4
:100F5000FCF00CFB10554EEA054400FB08F8A045D8
:100F600007D9E41800F1FF3529D2A04527D9023866
:100F70001C4440EA0940A4EB0804A0FB02894C454C
:100F8000C6464D4615D312D056B1BAEB0E0364EBEC
:100F9000050404FA07F7CB401F43CC403760746068
:100FA0000021BDE8F0871846F8E69046E0E6C24525
:100FB000EAD2B8EB020E69EB03050138E4E72846F4
:100FC000D7E7404691E78146BEE7014678E7023819
:100FD0003C4445E7084608E7A8F102083D442BE7F2
:100FE000704700BF054B1B69002B00DB7047034BAC
:100FF000034A5A6002F188325A60F7E7003C024027
:1010000023016745024A136943F0004313617047A7
:10101000003C0240014BD860704700BF003C0240DA
:10102000124BDB6813F4803F1DD1104BDB6813F0CB
:10103000100F01D0062070470C4BDB6813F4807F43
:1010400001D002207047094BDB6813F0E00F01D09C
:1010500007207047054BDB6803F00203002B14BF29
:101060000820092070470120704700BF003C024063
:1010700000B583B009238DF80730FFF7D1FF8DF855
:1010800007009DF80730DBB2012B08D1FFF7C8FF3E
:101090008DF807009DF80730DBB2012BF6D09DF8E4
:1010A000070003B05DF804FB70B5064641B10129A5
:1010B0000CD002290CBF4FF400754FF4407500E0CE
:1010C0000025FFF7D5FF092803D070BD4FF48075C8
:1010D000F7E7104C236923F44073236123691D4310
:1010E0002561236923F0F8032361236943F0020398
:1010F0001E432661236943F480332361FFF7B8FF61
:10110000236923F002032361236923F0F803236199
:10111000DBE700BF003C024070B505460E46FFF716
:10112000A7FF092800D070BD094C236923F4407340
:10113000236123692361236943F0010323612E7036
:10114000FFF796FF236923F001032361EBE700BF5C
:10115000003C0240024B01221B6843600270704752
:10116000382101201E4B1F4A1F48F0B516881F4D1D
:101170005A6804681E482F788C601D885C884F71FF
:101180008242CE808D810C6125D01A48824224D0C3
:10119000194882420CBF03200020184A1E7A157895
:1011A000547892F802C092F803E0177908755A7BD8
:1011B000187B4D778C775D7A5C899B7B81F81FC0AB
:1011C00081F820E081F821704E758D750C8388764A
:1011D000CA760B77F0BD0120DFE70220DDE700BF14
:1011E000BC820120060000200800002060210120B0
:1011F0003C2101203E2101204021012068210120C5
:10120000F0B51C491C4B8BB0024600930868CDF822
:101210002200002313701046694601228DF8053024
:101220008DF80420FFF79EFF72B6FFF7DBFEF32078
:10123000FFF7F0FE02213820FFF736FF092804D01F
:10124000FFF7E0FE62B60BB0F0BD0C4F6D460DF13E
:10125000FF330DF12706D8195C1C5978401BFFF7A6
:101260005BFFB4422346F6D1FFF7CCFE62B60BB06B
:10127000F0BD00BF40950208434647000100060844
:10128000F0B5324E324D30688BB06C46CDF822004E
:101290000FCD0FC40FCD0FC495E8030084E8030001
:1012A0002C496846FFF704F848B931460DF1220091
:1012B000FEF7FEFF18B99DF80430012B01D00BB0EA
:1012C000F0BD25499DF81420244BBDF90600244E9D
:1012D000244C0880029D9DF80570BDF80C0004990F
:1012E0003770012A2560188059802BD0022A2BD014
:1012F000032A1D4918BF00211C4A9DF81D509DF866
:101300001E409DF81F009DF820E09DF8217015708B
:101310005470907059609DF815609DF81650BDF896
:1013200018409DF81A0082F803E09DF81B10177111
:101330009DF81C201E725D725C81187359739A733C
:101340000BB0F0BD0A49D7E70A49D5E74095020836
:10135000000006084495020806000020BC82012017
:101360006021012008000020402101206821012087
:101370003C2101203E2101202DE9F047824642F226
:10138000080442F214064FF480672AF804703C4BBC
:10139000002442F215050AF8064008268AF8036080
:1013A0008AF802408AF8054093E807000AF80540E9
:1013B0000AF5804301258AF800508AF801504FF061
:1013C000000C09258AF804508AF8065044F22007D8
:1013D000C3F818C044F2220644F21C0E0AF58043FA
:1013E00024334AF80E402AF807402AF8064003C37F
:1013F00045F62E251A800AF805400AF5005500200A
:1014000000210FF27409D9E9008900261D4F183513
:1014100017E007EE904AF8EEE77A77EEA77A17EE34
:10142000900AFFF7BBF842464B46FFF70BF93246EE
:101430003B46FFF707F941EC100B1FF025FE51EC7E
:10144000100BFFF7F7FB0134B4F5806F45F8040B80
:10145000DFD10AF580430AF5B4402D332D305021F9
:1014600003F5807203F8011F9342FBD19842F7D134
:101470005046BDE8F08700BF182D4454FB210940B9
:10148000F89402080000503F2DE9F04F42F20804A2
:101490002DED028B8046005BA9B080B20D4606910F
:1014A000FFF75AF841EC100B1FF092FD51EC100BB6
:1014B000FFF7A0FB98F8013082B20792002B78D09A
:1014C000DFF844A0DFED0F6A02238AF81630D5ED6D
:1014D000007A38F8043076EEE77AB1EE007A67EEFB
:1014E000877A9BB2FCEEE77AB3F5A07FCDED057A63
:1014F000BDF8141040F37882BAF802004444002387
:1015000019E000BF00E0FF44BC820120D2ED007A68
:10151000228876EEE77A013367EE877A92B2FCEEA4
:10152000E77A9BB2A2F5A072CDED057A9342BDF8A1
:10153000141080F25982814205EB8302E6DDD2ED80
:10154000007A06EE100A76EEE77AB8EEC66A67EE23
:10155000877AF4EEC67AF1EE10FAD7D5C54D069A21
:10156000C54C9FEDC68AC64F02EB83092E464FF04D
:10157000000BF9EC017A38EE677AF1EE007A67EE4B
:10158000277A3146FCEEE77A3846CDED057ABDF88C
:1015900014302B8005F0CAF9363080B224F81B00D5
:1015A00040F241130BF1010B9B45E2D12388AAF8CD
:1015B000283042F2080338F803309BB2F3B1079B9E
:1015C000069D08F5005EC3F120090EF1080E2946BC
:1015D000002292FAA2F363FA09F39BB2934205DD6B
:1015E00005EB830308681C680C601860BEF80030C7
:1015F00001329BB2934201F10401EADC42F208039A
:1016000038F803309BB2012B75DD08F5005E01232D
:10161000DFED9C3A05930EF1080E059B012B00F0BF
:101620004C81BEF80030059AC3F34E03934200F09C
:101630007A81059ADDF818B008F5405A4FEA420C55
:101640000AF1180AD70096004FF00009BEF80020F2
:101650004FEA892393FBFCF308EB830303F5005166
:1016600092B203F51053183118334A45D1ED004AB0
:1016700093ED004A2FDD06EB0A0152465B464D46CC
:10168000F41893ED006AD1ED005A94ED005A92EDF2
:10169000007A65EEE46A64EE857AE4EE056A6544F4
:1016A000E4EE257A76EE665A76EE266A37EE676ABB
:1016B000C4ED005A81ED006AC3ED006ABEF8000077
:1016C00077EE277A80B2A842C2ED007A06EB0403D7
:1016D0003A443944D4DC059B09F1010999450BF1E1
:1016E000040B0AF1040AB1D1BEF80030CDF814C0E1
:1016F0009BB2634591DC644B644E9A6ADB6A96ED5B
:10170000007A6349013302FB0333DB0207EE903AB0
:10171000B8EE477AF8EE677A012287EE270A0AA820
:1017200005F03EFD0B9A6FF000439B1A022B40F22E
:101730007E810AA80322574911F0B0FD12AD04467C
:10174000109554F8083BA342074600F05A8182687E
:101750001093129200224C4B3A72996ADB6A96ED12
:10176000000A9FED4D7A78681190013301FB033335
:10177000DB0207EE903AB8EE400AF8EE677A20EE08
:10178000077A43497A6016A801223C6087EE270A4F
:1017900005F006FD109B1198179AAB4214BF1299E1
:1017A0000F2186188E42169907D918ACA14214BF92
:1017B000189C0F24A64240F20F8110A811F06EFD74
:1017C000064634460DF17808CDF8708054F8083B91
:1017D000A34200F01E81B2681C931E9273681D9391
:1017E000002272601D9932726FF000435B1A032B66
:1017F000346040F21C81042228491CA811F04EFDDF
:101800000DF190090446CDF8889054F8083BA342A6
:10181000064600F00581826822932492736820486E
:101820002393002109AA08AB3460716031720991D9
:1018300000900292083801934FF6FF7422ABE02229
:101840007321089402F07AF82298484501D006F0F6
:10185000ADFE1C98404501D006F0A8FE169818ABC6
:10186000984201D006F0A2FE1098A8421AD006F0C5
:101870009DFE17E03C2101203812012000E0FF44CA
:10188000BC82012000000000000400401C00002079
:10189000008301209095020800809F4394950208E0
:1018A000A07B01200A980CAB984201D006F07EFE86
:1018B00029B0BDEC028BBDE8F08FBEF800309BB2C2
:1018C0000BB3069B08F54050043318300021D3EDCC
:1018D000007A13ED017A37EE677A023183ED007AF0
:1018E000C0ED013A13ED017A77EE877A13EE904A54
:1018F00043ED017ABEF8002040F8084B92B28A42CC
:1019000003F10803E3DCBEF800309BB2022B7FF743
:10191000F2AE02230593BEF80030059AC3F34E03DE
:1019200093427FF486AEBEF80030C3F34E03012B22
:101930005CD9059D069C0122104605FA02FC51194E
:101940009302890093FBFCF39BB208EB830308EB43
:10195000010603F5005706F5405618371836D7ED3F
:10196000007A96ED007A03F5105318332144D1ED37
:10197000006A93ED006A27EE677A04EB8007A6EE13
:10198000267A08EB820202F54053D7ED006A37EE63
:10199000267A183387ED007AD1ED006AD6ED005A29
:1019A00093ED007A67EEA67A0130E6EE257A80B2F2
:1019B000024677EE877AC3ED007ABEF80030C3F3B3
:1019C0004E039842BBDBBEF80030CDF814C09BB28A
:1019D00063453FF722AE8EE600220090114616A81E
:1019E00011F0D8FB0646ECE60023B7E5BEF8003060
:1019F0004FEA420C9BB26345CDF814C03FF70DAEE1
:101A000079E620686168A268E368AE46AEE80F0038
:101A1000A0E620686168A268E36847460FC7DDE674
:101A200020686168A268E3684F460FC7F6E6014880
:101A30001CF004FF7895020831B1114B1B7842F27B
:101A400014020344002199540E4B1A7882B942F2D1
:101A50001402825C6AB970B40B4C0C4A0126002552
:101A600042F214011E702580435CDBB2137070BC1F
:101A7000704742F21502825C002AECD0704700BF2A
:101A8000612101204C2101204A210120482101200F
:101A90002DE9F04F2DED048B8DB0002304939E466D
:101AA0009A469FEDC99ADFEDC98A6FF0020380461E
:101AB0000F4603930126B7EE008AF51CAE45744627
:101AC00043DCFF2C41DCF14605E0AC423DDCFF2C61
:101AD0003BDC1FFA82F907EB890393ED000A04F659
:101AE000064308EB8303D3ED000A07F032F8F0EE6B
:101AF000487AE0EE497A45F62E2E44F22E0009F19E
:101B0000010267EEA87A0AF1010CFCEEE77ACDED4E
:101B1000027ABDF808301D2BD9B205D81FFA8CFA0D
:101B2000BAF1C80F00F2008118F80E3008EB032359
:101B300003EB040EB9F1010F94B20EF80010A646A3
:101B4000C3D1022422461954C3E7039C06F1040CB6
:101B5000644521B223464FF0000200F3F88008F5F7
:101B6000B449104609F12E094FF0010B8DB2691CE2
:101B7000FF2DA6EB030409B215D899F80050002CEC
:101B800008EB05251D44B8BF644244F22E03C4F19E
:101B900004040BFA04F4ED5CA3B215FB03F4204437
:101BA00013449AB280B261450B46DFDD049CB0FB62
:101BB000F2F223460CA9013301EB440103F00303C5
:101BC00098B2032E049021F8082C0FDD45F62E2242
:101BD0000CA918F8022001EB430333F8081C08EBAA
:101BE0000223039A134444F22E029954039B0136B4
:101BF0000133B6F5807F03937FF45FAF4046012148
:101C0000FFF71AFF45F62E20714918F80030DFF86B
:101C1000D891CDF808805A1C81FB0234D317C3EB4E
:101C2000E4031A2404FB132308F8003000220123E4
:101C30000491059298460598664A82FB0023C217D4
:101C4000C2EB63131C46069303EB8303A0EB031361
:101C50009BB204F0010244F2D03503931FFA88F3DB
:101C600005FB02F50793A0F1020A76260027D82487
:101C7000594B9B78002B00F0A380012B4FF6E433E7
:101C800008BF1F234FEA470B1FFA8BF20DF1260105
:101C90005248ADF8263006F063FC0BF103034345D0
:101CA00057DA0BF5817BC34553DB45F62E23029AA9
:101CB000D25C049B3A4483FB023ED3171A21C3EB48
:101CC000EE0301FB1323029A02EB0323534444F275
:101CD0002E0244F22D019A5C13F801E03244B6441E
:101CE000002C12B20FFA8EFE33DD039904EB84034D
:101CF00001EB03139BB24FF0000B0AE0A64505EB86
:101D0000030C0EDA29F81CB0013C503B24B29BB204
:101D1000FCB1A24205EB030101DDA64519DCA2429C
:101D2000ECDB29F81100EFE72D4B44F222011B7880
:101D300038F80120434442F214000132002428F80C
:101D400001201C540DB0BDEC048BBDE8F08F104693
:101D50002CE70137053E1A2FB6B2AAF1020A87D145
:101D6000002C17DB039904EB840301EB0313A1F1AF
:101D70005002069944F2D03001F001019BB292B2B8
:101D800000FB01F00024C118503B9BB29A4229F895
:101D90001140F8D10799134B0A46A3FB02239B0974
:101DA00003EB8303A1EB031292B2FAB1059B01335B
:101DB000B3F5A07F059308F101087FF43CAFC1E7BC
:101DC0004FF4FC635EE700BF000080370000A042D4
:101DD0004FECC44E676666666821012000830120CF
:101DE00061210120CDCCCCCCF4020020069B03F075
:101DF0000100BDF8143048F2A07101FB0090D82416
:101E0000A3F14F01019089B20094024801F09EFBBA
:101E1000CCE700BF987B0120104B1A6870B522F008
:101E200001020F4C1A6026685A6A0E4D02EB0642F8
:101E30002A605A6942F001025A611A6842F00102AE
:101E40001A6005460E4600232360FFF71DFB31464E
:101E50002846BDE87040FFF71BBE00BF00400140B0
:101E6000582101205C2101202DE9F04F2DED048B3C
:101E700000F50053B7B000F5005214320A33129146
:101E80001192114606901093002223F8022B9942DA
:101E9000FBD1724B06989B7844F21C014250002BF8
:101EA00000F01282012B4FF6E43308BF1F2336AA3D
:101EB00011466B4821F8183D069B0F9103F54053DE
:101EC0001D46282200231C460D9306F049FB2B4695
:101ED0001C330A93129BDFF8A0B19FED629ADFEDED
:101EE000628A9FED628ADFF89491089004334FF084
:101EF000010A09934FF0FF330C9353469846A246CC
:101F0000099B93ED000A0A9BF3EC010A0A9306F081
:101F100020FE1FFA88F30B930C9B032B2ADCB4EEF4
:101F2000C90AF1EE10FA25DD013303D00D9B013310
:101F3000434503DA0C9B01331BB20C930C9A069DAC
:101F400042F20A0105EB420344F224005A5A185A9D
:101F500007900FFA88F00D90002A40F0B88105F53F
:101F600080421C32FCEEC07ABDF82C005852C2ED03
:101F7000007A03E01F23079300230D93F7EE007A06
:101F8000E0EE687A17943A4B179467EE887A08F176
:101F9000FF35F4EEC87AF1EE10FAD8BFFCEEE77A1E
:101FA000179AD8BFCDED0E7A83FB05134FEAE5777C
:101FB000D8BFBDF838C0C7EB6313C8BF4FF0D80C0B
:101FC000D82A19460E935BDC03EB8303294AA5EB61
:101FD000031501F0010644F2D033118DADB203FBBD
:101FE00006F642F2107713E00AF1010A1FFA8AF2AC
:101FF000BA420FFA82FA00F255813344BDF81C2030
:1020000029F81320179B01331793179BD82B37DC24
:10201000179B3BF81820179892B28A4203EB830370
:10202000D8BF964605EB0313D4BF0A468E466045DB
:102030009BB2D9DA0698407858B11798864508DCE3
:102040001798824205DB3344BDF8202029F813207D
:10205000D8E7334429F81340D4E700BF68210120B2
:102060000083012000504347000000360000584321
:1020700067666666BC82012038120120F4020020E7
:102080009B493BF818200A850B999A4B0A46A3FBFB
:1020900002239B0903EB8303A1EB03139BB2BBB9A0
:1020A000B8F1F00F00F230810E9B03F0010748F207
:1020B000A07303FB07970B9A0197531EA2F15001DF
:1020C000D82200929BB289B200228B4801F03EFADE
:1020D000099A08F1010840F2411304329845099227
:1020E0007FF40EAF069A1378002B00F0E88042F2DE
:1020F0000A03D65A002E00F0E280804B80499A6A8B
:10210000DB6A91ED007A013302FB033306EE906A3D
:10211000DB0207EE903AF8EEE66AB8EE477AF8EEA0
:10212000677A27EE267A069BC7EE276A03F5804575
:102130001835B2EE040AC5ED006A86EE800A1EF07C
:10214000EBFFF2EE007AB4EEE70AF1EE10FA00F1DE
:102150004382FCEEC07ACDED077ABDF81C301C46F8
:10216000A21B002AB8BF5242012A644A40F33782B8
:10217000D26A44F2200102FB03F3069AB3FBF6F3A2
:102180005352129A06F18043013B02EB8303186815
:10219000FEF704FA069A06F6054302EB830380462F
:1021A00018688946FEF7FAF902460B46FEF74AFA26
:1021B000424606460F464B4640464946FEF742FA1F
:1021C00002460B4630463946FEF78AF841EC100BC2
:1021D0001FF048F8069A129942F20A035BEC10AB22
:1021E00032F8038008F1010301EB83031868FEF75E
:1021F000D5F9069A08F6074302EB830306461868EA
:102200000F46FEF7CBF93246804689463B463046BC
:102210003946FEF717FA424606460F464B464046F9
:102220004946FEF70FFA02460B4630463946FEF79E
:1022300057F841EC100B1FF015F851EC100BFEF79E
:10224000B1FC07EE900A59465046B8EEE78AFEF711
:10225000A9FC07EE104AD5ED007AF8EEC76A77EED2
:10226000A77A07EE100A67EEA67AB8EEC77A77EE7D
:10227000276AB4EEE68AF1EE10FA40F3A18144F247
:10228000200206998B5A013B9BB28B525A1E92B286
:1022900041F26E718A4212D8184AD16A99420ED020
:1022A000D3620CE0174B069D1B7844F222012B44AD
:1022B0006A5A42F21400013200246A521C5437B0A8
:1022C000BDEC048BBDE8F08F4FF4FC63EFE5069D99
:1022D00044F21C002A460244285807EE900AF8EE01
:1022E000677AF4EEC07AF1EE10FA3FF53BAE45E6C0
:1022F000BC820120CDCCCCCC987B012000040040D6
:102300001C00002061210120069D01212846FFF7C5
:1023100093FB10990B88002B3FF4C6AE0E9ACDF8B4
:1023200050A002F0010748F2A07202FB079205F5E7
:102330008040139200F124020E9207EE903A0A4672
:1023400014210791CDF854809246B8EEE77A07EE53
:10235000903AF8EE677AC7EE876A16EE900AFEF7B3
:102360001DF941EC100B1EF047FE51EC100BFEF76F
:1023700041FCA34982B21EA805F08AF91F9A6FF0AA
:1023800000439A4200F0398101229E491EA810F0B4
:1023900085FF26AF0646249756F8083BB34205460C
:1023A00000F004812493836826936B68964A2593F2
:1023B0002C72916AD36A95483AF8022B90ED000A84
:1023C0006C60013307EE102A01FB0333DB0207EEDA
:1023D000903AB8EEC77AB8EE400AF8EE677A20EE87
:1023E000070A0DF1A80886492E604046002280EEBB
:1023F000270A04F0D5FE249B259D2B9ABB4214BFCF
:1024000026990F21A81888422A9940F293802CAE71
:10241000B14214BF2C9E0F26B04200F28B800022E6
:1024200000951146404610F0B5FE0546AE4632AE68
:1024300030965EF8083B734500F0AC803093AB6893
:1024400032936B6831936C602C72319AC5F800E05E
:102450006FF000439B1A012B40F2CF8002226C499F
:102460000F9810F01BFF1AAB864618935EF8083BD6
:102470007345054600F08180826818931A926B6854
:1024800019932C72C5F800E030986C60B04201D00E
:1024900006F08CF82A982CAB984201D006F086F80A
:1024A0002498B84201D006F081F81E9820AB9842DB
:1024B00001D006F07BF8189F3096199D002F57D059
:1024C0000F2D2A953BD8012D4DD0002D76D1309B74
:1024D000504A31955C5502920F9A0192139A0092DC
:1024E0000E9ACDF8108032F8025B0E9224AB039363
:1024F0004948079A2A9450230021249501F042FA72
:102500003098B04201D006F051F818981AAB9842B2
:1025100001D006F04BF8119B53451ED0079ABAF82C
:102520000030143292B20792BBB1109A128807EEB3
:10253000902A0AE724A810F0B1FE054676E70022AB
:1025400041460F9810F00AFC2A9B309032932A469D
:10255000394620F0B8FB2A9DB9E7DDF850A0DDF838
:102560005480139FA7E53B788DF8C8303346AFE71A
:10257000002DA5D029481CF05EF9DEF80000DEF839
:102580000410DEF80820DEF80C300DF1680CACE821
:102590000F0074E7DEF80000DEF80410DEF8082013
:1025A000DEF80C30B446ACE80F004AE730687168DA
:1025B000B268F368BE46AEE80F00F6E63046C6E7FE
:1025C00078EE277AB4EEE77AF1EE10FA0DDC44F2F9
:1025D0002003069AD35A59E608242346C0E544F25C
:1025E00020030699D26ACA52CBE544F2200206992A
:1025F0008B5A01339BB28B5248E609481CF01EF9F6
:1026000000830120D8AB0208000400401C00002019
:1026100048950208A07B0120987B01204C95020878
:1026200078950208104B1A6870B522F001020F4C21
:102630001A6026685A6A0E4D02EB06422A605A69F1
:1026400042F001025A611A6842F001021A6005461E
:102650000E4600232360FEF717FF31462846BDE8EB
:102660007040FFF701BC00BF00400140582101202D
:102670005C2101201F4B20481A6C204942F08052F7
:102680001A64026842F480420260D1F8882042F461
:102690007002C1F888201A6842F480321A601A6801
:1026A0009203FCD5164A5A609A689A609968114A52
:1026B00041F400419960996841F4A051996019680A
:1026C00041F08071196013689B01FCD50D4B0949DD
:1026D00040F205701860936823F0030393609368D9
:1026E00043F0020393608B6803F00C03082BFAD1CC
:1026F000704700BF003802400070004000ED00E06D
:10270000085A4007003C02400D4B0E4910B400220D
:102710004FF6FE74F0201A605C6081F823009A6026
:102720001A685DF8044B42F004021A601A6842F01D
:1027300002021A601A6842F001021A60704700BF74
:1027400010E000E000ED00E03248334B3349344AFA
:1027500070B4066B334C344D46F002060663066BCC
:1027600046F004060663066C46F4004606642668D6
:1027700046F080662660A66846F08066A6602668F9
:1027800046F0805626601C6844F400641C609C6817
:1027900044F440649C601C6A44F4C0041C621C68DD
:1027A00044F080041C609C6844F0C0049C601C6A77
:1027B00044F4C0441C620B6843F400730B600B6864
:1027C00043F480730B600B6843F008030B600B68E5
:1027D00043F004030B600B6843F040030B60036B92
:1027E00043F400130363136823F0606313601368FA
:1027F00043F400531360136843F4006313601368D9
:1028000043F040031360136843F400331360956092
:1028100070BC70470038024000040240003C004099
:1028200088600240000802400C3C00405148524B76
:10283000524AF0B4066C524F524C534D4FF0804107
:1028400046F0010606644E6846F040064E601326C8
:102850008E623126CE624E630E6A46F001060E622B
:102860008E6946F060068E610E6846F001060E60C5
:10287000016B464E41F001010163016B41F004011F
:102880000163416C41F480714164396841F0C001D9
:102890003960216841F440612160216841F0030101
:1028A000216059684FF4001441F480715960DC6272
:1028B000596B41F00D015963596B41F0A001596307
:1028C000596B5963D96841F42061D960196941F4A1
:1028D00020311961196941F005011961996841F4C4
:1028E00080619960996841F080519960996841F0E0
:1028F000C0619960996841F480719960996841F468
:1029000000719960016B41F480010163116821F04D
:10291000C0011160116841F400311160116841F487
:1029200000611160116841F400511160116821F4D7
:1029300000711160116841F480611160116841F407
:1029400080711160116821F0C0011160516841F07F
:102950000C0151609560D660116821F060611160D2
:10296000116841F0010111609A6842F001029A6019
:10297000F0BC704700380240002001407064024003
:1029800000080240000002404C200140DC02002010
:102990000F48104B026C104930B442F0020232254D
:1029A0008C2402649D62DC62DA684FF0005442F0CD
:1029B00001020020DA600C6081F81D031A6842F001
:1029C00001021A605A6942F001025A6130BC704734
:1029D000003802400004004000E100E00C480D4BCC
:1029E000426C0D4930B442F4803264254FF6FF74D6
:1029F00042649D62DC62DA684FF0807442F001024A
:102A00002020DA600C6081F8180330BC704700BFEA
:102A1000003802400040014000E100E00749084A58
:102A20000B6C10B443F0080342F210744FF6FF70C1
:102A30000B649462D0625DF8044B7047003802402A
:102A4000000C0040524A5348534B5449F0B5146BA4
:102A5000534F544E544D44F001041463146B44F02E
:102A600002041463146B44F004041463546C44F4BF
:102A700080445464FC6844F48014FC60346934611C
:102A800087684A4C47F480678760C76847F4806767
:102A9000C760076847F480670760DF6847F08067B2
:102AA000DF60776947F010077761866846F4005663
:102AB0008660C66846F40056C660066846F400564E
:102AC0000660D86840F48050D860186840F4005020
:102AD0001860186A40F000701862D86840F48040AE
:102AE000D860186840F400401860186A40F0005040
:102AF0001862136C2E484FF0000E43F004034FF69B
:102B0000FF771364C5F828E0EF62AB6843F0030376
:102B1000AB60AB684FF4FA4643F47063AB606E622F
:102B20002B6843F001032B60CB6843F48053CB60E8
:102B30000B6843F400530B600B6A43F040730B6265
:102B4000CB6843F48043CB600B6843F400430B60D5
:102B50000B6A43F040530B62536C43F0020353641F
:102B6000C4F828E0E762A36843F00303A360A36806
:102B700043F47063A36066622368402143F001035D
:102B800023604FF4807280F828134260F0BD00BFCC
:102B900000380240003C01400004024000080240AE
:102BA00000000240003801400008004000040140DD
:102BB00000E100E070B4194D19492C6C194A1A4B08
:102BC0001A4E1B4844F400242C640C6844F400049E
:102BD0000C604C6A44F400444C6212689968A6FB8D
:102BE0000242D20C41EA02129A60DA6822F4805260
:102BF000DA60DA6842F00402DA60DA68302442F01F
:102C000020024FF48011DA6080F834434160DA68C2
:102C100042F40052DA6070BC704700BF00380240D6
:102C2000000802401C000020004C004083DE1B43D3
:102C300000E100E010B41A4A1A485368002BFCD196
:102C400083689B07F9D083681C06F6D4164C144A97
:102C5000A369144843F00053A3610C785368002B18
:102C6000FCD183689B07F9D083681906F6D4036802
:102C70001B050FD40D4B0A4A0A491C705368002BE0
:102C8000FCD18B689807F9D08B681B06F6D45DF8E9
:102C9000044B7047036823F400630360EAE700BF56
:102CA00088600240003C0040000802400C3C0040AC
:102CB000F8B50C460968FFF7BDFF1A492568636837
:102CC0008A695B1B42F40052012B8A6128D90127D3
:102CD000154B164EA1F5E63138465A68002AFCD14C
:102CE0008A689207F9D08A681206F6D40A68ED5D00
:102CF000170503D50A6822F400620A6035705A6825
:102D0000002AFCD18A689507F9D08A681206F6D4A1
:102D1000256862680130C0B2521B90420746DCD37E
:102D2000F8BD00BF00080240886002400C3C004033
:102D300030B4254D0C88AB69244A254843F4005330
:102D4000AB61240A5368002BFCD183689B07F9D040
:102D500083681D06F6D403681B052FD41D4B1B4A40
:102D60001B481C705368002BFCD183689D07F9D069
:102D700083681C06F6D40878144A15495368002B5A
:102D8000FCD18B689B07F9D08B681D06F6D40B68C5
:102D90001C050ED40F4B0D4A0D4918705368002BBB
:102DA000FCD18B689807F9D08B681B06F6D430BC31
:102DB00070470B6823F400630B60EBE7036823F4B0
:102DC00000630360CAE700BF000802408860024059
:102DD000003C00400C3C004030B585B004AD2A24D6
:102DE00005F8014DADF8061004462946ADF804205B
:102DF000ADF80230FFF71EFF20460DF10601FFF788
:102E000097FF20460DF10201FFF792FF2B23294681
:102E100020468DF80F30FFF70DFF204601A9FFF780
:102E200087FF08A92046FFF783FF05B030BD00BF2C
:102E300030B583B002AB362203F8012D0C4619469B
:102E40000546FFF7F7FE032C03D8DFE804F07B52BA
:102E50002F0C012C2C706ED94FF4A072F0236A80D5
:102E6000AB8003B030BD5248524A8369524943F4A3
:102E7000005383615368002BFCD18B689B07F9D00A
:102E80008B681806F6D40B681B057DD44B4B494A5A
:102E90004949E82018705368002BFCD18B689807CB
:102EA000F9D08B681B06F6D42C70D5E74048414A10
:102EB0008369414943F4005383615368002BFCD17B
:102EC0008B689B07F9D08B681806F6D40B681A0537
:102ED00069D43A4B374A3849282018705368002B78
:102EE000FCD18B689B07F9D08B681806F6D42C7040
:102EF000B2E72F482F4A83692F4943F40053836177
:102F00005368002BFCD18B689B07F9D08B6818069F
:102F1000F6D40B681A053CD4284B264A264988204B
:102F200018705368002BFCD18B689B07F9D08B6815
:102F30001806F6D42C70F0224FF4A0736A80AB8090
:102F400003B030BD1A481B4A83691B4943F4005340
:102F500083615368002BFCD18B689B07F9D08B6889
:102F60001806F6D40B681A0518D4144B114A1249E6
:102F7000582018705368002BFCD18B689B07F9D040
:102F80008B681806F6D4D5E70B6823F400630B6052
:102F90007CE70B6823F400630B60BDE70B6823F448
:102FA00000630B60E1E70B6823F400630B6090E7BC
:102FB0000008024088600240003C00400C3C004099
:102FC00070B584B05D1ABDF820400094A41A013495
:102FD000099E05FB04440546FFF7FEFE04A92C23C9
:102FE00001F8013D3388EB802846FFF723FE224895
:102FF000224B8169224E234A41F4005181611968B4
:103000004FF4606041F400611960F0601168B4F53C
:10301000803F21F48061116020D36408063554603C
:10302000D560116841F001011160596841F0020159
:10303000596018465368002BFCD181688907F9D084
:1030400083681B06F6D40E4B4FF46061D960546060
:10305000136843F00103136004B070BD063554607B
:10306000D560116841F0010111605A6842F0020216
:103070005A6004B070BD00BF00080240003C004030
:10308000006002408860024010B58488438882B0A6
:10309000013C0022A4B2013B019100949BB2114675
:1030A000FFF78EFF02B010BDF0B5A64A936943F05A
:1030B0008043936187B0054644F62063013BFDD110
:1030C000A04A936943F48043936144F62063013B33
:1030D000FDD106AE012306F80C3D28463146FFF728
:1030E000A9FD4CF25033013BFDD10620039304931C
:1030F000059305F062FA944A03900346106892889B
:1031000018609A8028460633314605930493FFF7EA
:10311000CFFD039808B105F049FA0023042003937A
:103120000493059305F049FA884B03901B680360EC
:103130003146031D284605930493FFF7B9FD039814
:1031400008B105F033FA0023042003930493059398
:1031500005F033FA7E4B03901B6803603146031D74
:10316000284605930493FFF7A3FD039808B105F0E3
:103170001DFA0023032003930493059305F01DFA21
:10318000744A03900346118894780180C21C31462A
:1031900028469C7005920492FFF78AFD039808B1B7
:1031A00005F004FA0023052003930493059305F02A
:1031B00004FA694A039003461068127918601A717C
:1031C00028460533314605930493FFF771FD0398B4
:1031D00008B105F0EBF90023022003930493059353
:1031E00005F0EBF95D4B03901B8803803146831C8F
:1031F000284605930493FFF75BFD039808B105F09B
:10320000D5F90023022003930493059305F0D5F923
:10321000534B03901B8803803146831C284605933B
:103220000493FFF745FD039808B105F0BFF90023AB
:10323000022003930493059305F0BFF9494B0390D3
:103240001B8803803146831C284605930493FFF7AF
:103250002FFD039808B105F0A9F90023032003937B
:103260000493059305F0A9F93F4A0390034611889A
:1032700094780180C21C314628469C7005920492C5
:10328000FFF716FD039808B105F090F9002302201E
:1032900003930493059305F090F9344B03901B8836
:1032A00003803146831C284605930493FFF700FDF5
:1032B000039808B105F07AF90023022003930493E0
:1032C000059305F07AF92A4B03901B880380314659
:1032D000831C284605930493FFF7EAFC039808B182
:1032E00005F064F90023022003930493059305F08D
:1032F00064F9204B03901B8803803146831C2846C9
:1033000005930493FFF7D4FC039808B105F04EF938
:103310000023032003930493059305F04EF9164A06
:1033200003900346118894780180C21C31462846D8
:103330009C7005920492FFF7BBFC0398F0B105F076
:1033400035F91BE0000802409C950208A49502088C
:10335000A8950208AC950208B0950208B895020835
:10336000BC950208C0950208C4950208C8950208D9
:10337000CC950208D0950208D495020800230420B9
:1033800003930493059305F018F9684B03901B68A9
:1033900003603146031D284605930493FFF788FC1C
:1033A000039808B105F002F9002302200393049367
:1033B000059305F002F95E4B03901B8803803146AC
:1033C000831C284605930493FFF772FC039808B109
:1033D00005F0ECF80023052003930493059305F012
:1033E000ECF8544A039003461068127918601A7179
:1033F00028460533314605930493FFF759FC03989B
:1034000008B105F0D3F80023052003930493059336
:1034100005F0D3F8484A0390034610681279186003
:103420001A7128460533314605930493FFF740FC93
:10343000039808B105F0BAF800230220039304931F
:10344000059305F0BAF83D4B03901B880380314685
:10345000831C284605930493FFF72AFC039808B1C0
:1034600005F0A4F80023102003930493059305F0BE
:10347000A4F8334F039004460FCF04F110072060E7
:10348000616028463146A260E36005970497FFF724
:103490000FFC039808B105F089F80023102003936E
:1034A0000493059305F089F8264F039004460FCF47
:1034B00004F110072060616028463146A260E36095
:1034C00005970497FFF7F4FB039808B105F06EF831
:1034D0001123314628468DF80C301B4CFFF7AAFB10
:1034E000013CFDD12923314628468DF80C30FFF7E9
:1034F000A1FB2C23314628468DF80C30FFF79AFBB0
:1035000028460321FFF794FCAA886B880196013AAC
:1035100092B2013B00929BB2284622462146ADF86A
:103520000C40FFF74DFD07B0F0BD00BFD895020875
:10353000DC950208E0950208E8950208F09502087B
:10354000F49502080496020840420F0070B584B05A
:103550005D1ABDF820400094A41A013405FB044410
:103560000646099DFFF738FC04A92C2301F8013D0C
:103570003046FFF75FFB0F480F4A81690F4E104B33
:1035800041F40051816111684FF4606041F40061C1
:103590001160F060196841F4806119605C60DD6061
:1035A000196841F001011960536843F00203536048
:1035B00004B070BD00080240003C004000600240C2
:1035C0008860024030B585B01D4600920B46044627
:1035D000FFF702FC04A92C2301F8013D2046FFF768
:1035E00029FB29462046FFF7A3FB05B030BD00BFED
:1035F0002DE9F04F0F46418889B08F42A8BF01F1F5
:10360000FF3704921D46A8BFBFB2049ABDF84860B8
:10361000DDF84CB099428388DCBF01F1FF35ADB2D3
:103620009A42814602DB5A1E92B20492B342DCBF38
:1036300003F1FF36B6B2BD4202DB2B463D461F46C4
:10364000049A964202DB334604931646049BA7EB8A
:1036500005089A1B1FFA88F892B20FFA88F30592B0
:103660000FFA82FA3BB3BAF1000F24D0534539DD8B
:1036700003EBD37464105B420393DBF80030ADF8C6
:103680001E3032460DF11E0329464846FFF79AFFC9
:10369000BD4206F101031FD0039A944204DD059A4E
:1036A0000135A41A24B2ADB2544508EB0402E4DAA1
:1036B00014B29EB2E1E708ACDBF8003024F8023D1A
:1036C000049B009332463B46294648460194FFF747
:1036D00077FC09B0BDE8F08F049A9642DCD109B0BE
:1036E000BDE8F08F0AEBDA746410644224B2C2E7DA
:1036F0002DE9F0470D4641888D42A8BF01F1FF3505
:103700001E4684B0A8BFADB299428388BDF8307020
:10371000DDF834A0DCBF01F1FF36B6B29A421446A0
:10372000A4BF03F1FF34A4B2BB42DCBF03F1FF37F7
:10373000BFB2AE42804602DB33462E461D46BC4237
:1037400002DC3B4627461C460DF11009DAF8003032
:1037500029F8023D3A462B46314640468DE8800224
:10376000FFF72EFC8DE81002DAF80030ADF80E30CD
:103770003A46334631464046FFF722FC8DE81002B8
:10378000DAF80030ADF80E3031462B46224640467E
:10379000FFF716FCCDF80490DAF8006000943A4682
:1037A00040462B462946ADF80E60FFF709FC04B0F1
:1037B000BDE8F0872DE9F04F87B00646109D0491D3
:1037C0002C78039208467188119FDDF848E06A78EA
:1037D0002044884205DD0399114489B203910021F8
:1037E0000491002A61D096F89816059108464FF08A
:1037F000000C4FF4D071D5F804A001FB00F1A3F147
:1038000020096046E04609FB02CC3AF81CC0CCB166
:10381000034600220CFA02F2CC1812F4004F04F115
:103820000C0415BF3A68DEF8002026F8142026F8AC
:10383000142001339BB21A1A2C7892B2A242E9DB0F
:103840006A78184608F101081FFA88F89045C446BE
:10385000D9DB184918484B68002BFCD183689D07B9
:10386000F9D083681B06F6D4039D0598049F691E52
:103870004FF4507303FB00631144781E03F11802E8
:1038800089B203198DE806009BB22A4639463046B4
:10389000FFF75CFE96F8983613F1FF3318BF01234B
:1038A00086F8983607B0BDE8F08F96F898360593FD
:1038B000CFE700BF88600240003C00402DE9F04F98
:1038C0000B9C099E94F801909DF82800DDF830C00B
:1038D000DDF83480B9F1000F2DD0A0F1200AD4F822
:1038E00004B0247812FB0310002209FB0AFA80B20C
:1038F000964652443BF8125094B100210A4605FA0C
:1039000001F7111801323F0489B292B24CBFDCF8C2
:103910000070D8F8007026F81170A2421146EEDB54
:103920000EF1010E1FFA8EFE1844CE4580B272468B
:10393000DFDBBDE8F08FBDE8F08F00BF2DE9F04F71
:1039400093E8500085B02644A6420E9DDDF83C90D9
:10395000DDF8408013D082468B46174614F8013BB1
:10396000CDF8088059468DE820023A465046FFF7C8
:1039700021FF2978A64259441FFA81FBEED105B0F8
:10398000BDE8F08F2DE9F04F87B0119CDDF840B015
:10399000129E94E8A0002F44AF4218D082460C46F5
:1039A00091469846149B0493139B0393029615F833
:1039B000013B019321464346CDF800B04A465046AC
:1039C000FFF77CFF3378AF421C44A4B2EAD107B0C2
:1039D000BDE8F08F70B50646806B68B1F56DF46C8C
:1039E0000435AC4206D254F8040B04F0DFFDA542C6
:1039F000F9D8B06B04F0DAFD304670BD70B50546FD
:103A000082B001B3541A0F2C0E4601940AD82B68C9
:103A1000012C184613D064B9019A6A6000219954A8
:103A200002B070BD002201A90FF098F9019B286037
:103A3000AB60224631461FF046F92B68ECE732783E
:103A40001A702B68E8E712B102481AF0F4FE0192EE
:103A50000368E1E74C95020870B5C469066AB44290
:103A6000054612D0206A04F12803984201D004F0E0
:103A70009DFD606804F10C03984204F1380401D004
:103A800004F094FDA642EDD1EE6916B1304604F083
:103A90008DFD2C696E69B44212D0206A04F12803AE
:103AA000984201D004F082FD606804F10C03984252
:103AB00004F1380401D004F079FDA642EDD12E695D
:103AC00016B1304604F072FD6C68AE68B44212D094
:103AD000206A04F12803984201D004F067FD606871
:103AE00004F10C03984204F1380401D004F05EFDA7
:103AF000A642EDD16E6816B1304604F057FD284657
:103B000070BD00BF2DE9F04FCE4AADF5017D02AC8E
:103B1000002506468570A2F10B0103A80DF11408DB
:103B20002570C4F80480FFF769FFC74A2577012391
:103B300084F838300CABA2F10A0111A8236213AB50
:103B4000656284F82850E363FFF758FFBF4AE565D4
:103B50001AAB4FF0040B4FF0020AA2F10B011FA8A1
:103B6000A36521AB84F8605084F854B084F870A049
:103B70006367FFF743FFB64AC4F894500A2384F8FA
:103B80008C3028AB4FF00309A2F10A012DA8C4F82C
:103B900090302FAB84F8985084F8A890C4F8AC30DB
:103BA000FFF72CFFAB4AC4F8CC503DAB4FF00C0EE6
:103BB000A2F109013BA8C4F8E43036AB84F8D05038
:103BC00084F8E0B084F8C4E0C4F8C830FFF716FF0A
:103BD000A14AC4F8045144A805230DF5967EA2F12C
:103BE00009014FF0070BC4F8000149A884F8183107
:103BF000019384F80851C4F81CE184F8FCB0FFF785
:103C0000FDFE964AC4F83C5152A959A84FF0060E41
:103C1000C4F83811C4F85401A2F10A0157A884F875
:103C2000405184F834E184F850E1FFF7E7FE8C4A14
:103C3000019B84F86C310DF5C07E67ABA2F10B01DE
:103C400065A8C4F8745184F87851C4F870E1C4F8D8
:103C50008C3184F888B1FFF7D1FE824A84F8A4A1A0
:103C60000DF5DC7C4FF0080E75ABA2F10C0173A8CA
:103C7000C4F8AC5184F8B051C4F8A8C184F8C0E1CC
:103C8000C4F8C431FFF7BAFE7560B560F5607CAB6F
:103C90004FF4FC7084F8DC91C4F8E45184F8E851E6
:103CA000C4F8E03104F089FC00F5FC73F36000F126
:103CB0000C093346706082464E46254699460AF105
:103CC0000400BAF1000F15D06968AA682B7806F8CD
:103CD0000C3C0A4446F8086CFFF790FE2B7F296ADB
:103CE0006A6A33740AF128030A440AF120007361F6
:103CF000FFF784FE383580AB9D420AF1380A06F1A1
:103D00003806DCD14E46C9F808A01D46A5F1380991
:103D1000D9F82000A5F11003984201D004F046FC28
:103D2000D9F804002C3DA8424D4601D004F03EFCD9
:103D3000A145EBD1434AC4F804800025A2F10B0150
:103D400003A82570FFF75AFE474A25770CAFA2F16A
:103D50000801012311A8276213AF656284F8285077
:103D6000E76384F83830FFF749FE404AE5650820EC
:103D70001AAFA2F10D010223A76584F8540021AF08
:103D80001FA884F86050676784F87030FFF736FE2C
:103D90002F4AC4F8945028AFA2F10A014FF00D0E3B
:103DA00003232DA8C4F890702FAF84F8985084F89E
:103DB0008CE084F8A830C4F8AC70FFF71FFE3561C2
:103DC0007561B5610C2336AAE020C4F8CC5084F8A4
:103DD000D05084F8C430C4F8C82004F0EEFB00F1E1
:103DE000E003B36100F10C093346306183464E466F
:103DF00025460DF1E80A99460BF10400BBF1000FCE
:103E000015D06968AA682B7806F80C3C0A4446F875
:103E1000086CFFF7F3FD2B7F296A6A6A33740BF194
:103E200028030A440BF120007361FFF7E7FD3835E2
:103E300055450BF1380B06F13806DDD14E46C9F871
:103E400014B015E0E7AA0208F2AA0208FFAA0208C5
:103E50000AAB020815AB020821AB02082EAB020820
:103E60003BAB020848AB020854AB020865AB020842
:103E7000A5F13809D9F82000A5F11003984201D026
:103E800004F094FBD9F804002C3DA8424D4601D023
:103E900004F08CFBA145EBD1434AC4F80480002513
:103EA000A2F10A0103A82570FFF7A8FD3F4A656249
:103EB0000CAFD11F4FF0040E012311A8276213AFDE
:103EC00084F82850E76384F81CE084F83830FFF762
:103ED00095FD374AE5651AABA2F10A014FF0020ED3
:103EE0001FA80927A36521AB84F86050636784F895
:103EF000547084F870E0FFF781FDF56135627562FA
:103F00000B2328AAA820C4F8945084F8985084F869
:103F10008C30C4F8902004F050FB00F1A8037362C9
:103F20003346F06100F10C0725460DF1B009064655
:103F30009846301DAEB16968AA682B7807F80C3C2A
:103F40000A4447F8087CFFF759FD2B7F296A6A6A03
:103F50003B7406F128030A4406F120007B61FFF759
:103F60004DFD38354D4506F1380607F13807E0D1EB
:103F70004346B046C3F820801E46A5F13807386A8C
:103F8000A5F11003984201D004F010FB78682C3D95
:103F9000A8423D4601D004F009FBA742EDD13046CE
:103FA0000DF5017DBDE8F08FF2AA02086FAB0208A3
:103FB0007AAB0208A84AA949136923F00103F0B5B6
:103FC00013610B785A1E012A40F2C3801BB1032BE8
:103FD00000F07A81F0BDA24BA24E1888DC88998946
:103FE0005A8AA14DA4B214FA80F010FA81F111FAA4
:103FF00082F292B232805A889C4C92B2B2F57A5FC9
:10400000CCBF1A895A881889DF89998ABFB217FAF2
:1040100080F010FA81F192B20A4492B2228098881C
:104020005F89198ADB8A924ABFB217FA80F010FAC8
:1040300081F111FA83F39BB22B801378002B00F0EF
:10404000C3808C491378A3B10B788B4F103340F2A7
:104050003F1037F813309BB283420AD10B78874F59
:1040600013F1FF334FF0000018BF01230B703880AD
:104070001070137843B9824B1B782BB1814B0878B1
:104080001B78984200F02F8208787F4BDFF80CE213
:104090001F88368800EB8000800110FA87F0B6B2E6
:1040A0002EF8106008781E882488DFF8F4E1774F36
:1040B00000EB8000800110FA86F0A4B22EF81040C8
:1040C0000C781E882D886C48DFF8CCE104EB840462
:1040D000A40114FA86F4ADB227F814504468248879
:1040E000A4B2AEF800401C8840F23F15A4B2AC4226
:1040F00000F0CA811C880134A4B21C800D781035F0
:1041000030F815400134A4B220F815401278002A86
:104110007FF460AF594C2288013292B2228022880B
:1041200092B2B2F57A7F7FF755AF1A8892B2002A21
:1041300040F0AD810B7813F1FF3318BF01230B70F2
:1041400022800B78103300EB430301219A80818297
:10415000F0BD42F208024E484B4B815A1A8889B290
:1041600092B29142424A00F09D801278002A3FF4B8
:1041700031AF8278002A40F07181394C3D4A157880
:104180001A882788B4F806E0A689618A9FED417AEB
:104190001FFA8EF414FA87F414FA86F414FA81F1F3
:1041A00007EE901AF8EEE77AF5EE006AA7EEE67AE7
:1041B000A90211FA82F200EB820080ED027A1A88DD
:1041C000013292B21A80F0BD2D4B2A491B782BB1D7
:1041D0002C4B08781B7898423FF434AF2648D0F82F
:1041E00004E0BEF1000F00F06C81244FB0F9003004
:1041F0003F88BFB29F427FF725AF274FB0F802C07C
:104200003F88BFB26745BFF61DAFBEF80070BFB2B2
:10421000BC453FF717AF01271770DFF86CE00F7848
:10422000BEF800E09BB2103700EB4707AEEB030E81
:104230000FFA8EFEA7F804E00F78103700EB47075F
:10424000BF883F0400F130810F78013B10379BB2EB
:1042500020F81730F6E600BF00040040602101207E
:10426000DC0200203C210120402101203E210120D0
:104270004C21012048210120BC8201204221012043
:1042800064210120612101204A210120381C0120E4
:104290006821012000E0FF44B8820120381201208B
:1042A00038170120117800293FF45FAF934909784E
:1042B00042F21405014401264E5500241470127870
:1042C000002A7FF456AF85E68D4B8E4A9B788E4E42
:1042D000002B40F0D2801088D4889189538AA2B2F2
:1042E00012FA80F212FA81F212FA83F39BB2874A31
:1042F00033801378864C23BB86482188038889B293
:104300009BB299421DDA3188038889B29BB29942E7
:1043100017DB814890F83A3013B190F83B3083B9FD
:104320000123137090F83A30744D7C4F0021DBB2BA
:104330002B7039802B7880F83210143300EB430057
:10434000C1801378002B7AD06C4F744B3978188861
:104350003588DFF8D4E101EB8101890111FA80F1A0
:10436000A8B22EF81100198889B200296BD0694DC6
:104370002088298880B289B2884264DA3088298806
:1043800080B289B288425EDB634890F83210457C87
:104390000131C9B28D4280F8321050D13978B3F86A
:1043A00000E05F4D143100EB41011FFA8EFEA1F8D1
:1043B00006E0397801444FF0010E81F83AE03F7889
:1043C0001988D5F828E089B207EE901A0EF101019C
:1043D00007EE101AF8EEE77AE96ADFF850E177EEB7
:1043E000A77AB8EE477A013127EE877A07EE901A5E
:1043F000DEF80010F8EE677A67EE277A07EE101AFB
:10440000B8EE477A07F10E01C7EE276A00EB81008C
:104410000021C0ED016A11701A8892B2B2F58C7F4A
:104420000DDA1B88E96A3F4A9BB201FB0333DB08C4
:10443000A2FB032343F34F03002B00DDEB62338821
:104440009BB22380F0BD198840F23F1089B28142AF
:1044500023D01A88013292B21A80F0E7012A43D0A1
:10446000022A7FF4ACAE274C244A15781A88A78814
:10447000B4F80AE0268AE18A88E6012B08D0908801
:104480005489118AD38A2AE700241C8036E6F0BDBD
:1044900050881489D189938A21E700232049137019
:1044A000CB6A1E33CB62CAE70F78103700EB4707A1
:1044B000B7F804E00EF5A07E0FFA8EFEA7F804E030
:1044C000C2E6164B01271770A3F800E00B781033F3
:1044D00000EB43034FF6FF77A3F804E00B781033AB
:1044E00020F81370AEE5F0BD064C044A15781A8822
:1044F0006788B4F808E0E689A18A47E648210120E8
:1045000068210120DC0200203C2101204C210120F7
:10451000B882012004000020BC8201204A21012031
:10452000000400400FEAA00E381201201C000020F9
:10453000264B5B69580516D5254B1B69590504D4D4
:10454000244A536943F001035361224B20491A68FE
:1045500042F001021A600A6952052BD41B4A5369C2
:1045600043F480635361194B5B69980421D51A4B5E
:104570001B69990404D4174A536943F0010353613A
:10458000144B15491A6842F001021A600A69920434
:1045900009D55A6A642A06D9104A012111701A688D
:1045A00022F001021A60094A536943F4005353612F
:1045B000704770475A6A642AD0D9094A012111709C
:1045C0001A6822F001021A60C8E700BF003C0140EF
:1045D00000000240000C004000040240662101205F
:1045E000652101200449054A0B6923F001030B6191
:1045F00013680133136070470040014058210120C7
:1046000030B40B490B4C4B7D25680B4A6468CC5485
:10461000013382FB0324DA17887DC2EBE40202EB4C
:1046200082020130A3EB820388754B7530BC704762
:1046300038820120004C004067666666024A1368B3
:1046400001331360704700BF382101202DE9F04F7E
:104650002DED048BBFB002F0EDF9FEF70BF802F080
:104660000FFAFEF7BBF9FEF7D9F9FEF76DF8FEF782
:10467000DDF8FEF7E7F9FEF79DFAFEF745F8AF48DB
:10468000FEF712FDAE4B1B69580502D5AD48FCF78D
:10469000F7FDFEF77DF9AC48DFF8F4B2DFF804A3CC
:1046A000DFEDAA8A9FEDAA8A9FEDAA9A03F0C4FDC6
:1046B000A94BAA4A1B88D2ED006AA94A1BB2C3F5CE
:1046C000005307EE903AF8EEE77A87EEA67AFCEE12
:1046D000C77ACDED057ABDF8143013809A4803F0FF
:1046E0006FFE984B1B785BB1964B9E4A5B681268D5
:1046F00003F526331033934202D29248FCF780FD33
:10470000914B99780029E9D1974B1B78042B00F045
:10471000C1835A1E012A40F2C183002B40F0CD8193
:10472000DFF8849299F80030002B3DD18F4B1B7835
:10473000002B40F0A683BBF81430002B34D08C4BF8
:104740001B78B3FA83F35B098A4C9BF80D208AF837
:1047500000300021012389F800302180002A00F078
:1047600055859BF90C30072B00F0BA85022B40F3DE
:104770009E85042B00F09B85022213F001038BF829
:10478000162040F005867C496C220B807B497C4BCF
:104790000A805A697B4942F001025A611A68002076
:1047A00042F001021A60086099F80030002B95D0A1
:1047B0006F4B9AF800101A78914200F066856D4CA4
:1047C0009AF800307049714E714810330BEB430377
:1047D0009D8823889AF800209BB203FA85F381FB19
:1047E0000315D917C1EBE51101EB8101A3EB811191
:1047F00002EB82028DB205EB821106EB410102F061
:1048000095F89AF800306349079003EB830305EBB2
:10481000831301EB43015E4802F088F8564B5E4972
:104820001A889AF8003003EB830310FA82F205EB42
:10483000831301EB4301564893B2089302F076F8D4
:104840004E4B1A88238810FA82F292B29BB20992D8
:10485000002B40F01385BDF81C20ABF82820BDF8D4
:104860002020ABF82A20BDF82420ABF82C208BF8B0
:104870001C30ABF81E309AF8003003EB830305EBD5
:10488000831336F81320364B1B8892B29BB29A42A0
:1048900080F28C8001238BF81C309AF8003003EBF7
:1048A000830305EB83152E4B36F815201B8892B237
:1048B0009BB29A427ADBBBF81E30BBB3228892B21D
:1048C000D21A032A32DD9BED066AB5EEC06AF1EE1C
:1048D00010FA40F3608522883048D31A816AC26A90
:1048E0009BB207EE903A4B1CF8EEE77A07EE103ACF
:1048F000013277EEA76AB8EE477A294B07EE902A85
:1049000026EE877AF8EE677AD3ED006A67EE277AAB
:10491000F8EE666AF0EE085A86EEA77AF5EE007AAF
:10492000A6EE257A67EE277ACBED067A2388ABF8D8
:104930001E3000238BF81C3038E000BF987B01202C
:1049400000000240502101200083012000008C4221
:1049500000002043000000000600002008000020A6
:104960000400002038210120602101204C21012079
:1049700048210120622101204421012046210120FB
:104980000040014058210120676666663812012008
:10499000BC82012038170120381C0120000400408F
:1049A0001C0000206121012064210120BBF8288027
:1049B000079A089890451346BCBF079B0F93BBF816
:1049C0002A30A4BFCDF83C80904683420A93B3BFFF
:1049D000089B11930A9011930998BBF82C300B9304
:1049E0008342B6BF099B109310932388A8BF0B90F6
:1049F0009BB21A2B40F3118423889BB2FA2B00F34D
:104A00000C84002312931E469BF816309BF812204C
:104A10009BF80CE00C931BB213935B0011460EF055
:104A2000020544F2D03C0D930EF001030E926E4F3E
:104A3000059300220CFB01FC0EF0040E06950BE022
:104A4000434518DB0F998B4215DC9B1B63444FF4E5
:104A5000FC6127F81310013223889BB21A2BCCBFBC
:104A6000D821CC21D3B29942C0F23682B342F2DBD4
:104A700005990029E4D1069961B10A998B4209DBB5
:104A800011998B4206DC9B1B634440F21D5127F8B1
:104A90001310E0E7BEF1000F00F0BC810B998B42D0
:104AA000C0F2B88110998B4200F3B4819B1B634420
:104AB0004FF6E43127F81310CDE7032B7FF40EAE49
:104AC0009BF83330002B40F0AD839BF83A20002A4E
:104AD00000F0A883BBF83820BBF8303092B29BB20C
:104AE0009A4203DA9BF83430002B73D19BF83A30AA
:104AF000002B00F0B183BBF83820BBF8303092B205
:104B00009BB29A4214BF9BF8343000238AF80030DD
:104B10009AF800209AF80030344918330BEB43031D
:104B20000020D8809AF800300E330BEB830393ED0E
:104B3000010A01240BEB020332A8224683F833401A
:104B400002F02EFB339A6FF000439B1A032B40F2C6
:104B5000A88432A8042226490EF0A0FB3AAC0646EF
:104B6000389456F8083BB342054600F073843893F6
:104B700083683A936B681F48399300212CAA26ABAF
:104B8000696029722E6000900292083801932C917E
:104B90004FF6FF7538ABE0228C212695FEF7CEFE4E
:104BA0003898A04201D003F001FD329834AB98420E
:104BB00001D003F0FBFC104B10495A6942F001028E
:104BC0005A611A68002042F0010201241A608BF831
:104BD0001640086000238AF800309AF80030012B54
:104BE00040F3AA807AE500BFF40200200083012090
:104BF00094950208A07B012000400140582101202B
:104C0000012B4FF6E43208BF1F229AF80030ADF8AE
:104C1000E02018330BEB43033146DA88BA4B92B2EB
:104C2000121B83FB0203A3EBE27292B2B74803F0BC
:104C300097FC9AF8003018330BEB430345F28A21B6
:104C4000DA88ADF8E01092B2121B48BF073207466F
:104C5000C2F3CF023146AD4803F082FC9AF800302F
:104C6000BBF8282018330BEB4303DB8800929BB280
:104C70009E3BA342BDF818300196CBBF0027BE462D
:104C8000BE46074619462A46A148CDF8E0E0FEF7A1
:104C9000AFFC9AF80030BBF82820009214330BEBDD
:104CA00043030196DB889A4838979BB298FBF3F34D
:104CB0009BB219462A46FEF79BFC9AF80030ABF8E7
:104CC000285018330BEB43030134DB889BB2A3421B
:104CD0000CDB9AF8003014330BEB430309F58069C1
:104CE000DB889BB2A34208F5A07853DA9AF800302B
:104CF00018330BEB4303DA88013292B2DA809AF868
:104D0000003018330BEB4303DA889AF80030143381
:104D10000BEB430392B2DB889BB2A0339A4200F0C4
:104D200091809AF800300133DBB28AF800309AF8AB
:104D30000030012B3FF7D2AC9AF800305B4493F877
:104D40003330002BEDD09AF8003018330BEB4303CF
:104D5000DC889AF8003018330BEB4303A4B2DB88ED
:104D6000A03C24EAE4749BB2A342BFDB9AF8003073
:104D700014330BEB4303DB889BB2A342B6DB654BDA
:104D8000059304EB8408644B07934FEA88184FEAB5
:104D9000842938AE9AF80030059A604814330BEB3A
:104DA0004303B0EE487ADB889AF800109BB299FB77
:104DB000F3F303F58073C3F3090303F6060302EB71
:104DC0008303D3ED007A079BA7EEA87A01EB81015C
:104DD00004EB811103EB4101FDEEC77ACDED067ABC
:104DE00001F0A4FD9AF8003018330BEB430305469D
:104DF000DB889BB2A03B23EAE373A34207D0059B69
:104E00009B78002B7FF4FCAE4FF4FC62FDE6ABF820
:104E10002850F4E7218889072CD1D8200D9990FBE0
:104E2000F1F1194405460C9895FBF0F091FBF0F573
:104E300000FB1511F1B99B1B634445F28A2127F849
:104E4000131008E69AF800109AF80020344B354DFC
:104E5000354C5A44002082F83A001A68594422F02E
:104E6000010281F833001A602A685B6A03EB02438F
:104E7000236056E79B1B63444FF0000127F8131093
:104E8000E9E5BBF81430002B7FF459AC274B1B78B5
:104E9000DBB259E4264801F01FFA1FE41D4C2046FE
:104EA000FCF7CAFD234B1A781AB95A78002A3FF446
:104EB00015AC214A1B78127883F00103012A8AF885
:104EC000003000F025829AF80010124804EB0131FE
:104ED0000831FCF7A1FF01E423889BB2042B37DCE7
:104EE0009BF90E00139B0C9A5B004000012A18BF2F
:104EF00018460E9B002144F2D0350A4605FB03F507
:104F000045F28A2622E000BF565555550083012000
:104F1000987B01206821012038120120BC820120E9
:104F200000400140582101205C210120482101203E
:104F3000388201207C4101206021012091FBF0F3A7
:104F40000B3B2B44013227F81360D8318242F5DB4A
:104F50002188238822880E9EC04892B21A2ACCBF8C
:104F6000D825CC25009548F2A07505FB0675129A48
:104F7000019589B29BB2FEF7E9FA22889BF81230BC
:104F8000BDF81C10ABF82810013292B222802288A2
:104F9000BDF82010ABF82A10B3FA83F392B25B0984
:104FA000BDF82410ABF82C10B2F5A07F8BF81230AE
:104FB00000F084812288BBF9003092B204339A4217
:104FC00000F0B0812488A4B2012C7FF487AB9BF958
:104FD0000E20A34992B214A802F05AFB00220094BA
:104FE000A04B14A811460EF0D5F81CAE04461A9634
:104FF00054F8083BA342054600F0448282681A93A5
:105000001C926B681B9300226A601B992A726FF0D6
:1050100000435B1A012B2C6040F24382022292492A
:105020001AA80EF03BF93AAC864638945EF8083B75
:105030007345844600F04182389383683A938B4FDE
:10504000DCF804303993002238AD0DF1C8080DF1B9
:10505000B009CCF800E0CCF804208CF80820114608
:10506000A7F1080045F28A2E329200972B46CDF820
:105070000880CDF804900122CDF8B0E0FEF75EFC88
:105080003898A04201D003F091FA1A98B04201D0AA
:1050900003F08CFA149816AB984201D003F086FA0C
:1050A0009BF90E206E4992B220A802F0F1FA01237A
:1050B0000022009320A86E4B11460EF06BF828AB2F
:1050C0000646269356F8083BB342864600F0EC812C
:1050D000269383682893DEF8043027930023CEF8C4
:1050E00004308EF80830279ACEF800606FF0004345
:1050F0009B1A012B40F2D58126A802225A490EF0B4
:10510000CDF80646389456F8083BB342864600F080
:10511000C081389383683A93DEF8043039930020D5
:10512000CEF80060CEF804008EF8080001463290F8
:10513000CDF8088049488DE8800245F28A262B4642
:10514000CE222C96FEF7FAFB3898A04201D003F04D
:105150002DFA269828AB984201D003F027FA209820
:1051600022AB984201D003F021FABBF81460002E64
:1051700040F052819BED060AB5EE400AF1EE10FABE
:1051800000F02F8132463649484602F009F82D9A40
:105190006FF000439B1A052B40F28381484606229C
:1051A00034490EF07BF80646389456F8083BB34273
:1051B000864600F05F81389383683A93DEF80430C6
:1051C00039934FF0000C26AA8EE840108EF808C0E4
:1051D0002B4601922148CDF808804FF6FF750097C5
:1051E0000122FA21CDF8C8C02695FEF7A7FB389812
:1051F000A04201D003F0DAF92C982EAB984201D0EE
:1052000003F0D4F98BED069AFFF768BA1A498BF8C8
:1052100016300A800022FFF7B9BA0B2312931E46FC
:10522000FFF7F2BB9BF83420002A7FF4D3AC9BF845
:105230003B20002A3FF4CEACBBF83610BBF82E2042
:1052400089B292B291425DDA002B7FF4C3AC9BF835
:105250003A30002B7FF44FAC012357E4987B0120B8
:1052600000830120D8AB02087CAB0208A07B0120A0
:1052700080AB020890AB0208442101209BF81C304F
:10528000002B7FF40AABFFF7F6BA1B78904C103373
:105290003BF81320238892B29BB29A42BFF690AAA1
:1052A000BBF81430002B7FF48BAAFFF717BA894A9A
:1052B0000021012311808BF81630ABE70021864BCB
:1052C00089F800101A68ABF8141022F00102834923
:1052D0001A6009685B6A824A03EB0143136069E65E
:1052E000032213468BF8162011467A48022B18BF6A
:1052F00090224FF0D80308BF6C2293FBF1F3038098
:10530000FFF744BA002B3FF4F1AB0123FFF7FEBBDC
:105310009AF80010734804EB01310831FDF782F967
:10532000FFF7DCB97049881E01F000FBDBF80430A0
:105330006E4A934200F09A806D4A934200F0928048
:10534000002303449EB2731FCE2B3FF63BAE3EAD0F
:105350004FF6E07745F8187DBBF800300195311D18
:1053600089B2321F009192B219466248FEF740F9A5
:10537000BBF900300195191F21EAE1710433009651
:10538000324689B29BB25B483897FEF731F919E68D
:1053900013461146A9E722885748D31A816AC26A80
:1053A0009BB207EE903A4B1CF8EEE77A07EE103A04
:1053B000013277EEA76AB8EE477A504B07EE902A93
:1053C00026EE877AF8EE677A1B6867EE277A07EE93
:1053D000103AB8EE477AC7EE276ACBED066AFFF7B8
:1053E000A5BA474A3894A2F10A012846FEF706FBFF
:1053F00026AB01933F48CDF808802B4600974FF627
:10540000FF750122FA2132962695FEF797FA389811
:10541000A0427FF4F5AEF5E63A4A3894A2F10B01CA
:105420002846FEF7EBFA4FF6FF762B463148CDF8CB
:1054300008808DE8800200250122FA212C96329501
:10544000FEF77CFA3898A0423FF448A903F0AEF882
:10545000FFF744B930687168B268F36827460FC730
:10546000FFF788BB284B1B889BB26AE7194B1B8848
:105470009BB266E730687168B268F368A446ACE82E
:105480000F009BE620686168A268E36837460FC793
:10549000B7E530687168B268F368A446ACE80F00FD
:1054A0003AE61A4819F0CAF930687168B268F368C8
:1054B0000DF1A00CACE80F000DE6DEF80000DEF800
:1054C0000410DEF80820DEF80C3025460FC5B6E5DE
:1054D0006221012044210120004001405821012087
:1054E0005C21012068210120BE8201203E21012093
:1054F00040210120987B0120000400401C00002076
:10550000A2AB02088FAB0208462101207895020861
:105510002DE9F843524E534B534FDFF86C81534DF6
:1055200096E8030003F1080406F1080284E803008A
:1055300092E8030003F1100200244FF0F00E82E81D
:1055400003004FF4A0724A48A3F802E09A801C704E
:1055500083F89846FBF710FF3846FEF7D3FA10366B
:1055600038464246434903F023F80FCE05F11807A9
:105570000FC796E80F004FF0080987E80F006C6529
:10558000AC65EC65AC632C646C64AC64EC642C6559
:10559000C5F83C9020202C756C75AC7503F00DF8A7
:1055A000EE6BA86307464FF4007003F006F8013E67
:1055B0007608034607EB860E00F5007C47F8263098
:1055C0006B646B652B642B65C5F848C0C5F858C083
:1055D000C5F84CE0C5F85CE042462846264985F807
:1055E000604085F8784002F0E3FF244B2448254DC5
:1055F000586041F6583200215A8001200A224FF0AB
:10560000070C4FF00B0E092702261C8483F80E901E
:105610005C841C729C849C74DC849C82DC851C777A
:105620001C861C85DC865C851C879C8583F83A403B
:1056300083F8324083F8334083F8344083F83B40AA
:1056400083F80CC083F80FE01F745E741A805A72DE
:105650005A8158739875D96319642C70BDE8F88322
:1056600004950208987B01200083012038820120E4
:1056700068210120593A0008D5390008BC82012070
:105680003C210120502101200000002038B5084CA9
:10569000A4F5907554F8180CA4F110029042A4F1EE
:1056A000180401D002F082FFAC42F3D138BD00BF34
:1056B00048840120F0B500F1080683B0066019B3F4
:1056C000054608460F46FAF7FDFD0F2804460190EF
:1056D00008D8012815D0D0B9002328466C6033556E
:1056E00003B0F0BD002201A928460DF037FB019B55
:1056F0002860AB60224639461DF0E5FA019C2E6811
:10570000EAE73B782B72E7E7024819F094F8304655
:10571000F0E700BF4C950208F0B51478214A224DFD
:10572000A2FB0432D20802EB4203A4EB8304E4B2EE
:1057300089B004EB44040646E400303202A801219B
:1057400004AF02970DF078FB2A192B59526800928A
:105750000022114602A80DF01DFD06F108010346C6
:10576000316053F8082B9A4211D032608268B260DF
:10577000426872600360029A0023BA424360037277
:1057800002D0104602F012FF304609B0F0BDD3F847
:1057900000E05D689C68DA687261C6F808E0F56050
:1057A0003461E5E7ABAAAAAA288301202DE9F04FCE
:1057B000D0E91A23D1E900450E46497A121B074663
:1057C0000C31C5B0C2F38F1207EB4101A94802F0BA
:1057D000C7FE97F86030727AADF81E0003EB031332
:1057E000DBB28DF81D300132A2499DF81DA008A83A
:1057F00001F04EFF099A6FF000439A4200F03583A2
:1058000008A801229C490DF049FD0DF580788446D9
:10581000CDF8F8805CF8083B6345864600F0CA8204
:105820003E9383684093DFF86092DEF804303F9344
:10583000002138AC32ADCEF804108EF80810CEF846
:1058400000C0A9F11000BDF81EE038915246CDF815
:1058500000903EAB029401950A21CDF8C8E0FEF716
:105860006DF83E98404501D002F0A0FE08980AABC2
:10587000984201D002F09AFE337AA3F10802012A7D
:105880000BD90D2B00F0B3810E2B00F018820B2BDF
:1058900000F0FC8045B0BDE8F08F092B9DF81D207D
:1058A0009DF81D3000F097813EA90E330191023220
:1058B00000934FF0000E452329217048ADF8F8E021
:1058C000FDF77EFB9DF81D209DF81D306B480F33C2
:1058D0003EA90093BDF81E3001913E93013246234C
:1058E0002821FDF705FF39460EA806F10A029DF8AA
:1058F0001DA0FFF711FF0123002200930EA85E4BAD
:1059000011460DF047FC0DF1580B8646CDF850B00E
:105910005EF8083B7345074600F06B82826814937B
:1059200016927B68159300237B6015993B726FF08C
:1059300000429142C7F800E000F0978201224E49F0
:1059400014A80DF0ABFC8646CDF8F8805EF8083B55
:105950007345074600F041823E93836840937B681D
:105960003F93002078603872C7F800E05246BDF8D7
:105970001E703890029441480195CDF800903EABDE
:1059800047213297FDF7DAFF3E98404501D002F0FB
:105990000DFE1498584501D002F008FE0E9810AB89
:1059A000984201D002F002FE354BBDF81E709DF802
:1059B0001D20029493E8030005238DF804110021B3
:1059C00040903F932D488DF8051138910195CDF801
:1059D00000903EAB7321CDF8F8803297FDF7AEFF13
:1059E0003E98404501D002F0E1FDF27A21499DF850
:1059F0001DA01AA801F04CFE1B9A6FF000439B1AE1
:105A0000022B40F232821AA803221E490DF046FCF6
:105A10000746CDF8F88057F8083BBB42064600F031
:105A2000D4813E938368409373683F934FF0000E98
:105A300086E8804086F808E01048BDF81E600294B1
:105A40003EAB52460195CDF80090AA21CDF8E0E09A
:105A50003296FDF773FF3E98404501D002F0A6FD57
:105A60001A981CAB98423FF415AF02F09FFD45B069
:105A7000BDE8F08F00830120D8AB0208987B01209D
:105A8000D4AB0208DCAB0208A87B01200DF1B00A00
:105A90009DF81D30B27ABF490593504601F0F8FDDC
:105AA0000823002200935046BB4B11460DF072FBB9
:105AB0000DF1D00B8646CDF8C8B05EF8083B7345B3
:105AC000074600F0B6813293836834937B68339342
:105AD00000237B603B72339AC7F800E06FF000430D
