:020000040800F2
:1000000000000220916A0008E16A0008E16A000825
:10001000E16A0008E16A0008E16A000800000000E7
:10002000000000000000000000000000E16A00087D
:10003000E16A000800000000E16A00089941000838
:10004000E16A0008E16A0008E16A0008E16A000864
:10005000E16A0008E16A0008E16A0008E16A000854
:10006000E16A0008E16A0008E16A0008E16A000844
:10007000E16A0008E16A0008E16A0008E16A000834
:10008000E16A0008E16A0008E16A0008E16A000824
:10009000E16A0008E16A0008E16A0008E16A000814
:1000A00045410008E16A0008E16A0008E16A0008C9
:1000B000E16A00083D3A0008E16A0008E16A0008C8
:1000C000E16A0008E16A0008E16A0008E16A0008E4
:1000D000E16A0008E16A0008E16A0008E16A0008D4
:1000E00085400008E16A0008E16A0008E16A00084A
:1000F000E16A0008E16A0008E16A0008E16A0008B4
:10010000E16A0008E16A0008E16A0008E16A0008A3
:1001100061410008E16A0008E16A0008E16A00083C
:10012000E16A0008E16A0008E16A0008E16A000883
:10013000E16A00080000000000000000E16A000819
:10014000E16A0008E16A0008E16A0008E16A000863
:10015000E16A0008E16A0008E16A0008E16A000853
:10016000E16A0008E16A0008E16A0008E16A000843
:10017000E16A0008E16A0008E16A00080000000086
:1001800000000000E16A000800000000000000001C
:10019000E16A00080000000000000000E16A0008B9
:1001A000000000000000000000000000E16A0008FC
:1001B000E16A0008E16A0008E16A0008E16A0008F3
:0401C000E16A0008E8
:1001D00010B5054C237833B9044B13B10448AFF381
:1001E00000800123237010BDC00200200000000029
:1001F0005097020808B5034B1BB103490348AFF3FE
:10020000008008BD00000000C402002050970208D2
:1002100001F0FF01102A2BDB10F0070F08D010F8B7
:10022000013B013A8B422DD010F0070F42B3F6D1BB
:10023000F0B441EA012141EA014122F007047FF0D4
:1002400000070023F0E80256083C85EA010586EA2B
:10025000010685FA47F5A3FA87F586FA47F6A5FA67
:1002600087F68EB9EED1F0BC01F0FF0102F0070273
:1002700032B110F8013B013A83EA010313B1F8D11E
:100280000020704701387047002D06BF35460338FF
:10029000073815F0010F07D1013015F4807F02BF38
:1002A000013015F4C03F0130F0BC0138704700BF89
:1002B00010F8012B11F8013B012A28BF9A42F7D010
:1002C000D01A7047034613F8012B002AFBD1181AE5
:1002D0000138704781F0004102E000BF83F0004325
:1002E00030B54FEA41044FEA430594EA050F08BFD1
:1002F00090EA020F1FBF54EA000C55EA020C7FEA95
:10030000645C7FEA655C00F0E2804FEA5454D4EB11
:100310005555B8BF6D420CDD2C4480EA020281EADB
:10032000030382EA000083EA010180EA020281EA13
:100330000303362D88BF30BD11F0004F4FEA013165
:100340004FF4801C4CEA113102D0404261EB410174
:1003500013F0004F4FEA03334CEA133302D05242FA
:1003600063EB430394EA050F00F0A780A4F10104B6
:10037000D5F1200E0DDB02FA0EFC22FA05F28018F0
:1003800041F1000103FA0EF2801843FA05F35941D6
:100390000EE0A5F120050EF1200E012A03FA0EFC55
:1003A00028BF4CF0020C43FA05F3C01851EBE3717F
:1003B00001F0004507D54FF0000EDCF1000C7EEB9C
:1003C00000006EEB0101B1F5801F1BD3B1F5001FDA
:1003D0000CD349085FEA30004FEA3C0C04F10104F9
:1003E0004FEA445212F5800F80F09A80BCF1004F22
:1003F00008BF5FEA500C50F1000041EB045141EAA4
:10040000050130BD5FEA4C0C404141EB010111F4A4
:10041000801FA4F10104E9D191F0000F04BF01464F
:100420000020B1FA81F308BF2033A3F10B03B3F12D
:1004300020020CDA0C3208DD02F1140CC2F10C02BD
:1004400001FA0CF021FA02F10CE002F11402D8BF1B
:10045000C2F1200C01FA02F120FA0CFCDCBF41EAE7
:100460000C019040E41AA2BF01EB0451294330BDB6
:100470006FEA04041F3C1CDA0C340EDC04F1140493
:10048000C4F1200220FA04F001FA02F340EA03006A
:1004900021FA04F345EA030130BDC4F10C04C4F1B0
:1004A000200220FA02F001FA04F340EA0300294690
:1004B00030BD21FA04F0294630BD94F0000F83F4DA
:1004C000801306BF81F480110134013D4EE77FEABD
:1004D000645C18BF7FEA655C29D094EA050F08BF09
:1004E00090EA020F05D054EA000C04BF19461046EA
:1004F00030BD91EA030F1EBF0021002030BD5FEA2E
:10050000545C05D14000494128BF41F0004130BD55
:1005100014F580043CBF01F5801130BD01F00045A9
:1005200045F0FE4141F470014FF0000030BD7FEA1C
:10053000645C1ABF194610467FEA655C1CBF0B4617
:10054000024650EA013406BF52EA033591EA030F2E
:1005500041F4002130BD00BF90F0000F04BF002126
:10056000704730B54FF4806404F132044FF0000559
:100570004FF0000150E700BF90F0000F04BF0021D2
:10058000704730B54FF4806404F1320410F0004538
:1005900048BF40424FF000013EE700BF42004FEA33
:1005A000E2014FEA31014FEA02701FBF12F07F43B0
:1005B00093F07F4F81F06051704792F0000F14BFAD
:1005C00093F07F4F704730B54FF4607401F00045F1
:1005D00021F0004120E700BF50EA010208BF704748
:1005E00030B54FF000050AE050EA010208BF70473D
:1005F00030B511F0004502D5404261EB41014FF4A6
:10060000806404F132045FEA915C3FF4DCAE4FF0A9
:1006100003025FEADC0C18BF03325FEADC0C18BF90
:10062000033202EBDC02C2F1200300FA03FC20FAE1
:1006300002F001FA03FE40EA0E0021FA02F114442E
:10064000C1E600BF70B54FF0FF0C4CF4E06C1CEA43
:1006500011541DBF1CEA135594EA0C0F95EA0C0FB8
:1006600000F0DEF82C4481EA030621EA4C5123EA2B
:100670004C5350EA013518BF52EA033541F480115A
:1006800043F4801338D0A0FB02CE4FF00005E1FB0D
:1006900002E506F00042E0FB03E54FF00006E1FB57
:1006A00003569CF0000F18BF4EF0010EA4F1FF049A
:1006B000B6F5007F64F5407404D25FEA4E0E6D41DA
:1006C00046EB060642EAC62141EA55514FEAC520EB
:1006D00040EA5E504FEACE2EB4F1FD0C88BFBCF567
:1006E000E06F1ED8BEF1004F08BF5FEA500E50F118
:1006F000000041EB045170BD06F0004646EA0101DE
:1007000040EA020081EA0301B4EB5C04C2BFD4EB0F
:100710000C0541EA045170BD41F480114FF0000E08
:10072000013C00F3AB8014F1360FDEBF002001F076
:10073000004170BDC4F10004203C35DA0C341BDCF0
:1007400004F11404C4F1200500FA05F320FA04F0C2
:1007500001FA05F240EA020001F0004221F00041F6
:1007600010EBD37021FA04F642EB06015EEA430E69
:1007700008BF20EAD37070BDC4F10C04C4F1200599
:1007800000FA04F320FA05F001FA04F240EA02004C
:1007900001F0004110EBD37041F100015EEA430E1D
:1007A00008BF20EAD37070BDC4F1200500FA05F23D
:1007B0004EEA020E20FA04F301FA05F243EA0203BC
:1007C00021FA04F001F0004121FA04F220EA0200CB
:1007D00000EBD3705EEA430E08BF20EAD37070BD11
:1007E00094F0000F0FD101F00046400041EB0101F1
:1007F00011F4801F08BF013CF7D041EA060195F0D3
:10080000000F18BF704703F00046520043EB03038C
:1008100013F4801F08BF013DF7D043EA0603704779
:1008200094EA0C0F0CEA135518BF95EA0C0F0CD084
:1008300050EA410618BF52EA4306D1D181EA0301CA
:1008400001F000414FF0000070BD50EA410606BFC4
:100850001046194652EA430619D094EA0C0F02D109
:1008600050EA013613D195EA0C0F05D152EA03364E
:100870001CBF104619460AD181EA030101F000416C
:1008800041F0FE4141F470014FF0000070BD41F0B5
:10089000FE4141F4780170BD70B54FF0FF0C4CF48F
:1008A000E06C1CEA11541DBF1CEA135594EA0C0FAE
:1008B00095EA0C0F00F0A7F8A4EB050481EA030EFB
:1008C00052EA03354FEA013100F088804FEA0333E2
:1008D0004FF0805545EA131343EA12634FEA0222B0
:1008E00045EA111545EA10654FEA00260EF0004171
:1008F0009D4208BF964244F1FD0404F5407402D2C3
:100900005B084FEA3202B61A65EB03055B084FEA53
:1009100032024FF480104FF4002CB6EB020E75EB50
:10092000030E22BFB61A754640EA0C005B084FEA78
:100930003202B6EB020E75EB030E22BFB61A7546F5
:1009400040EA5C005B084FEA3202B6EB020E75EB40
:10095000030E22BFB61A754640EA9C005B084FEAB8
:100960003202B6EB020E75EB030E22BFB61A7546C5
:1009700040EADC0055EA060E18D04FEA051545EAB4
:1009800016754FEA06164FEAC30343EA52734FEA5D
:10099000C2025FEA1C1CC0D111F4801F0BD141EAD6
:1009A00000014FF000004FF0004CB6E711F4801F3B
:1009B00004BF01430020B4F1FD0C88BFBCF5E06F1B
:1009C0003FF6AFAEB5EB030C04BFB6EB020C5FEA2B
:1009D000500C50F1000041EB045170BD0EF0004E80
:1009E0004EEA113114EB5C04C2BFD4EB0C0541EAB2
:1009F000045170BD41F480114FF0000E013C90E6AF
:100A000045EA060E8DE60CEA135594EA0C0F08BF72
:100A100095EA0C0F3FF43BAF94EA0C0F0AD150EA71
:100A200001347FF434AF95EA0C0F7FF425AF104604
:100A300019462CE795EA0C0F06D152EA03353FF42C
:100A4000FDAE1046194622E750EA410618BF52EAA9
:100A500043067FF4C5AE50EA41047FF40DAF52EA7D
:100A600043057FF4EBAE12E74FF0FF3C06E000BF1A
:100A70004FF0010C02E000BF4FF0010C4DF804CD27
:100A80004FEA410C7FEA6C5C4FEA430C18BF7FEAE7
:100A90006C5C1BD001B050EA410C0CBF52EA430C15
:100AA00091EA030F02BF90EA020F0020704710F195
:100AB000000F91EA030F58BF994208BF90422CBF24
:100AC000D8176FEAE37040F0010070474FEA410C1D
:100AD0007FEA6C5C02D150EA013C07D14FEA430C3B
:100AE0007FEA6C5CD6D152EA033CD3D05DF8040BAC
:100AF000704700BF8446104662468C4619466346DE
:100B000000E000BF01B5FFF7B7FF002848BF10F1B4
:100B1000000F01BD4DF808EDFFF7F4FF0CBF0120F9
:100B200000205DF808FB00BF4DF808EDFFF7EAFF75
:100B300034BF012000205DF808FB00BF4DF808ED30
:100B4000FFF7E0FF94BF012000205DF808FB00BF25
:100B50004DF808EDFFF7CEFF94BF012000205DF8AF
:100B600008FB00BF4DF808EDFFF7C4FF34BF0120BC
:100B700000205DF808FB00BF4FEA410C7FEA6C5C87
:100B800002D150EA013C0AD14FEA430C7FEA6C5C87
:100B900002D152EA033C02D14FF0000070474FF0FF
:100BA000010070474FEA410212F5001215D211D52B
:100BB0006FF47873B3EB625212D94FEAC12343F05A
:100BC000004343EA505311F0004F23FA02F018BFDC
:100BD000404270474FF00000704750EA013005D1A5
:100BE00011F0004008BF6FF0004070474FF0000068
:100BF000704700BF4A0011D212F5001211D20DD574
:100C00006FF47873B3EB62520ED44FEAC12343F012
:100C1000004343EA505323FA02F070474FF00000BC
:100C2000704750EA013002D14FF0FF3070474FF06B
:100C3000000070474FEA4102B2F1E04324BFB3F530
:100C4000001CDCF1FE5C0DD901F0004C4FEAC00243
:100C50004CEA5070B2F1004F40EB830008BF20F027
:100C60000100704711F0804F21D113F13872BCBFE1
:100C700001F00040704741F480114FEA5252C2F136
:100C80001802C2F1200C10FA0CF320FA02F018BF7F
:100C900040F001004FEAC1234FEAD32303FA0CFCD2
:100CA00040EA0C0023FA02F34FEA4303CCE77FEA61
:100CB000625307D150EA01331EBF4FF0FE4040F4AB
:100CC0004000704701F0004040F0FE4040F400005A
:100CD000704700BF53B94AB9002908BF00281CBF9C
:100CE0004FF0FF314FF0FF3000F07AB9ADF1080C52
:100CF0006DE904CE00F006F8DDF804E0DDE902233A
:100D000004B070472DE9F0478C460D460446089E16
:100D1000002B51D18A4217466DD9B2FA82FEBEF13C
:100D2000000F0BD0CEF1200C01FA0EF520FA0CFCCE
:100D300002FA0EF74CEA050C00FA0EF44FEA174AD5
:100D4000250CBCFBFAF81FFA87F90AFB18CC45EA18
:100D50000C4508FB09F3AB420AD9ED1908F1FF3243
:100D600080F02381AB4240F22081A8F102083D448B
:100D7000ED1AA4B2B5FBFAF00AFB105544EA05449B
:100D800000FB09F9A14509D9E41900F1FF3380F00E
:100D90000A81A14540F2078102383C44A4EB0904D2
:100DA00040EA08400021002E61D024FA0EF400230E
:100DB00034607360BDE8F0878B4207D9002E54D0B1
:100DC000002186E821000846BDE8F087B3FA83F1E8
:100DD000002940F08E80AB4202D3824200F2FA80BA
:100DE000841A65EB03050120AC46002E3FD086E84F
:100DF0001010BDE8F08712B90127B7FBF2F7B7FA78
:100E000087FEBEF1000F34D1EB1B3A0C1FFA87FCB2
:100E10000121B3FBF2F8250C02FB183345EA034528
:100E20000CFB08F3AB4207D9ED1908F1FF3002D2F1
:100E3000AB4200F2D1808046ED1AA3B2B5FBF2F0CE
:100E400002FB105543EA05440CFB00FCA44507D9FE
:100E5000E41900F1FF3302D2A44500F2B88018462D
:100E6000A4EB0C0440EA08409DE731463046BDE85B
:100E7000F087CEF1200405FA0EF307FA0EF720FAF8
:100E800004F83A0C25FA04F448EA0308B4FBF2F13A
:100E90004FEA184502FB11441FFA87FC45EA044556
:100EA00001FB0CF3AB4200FA0EF409D9ED1901F184
:100EB000FF3080F08A80AB4240F2878002393D44A7
:100EC000EB1A1FFA88F5B3FBF2F002FB103345EA88
:100ED000034500FB0CF3AB4207D9ED1900F1FF38D5
:100EE0006FD2AB426DD902383D44EB1A40EA014162
:100EF0008FE7C1F1200722FA07F88B4005FA01F4C9
:100F000048EA030320FA07FE4FEA134CFD404EEA7D
:100F1000040EB5FBFCF94FEA1E440CFB19551FFAF1
:100F200083F844EA054509FB08F4AC4202FA01F2F1
:100F300000FA01FA08D9ED1809F1FF3043D2AC42AA
:100F400041D9A9F102091D442D1B1FFA8EFEB5FBE4
:100F5000FCF00CFB10554EEA054400FB08F8A045D8
:100F600007D9E41800F1FF3529D2A04527D9023866
:100F70001C4440EA0940A4EB0804A0FB02894C454C
:100F8000C6464D4615D312D056B1BAEB0E0364EBEC
:100F9000050404FA07F7CB401F43CC403760746068
:100FA0000021BDE8F0871846F8E69046E0E6C24525
:100FB000EAD2B8EB020E69EB03050138E4E72846F4
:100FC000D7E7404691E78146BEE7014678E7023819
:100FD0003C4445E7084608E7A8F102083D442BE7F2
:100FE000704700BF054B1B69002B00DB7047034BAC
:100FF000034A5A6002F188325A60F7E7003C024027
:1010000023016745024A136943F0004313617047A7
:10101000003C0240014BD860704700BF003C0240DA
:10102000124BDB6813F4803F1DD1104BDB6813F0CB
:10103000100F01D0062070470C4BDB6813F4807F43
:1010400001D002207047094BDB6813F0E00F01D09C
:1010500007207047054BDB6803F00203002B14BF29
:101060000820092070470120704700BF003C024063
:1010700000B583B009238DF80730FFF7D1FF8DF855
:1010800007009DF80730DBB2012B08D1FFF7C8FF3E
:101090008DF807009DF80730DBB2012BF6D09DF8E4
:1010A000070003B05DF804FB70B5064641B10129A5
:1010B0000CD002290CBF4FF400754FF4407500E0CE
:1010C0000025FFF7D5FF092803D070BD4FF48075C8
:1010D000F7E7104C236923F44073236123691D4310
:1010E0002561236923F0F8032361236943F0020398
:1010F0001E432661236943F480332361FFF7B8FF61
:10110000236923F002032361236923F0F803236199
:10111000DBE700BF003C024070B505460E46FFF716
:10112000A7FF092800D070BD094C236923F4407340
:10113000236123692361236943F0010323612E7036
:10114000FFF796FF236923F001032361EBE700BF5C
:10115000003C024001230370014B1B684360704751
:10116000382101201C4B1B784B711C4B1B88CB80FA
:101170001B4B1B688B601B4B1A888A815A880A613B
:101180005B68194A934223D0184A934222D0184AE6
:1011900093420CBF032300230B75124B1A7A4A7536
:1011A0005A7A8A755A890A831A7B8A765A7BCA7652
:1011B0009B7B0B770F4B1A784A775A788A779A7805
:1011C000CA77DA7881F820201B7981F821307047BE
:1011D0000123E1E70223DFE7602101200600002070
:1011E00008000020BC8201203C2101203E2101207A
:1011F0004021012068210120F0B58BB00346002278
:1012000002701849009101218DF804108DF8052015
:10121000154A1068CDF8220069461846FFF7A2FF6C
:1012200072B6FFF7DFFEF320FFF7F4FE022138204D
:10123000FFF73AFF092804D0FFF7E4FE62B60BB0CF
:10124000F0BD0DF1FF330DF12707084E6D465C1C14
:1012500098195978401BFFF75FFF2346BC42F6D12F
:10126000EAE700BF43464700B097020801000608BE
:1012700030B58BB0314B1868CDF822006C46304D3C
:101280000FCD0FC40FCD0FC495E8030084E8030011
:101290002C496846FFF70CF848B928490DF122009F
:1012A000FFF706F818B99DF80430012B01D00BB0F8
:1012B00030BD9DF80520244B1A70BDF90620234B44
:1012C0001A80234B029A1A60224BBDF80C201A8018
:1012D000049A5A809DF81430012B2AD0022B2AD070
:1012E000032B1D4A18BF00221A4B5A609DF8152087
:1012F0001A729DF816205A72BDF818205A819DF86E
:101300001A201A739DF81B205A739DF81C209A739B
:10131000124B9DF81D201A709DF81E205A709DF8E2
:101320001F209A709DF82020DA709DF821201A71F4
:10133000BDE70B4AD8E70B4AD6E700BFB0970208D3
:1013400000000608B4970208602101200600002072
:1013500008000020BC8201204021012068210120DA
:101360003C2101203E2101202DE9F04705460123C3
:1013700003704370002484700823C3700923037131
:10138000447183714FF4806242F20803C25242F208
:101390001403C45442F21503C45400F580430022E0
:1013A0009A6144F21C03C45044F22003C45244F234
:1013B0002203C452264A00F58043243307CA03C3DC
:1013C0001A8045F62E23EC5405F5005A0AF1180A46
:1013D0000FF27409D9E9008900261E4F07EE904AE2
:1013E000F8EEE77A77EEA77A17EE900AFFF7D6F8CD
:1013F00042464B46FFF726F932463B46FFF722F9B5
:1014000041EC100B1FF078FF51EC100BFFF712FCB2
:101410004AF8040B0134B4F5806FDFD105F5804341
:101420002D3305F5B4402D30502103F5807203F8BB
:10143000011F9342FBD113469042F6D12846BDE8E6
:10144000F08700BFAFF30080182D4454FB21094002
:10145000689702080000503F2DE9F04F2DED028BF8
:10146000A9B082460C46069142F20803C05A80B2E7
:10147000FFF772F841EC100B1FF0E2FE51EC100B7D
:10148000FFF7B8FB1FFA80F89AF80130002B00F044
:101490008E8202229E4B9A7594ED007ADFED9D7A42
:1014A00077EEC77AB1EE007A67EE877AFCEEE77ADC
:1014B000CDED057ABDF8142042F208033AF8033066
:1014C0009BB2A3F5A073002B08DD914B5988002532
:1014D000DFED906A0AF5005008302CE200253DE26D
:1014E00042F208033AF803309BB2012B40F3168115
:1014F0004FF0010B0AF5005E0EF1080ECDF81CB09E
:10150000DFED853A40E0013203889BB2043193421B
:10151000E6DD92FAA2F363FA08F39BB29342F2DD9E
:101520000C6806EB83031D680D601C60EBE7BEF8DA
:1015300000309BB203B3069B04330AF540501830C9
:101540000021D3ED007A13ED017A37EE677A83ED4F
:10155000007AC0ED013A13ED017A77EE877A43ED18
:10156000017A13EE902A40F8082B0231BEF80020D1
:1015700092B208338A42E4DC4FEA4B0BBEF80030EB
:101580009BB25B4540F3CA80BBF1010FCFD0BEF8E0
:101590000030C3F34E035B4565D0BBF1000FEBDDBC
:1015A0004FEA4B0C069B0AF5405909F118094FEA1E
:1015B000CB074FEA8B064FF00008CDF814B09B46DE
:1015C0004FEA882393FBFCF30AEB830303F50052F5
:1015D0001832D2ED004A03F51053183393ED004A48
:1015E000BEF800309BB2434532DD09EB06014A46A6
:1015F0005B464546D3ED005A92ED007A9C19D4ED36
:10160000006AD1ED007A24EE265A24EEA76A35EE60
:10161000466A64EE277A64EEA66A77EEA67A75EEDD
:10162000C66AC4ED006A77EE676AC1ED006A35EEFE
:10163000866A83ED006A77EE277AC2ED007A654408
:10164000BEF8000080B2A3193A443944A842D1DC64
:1016500008F101080BF1040B09F10409059B9845F9
:10166000AED19B4688E7BEF80030C3F34E03012B92
:1016700082DD4FEA4B0001220799069C930293FBFF
:10168000F0F39BB20AEB830303F500551835D5ED53
:10169000007A03F51053183393ED007A0BEB020335
:1016A0009B00E518D5ED006A534404EB810696EDE6
:1016B000006A67EE265A03F540531833D3ED006AEB
:1016C00067EEA66A75EEE66A76EE866AC6ED006A91
:1016D000D5ED006A0AEB820202F54052183293ED12
:1016E000006A27EE067A67EEA67A77EE277AD2EDC1
:1016F000006A77EEA67AC2ED007A013189B20A4615
:10170000BEF80030C3F34E039942B7DB34E700BFA5
:10171000BC82012000E0FF4400000000AD4B9A6A4B
:10172000DB6AAD4991ED000AB8EE400A013302FBD5
:101730000333DB0207EE903AF8EE677A012280EE7F
:10174000270AA6491AA806F05DF91B9BC3F1FF43BF
:1017500003F5FF0303F5FF437F33022B4BD903222D
:101760009F491AA811F0E2FE044616AB14930646F0
:1017700056F8083BB34241D01493836816936368CC
:1017800015932660002363602372924B9A6ADB6A8A
:10179000914991ED000AB8EE400ADFED927A20EE11
:1017A000270A013302FB0333DB0207EE903AF8EE1F
:1017B000677A012280EE270A884920A806F022F9DC
:1017C0001599219A8C18149B16A8834214BF169859
:1017D0000F2084421BD9209D22A8854214BF229845
:1017E0000F20844213D800910022114620A811F046
:1017F00019FE044610E07C481DF058F916AD03466A
:1018000053F8080F59689A68DB680FC5B7E7209945
:1018100014A811F08BFE044610AB0E93264656F822
:10182000083BB3425CD00E93A368109363680F9398
:1018300026600023636023720F9BC3F1FF4303F50F
:10184000FF0303F5FF437F33032B52D9042267497B
:101850000EA811F06BFE04460AAB0893064656F834
:10186000083BB34248D0089383680A93636809939E
:1018700026600023636023724FF6FF72269227933F
:101880005B4827AB029326AB019300F1080300935A
:1018900008ABE022732102F01CF808980AAB9842CA
:1018A00001D006F0D1FF0E9810AB984201D006F09F
:1018B000CBFF209822AB984201D006F0C5FF1498C8
:1018C00016AB984201D006F0BFFF1A981CAB9842A5
:1018D00001D006F0B9FF29B0BDEC028BBDE8F08F56
:1018E00010AD234653F8080F59689A68DB680FC596
:1018F0009CE73D481DF0DAF80AAD034653F8080F9F
:1019000059689A68DB680FC5B0E704EB8503D3ED2F
:10191000007A76EEE77A67EE877AFCEEE77ACDED2D
:10192000057ABDF814200135ADB203889BB2A3F54A
:10193000A0739D424CDA8A42E7DD04EB8503D3EDC8
:10194000007A76EEE77A67EE877A06EE101AB8EE3E
:10195000C66AF4EEC67AF1EE10FAD6D5069B03EB12
:10196000850500249FED238A234E244FF5EC017A50
:1019700038EE677AF1EE007A67EE277AFCEEE77AC6
:10198000CDED057ABDF8143033803146384605F088
:1019900019F8363080B21A4B23F81400013440F2A3
:1019A00041139C42E2D1164B1A88144B1A8542F21D
:1019B00008033AF803309BB2002B3FF491AD069E2A
:1019C00031460022C8F120080AF500500830A0E591
:1019D0000025C3E7000400401C0000200083012014
:1019E0000098020800809F43E897020804980208C4
:1019F000987B012000E0FF443C210120BC820120B3
:101A00003812012031B10F4B1B780344002142F200
:101A1000140299540C4B1B789BB942F21403C35C1B
:101A20001BB142F21503C35C5BB90122064B1A706D
:101A30000022064B1A8042F21403C35CDBB2044A54
:101A400013707047612101204C2101204A2101209F
:101A500048210120000000002DE9F04F2DED048BFE
:101A60008DB0074689464FF0010BCDF810B000232A
:101A700005931C461D469FEDA89AF7EE008A9FED40
:101A8000A78AB3E045F62E22B95CDBB207EB012250
:101A9000904444F22E0208F80230012C37D0631C27
:101AA0009BB29846B3423ADAFF2B3ADC0134A4B237
:101AB00009EB840393ED000A08F6064307EB830362
:101AC000D3ED000A07F093F920EE090A38EEC00AB8
:101AD00020EE080AFCEEC07ACDED037ABDF80C309A
:101AE0001D2BCFDC0135ADB2C82DCBDD44F2220277
:101AF000BB5A0133BB528A4B1B783B44002142F254
:101B0000140299540DB0BDEC048BBDE8F08F07EBC7
:101B100001218B54022E15DD4FF00208C6E71C464A
:101B200000E01C46049B1A1F12B21046B2422EDC83
:101B30004FF0000C61464FF0010A07F5B44808F178
:101B40002E0806E00224EDE7013212B21046B2423E
:101B500020DC92B2FF2AF7D8ABEB0003002BB8BF12
:101B60005B42C3F104030AFA03F39BB29C441FFADD
:101B70008CFC98F800E007EB0E2E704444F22E0E19
:101B800010F80E0010FB03F3194489B2DCE74FF0A4
:101B9000000C61460CA8059A00EB4203B1FBFCF176
:101BA00023F80C1C134601335A4203F0030302F0DE
:101BB000030258BF53429AB20592BBF1030F0EDDE8
:101BC00045F62E22BA5C07EB022293449BB200EB4F
:101BD000430333F80C2C44F22A030BF80320049B34
:101BE00001339BB204939B46FF2B08DCA0460BF10C
:101BF0000406B44296DAFF2C7FF75AAF92E7012130
:101C00003846FFF7FFFE45F62E203B5C5A1C45493F
:101C100081FB0231D317C3EBE1031A2101FB13232C
:101C20003B5401230593002304939FED379B9FEDC5
:101C3000388BDFF8FCA02FE0002C15DB04EB8403CD
:101C4000039A02EB03139BB244F2D031069A01FBD4
:101C500002F10020CA182AF81200013C24B2503BBD
:101C60009BB2B4F1FF3FF5D12F4B07990A46A3FB76
:101C700002239B0903EB8303A1EB03139BB2002B0D
:101C800000F0B580049B01330493059A013205925C
:101C9000B3F5A07F3FF436AF059B99469BB20793FF
:101CA000049A224981FB02131146D217C2EB631337
:101CB00003F001021046069203EB8303A1EB03132A
:101CC0009BB20393A1F1020876254FF0000BD824B4
:101CD00044F2D03606FB00F636E0F1182AF811007F
:101CE000013C24B2503B9BB224B3A24201DDA64585
:101CF00020DCA242F1DAA645EFDAF1182AF811B099
:101D0000EEE700BFAFF30080000000000000F03FEE
:101D10009A9999999999E93F000080370000A0426B
:101D2000612101204FECC44ECDCCCCCC67666666F9
:101D3000F40200200CF1010BA8F10208053DADB240
:101D4000BBF11A0F3FF478AF384B9B78002B60D073
:101D50004FF6E43140F21D52012B0CBF13460B46E7
:101D6000ADF82E304FEA4B00FEF706FC02460B465C
:101D700051EC180BFEF766FCFEF73CFF82B20DF14A
:101D80002E012B4804F024FFDC464FEA4B03DA1CFB
:101D90009145CFDD03F203139945CBDA45F62E23A7
:101DA000FB5C9B44234B83FB0B324FEAEB73C3EB8F
:101DB000E2031A2202FB13B31BB207EB03234344D3
:101DC00044F22E029A5C2A4412B244F22D0113F816
:101DD00001E0AE440FFA8EFE002CABDD04EB840371
:101DE000039901EB03139BB24FF0000B7DE7BDF8A5
:101DF0001030A3F14F0148F2A072069802FB00A236
:101E00000192D8220092002289B20B4801F07EFB99
:101E100038E74FF4FC63ADF82E304FEA4B00FEF785
:101E2000ABFB02460B4651EC190BA3E768210120DE
:101E3000008301204FECC44E987B0120F8B5044686
:101E40000D460E4B1A6822F001021A600C4E3768DC
:101E50005A6A02EB07420B4F3A605A6942F001029C
:101E60005A611A6842F001021A6000233360FFF7DA
:101E7000F3FA29462046FFF7EFFDF8BD0040014088
:101E8000582101205C2101202DE9F04F2DED048B1C
:101E9000B9B083460E9100F50052143200F500539C
:101EA0000A33002123F8021B9A42FBD1002244F29C
:101EB0001C034BF80320AA4B9B78E3B14AF660124F
:101EC00040F29321012B18BF11460A914FF00109EE
:101ED000CDF8249000230C934FF0FF320B929A46DA
:101EE0009FEDA09ADFEDA08A9FEDA08AA04B08335A
:101EF0000F935746BFE04FF438730A93E6E74FF06D
:101F00001F0A00230C9320EE280AF7EE007A77EEE2
:101F1000C07A67EE887AF4EE487AF1EE10FAC8BF1C
:101F2000F0EE487AFCEEE77ACDED077ABDF81C605A
:101F300009F1FF308F4A82FB0032C317C3EB6213F3
:101F400003F0010319460D93002310931093109B87
:101F5000D82B60DC874A82FB0032C317C3EB6213C5
:101F600003EB8303A0EB031080B2834B1B8D9C46D5
:101F7000DFF810E20893814D44F2D03404FB01F401
:101F800042F210782DE04FF01F0A00230C93BAE7BD
:101F900044F222023BF8023001332BF80230784B36
:101FA0001B785B44002142F21402995439B0BDEC15
:101FB000048BBDE8F08F9BF8011039B110998A426B
:101FC00004DC109A0799914280F2388323444FF041
:101FD000000225F81320109B01331093109BD82B7F
:101FE00019DC109B03EB830300EB03139BB23EF859
:101FF000192092B29445B9BF0792089A089907919F
:1020000010998E42D7DC01373FB24745C0DC2344EC
:1020100025F813A0DFE75B4B33F81920564B1A85E0
:10202000594B09990A46A3FB02239B0903EB83033F
:10203000A1EB03139BB2ABB9B9F1F00F68DC099ABD
:10204000531EA2F150014D4A48F2A0700D9C00FBB6
:1020500004220192D82200929BB2002289B2444805
:1020600001F054FA099B01339BB209939946B3F5E9
:10207000A07F00F3E3810E9B099A03EB820393EDAB
:10208000000A09F606430BEB8303D3ED000A06F0C2
:10209000AEFE0B9B032B3FF732AFB4EEC90AF1EE55
:1020A00010FA7FF770AFB3F1FF3F03D00C9B013301
:1020B0004B4503DA0B9B01331BB20B93BDF9243064
:1020C0000C930B9B0BEB430344F2240233F802A066
:1020D00042F20A029A5A6AB144F21C025BF80220E8
:1020E00007EE902AF8EE677AF4EEC07AF1EE10FA75
:1020F0007FF509AF42F20A02BDF82410995244F26A
:102100001C02FCEEC07A17EE903A4BF80230FAE669
:1021100001215846FFF776FC42F20A033BF80330F0
:10212000002B8CD0154A48F2A07A0D990AFB0122A7
:102130000025A946AA460BF5005808F10A0807979A
:102140001746C6E011481CF0B1FC0DF1800E0346A5
:1021500053F8080F59689A68DB68AEE80F00ECE0A6
:10216000682101200050434700000036000058431A
:10217000987B012067666666BC820120F40200201D
:102180006121012038120120CDCCCCCCE897020887
:102190002A991EA811F0CAF904461AAB18932546CD
:1021A00055F8083BAB4200F009811893A3681A93D5
:1021B000636819932560002363602372199BC3F140
:1021C000FF4303F5FF0303F5FF437F33012B40F289
:1021D000FE800222914918A811F0A8F9044614AB18
:1021E0001293054655F8083BAB4200F0F38012937A
:1021F00083681493636813932560002363602372DC
:1022000018981AAB984201D006F01EFB2A982CAB06
:10221000984201D006F018FB1E9820AB984201D0DE
:1022200006F012FB249826AB984201D006F00CFB76
:1022300009F1010303EB83039C00A4B232AB30939A
:10224000129E139D002E00F0CE8011950F2D00F2EE
:10225000D0803098012D00F0D580002D40F0D58041
:10226000119B31930021309AD15409F5005909F19D
:1022700010090BEB4909B9F80430369338AB43F831
:10228000041D049336AB03930F9B029330AB019371
:10229000009750232246624801F03EFB309832AB53
:1022A000984201D006F0D0FA129814AB984201D0AF
:1022B00006F0CAFA0AF1010A5FFA8AFAD146BAF1BF
:1022C000040F00F3A780554638F81A30002B00F0B1
:1022D000A38007EE903AF8EE677AB8F8003007EE80
:1022E000103AB8EEC77AC7EE876A16EE900AFEF784
:1022F00055F941EC100B1EF0B7FF51EC100BFEF737
:1023000079FC82B2474924A804F090FF6FF00043A3
:10231000259A9A423FF416AF0122434924A811F0AE
:1023200005F9044620AB1E93064656F8083BB34217
:102330003FF40BAF1E938368209363681F9326605E
:102340000022626022723949886ACB6A3849D1ED2D
:10235000007AF8EE677A38F8151000EE101AB8EE29
:10236000C00A27EE800A013300FB0333DB0207EECD
:10237000903AF8EE677A80EE270A2A492AA805F0F3
:1023800041FB1F9C2B9AA1181E9B20A8834214BFBF
:1023900020980F2081427FF6FBAE2A982CADA842F0
:1023A00014BF2C980F2081423FF6F2AE0094002219
:1023B00011462AA811F036F80446EEE61AAE234676
:1023C00053F8080F59689A68DB680FC6F0E6194899
:1023D0001CF06CFB14AE034653F8080F59689A685A
:1023E000DB680FC606E7002D3FF42FAF12481CF044
:1023F0005AFB002211A930A810F0FCFD3090119B6F
:10240000329326E7337803702AE72A46314620F0D4
:1024100092FD25E7079F12E6079F10E6B89702088E
:10242000987B01200083012048AE02080004004090
:102430001C000020E8970208BC9702089BF80030B7
:10244000002B3FF4B3AD42F20A033BF80340002CEB
:102450003FF4ACAD7C4B9A6ADB6A7C4991ED007A23
:10246000B8EE477A07EE904AF8EEE77A27EE277A39
:10247000013302FB0333DB0207EE903AF8EE677A92
:10248000C7EE276A0BF58043C3ED066AB2EE040A75
:1024900086EE800A1EF078FFF2EE007AB4EE670A4C
:1024A000F1EE10FA48BFB0EE670AFCEEC07ACDED4F
:1024B000077ABDF81C80A8EB0403002BB8BF5B4271
:1024C000012B40F3A580604BDB6A03FB08F3B3FBF1
:1024D000F4F344F220022BF8023004F18043013B74
:1024E0000E9A02EB83031868FEF758F806460F466B
:1024F00004F605430BEB83031868FEF74FF8044618
:102500000D4632463B4630463946FEF79BF80646B6
:102510000F4622462B4620462946FEF793F80246F0
:102520000B4630463946FDF7DBFE41EC100B1EF042
:10253000D1FFB0EE409AF0EE609A42F20A033BF807
:102540000360731C0E9A02EB83031868FEF726F8EB
:1025500004460D4606F607430BEB83031868FEF7A7
:102560001DF806460F4622462B4620462946FEF712
:1025700069F804460D4632463B4630463946FEF77A
:1025800061F802460B4620462946FDF7A9FE41ECBC
:10259000100B1EF09FFF51EC100BFEF703FB07EE34
:1025A000900AB8EEE78A51EC190BFEF7FBFA07EE3A
:1025B000900AF8EEE76A0BF58043D3ED067A77EEE2
:1025C000A77A07EE108AB8EEC77A67EE877A36EEFA
:1025D000A77AB4EEC78AF1EE10FA20DD44F22002A9
:1025E0003BF80230013B2BF8023044F220033BF869
:1025F00003305A1E92B241F26E718A423FF6D6AC57
:10260000114AD26A9A423FF4D1AC0F4AD362CDE468
:102610000D4BDA6A44F220032BF803205DE778EED5
:10262000277AF4EEE76AF1EE10FADEDD44F22002DA
:102630003BF8023001332BF80230D6E72344BDF8D3
:10264000282025F81320C6E4000400401C000020C8
:10265000F8B504460D460E4B1A6822F001021A60C6
:102660000C4E37685A6A02EB07420B4F3A605A69C0
:1026700042F001025A611A6842F001021A60002316
:102680003360FEF7E9FE29462046FFF7FDFBF8BD63
:1026900000400140582101205C210120224B1A6C8E
:1026A00042F080521A6421490A6842F480420A606A
:1026B0001F49D1F8882042F47002C1F888201A68B6
:1026C00042F480321A601A46136813F4003FFBD0BC
:1026D000154B184A5A609A689A609A6842F4004208
:1026E0009A609A6842F4A0529A601A6842F0807226
:1026F0001A601A46136813F0007FFBD040F205728F
:102700000D4B1A60A3F580639A6822F003029A6069
:102710009A6842F002029A601A46936803F00C032A
:10272000082BFAD1704700BF00380240007000400B
:1027300000ED00E0085A4007003C02400B4B00222D
:102740001A604FF6FE715960F020094981F82300A4
:102750009A601A6842F004021A601A6842F0020293
:102760001A601A6842F001021A60704710E000E037
:1027700000ED00E0324A136B43F002031363136B66
:1027800043F004031363136C43F4004313642D4BB1
:10279000196841F080611960996841F08061996021
:1027A000196841F080511960A3F58063196841F4FC
:1027B00000611960996841F440619960196A41F4B7
:1027C000C0011962196841F080011960996841F0EF
:1027D000C0019960196A41F4C0411962A3F5E4335C
:1027E000196841F400711960196841F48071196029
:1027F000196841F008011960196841F00401196075
:10280000196841F040011960136B43F4001313631E
:102810000D4B1A6822F060621A601A6842F4005286
:102820001A601A6842F400621A601A6842F04002A4
:102830001A601A6842F400321A60044A9A607047BB
:102840000038024000080240886002400C3C004012
:10285000524A136C43F0010313644FF080435968EC
:1028600041F040015960132199623121D9625963C5
:10287000196A41F001011962996941F06001996199
:10288000196841F001011960136B43F001031363F0
:10289000136B43F004031363536C43F4807353646A
:1028A0003F490B6843F0C0030B603E4B196841F48D
:1028B00040611960196841F003011960A3F5604394
:1028C000596841F4807159604FF40011D962596B15
:1028D00041F00D015963596B41F0A0015963596BE7
:1028E0005963D96841F42061D960196941F42031F4
:1028F0001961196941F005011961996841F4806114
:102900009960996841F080519960996841F0C0617F
:102910009960996841F480719960996841F40071F7
:102920009960116B41F48001116302F5315230322C
:10293000116821F0C0011160116841F4003111608B
:10294000116841F400611160116841F40051116097
:10295000116821F400711160116841F48061116007
:10296000116841F480711160116821F0C00111609B
:10297000516841F00C0151600B4991600B49D160E5
:10298000116821F060611160116841F0010111606E
:102990009A6842F001029A60704700BF0038024016
:1029A00000080240000002404C200140DC020020F0
:1029B0000E4A136C43F0020313640D4B32229A62E9
:1029C0008C22DA62DA6842F00102DA60094A4FF0DA
:1029D00000511160002182F81D131A6842F00102B3
:1029E0001A605A6942F001025A6170470038024089
:1029F0000004004000E100E00B4A536C43F48033D4
:102A000053640A4B64229A624FF6FF72DA62DA6804
:102A100042F00102DA60064B4FF080721A60202209
:102A200083F81823704700BF00380240004001407F
:102A300000E100E0064A136C43F008031364054B01
:102A400042F210729A624FF6FF72DA62704700BF6C
:102A500000380240000C004030B4524A136B43F07F
:102A600001031363136B43F002031363136B43F00F
:102A700004031363536C43F4804353644A49CB68A3
:102A800043F48013CB60494803690361A1F54441D5
:102A90008B6843F480638B60CB6843F48063CB60C6
:102AA0000B6843F480630B60414BDC6844F0806446
:102AB000DC60446944F010044461886840F40050CC
:102AC0008860C86840F40050C860086840F400504E
:102AD0000860D96841F48051D960196841F4005107
:102AE0001960196A41F000711962D96841F4804196
:102AF000D960196841F400411960196A41F0005128
:102B00001962136C43F0040313642A4B00259D6281
:102B10004FF6FF74DC62996841F00301996099688F
:102B200041F4706199604FF4FA405862196841F0BD
:102B30000101196003F50033D96841F48051D9606F
:102B4000196841F400511960196A41F04071196225
:102B5000D96841F48041D960196841F40041196095
:102B6000196A41F040511962536C43F002035364F7
:102B7000114B9D62DC629A6842F003029A609A6887
:102B800042F470629A6058621A6842F001021A6058
:102B90000A4B402283F828234FF480725A6030BCDD
:102BA000704700BF0038024000000240003801407A
:102BB00000040240000800400004014000E100E081
:102BC000184A136C43F400231364174B1A6842F439
:102BD00000021A605A6A42F400425A62A3F5DE33D8
:102BE0009968124A12681248A0FB0202D20C41EA0C
:102BF00002129A60DA6822F48052DA60DA6842F0EF
:102C00000402DA60DA6842F02002DA60094A302110
:102C100082F834134FF480115160DA6842F40052A4
:102C2000DA60704700380240000802401C000020B3
:102C300083DE1B4300E100E082B00191019B2BB1D8
:102C4000019B013B0193019B002BF9D102B070471E
:102C50001E4A1F485368002BFCD1836813F0030FF2
:102C6000F8D0836813F0800FF4D11A4A936943F0C7
:102C700000539361087802F5B14208321449536851
:102C8000002BFCD18B6813F0030FF8D08B6813F086
:102C9000800FF4D10E4B1B6813F4006F0FD10E4B55
:102CA00018700A4A0A495368002BFCD18B6813F04C
:102CB000030FF8D08B6813F0800FF4D17047044AEB
:102CC000136823F400631360E9E700BF88600240E3
:102CD000003C0040000802400C3C0040F8B50C46A7
:102CE0000968FFF7B5FF1D4A936943F400539361E8
:102CF000256863685B1B012B2FD901263046184BD2
:102D00001849194F0CE00A6822F400620A6017E0C3
:102D10000130C0B2064625686268521B90421CD240
:102D2000AD5D5A68002AFCD18A6812F0030FF8D012
:102D30008A6812F0800FF4D10A6812F4006FE2D1B1
:102D40003D705A68002AFCD18A6812F0030FF8D04F
:102D50008A6812F0800FDBD0F3E7F8BD000802406C
:102D600088600240003C00400C3C0040174A9369D8
:102D700043F400539361087802F5B14208321449D4
:102D80005368002BFCD18B6813F0030FF8D08B68CD
:102D900013F0800FF4D10E4B1B6813F4006F0FD1AA
:102DA0000C4B18700C4A0A495368002BFCD18B68F5
:102DB00013F0030FF8D08B6813F0800FF4D1704735
:102DC000034A136823F400631360E9E70008024034
:102DD000003C00400C3C00408860024010B42D4A8A
:102DE000936943F4005393610C88240A02F5B142BD
:102DF000083229485368002BFCD1836813F0030F75
:102E0000F8D0836813F0800FF4D1234B1B6813F4C0
:102E1000006F33D1214B1C70214A1F485368002B8F
:102E2000FCD1836813F0030FF8D0836813F0800F90
:102E3000F4D108781A4A18495368002BFCD18B68E2
:102E400013F0030FF8D08B6813F0800FF4D1124BFE
:102E50001B6813F4006F17D1104B1870104A0E49FD
:102E60005368002BFCD18B6813F0030FF8D08B68EC
:102E700013F0800FF4D15DF8044B7047064A1368D5
:102E800023F400631360C5E7034A136823F4006367
:102E90001360E1E700080240003C00400C3C0040A9
:102EA0008860024010B584B00446ADF80610ADF855
:102EB0000420ADF8023004A92A2301F8023DFFF7EF
:102EC000C7FE0DF106012046FFF788FF0DF1020154
:102ED0002046FFF783FF04A92B2301F8013D20467C
:102EE000FFF7B6FE01A92046FFF778FF06A92046A6
:102EF000FFF774FF04B010BD30B583B004460D4633
:102F000002A9362301F8053DFFF7A2FE032D30D8B4
:102F1000DFE805F00210182702A9582301F8043D44
:102F20002046FFF723FF2570F02363804FF4A07342
:102F3000A38014E002A9882301F8033D2046FFF78F
:102F400015FFF0E702A9282301F8023D2046FFF70C
:102F50000DFF25704FF4A0736380F023A38003B0AE
:102F600030BD02A9E82301F8013D2046FFF7FEFE2F
:102F7000EFE72570012DEDD8D6E70000F0B585B05C
:102F80000546BDF828605F1AB41A013407FB0444F3
:102F90000096FFF787FF0B9B1B88EB8004A92C236F
:102FA00001F8013D2846FFF753FE274A936943F491
:102FB00000539361A2F5E632136843F40063136093
:102FC0004FF46062214BDA60214A136823F4806376
:102FD0001360B4F5803F28D3640813465460063567
:102FE000D560126842F001021A601A4A536843F031
:102FF0000203536002F50932883216495368002BE8
:10300000FCD18B6813F0030FF8D08B6813F0800F9E
:10301000F4D14FF460620D4BDA6088335C601A685B
:1030200042F001021A6005B0F0BD094B5C60063544
:10303000DD601A6842F001021A60064A536843F0E4
:1030400002035360EFE700BF000802400060024047
:1030500088600240003C004000B583B04388013BDB
:1030600001918288013A92B200929BB200221146ED
:10307000FFF784FF03B05DF804FB0000F0B5C1B0BA
:103080000446A44DAB6943F08043AB6144F6206134
:10309000FFF7D2FDAB6943F48043AB6144F6206196
:1030A0002046FFF7C9FD40A9012301F8F93D20465C
:1030B000FFF7CEFD4CF250312046FFF7BDFD002357
:1030C000029303930493062005F0C5FB0346029088
:1030D000821D04929049086818608988998003923B
:1030E00002A92046FFF7FAFD029808B105F0ACFBF3
:1030F0000023059306930793042005F0ACFB05908D
:10310000031D0793854A12680260069305A92046AD
:10311000FFF7E4FD059808B105F096FB002308933E
:1031200009930A93042005F096FB0890031D0A9367
:103130007B4A12680260099308A92046FFF7CEFD7A
:10314000089808B105F080FB00230B930C930D93B6
:10315000032005F080FB0B90C31C0D93714A11886E
:103160009278018082700C930BA92046FFF7B6FD80
:103170000B9808B105F068FB00230E930F93109392
:10318000052005F068FB03460E90421D109266492B
:1031900008681860097919710F920EA92046FFF787
:1031A0009DFD0E9808B105F04FFB0023119312937B
:1031B0001393022005F04FFB1190831C13935B4A7D
:1031C00012880280129311A92046FFF787FD1198FB
:1031D00008B105F039FB00231493159316930220D0
:1031E00005F039FB1490831C1693514A1288028013
:1031F000159314A92046FFF771FD149808B105F046
:1032000023FB0023179318931993022005F023FB47
:103210001790831C1993474A12880280189317A9A4
:103220002046FFF75BFD179808B105F00DFB002362
:103230001A931B931C93032005F00DFB1A90C31CDB
:103240001C933D4A11889278018082701B931AA9C1
:103250002046FFF743FD1A9808B105F0F5FA002360
:103260001D931E931F93022005F0F5FA1D90831CF9
:103270001F93324A128802801E931DA92046FFF731
:103280002DFD1D9808B105F0DFFA0023209321934E
:103290002293022005F0DFFA2090831C2293284A13
:1032A00012880280219320A92046FFF717FD20985D
:1032B00008B105F0C9FA0023239324932593022033
:1032C00005F0C9FA2390831C25931E4A12880280B8
:1032D000249323A92046FFF701FD239808B105F0A8
:1032E000B3FA0023269327932893032005F0B3FA1B
:1032F0002690C31C2893144A11889278018082700A
:10330000279326A92046FFF7E9FC2698F0B105F09F
:103310009BFA1BE0000802400C980208149802086F
:10332000189802081C980208209802082898020899
:103330002C9802083098020834980208389802083D
:103340003C980208409802084498020800232993F8
:103350002A932B93042005F07EFA2990031D2B93CA
:10336000624A126802602A9329A92046FFF7B6FC38
:10337000299808B105F068FA00232C932D932E9319
:10338000022005F068FA2C90831C2E93584A12886C
:1033900002802D932CA92046FFF7A0FC2C9808B1A1
:1033A00005F052FA00232F9330933193052005F056
:1033B00052FA03462F90421D31924E490868186018
:1033C0000979197130922FA92046FFF787FC2F98B1
:1033D00008B105F039FA0023329333933493052072
:1033E00005F039FA03463290421D3492424908688A
:1033F000186009791971339232A92046FFF76EFCE3
:10340000329808B105F020FA0023359336933793AC
:10341000022005F020FA3590831C3793374A128832
:103420000280369335A92046FFF758FC359808B13D
:1034300005F00AFA0023389339933A93102005F0E7
:103440000AFA0546389000F110073A972C4E0FCE35
:1034500028606960AA60EB60399738A92046FFF7B9
:103460003DFC389808B105F0EFF900233B933C93FD
:103470003D93102005F0EFF905463B9000F1100751
:103480003D97204E0FCE28606960AA60EB603C97A4
:103490003BA92046FFF722FC3B9808B105F0D4F980
:1034A00040A9112301F8053D2046FFF7D1FB16493D
:1034B0002046FFF7C1FB40A9292301F8043D20461F
:1034C000FFF7C6FB40A92C2301F8033D2046FFF778
:1034D000BFFB03212046FFF70FFD40A9002321F881
:1034E000023D2046FFF7B8FD41B0F0BD4898020804
:1034F0004C980208509802085898020860980208F0
:10350000649802087498020840420F00F0B585B034
:103510000646BDF828505F1AAC1A013407FB044474
:103520000095FFF7BFFC04A92C2301F8013D3046AC
:10353000FFF78EFB104A936943F400539361A2F5A1
:10354000E632136843F4006313604FF460610B4B81
:10355000D9608833196841F4806119605C600B9907
:10356000D960196841F001011960536843F0020302
:10357000536005B0F0BD00BF00080240006002408B
:1035800030B585B004461D4600920B46FFF78AFC15
:1035900004A92C2301F8013D2046FFF759FB2946D9
:1035A0002046FFF71BFC05B030BD2DE9F04F89B078
:1035B00003900D4616461F46BDF848300493DDF8CB
:1035C0004CA043889942A4BF03F1FF35ADB2BB4282
:1035D000DCBF03F1FF37BFB2039B9B889A42A4BFB5
:1035E00003F1FF36B6B2049A934204DC03F1FF3BC9
:1035F0001FFA8BF30493BD4202DD2B463D461F4666
:10360000049A964202DD3346164604937B1B1FFA4A
:1036100083FB0FFA8BF3049A921B92B205920FFA76
:1036200082F923B3B9F1000F21D04B4530DD03EB14
:10363000D3746410C3F10008DAF80030ADF81E301E
:103640000DF11E03324629460398FFF799FFBD424C
:1036500025D0444504DD059BE41A24B20135ADB202
:103660004C45E9DA5C4424B20136B6B2E4E7DAF854
:10367000002008AB23F8042D0193049B00933B46E4
:10368000324629460398FFF779FC09B0BDE8F08F70
:10369000C9F1000404EBD47444F34F04CAE7049B5B
:1036A0009E42D6D1F1E72DE9F04385B080460D4624
:1036B00014461F46BDF83060DDF8349043889942C7
:1036C000A4BF03F1FF35ADB2BB42DCBF03F1FF374E
:1036D000BFB283889A42A4BF03F1FF34A4B2B342BD
:1036E000DCBF03F1FF36B6B2BD4202DD2B463D46DC
:1036F0001F46B44202DD234634461E46D9F8002058
:1037000004AB23F8082D019300943B46224629463A
:103710004046FFF733FCD9F8002004AB23F8062D10
:10372000019300962B46224629464046FFF726FC89
:10373000D9F8002004AB23F8042D019300963B46F2
:10374000324629464046FFF719FCD9F8002004AB61
:1037500023F8022D019300963B4622463946404607
:10376000FFF70CFC05B0BDE8F08300002DE9F04F39
:1037700083B004460C9EDDF83480DDF83890307854
:1037800008446588A84203DD71780A4492B200219A
:103790007578AB4695B3002007468446A3F1200A0E
:1037A0004FF4D07E0BFB0A0B736833F81B50337851
:1037B000DBB13B46002005FA00F010F4004F94F80E
:1037C00098B60EFB0B3B0BF10C0B14BFD8F80000A6
:1037D000D9F8000024F81B0001339BB2D81B80B23B
:1037E00096F800B05845E6DB1F460CF1010C1FFAB5
:1037F0008CFC60467578AB46AC45D3DB1548164F5C
:103800004368002BFCD1BB6813F0030FF8D0BB68F2
:1038100013F0800FF4D13378013B0B4494F89806F1
:103820004FF4507606FB004018300190501E28449B
:1038300080B200909BB22046FFF768FE94F898365D
:1038400013F1FF3318BF012384F8983603B0BDE8A5
:10385000F08F00BF88600240003C00402DE9F04F2F
:10386000099D0B9CDDF830E0DDF834C0667876B356
:1038700012FB031290B2002217469DF82880A8F18F
:1038800020089146924606FB0821626832F811B082
:103890002278A2B14E465246811889B20BFA06F63A
:1038A00016F4004F14BFDEF80060DCF8006025F865
:1038B0001160013292B2164621788A42ECDB013760
:1038C000BFB23A466678184480B2B742DBDBBDE847
:1038D000F08F2DE9F04F85B082468B4691460E9DC4
:1038E000DDF83C80109F1C685E682644A64210D01C
:1038F00014F8013B0297CDF8048000954A465946DA
:103900005046FFF733FF297859441FFA81FBA6423E
:10391000EED105B0BDE8F08F2DE9F04F89B08346B8
:103920000C4606920793DDF848A0139B149EDDF821
:103930005490DDF858801D685F682F44AF4214D062
:10394000CDF81080CDF80C90029615F8013B01934C
:10395000CDF800A0079B069A21465846FFF77EFF48
:1039600033781C44A4B2AF42EAD109B0BDE8F08F6D
:1039700070B50646836B6BB1C46CC56D0435AC4243
:1039800005D254F8040B04F05FFFA542F9D8B06BE0
:1039900004F05AFF304670BD70B50546C469066A2A
:1039A000B4421FD1E86908B104F04EFF2C696E697A
:1039B000B44229D1286908B104F046FF6C68AE68AA
:1039C000B44233D1686808B104F03EFF284670BDA8
:1039D000606804F10C03984201D004F035FF3834DC
:1039E000A642DFD0206A04F128039842F0D004F008
:1039F0002BFFEDE7606804F10C03984201D004F05E
:103A000023FF3834A642D5D0206A04F12803984217
:103A1000F0D004F019FFEDE7606804F10C03984260
:103A200001D004F011FF3834A642CBD0206A04F153
:103A300028039842F0D004F007FFEDE770B4904AF5
:103A4000136923F0010313618E4B1A78531EDBB206
:103A5000012B40F23781002A40F0D4818A4B18882C
:103A6000DC88A4B299895A8A14FA80F010FA81F19C
:103A700011FA82F292B285490A805B889BB2B3F553
:103A80007A5F814BCCBF1A895A8892B27E4B1889D3
:103A9000DC89A4B2998A14FA80F010FA81F10A4400
:103AA00092B27B490A809988588980B21A8ADB8A47
:103AB00010FA81F111FA82F212FA83F39BB2754A7D
:103AC0001380754B1B78002B41D1744B1B7833B19D
:103AD000734B1B78734A1278DBB2934237D0724B28
:103AE0005A68002A00F0A782704B1B889BB26E496F
:103AF000B1F900108B422ADD6D4B1B889BB26A49DD
:103B000049888B4223DA13889BB299421FDC012239
:103B1000614B1A70624C2178664B1888624A138890
:103B2000C01A00B2103102EB4101888021781031B7
:103B300002EB4102928812F4004F40F05281584A41
:103B40001278013B9BB21032574921F81230524B88
:103B50001B78BBB1524B1B781033534A32F81330E9
:103B60009BB240F23F1293420CD14D4A1378DBB224
:103B700013F1FF3318BF0123137000234B4A138046
:103B8000454A1370444B1B7853B9444B1B783BB1E7
:103B9000434B1B78434A1278DBB2934200F03481E6
:103BA0003F490B78434A1088384C2488A4B203EB71
:103BB00083039B0113FA80F33F4820F813400B78EE
:103BC0001088334C2488A4B203EB83039B0113FABF
:103BD00080F33A4820F813400B7811882D4800886C
:103BE00080B203EB83039B0113FA81F3344921F87C
:103BF00013002D4B5B681B889BB22D490B801388EB
:103C00009BB240F23F12934200F0F880294A138899
:103C100001339BB21380224B1A782349103231F8BA
:103C2000123001339BB221F812301B4B1B78002B52
:103C300040F0EA801D4A138801339BB21380138839
:103C40009BB2B3F57A7F40F3DF801A4B1B889BB29F
:103C5000002B40F0D980124A1378DBB213F1FF3306
:103C600018BF012313700021104B198013780E4ADE
:103C7000103302EB4303998001239382C4E000BF19
:103C80000004004060210120DC0200203C210120D2
:103C90003E210120402101204C21012064210120EE
:103CA0004821012061210120BC8201204221012004
:103CB000B88201204A210120381201203817012042
:103CC000381C012042F20803964AD25A92B2964B0F
:103CD0001B889BB29A422ED0944B1B78002B00F08D
:103CE0009380904B9B78002B35D1914B1E788E4B57
:103CF0001D88904A1088D488A4B29189538AB20250
:103D000012FA85F5874A02EB850214FA80F010FA60
:103D100081F111FA83F307EE903AFAEECF7A9FED34
:103D2000867A77EE677AC2ED027A7F4A138801338A
:103D30009BB2138068E07D4B1B78002BCCD07C4B72
:103D40001A78784B1344012142F21402995400224C
:103D5000764B1A70C0E7012B22D0022BE5D1744BB1
:103D60001E78714B1D88734A90885489A4B2118AB9
:103D7000D38AB20212FA85F56A4A02EB850214FA76
:103D800080F010FA81F111FA83F307EE903AFAEE1F
:103D9000CF7A9FED697A77EE677AC2ED027AC4E74F
:103DA000634B1E78604B1D88624A50881489A4B208
:103DB000D189938AB20212FA85F55A4A02EB85023A
:103DC00014FA80F010FA81F111FA83F307EE903AB9
:103DD000FAEECF7A9FED587A77EE677AC2ED027AE3
:103DE000A3E7534A117801F11002544901EB420153
:103DF0008A8802F5A07212B28A80A0E600224A4B9D
:103E00001A8008E7032A01D070BC7047454B9B78A5
:103E1000002B75D1474A1088D488A4B29189538A5F
:103E200014FA80F212FA81F212FA83F39BB2444A36
:103E300013803E4B1B78002B2AD1424B1A8892B23A
:103E4000414B1B889BB29A4222DA3D4B1A8892B2B0
:103E50003D4B1B889BB29A421ADB384B93F83A30A1
:103E60001BB1364B93F83B3093B901222F4B1A709C
:103E7000324B93F83A20D2B22D490A7000222A48D8
:103E8000028083F832200978143103EB4103DA8091
:103E9000264B1B78002B2DD0254B1B7822480288FF
:103EA0002749098889B203EB83039B0113FA82F344
:103EB000264A22F8131003889BB27BB1214B1A8843
:103EC00092B2214B1B889BB29A4207DA1C4B1A888C
:103ED00092B21D4B1B889BB29A4251DA124B1B883F
:103EE0009BB240F23F12934242D00F4A13880133F3
:103EF0009BB21380124B1B889BB2124A138083E73C
:103F0000012B25D00B4A90885489A4B2118AD38AF8
:103F100014FA80F212FA81F212FA83F39BB2084A81
:103F2000138086E7682101204A2101204C210120CD
:103F300048210120DC02002000E0FF44BC82012077
:103F40003C210120B8820120040000203812012009
:103F5000434A50881489A4B2D189938A14FA80F212
:103F600012FA81F212FA83F39BB23E4A138060E7A1
:103F700000223D4B1A703D4AD36A1E33D362B9E723
:103F80003B4A92F832300133DBB282F83230527C55
:103F90009A42AFD137490B78374C208880B2344AE7
:103FA000143302EB4303D8800B781344012083F8C9
:103FB0003A000D7823889BB22C49886AC96A2F4E33
:103FC000D6ED006AF8EE666A07EE903AF8EEE77A08
:103FD00077EEA77A431C07EE103AB8EE477A27EE41
:103FE000877A4B1C07EE903AF8EE677A67EE277AED
:103FF00086EEA77A05F10E0302EB830282ED017AC9
:104000000022194B1A7023889BB2B3F58C7FBFF640
:1040100071AF23889BB2154AD26A02FB0333DB08D7
:10402000174AA2FB032343F34F03002B7FF762AF32
:104030000E4AD3625EE701220B4B1A7000200E4B32
:1040400018800C490B780A4A103302EB430398801E
:104050000B7810334FF6FF7122F8131077E500BF8D
:10406000DC0200203C2101204C2101200004004002
:10407000BC820120482101204A2101201C0000208F
:104080000FEAA00E294B5B6913F4806F23D0284BF5
:104090001B6913F4806F04D1264A536943F001036E
:1040A0005361244A136843F001031360204B1B69DA
:1040B00013F4806F0AD0536A642B07D901221E4B78
:1040C0001A701C4A136823F001031360174A5369DE
:1040D00043F480635361154B5B6913F4005F24D094
:1040E000164B1B6913F4005F04D1124A536943F065
:1040F000010353610F4A136843F0010313600F4B30
:104100001B6913F4005F0AD0536A642B07D901229C
:104110000B4B1A70074A136823F001031360034A1C
:10412000536943F40053536170477047003C0140AA
:1041300000000240000C0040652101200004024004
:1041400066210120044A136923F001031361034A25
:10415000136801331360704700400140582101206B
:104160000A4A13680A494B7D5268CA548A7D013253
:104170008A750133074880FB0320DA17C2EBE0029F
:1041800002EB8202A3EB82034B757047004C0040A8
:104190003882012067666666024A1368013313603D
:1041A000704700BF3821012070B582B005460E4629
:1041B00071B1541A01940F2C0ED82868012C14D018
:1041C000B4B9019B6B602A680021D15402B070BD64
:1041D0009AB10B481AF067FC002201A928460EF09C
:1041E00009FF2860019BAB60E7E733780370E8E7DD
:1041F000224631461EF09FFEE3E7541A0194DCE7A5
:10420000BC9702082DE9F04F2DED028BE5B002F0CE
:1042100069FCFEF743FA02F08BFCFEF7EDFBFEF7BC
:1042200009FCFEF7A7FAFEF713FBFEF715FCFEF7F5
:10423000C7FCFEF783FAA648FEF720FFA54B1B69D3
:1042400013F4806F02D0A448FDF712F8FEF7B0FB1C
:10425000A24804F091F9A24B1B881BB2A14AD2EDEF
:10426000006AC3F5005307EE903AF8EEE77A87EE5E
:10427000A67AFCEEC77ACDED047ABDF810309A4AE2
:104280001380DFED9A8A9FED9A8A00F06CBC994802
:1042900002F060F800F067BC974C00212046FDF763
:1042A000B1FB42F21403E35C2BB942F21503E35C69
:1042B000002B00F0588442F214038F4AD35C83F041
:1042C00001038E4A13708E4B1B78012B09D08B4B48
:1042D0001978894800EB01310831FDF7AFFD00F096
:1042E00042BC1178844800EB01310831FEF7B0F987
:1042F00000F039BC0122834B9A750023824A138057
:10430000824A1380824B5A6942F001025A611A684C
:1043100042F001021A6000227E4B1A607E4B1B782D
:10432000002B00F02084754B1B787C4A1278DBB29E
:10433000934200F0BA80714F3B78724D103305EB19
:1043400043039B88764E318889B23A7801FA83F329
:10435000744880FB0310D917C1EBE01101EB810118
:10436000A3EB81139CB202EB820204EB82126E4932
:1043700001EB4201284602F025FB04903B7803EB59
:10438000830304EB8313694901EB4301284602F0E0
:1043900019FB5D4B1B8810FA83F39BB205933B78A6
:1043A00003EB830304EB8313614901EB43012846CC
:1043B00002F008FB554B1B8810FA83F39FB2338839
:1043C0009BB2002B00F0B8804E4B1B7F002B00F0FF
:1043D000BE804A4B1B7803EB830304EB8314524BE0
:1043E00033F8142092B2404B1B889BB29A420FDBE9
:1043F000444BDB8B33B14A4A128892B2D21A032A59
:1044000000F31C85464B1A883E4BDA8300221A774C
:104410003C4B1B8D0A9304988342B9BF06930A90C4
:10442000049B0693374B5B8D0C9305988342B9BF71
:1044300008930C90059B0893324B9B8D0D931A4665
:10444000BB42BABF09930D970997354B1B889BB2A6
:104450001A2B40F3B680324B1B889BB2FA2BCCBF91
:104460000B220022274B93F80CE00EF0010A0EF00D
:10447000020B0EF0040E997D10910B9149000791EB
:104480009B7C0E9311930021254E9146DFF8A4806A
:1044900044F2D03C0CFB03FCD8250F975746CEE0E6
:1044A000022300F022BE6C232AE71C4B1B7810333A
:1044B000144A32F8132092B2194B1B889BB29A42CD
:1044C000BFF639AF0F4B9B8A002B7FF434AF4AE322
:1044D000987B012000000240502101200083012030
:1044E00006000020080000200400002000008C428C
:1044F0000000204338820120682101206121012031
:1045000060210120BC82012044210120462101209C
:104510000040014058210120642101204821012050
:104520006221012067666666381201203817012073
:10453000381C0120F4020020614BBDF810201A85C0
:10454000BDF814205A859F8500221A77DA835D4BC7
:104550001B7803EB830304EB83135B4A32F81320CD
:1045600092B25A4B1B889BB29A42BFF651AF0122BE
:10457000534B1A772DE7564A12885649886AC96AFA
:10458000554CD4ED006AF8EE666AD31A9BB207EE7A
:10459000903AF8EEE77A77EEA77A431C07EE103AE6
:1045A000B8EE477A27EE877A4B1C07EE903AF8EE82
:1045B000677A67EE277A86EEA77A414B83ED067A13
:1045C00020E70B224EE7BBF1000F0DD00898834285
:1045D0000ADB0C98834207DCA3EB0903634440F237
:1045E0001D5028F8130029E0BEF1000F0DD00998E6
:1045F00083420ADB0D98834207DCA3EB0903634483
:104600004FF6E43028F8130018E0308810F0030F5C
:104610000DD1079895FBF0F018440B9C95FBF4FA2C
:1046200090FBFAF40AFB1400002800F04184A3EB8D
:10463000090363444FF0000028F813000131CBB2A6
:10464000308880B21B28B4BFCC20D820984211DB20
:104650009342F3DB002FB6D006988342B3DB0A986F
:104660008342B0DCA3EB090363444FF4FC6028F8F9
:104670001300E3E70F9F164B1B889BB2042B2FDC24
:104680000F4B93F90E406400079B1099012908BF56
:1046900023461C4600200146104E44F2D035119BA3
:1046A00005FB03F545F28A2EA14219DA90FBF4F3DB
:1046B0000B3B2B4426F813E00131D830F4E700BF60
:1046C000BC82012061210120381201200400002059
:1046D00062210120000400401C000020F4020020A0
:1046E000AE4801880388008880B21B28B4BFCC2460
:1046F000D82448F2A075AA480E9E05FB060001903A
:1047000000949BB289B2A748FEF700FFA64B9A7CA3
:10471000B2FA82F252099A74BDF810201A85BDF8D7
:1047200014205A859F859D4A138801339BB21380BC
:1047300013889BB2B3F5A07F00F04681974B1A888F
:1047400092B2994BB3F9003004339A4200F04E8193
:10475000924B1B889BB2012B40F00582924B93F940
:104760000E2092B2914921A802F060FD012300932E
:104770008F4B0022114621A80EF054FE04461DABBB
:104780001B93064656F8083BB34200F06D811B931D
:1047900083681D9363681C93266000236360237203
:1047A0001C9BC3F1FF4303F5FF0303F5FF437F3376
:1047B000012B40F2628102227E491BA80EF0B6FE58
:1047C000044617AB1593064656F8083BB34200F073
:1047D00057811593836817936368169326600021A9
:1047E0006160217245F28A23279364AB43F8F01D80
:1047F0006C48029327AB019300F10803009315ABBB
:104800000122FFF766F8159817AB984201D004F023
:104810001BF81B981DAB984201D004F015F82198A5
:1048200023AB984201D004F00FF85F4B93F90E20B0
:1048300092B25E4935A802F0F9FC012300935E4B69
:104840000022114635A80EF0EDFD044631AB2F9342
:10485000064656F8083BB34200F01B812F9383684D
:104860003193636830932660002363602372309B2A
:10487000C3F1FF4303F5FF0303F5FF437F33012B30
:1048800040F2108102224B492FA80EF04FFE044641
:104890002BAB2993064656F8083BB34200F005813E
:1048A000299383682B9363682A93266000216160B3
:1048B000217245F28A233B933C913A483CAB0293E8
:1048C0003BAB019300F10803009329ABCE22FFF725
:1048D00000F829982BAB984201D003F0B5FF2F9830
:1048E00031AB984201D003F0AFFF359837AB984217
:1048F00001D003F0A9FF2C4B9B8A002B40F0DE80F7
:10490000294B93ED060AB5EE400AF1EE10FA00F0DD
:104910000481002225494BA803F074F84C9BC3F195
:10492000FF4303F5FF0303F5FF437F33052B40F2FD
:10493000E880062221494BA80EF0F8FD044647AB5B
:104940004593064656F8083BB34200F0DD80459398
:1049500083684793636846932660002363602372ED
:104960004FF6FF72519252930E4852AB029351ABE5
:10497000019300F10803009345AB0122FA21FEF7F1
:10498000A8FF459847AB984201D003F05DFF4B98D4
:104990004DAB984214D003F057FF11E06221012083
:1049A000F4020020987B0120BC82012000830120BA
:1049B00048AE0208ECAD0208F0AD020800AE0208F5
:1049C0000022AB4B9A61CEE00023AA4A1370A84A9A
:1049D0009382A94B1A6822F001021A60A74A126852
:1049E0005B6A03EB0243A64A1360A7E6A04CA11C36
:1049F000204601F0E7FF6368A24A934230D0A24A02
:104A0000934229D0002303449CB2631F9BB2CE2B58
:104A10003FF69EAE964F398813AB4FF6E07613966D
:104A2000221F9A4D0193231D9BB200930B4692B215
:104A30002846FEF7BAFDB7F9001014AA14960B1D0C
:104A4000043921EAE171019200949BB2224689B2B5
:104A50002846FEF7AAFD7BE68D4B1B889BB2D2E76A
:104A60008C4B1B889BB2CEE71DAD034653F8080F55
:104A700059689A68DB680FC58CE687481AF016F803
:104A800017AD034653F8080F59689A68DB680FC5DD
:104A9000A2E631AD034653F8080F59689A68DB68FF
:104AA0000FC5DEE67C481AF001F82BAD034653F83B
:104AB000080F59689A68DB680FC5F4E63FAC3D946F
:104AC00076494FF000030A460B393DA8FFF76CFB0F
:104AD0004FF6FF73439364AB002243F8802D6B487D
:104AE000029343AB019300F1080300933DAB012215
:104AF000FA21FEF7EEFE3D98A04234D003F0A4FE6A
:104B000031E0654819F0D2FF47AD034653F8080F6E
:104B100059689A68DB680FC51CE747AC4594604943
:104B20004FF000030A460A3945A8FFF73DFB4FF650
:104B3000FF73519364AB002243F8482D534802930E
:104B400051AB019300F10803009345AB0122FA2118
:104B5000FEF7BFFE4598A0423FF432AF03F074FE6B
:104B60002EE7032A5BD04F4803F08EFD4E4B1B7897
:104B70005BB14E4B1A684C4B5B6803F52633103320
:104B8000934202D24848FCF737FB464B9B78002BF8
:104B9000E9D1474A1278042A3FF479AB511EC9B2D1
:104BA00001297FF679AB002ADBD1324B1B78002B31
:104BB0007FF4B4AB3F4B1B78002B40F031812C4B82
:104BC0009B8A002B3FF4AAAB3B4B1B78B3FA83F3D1
:104BD0005B093A4A13700122264B1A700022384BA7
:104BE0001A80234B5B7B002B3FF484AB204B93F963
:104BF0000C30072B00F07682022B40F31A81042B35
:104C000000F0178102211A4A917513F0010F7FF409
:104C100047AC00221F4B1A806C23FFF771BB144A6C
:104C200092F83320002A4DD1114991F83A10002909
:104C300048D00F4A118F89B2128E92B2914205DA92
:104C40000B4A92F83420002A40F0B680084A92F8C5
:104C50003A20002A00F0BB80054A118F89B2128EDB
:104C600092B2914200F0B580014B93F834203FE0BE
:104C7000BC82012064210120004001405821012014
:104C80005C2101203E21012040210120987B012050
:104C90004621012044210120E8970208FFAD0208C7
:104CA00012AE02080083012050210120382101208A
:104CB000602101204C210120482101206121012097
:104CC000622101207F4991F83410002974D17D4977
:104CD00091F83B1000296FD07A49C88E80B2C98DF7
:104CE00089B2884202DA002A66D1AFE7002AADD045
:104CF000754802700178734B1944012281F8332002
:104D00000178183103EB41010024CC8001780E3189
:104D100003EB810393ED010A6C4959A802F072FE7E
:104D20005A9BC3F1FF4303F5FF0303F5FF437F33B2
:104D3000032B50D90422664959A80EF0F7FB04460C
:104D400055AB5393054655F8083BAB4246D05393B9
:104D500083685593636854932560002363602372CE
:104D60004FF6FF725F9260935A4860AB02935FAB5D
:104D7000019300F10803009353ABE0228C21FEF76E
:104D8000A8FD539855AB984201D003F05DFD5998AA
:104D90005BAB984201D003F057FD0122494B9A7555
:104DA0004D4B5A6942F001025A611A6842F0010201
:104DB0001A600022494B1A60434B00221A701B787C
:104DC000DBB2012B3FF7CFAE3F4D3E4C68E10122F5
:104DD0008EE71A468CE7424819F068FE55AE034646
:104DE00053F8080F59689A68DB680FC6B2E7A4F851
:104DF0002890B9E02B782344002283F833202B78C5
:104E0000234483F83A20344B1A6822F001021A60D6
:104E1000324A12685B6A03EB0243324A136036E19E
:104E2000284B9B8A002B7FF4CFAE2F4B1B78DBB235
:104E3000CFE60122234B9A75FFF75FBA214AD2EDE4
:104E4000066AF5EEC06AF1EE10FA7FF794AB274AD6
:104E500012882749886AC96A264C94ED006AB8EE20
:104E6000466AD31A9BB207EE903AF8EEE77A77EEED
:104E7000A77A431C07EE103AB8EE477A27EE877AF6
:104E80004B1C07EE903AF8EE677A67EE277A86EECB
:104E9000277AF0EE087A66EEA76A37EE267AF5EE04
:104EA000007A67EE277A074BC3ED067AFFF7AABAB6
:104EB000A3EB0903634445F28A2028F81300FFF7A7
:104EC000BDBB00BFBC820120612101200083012005
:104ED00004980208987B01200040014058210120DD
:104EE000E89702085C21012048210120622101206D
:104EF000000400401C0000202B78143304EB430313
:104F0000DB889BB298FBF3F303F580735A42C3F33B
:104F10000903C2F3090258BF534203F606037A4A53
:104F200002EB8303D3ED007A67EEA87A77EE887AF6
:104F3000FDEEE77ACDED047A297801EB810106EBED
:104F40008111724B03EB4101204601F03BFD81468C
:104F50002B78183304EB4303DB889BB2A03B23EA96
:104F6000E3739E423FF443AF674B9B78002B00F006
:104F7000AC804FF6E43140F21D52012B0CBF1346BA
:104F80000B46ADF884312B78183304EB4303DA88F1
:104F900092B2921B042392FBF3F292B261A95C4895
:104FA00001F016FE824645F28A23ADF886312B7851
:104FB000183304EB4303DA8892B2921B48BF0732DE
:104FC000C2F3CF020DF5C371514801F001FE8346D3
:104FD0002B78183304EB4303DB889BB29E3B9E4245
:104FE000BCBF4FF0000BDA46BDF81010228D64AB49
:104FF00043F808ADDFF824A1019300920B464A461E
:105000005046FEF7D2FA2B78143304EB4303D988C9
:1050100089B297FBF1F189B2228D64AB43F804BDEC
:10502000019300920B464A465046FEF7BEFAA4F89A
:105030002890013607F5A07708F580682B7818339B
:1050400004EB4303DB889BB29E4208DC2B781433CD
:1050500004EB4303DB889BB29E427FF74DAF2B7876
:10506000183304EB4303DA88013292B2DA802B78EA
:10507000183304EB4303DA8892B22B78143304EB31
:105080004303DB889BB2A0339A423FF4B3AE2B7844
:105090000133DBB22B702B78DBB2012B3FF763AD12
:1050A0002B78234493F83330002BF0D02B7818332F
:1050B00004EB4303DE88B6B2A03E26EAE67606EBB2
:1050C0008607BF014FEA8628B8E74FF4FC63ADF8C6
:1050D00084312B78183304EB4303DA8892B2921BA5
:1050E000032358E703230B4A9375D82292FBF3F26C
:1050F00009490A80022B3FF4D6A9032B0CBF902349
:105100000023FFF7FDB800BF6821012038120120FD
:1051100000830120BC82012044210120987B0120D2
:1051200070B582B005460E4671B1541A01940F2C29
:105130000ED82868012C14D0B4B9019B6B602A6882
:105140000021D15402B070BD9AB10B4819F0ABFCEC
:10515000002201A928460DF04DFF2860019BAB609D
:10516000E7E733780370E8E7224631461DF0E3FEB7
:10517000E3E7541A0194DCE7BC9702082DE9F043F9
:10518000FFB00746002484708DF8004003AB019304
:105190007D494FF000030A460B3901A8FFF704F8D8
:1051A0008DF81C400AAB089309948DF82840012320
:1051B0008DF8383011AB0F9374494FF000030A4655
:1051C0000A390FA8FEF7F0FF4FF004088DF854805D
:1051D00018AB169317948DF8604002268DF8706016
:1051E0001FAB1D936A494FF000030A460B391DA8F7
:1051F000FEF7DAFF0A238DF88C3026AB2493259432
:105200008DF8984003258DF8A8502DAB2B9361495C
:105210004FF000030A460A392BA8FEF7C5FF0C23FE
:105220008DF8C43034AB329333948DF8D0408DF880
:10523000E0803BAB399358494FF000030A460939E7
:1052400039A8FEF7B1FF4FF007088DF8FC8042AB9C
:10525000409341948DF808414FF005098DF818915D
:1052600049AB47934D494FF000030A46093947A817
:10527000FEF79AFF06238DF8343150AA4E924F94D0
:105280008DF840418DF8503157AB559344494FF05C
:1052900000030A460A3955A8FEF786FF8DF86C917F
:1052A0005EAB5C935D948DF878418DF8888165AB39
:1052B00063933C494FF000030A460B3963A8FEF79D
:1052C00073FF8DF8A4616CAB6A936B948DF8B04159
:1052D00008238DF8C03173AB719333494FF000034D
:1052E0000A460C3971A8FEF75FFF8DF8DC517AABE6
:1052F000789379948DF8E8417C60BC60FC604FF451
:10530000FC7003F0A8FA0646786000F5FC73FB60B9
:1053100000F10C056C46D6B1237805F80C3C45F835
:10532000085C6168A2684FF000030A44301DFFF773
:10533000F7FE237F2B7406F128036B61216A626AF2
:105340004FF000030A4406F12000FFF7E9FE38346D
:10535000383638357EAB9C42DDD1BE601C466E4689
:1053600008E068682C3CA04201D003F06DFA2C469E
:10537000B5421BD0A4F13805286AA4F11003984265
:10538000EFD003F061FAECE757AD020862AD020816
:105390006FAD02087AAD020885AD020891AD020832
:1053A0009EAD0208ABAD0208B8AD020800248DF82E
:1053B000004003AB019390494FF000030A460B39BC
:1053C00001A8FEF7F1FE8DF81C400AAB0893099482
:1053D0008DF8284001238DF8383011AB0F938749A1
:1053E0004FF000030A4608390FA8FEF7DDFE082338
:1053F0008DF8543018AB169317948DF86040022343
:105400008DF870301FAB1D937D494FF000030A46A5
:105410000D391DA8FEF7C8FE0D238DF88C3026AB84
:10542000249325948DF8984003238DF8A8302DAB54
:105430002B9374494FF000030A460A392BA8FEF754
:10544000B3FE0C238DF8C43034AB329333948DF813
:10545000D0403C617C61BC61E02003F0FCF9064671
:10546000386100F1E003BB6100F10C056C460DF101
:10547000E008D6B1237805F80C3C45F8085C616873
:10548000A2684FF000030A44301DFFF749FE237F56
:105490002B7406F128036B61216A626A4FF00003E6
:1054A0000A4406F12000FFF73BFE38343836383521
:1054B0004445DED17E6138AC6E4608E068682C3C1D
:1054C000A04201D003F0C0F92C46B54209D0A4F1A6
:1054D0003805286AA4F110039842EFD003F0B4F91C
:1054E000ECE700248DF8004003AB019346494FF0F0
:1054F00000030A460A3901A8FEF756FE04238DF878
:105500001C300AAB089309948DF8284001238DF8CC
:10551000383011AB0F933D494FF000030A4607396D
:105520000FA8FEF741FE09238DF8543018AB1693EF
:1055300017948DF8604002238DF870301FAB1D93D7
:1055400033494FF000030A460A391DA8FEF72CFE26
:105550000B238DF88C3026AB249325948DF898403E
:10556000FC613C627C62A82003F075F90646F86194
:1055700000F1A8037B6200F10C056C460DF1A80850
:10558000D6B1237805F80C3C45F8085C6168A26840
:105590004FF000030A44301DFFF7C2FD237F2B7438
:1055A00006F128036B61216A626A4FF000030A4426
:1055B00006F12000FFF7B4FD38343836383544455D
:1055C000DED13E622AAC6E4608E068682C3CA04200
:1055D00001D003F039F92C46B54209D0A4F13805C1
:1055E000286AA4F110039842EFD003F02DF9ECE7FC
:1055F00038467FB0BDE8F08357AD0208C4AD02085D
:10560000D5AD02087AAD020862AD0208DFAD02082E
:10561000EAAD0208F8B54D4B00261E70F0225A8004
:105620004FF4A0729A804A4D03F1080295E80300F6
:1056300082E8030003F1100205F1080103C982E8C2
:10564000030083F898664348FBF78EFE424C2046E1
:10565000FFF794FD414A4249204603F0F7F8414CD8
:1056600026756675A67504F1180710350FCD0FC79E
:1056700095E80F0087E80F00A66326646664A664B9
:10568000E66426656665A665E6650823E363202073
:1056900003F0E1F80646A063E46B013C640800EB0C
:1056A00084052B1D9D4205D24FF4007003F0D3F802
:1056B00046F824002B48C56456F82430436403F5AB
:1056C00000728264C56543658265036403650024D6
:1056D00080F8604080F87840204A234903F0B6F80B
:1056E000224B0A221A8041F65831598020495960CC
:1056F0001C725A725A8107221A7301225A730821A6
:1057000099730B21D97309211974022159749C745E
:105710009C829A751C771C845C849C84DC841C8528
:105720005C859C85DC851C8683F8324083F8334099
:1057300083F83440DC861C8783F83A4083F83B408A
:105740000022DA631A640B4B1C70F8BD987B0120B1
:1057500074970208682101200083012000000020C6
:10576000993900083882012071390008BC82012073
:105770003C2101205021012038B5094BA3F590753B
:1057800002E02346AC4209D0A3F1180453F8180CE8
:10579000103B9842F5D003F057F8F2E738BD00BF50
:1057A00048840120F0B589B005461478204AA2FB50
:1057B0000432D20802EB4203A4EB8304E4B204AB4C
:1057C00002933032012102A80DF082FC194A6100D7
:1057D0000B1952F833300C4402EBC40252680092A9
:1057E0000022114602A80DF01DFE05F108012960F6
:1057F000034653F8082B9A4211D02A608268AA60A7
:1058000042686A600360002343600372029804AB3D
:10581000984201D003F018F8284609B0F0BD1F687F
:105820005E689C68DA68AF60EE602C616A61E7E7E9
:10583000ABAAAAAA288301202DE9F04F89B00790CE
:1058400004911468D2F804A093680093D2F80CB0C5
:1058500004F110069E422FD0CDF814B0009B0393A4
:10586000CDF804A0049DAF686B692969C91B0911B3
:10587000ABEB03029210501EA4EB0A02121102EBD2
:1058800040120A440692686A2A46AD69D269AA1A89
:105890001211C31A9B10013B02EB43131944069BE0
:1058A000B3EB510F80F09D80A74274D0002B72DDC6
:1058B0009946DDF8148045E00BF104030593DBF80D
:1058C000046006F5007303930196CBE7009D214623
:1058D00045E03A46334649E05042014418441DF041
:1058E00035FB4BE0002B14DD1C46B8BF03F11F0451
:1058F00064110BEB840BDBF800A0A3EB44140AEB60
:1059000004147F1B1F2F08D8C5EB057306EB031685
:1059100013E0DC436FEA5414EBE7002F37DD3E461B
:10592000B8BF07F11F06761108EB8608D8F80030DB
:105930000193A7EB461703EB0716A9EB0509B9F18D
:10594000000F28DDA4EB0A03019AB71A3F111B11BF
:105950000093BBD15BF8041C01F500712025002FDA
:10596000B7D158F8043C03F5007320224D45A8BF79
:105970004D469542A8BF15462A01ADD1009B5B1B41
:105980001F2BAFD8C5EB057304EB0314B9E7FE4337
:105990006FEA5616C8E704998B680A69103A934271
:1059A00011D010338B60049A13469068D2681C693A
:1059B0005969831A069E06EB23131F2B00F29B8066
:1059C00000EB0613A7E0049CE06802F03DFF63696A
:1059D0001A1D62615B68E36003F500722261A360D7
:1059E000E1E7B5426FD0059BA0EB03094FEAA90997
:1059F00009F1FF3902EB4919039B9B1B09EB2319A2
:105A0000B9F1000F5FDDDDF804803EE01A46314653
:105A100020461DF09BFA49E0002F1BDD3E46B8BF33
:105A200007F11F067611059B03EB86030593D3F858
:105A3000008008F500730393A7EB461708EB0716E1
:105A4000029BA3EB0A0305EB23131F2B06D8019B34
:105A50001C4415E0FE436FEA5616E4E7002B2EDDEA
:105A60001C46B8BF03F11F0464110BEB840BDBF879
:105A700000A00AF500720092A3EB44140AEB041490
:105A8000A9EB0509B9F1000F1DDD37460294039B10
:105A90009D1B2D11009B1B1B1B119D42A8BF1D466A
:105AA0004D45A8BF4D462B010193AFD1A7EB080789
:105AB00005EB27171F2FAFD8019B1E44C0E7DC431F
:105AC0006FEA5414D1E704998869CB69984202D0EF
:105AD0001038886167E702F0B7FE0498436A1A1F1E
